{
  "contractName": "__unstable__ERC20PrimaryAdmin",
  "abi": [
    {
      "constant": true,
      "inputs": [],
      "name": "name",
      "outputs": [
        {
          "name": "",
          "type": "string"
        }
      ],
      "payable": false,
      "stateMutability": "view",
      "type": "function"
    },
    {
      "constant": false,
      "inputs": [
        {
          "name": "spender",
          "type": "address"
        },
        {
          "name": "value",
          "type": "uint256"
        }
      ],
      "name": "approve",
      "outputs": [
        {
          "name": "",
          "type": "bool"
        }
      ],
      "payable": false,
      "stateMutability": "nonpayable",
      "type": "function"
    },
    {
      "constant": true,
      "inputs": [],
      "name": "totalSupply",
      "outputs": [
        {
          "name": "",
          "type": "uint256"
        }
      ],
      "payable": false,
      "stateMutability": "view",
      "type": "function"
    },
    {
      "constant": false,
      "inputs": [
        {
          "name": "recipient",
          "type": "address"
        }
      ],
      "name": "transferPrimary",
      "outputs": [],
      "payable": false,
      "stateMutability": "nonpayable",
      "type": "function"
    },
    {
      "constant": true,
      "inputs": [],
      "name": "decimals",
      "outputs": [
        {
          "name": "",
          "type": "uint8"
        }
      ],
      "payable": false,
      "stateMutability": "view",
      "type": "function"
    },
    {
      "constant": false,
      "inputs": [
        {
          "name": "spender",
          "type": "address"
        },
        {
          "name": "addedValue",
          "type": "uint256"
        }
      ],
      "name": "increaseAllowance",
      "outputs": [
        {
          "name": "",
          "type": "bool"
        }
      ],
      "payable": false,
      "stateMutability": "nonpayable",
      "type": "function"
    },
    {
      "constant": true,
      "inputs": [
        {
          "name": "account",
          "type": "address"
        }
      ],
      "name": "balanceOf",
      "outputs": [
        {
          "name": "",
          "type": "uint256"
        }
      ],
      "payable": false,
      "stateMutability": "view",
      "type": "function"
    },
    {
      "constant": true,
      "inputs": [],
      "name": "symbol",
      "outputs": [
        {
          "name": "",
          "type": "string"
        }
      ],
      "payable": false,
      "stateMutability": "view",
      "type": "function"
    },
    {
      "constant": false,
      "inputs": [
        {
          "name": "spender",
          "type": "address"
        },
        {
          "name": "subtractedValue",
          "type": "uint256"
        }
      ],
      "name": "decreaseAllowance",
      "outputs": [
        {
          "name": "",
          "type": "bool"
        }
      ],
      "payable": false,
      "stateMutability": "nonpayable",
      "type": "function"
    },
    {
      "constant": false,
      "inputs": [
        {
          "name": "recipient",
          "type": "address"
        },
        {
          "name": "amount",
          "type": "uint256"
        }
      ],
      "name": "transfer",
      "outputs": [
        {
          "name": "",
          "type": "bool"
        }
      ],
      "payable": false,
      "stateMutability": "nonpayable",
      "type": "function"
    },
    {
      "constant": true,
      "inputs": [],
      "name": "primary",
      "outputs": [
        {
          "name": "",
          "type": "address"
        }
      ],
      "payable": false,
      "stateMutability": "view",
      "type": "function"
    },
    {
      "inputs": [
        {
          "name": "name",
          "type": "string"
        },
        {
          "name": "symbol",
          "type": "string"
        },
        {
          "name": "decimals",
          "type": "uint8"
        }
      ],
      "payable": false,
      "stateMutability": "nonpayable",
      "type": "constructor"
    },
    {
      "anonymous": false,
      "inputs": [
        {
          "indexed": false,
          "name": "recipient",
          "type": "address"
        }
      ],
      "name": "PrimaryTransferred",
      "type": "event"
    },
    {
      "anonymous": false,
      "inputs": [
        {
          "indexed": true,
          "name": "from",
          "type": "address"
        },
        {
          "indexed": true,
          "name": "to",
          "type": "address"
        },
        {
          "indexed": false,
          "name": "value",
          "type": "uint256"
        }
      ],
      "name": "Transfer",
      "type": "event"
    },
    {
      "anonymous": false,
      "inputs": [
        {
          "indexed": true,
          "name": "owner",
          "type": "address"
        },
        {
          "indexed": true,
          "name": "spender",
          "type": "address"
        },
        {
          "indexed": false,
          "name": "value",
          "type": "uint256"
        }
      ],
      "name": "Approval",
      "type": "event"
    },
    {
      "constant": false,
      "inputs": [
        {
          "name": "account",
          "type": "address"
        },
        {
          "name": "amount",
          "type": "uint256"
        }
      ],
      "name": "mint",
      "outputs": [],
      "payable": false,
      "stateMutability": "nonpayable",
      "type": "function"
    },
    {
      "constant": true,
      "inputs": [
        {
          "name": "owner",
          "type": "address"
        },
        {
          "name": "spender",
          "type": "address"
        }
      ],
      "name": "allowance",
      "outputs": [
        {
          "name": "",
          "type": "uint256"
        }
      ],
      "payable": false,
      "stateMutability": "view",
      "type": "function"
    },
    {
      "constant": false,
      "inputs": [
        {
          "name": "sender",
          "type": "address"
        },
        {
          "name": "recipient",
          "type": "address"
        },
        {
          "name": "amount",
          "type": "uint256"
        }
      ],
      "name": "transferFrom",
      "outputs": [
        {
          "name": "",
          "type": "bool"
        }
      ],
      "payable": false,
      "stateMutability": "nonpayable",
      "type": "function"
    }
  ],
  "bytecode": "0x60806040523480156200001157600080fd5b5060405162001af938038062001af9833981018060405260608110156200003757600080fd5b8101908080516401000000008111156200005057600080fd5b828101905060208101848111156200006757600080fd5b81518560018202830111640100000000821117156200008557600080fd5b50509291906020018051640100000000811115620000a257600080fd5b82810190506020810184811115620000b957600080fd5b8151856001820283011164010000000082111715620000d757600080fd5b50509291906020018051906020019092919050505082828282600390805190602001906200010792919062000225565b5081600490805190602001906200012092919062000225565b5080600560006101000a81548160ff021916908360ff1602179055505050506200014f6200021d60201b60201c565b600560016101000a81548173ffffffffffffffffffffffffffffffffffffffff021916908373ffffffffffffffffffffffffffffffffffffffff1602179055507f4101e71e974f68df5e9730cc223280b41654676bbb052cdcc735c3337e64d2d9600560019054906101000a900473ffffffffffffffffffffffffffffffffffffffff16604051808273ffffffffffffffffffffffffffffffffffffffff1673ffffffffffffffffffffffffffffffffffffffff16815260200191505060405180910390a1505050620002d4565b600033905090565b828054600181600116156101000203166002900490600052602060002090601f016020900481019282601f106200026857805160ff191683800117855562000299565b8280016001018555821562000299579182015b82811115620002985782518255916020019190600101906200027b565b5b509050620002a89190620002ac565b5090565b620002d191905b80821115620002cd576000816000905550600101620002b3565b5090565b90565b61181580620002e46000396000f3fe608060405234801561001057600080fd5b50600436106100ea5760003560e01c806340c10f191161008c578063a457c2d711610066578063a457c2d714610473578063a9059cbb146104d9578063c6dbdf611461053f578063dd62ed3e14610589576100ea565b806340c10f191461034a57806370a082311461039857806395d89b41146103f0576100ea565b80632348238c116100c85780632348238c146101f657806323b872dd1461023a578063313ce567146102c057806339509351146102e4576100ea565b806306fdde03146100ef578063095ea7b31461017257806318160ddd146101d8575b600080fd5b6100f7610601565b6040518080602001828103825283818151815260200191508051906020019080838360005b8381101561013757808201518184015260208101905061011c565b50505050905090810190601f1680156101645780820380516001836020036101000a031916815260200191505b509250505060405180910390f35b6101be6004803603604081101561018857600080fd5b81019080803573ffffffffffffffffffffffffffffffffffffffff169060200190929190803590602001909291905050506106a3565b604051808215151515815260200191505060405180910390f35b6101e06106c1565b6040518082815260200191505060405180910390f35b6102386004803603602081101561020c57600080fd5b81019080803573ffffffffffffffffffffffffffffffffffffffff1690602001909291905050506106cb565b005b6102a66004803603606081101561025057600080fd5b81019080803573ffffffffffffffffffffffffffffffffffffffff169060200190929190803573ffffffffffffffffffffffffffffffffffffffff169060200190929190803590602001909291905050506108c7565b604051808215151515815260200191505060405180910390f35b6102c861092d565b604051808260ff1660ff16815260200191505060405180910390f35b610330600480360360408110156102fa57600080fd5b81019080803573ffffffffffffffffffffffffffffffffffffffff16906020019092919080359060200190929190505050610944565b604051808215151515815260200191505060405180910390f35b6103966004803603604081101561036057600080fd5b81019080803573ffffffffffffffffffffffffffffffffffffffff169060200190929190803590602001909291905050506109f7565b005b6103da600480360360208110156103ae57600080fd5b81019080803573ffffffffffffffffffffffffffffffffffffffff169060200190929190505050610ab2565b6040518082815260200191505060405180910390f35b6103f8610afa565b6040518080602001828103825283818151815260200191508051906020019080838360005b8381101561043857808201518184015260208101905061041d565b50505050905090810190601f1680156104655780820380516001836020036101000a031916815260200191505b509250505060405180910390f35b6104bf6004803603604081101561048957600080fd5b81019080803573ffffffffffffffffffffffffffffffffffffffff16906020019092919080359060200190929190505050610b9c565b604051808215151515815260200191505060405180910390f35b610525600480360360408110156104ef57600080fd5b81019080803573ffffffffffffffffffffffffffffffffffffffff16906020019092919080359060200190929190505050610c69565b604051808215151515815260200191505060405180910390f35b610547610c87565b604051808273ffffffffffffffffffffffffffffffffffffffff1673ffffffffffffffffffffffffffffffffffffffff16815260200191505060405180910390f35b6105eb6004803603604081101561059f57600080fd5b81019080803573ffffffffffffffffffffffffffffffffffffffff169060200190929190803573ffffffffffffffffffffffffffffffffffffffff169060200190929190505050610cb1565b6040518082815260200191505060405180910390f35b606060038054600181600116156101000203166002900480601f0160208091040260200160405190810160405280929190818152602001828054600181600116156101000203166002900480156106995780601f1061066e57610100808354040283529160200191610699565b820191906000526020600020905b81548152906001019060200180831161067c57829003601f168201915b5050505050905090565b60006106b76106b0610d29565b8484610d31565b6001905092915050565b6000600254905090565b600560019054906101000a900473ffffffffffffffffffffffffffffffffffffffff1673ffffffffffffffffffffffffffffffffffffffff1661070c610d29565b73ffffffffffffffffffffffffffffffffffffffff1614610778576040517f08c379a000000000000000000000000000000000000000000000000000000000815260040180806020018281038252602c815260200180611775602c913960400191505060405180910390fd5b600073ffffffffffffffffffffffffffffffffffffffff168173ffffffffffffffffffffffffffffffffffffffff1614156107fe576040517f08c379a000000000000000000000000000000000000000000000000000000000815260040180806020018281038252602a815260200180611726602a913960400191505060405180910390fd5b80600560016101000a81548173ffffffffffffffffffffffffffffffffffffffff021916908373ffffffffffffffffffffffffffffffffffffffff1602179055507f4101e71e974f68df5e9730cc223280b41654676bbb052cdcc735c3337e64d2d9600560019054906101000a900473ffffffffffffffffffffffffffffffffffffffff16604051808273ffffffffffffffffffffffffffffffffffffffff1673ffffffffffffffffffffffffffffffffffffffff16815260200191505060405180910390a150565b60006108d1610c87565b73ffffffffffffffffffffffffffffffffffffffff168373ffffffffffffffffffffffffffffffffffffffff1614156109185761090f848484610d82565b60019050610926565b610923848484611038565b90505b9392505050565b6000600560009054906101000a900460ff16905090565b60006109ed610951610d29565b846109e88560016000610962610d29565b73ffffffffffffffffffffffffffffffffffffffff1673ffffffffffffffffffffffffffffffffffffffff16815260200190815260200160002060008973ffffffffffffffffffffffffffffffffffffffff1673ffffffffffffffffffffffffffffffffffffffff1681526020019081526020016000205461111190919063ffffffff16565b610d31565b6001905092915050565b600560019054906101000a900473ffffffffffffffffffffffffffffffffffffffff1673ffffffffffffffffffffffffffffffffffffffff16610a38610d29565b73ffffffffffffffffffffffffffffffffffffffff1614610aa4576040517f08c379a000000000000000000000000000000000000000000000000000000000815260040180806020018281038252602c815260200180611775602c913960400191505060405180910390fd5b610aae8282611199565b5050565b60008060008373ffffffffffffffffffffffffffffffffffffffff1673ffffffffffffffffffffffffffffffffffffffff168152602001908152602001600020549050919050565b606060048054600181600116156101000203166002900480601f016020809104026020016040519081016040528092919081815260200182805460018160011615610100020316600290048015610b925780601f10610b6757610100808354040283529160200191610b92565b820191906000526020600020905b815481529060010190602001808311610b7557829003601f168201915b5050505050905090565b6000610c5f610ba9610d29565b84610c5a856040518060600160405280602581526020016117c56025913960016000610bd3610d29565b73ffffffffffffffffffffffffffffffffffffffff1673ffffffffffffffffffffffffffffffffffffffff16815260200190815260200160002060008a73ffffffffffffffffffffffffffffffffffffffff1673ffffffffffffffffffffffffffffffffffffffff168152602001908152602001600020546113549092919063ffffffff16565b610d31565b6001905092915050565b6000610c7d610c76610d29565b8484610d82565b6001905092915050565b6000600560019054906101000a900473ffffffffffffffffffffffffffffffffffffffff16905090565b6000610cbb610c87565b73ffffffffffffffffffffffffffffffffffffffff168273ffffffffffffffffffffffffffffffffffffffff161415610d16577fffffffffffffffffffffffffffffffffffffffffffffffffffffffffffffffff9050610d23565b610d208383611414565b90505b92915050565b600033905090565b610d39610c87565b73ffffffffffffffffffffffffffffffffffffffff168273ffffffffffffffffffffffffffffffffffffffff161415610d7157610d7d565b610d7c83838361149b565b5b505050565b600073ffffffffffffffffffffffffffffffffffffffff168373ffffffffffffffffffffffffffffffffffffffff161415610e08576040517f08c379a00000000000000000000000000000000000000000000000000000000081526004018080602001828103825260258152602001806117506025913960400191505060405180910390fd5b600073ffffffffffffffffffffffffffffffffffffffff168273ffffffffffffffffffffffffffffffffffffffff161415610e8e576040517f08c379a00000000000000000000000000000000000000000000000000000000081526004018080602001828103825260238152602001806116936023913960400191505060405180910390fd5b610ef9816040518060600160405280602681526020016116d8602691396000808773ffffffffffffffffffffffffffffffffffffffff1673ffffffffffffffffffffffffffffffffffffffff168152602001908152602001600020546113549092919063ffffffff16565b6000808573ffffffffffffffffffffffffffffffffffffffff1673ffffffffffffffffffffffffffffffffffffffff16815260200190815260200160002081905550610f8c816000808573ffffffffffffffffffffffffffffffffffffffff1673ffffffffffffffffffffffffffffffffffffffff1681526020019081526020016000205461111190919063ffffffff16565b6000808473ffffffffffffffffffffffffffffffffffffffff1673ffffffffffffffffffffffffffffffffffffffff168152602001908152602001600020819055508173ffffffffffffffffffffffffffffffffffffffff168373ffffffffffffffffffffffffffffffffffffffff167fddf252ad1be2c89b69c2b068fc378daa952ba7f163c4a11628f55a4df523b3ef836040518082815260200191505060405180910390a3505050565b6000611045848484610d82565b61110684611051610d29565b611101856040518060600160405280602881526020016116fe60289139600160008b73ffffffffffffffffffffffffffffffffffffffff1673ffffffffffffffffffffffffffffffffffffffff16815260200190815260200160002060006110b7610d29565b73ffffffffffffffffffffffffffffffffffffffff1673ffffffffffffffffffffffffffffffffffffffff168152602001908152602001600020546113549092919063ffffffff16565b610d31565b600190509392505050565b60008082840190508381101561118f576040517f08c379a000000000000000000000000000000000000000000000000000000000815260040180806020018281038252601b8152602001807f536166654d6174683a206164646974696f6e206f766572666c6f77000000000081525060200191505060405180910390fd5b8091505092915050565b600073ffffffffffffffffffffffffffffffffffffffff168273ffffffffffffffffffffffffffffffffffffffff16141561123c576040517f08c379a000000000000000000000000000000000000000000000000000000000815260040180806020018281038252601f8152602001807f45524332303a206d696e7420746f20746865207a65726f20616464726573730081525060200191505060405180910390fd5b6112518160025461111190919063ffffffff16565b6002819055506112a8816000808573ffffffffffffffffffffffffffffffffffffffff1673ffffffffffffffffffffffffffffffffffffffff1681526020019081526020016000205461111190919063ffffffff16565b6000808473ffffffffffffffffffffffffffffffffffffffff1673ffffffffffffffffffffffffffffffffffffffff168152602001908152602001600020819055508173ffffffffffffffffffffffffffffffffffffffff16600073ffffffffffffffffffffffffffffffffffffffff167fddf252ad1be2c89b69c2b068fc378daa952ba7f163c4a11628f55a4df523b3ef836040518082815260200191505060405180910390a35050565b6000838311158290611401576040517f08c379a00000000000000000000000000000000000000000000000000000000081526004018080602001828103825283818151815260200191508051906020019080838360005b838110156113c65780820151818401526020810190506113ab565b50505050905090810190601f1680156113f35780820380516001836020036101000a031916815260200191505b509250505060405180910390fd5b5060008385039050809150509392505050565b6000600160008473ffffffffffffffffffffffffffffffffffffffff1673ffffffffffffffffffffffffffffffffffffffff16815260200190815260200160002060008373ffffffffffffffffffffffffffffffffffffffff1673ffffffffffffffffffffffffffffffffffffffff16815260200190815260200160002054905092915050565b600073ffffffffffffffffffffffffffffffffffffffff168373ffffffffffffffffffffffffffffffffffffffff161415611521576040517f08c379a00000000000000000000000000000000000000000000000000000000081526004018080602001828103825260248152602001806117a16024913960400191505060405180910390fd5b600073ffffffffffffffffffffffffffffffffffffffff168273ffffffffffffffffffffffffffffffffffffffff1614156115a7576040517f08c379a00000000000000000000000000000000000000000000000000000000081526004018080602001828103825260228152602001806116b66022913960400191505060405180910390fd5b80600160008573ffffffffffffffffffffffffffffffffffffffff1673ffffffffffffffffffffffffffffffffffffffff16815260200190815260200160002060008473ffffffffffffffffffffffffffffffffffffffff1673ffffffffffffffffffffffffffffffffffffffff168152602001908152602001600020819055508173ffffffffffffffffffffffffffffffffffffffff168373ffffffffffffffffffffffffffffffffffffffff167f8c5be1e5ebec7d5bd14f71427d1e84f3dd0314c0f7b2291e5b200ac8c7c3b925836040518082815260200191505060405180910390a350505056fe45524332303a207472616e7366657220746f20746865207a65726f206164647265737345524332303a20617070726f766520746f20746865207a65726f206164647265737345524332303a207472616e7366657220616d6f756e7420657863656564732062616c616e636545524332303a207472616e7366657220616d6f756e74206578636565647320616c6c6f77616e63655365636f6e646172793a206e6577207072696d61727920697320746865207a65726f206164647265737345524332303a207472616e736665722066726f6d20746865207a65726f20616464726573735365636f6e646172793a2063616c6c6572206973206e6f7420746865207072696d617279206163636f756e7445524332303a20617070726f76652066726f6d20746865207a65726f206164647265737345524332303a2064656372656173656420616c6c6f77616e63652062656c6f77207a65726fa165627a7a723058200c6732e23576b44b7f67bc719945972b6bce830ac57a148f48a7381600b9047b0029",
  "source": "pragma solidity ^0.5.0;\n\nimport \"./GSNBouncerBase.sol\";\nimport \"../../math/SafeMath.sol\";\nimport \"../../ownership/Secondary.sol\";\nimport \"../../token/ERC20/SafeERC20.sol\";\nimport \"../../token/ERC20/ERC20.sol\";\nimport \"../../token/ERC20/ERC20Detailed.sol\";\n\ncontract GSNBouncerERC20Fee is GSNBouncerBase {\n    using SafeERC20 for __unstable__ERC20PrimaryAdmin;\n    using SafeMath for uint256;\n\n    enum GSNBouncerERC20FeeErrorCodes {\n        INSUFFICIENT_BALANCE\n    }\n\n    __unstable__ERC20PrimaryAdmin private _token;\n\n    constructor(string memory name, string memory symbol, uint8 decimals) public {\n        _token = new __unstable__ERC20PrimaryAdmin(name, symbol, decimals);\n    }\n\n    function token() public view returns (IERC20) {\n        return IERC20(_token);\n    }\n\n    function _mint(address account, uint256 amount) internal {\n        _token.mint(account, amount);\n    }\n\n    function acceptRelayedCall(\n        address,\n        address from,\n        bytes calldata,\n        uint256 transactionFee,\n        uint256 gasPrice,\n        uint256,\n        uint256,\n        bytes calldata,\n        uint256 maxPossibleCharge\n    )\n        external\n        view\n        returns (uint256, bytes memory)\n    {\n        if (_token.balanceOf(from) < maxPossibleCharge) {\n            return _rejectRelayedCall(uint256(GSNBouncerERC20FeeErrorCodes.INSUFFICIENT_BALANCE));\n        }\n\n        return _approveRelayedCall(abi.encode(from, maxPossibleCharge, transactionFee, gasPrice));\n    }\n\n    function _preRelayedCall(bytes memory context) internal returns (bytes32) {\n        (address from, uint256 maxPossibleCharge) = abi.decode(context, (address, uint256));\n\n        // The maximum token charge is pre-charged from the user\n        _token.safeTransferFrom(from, address(this), maxPossibleCharge);\n    }\n\n    function _postRelayedCall(bytes memory context, bool, uint256 actualCharge, bytes32) internal {\n        (address from, uint256 maxPossibleCharge, uint256 transactionFee, uint256 gasPrice) =\n            abi.decode(context, (address, uint256, uint256, uint256));\n\n        // actualCharge is an _estimated_ charge, which assumes postRelayedCall will use all available gas.\n        // This implementation's gas cost can be roughly estimated as 10k gas, for the two SSTORE operations in an\n        // ERC20 transfer.\n        uint256 overestimation = _computeCharge(POST_RELAYED_CALL_MAX_GAS.sub(10000), gasPrice, transactionFee);\n        actualCharge = actualCharge.sub(overestimation);\n\n        // After the relayed call has been executed and the actual charge estimated, the excess pre-charge is returned\n        _token.safeTransfer(from, maxPossibleCharge.sub(actualCharge));\n    }\n}\n\n/**\n * @title __unstable__ERC20PrimaryAdmin\n * @dev An ERC20 token owned by another contract, which has minting permissions and can use transferFrom to receive\n * anyone's tokens. This contract is an internal helper for GSNRecipientERC20Fee, and should not be used\n * outside of this context.\n */\n// solhint-disable-next-line contract-name-camelcase\ncontract __unstable__ERC20PrimaryAdmin is ERC20, ERC20Detailed, Secondary {\n    uint256 private constant UINT256_MAX = 2**256 - 1;\n\n    constructor(string memory name, string memory symbol, uint8 decimals) public ERC20Detailed(name, symbol, decimals) {\n        // solhint-disable-previous-line no-empty-blocks\n    }\n\n    // The primary account (GSNRecipientERC20Fee) can mint tokens\n    function mint(address account, uint256 amount) public onlyPrimary {\n        _mint(account, amount);\n    }\n\n    // The primary account has 'infinite' allowance for all token holders\n    function allowance(address owner, address spender) public view returns (uint256) {\n        if (spender == primary()) {\n            return UINT256_MAX;\n        } else {\n            return super.allowance(owner, spender);\n        }\n    }\n\n    // Allowance for the primary account cannot be changed (it is always 'infinite')\n    function _approve(address owner, address spender, uint256 value) internal {\n        if (spender == primary()) {\n            return;\n        } else {\n            super._approve(owner, spender, value);\n        }\n    }\n\n    function transferFrom(address sender, address recipient, uint256 amount) public returns (bool) {\n        if (recipient == primary()) {\n            _transfer(sender, recipient, amount);\n            return true;\n        } else {\n            return super.transferFrom(sender, recipient, amount);\n        }\n    }\n}\n",
  "sourcePath": "E:\\document\\blockchain\\myprojects\\simplevat\\contracts\\openzeppelin\\contracts\\GSN\\bouncers\\GSNBouncerERC20Fee.sol",
  "compiler": {
    "name": "solc",
    "version": "0.5.8+commit.23d335f2.Emscripten.clang"
  },
  "schemaVersion": "3.0.16",
  "updatedAt": "2019-10-02T05:35:29.961Z",
  "devdoc": {
    "details": "An ERC20 token owned by another contract, which has minting permissions and can use transferFrom to receive anyone's tokens. This contract is an internal helper for GSNRecipientERC20Fee, and should not be used outside of this context.",
    "methods": {
      "approve(address,uint256)": {
        "details": "See {IERC20-approve}.     * Requirements:     * - `spender` cannot be the zero address."
      },
      "balanceOf(address)": {
        "details": "See {IERC20-balanceOf}."
      },
      "decimals()": {
        "details": "Returns the number of decimals used to get its user representation. For example, if `decimals` equals `2`, a balance of `505` tokens should be displayed to a user as `5,05` (`505 / 10 ** 2`).     * Tokens usually opt for a value of 18, imitating the relationship between Ether and Wei.     * NOTE: This information is only used for _display_ purposes: it in no way affects any of the arithmetic of the contract, including {IERC20-balanceOf} and {IERC20-transfer}."
      },
      "decreaseAllowance(address,uint256)": {
        "details": "Atomically decreases the allowance granted to `spender` by the caller.     * This is an alternative to {approve} that can be used as a mitigation for problems described in {IERC20-approve}.     * Emits an {Approval} event indicating the updated allowance.     * Requirements:     * - `spender` cannot be the zero address. - `spender` must have allowance for the caller of at least `subtractedValue`."
      },
      "increaseAllowance(address,uint256)": {
        "details": "Atomically increases the allowance granted to `spender` by the caller.     * This is an alternative to {approve} that can be used as a mitigation for problems described in {IERC20-approve}.     * Emits an {Approval} event indicating the updated allowance.     * Requirements:     * - `spender` cannot be the zero address."
      },
      "name()": {
        "details": "Returns the name of the token."
      },
      "primary()": {
        "return": "the address of the primary."
      },
      "symbol()": {
        "details": "Returns the symbol of the token, usually a shorter version of the name."
      },
      "totalSupply()": {
        "details": "See {IERC20-totalSupply}."
      },
      "transfer(address,uint256)": {
        "details": "See {IERC20-transfer}.     * Requirements:     * - `recipient` cannot be the zero address. - the caller must have a balance of at least `amount`."
      },
      "transferPrimary(address)": {
        "details": "Transfers contract to a new primary.",
        "params": {
          "recipient": "The address of new primary."
        }
      }
    },
    "title": "__unstable__ERC20PrimaryAdmin"
  },
  "userdoc": {
    "methods": {}
  }
}