{
  "contractName": "AddressImpl",
  "abi": [
    {
      "constant": true,
      "inputs": [
        {
          "name": "account",
          "type": "address"
        }
      ],
      "name": "isContract",
      "outputs": [
        {
          "name": "",
          "type": "bool"
        }
      ],
      "payable": false,
      "stateMutability": "view",
      "type": "function"
    },
    {
      "constant": true,
      "inputs": [
        {
          "name": "account",
          "type": "address"
        }
      ],
      "name": "toPayable",
      "outputs": [
        {
          "name": "",
          "type": "address"
        }
      ],
      "payable": false,
      "stateMutability": "pure",
      "type": "function"
    }
  ],
  "bytecode": "0x608060405234801561001057600080fd5b506101c0806100206000396000f3fe608060405234801561001057600080fd5b50600436106100365760003560e01c8063162790551461003b57806351ecabd614610097575b600080fd5b61007d6004803603602081101561005157600080fd5b81019080803573ffffffffffffffffffffffffffffffffffffffff16906020019092919050505061011b565b604051808215151515815260200191505060405180910390f35b6100d9600480360360208110156100ad57600080fd5b81019080803573ffffffffffffffffffffffffffffffffffffffff16906020019092919050505061012d565b604051808273ffffffffffffffffffffffffffffffffffffffff1673ffffffffffffffffffffffffffffffffffffffff16815260200191505060405180910390f35b60006101268261013f565b9050919050565b60006101388261018a565b9050919050565b60008060007fc5d2460186f7233c927e7db2dcc703c0e500b653ca82273b7bfad8045d85a47060001b9050833f91506000801b82141580156101815750808214155b92505050919050565b600081905091905056fea165627a7a7230582011644de39d6c66b71697dc3b96420ac79ca3be68514588d37355541872133b470029",
  "source": "pragma solidity ^0.5.0;\n\nimport \"../utils/Address.sol\";\n\ncontract AddressImpl {\n    function isContract(address account) external view returns (bool) {\n        return Address.isContract(account);\n    }\n\n    function toPayable(address account) external pure returns (address payable) {\n        return Address.toPayable(account);\n    }\n}\n",
  "sourcePath": "E:/document/blockchain/myprojects/simplevat/contracts/openzeppelin/contracts/mocks/AddressImpl.sol",
  "compiler": {
    "name": "solc",
    "version": "0.5.8+commit.23d335f2.Emscripten.clang"
  },
  "schemaVersion": "3.0.16",
  "updatedAt": "2019-10-01T08:31:44.465Z",
  "devdoc": {
    "methods": {}
  },
  "userdoc": {
    "methods": {}
  }
}