{
  "contractName": "ERC20Metadata",
  "abi": [
    {
      "inputs": [
        {
          "name": "tokenURI_",
          "type": "string"
        }
      ],
      "payable": false,
      "stateMutability": "nonpayable",
      "type": "constructor"
    },
    {
      "constant": true,
      "inputs": [],
      "name": "tokenURI",
      "outputs": [
        {
          "name": "",
          "type": "string"
        }
      ],
      "payable": false,
      "stateMutability": "view",
      "type": "function"
    }
  ],
  "bytecode": "0x608060405234801561001057600080fd5b506040516102ea3803806102ea8339810180604052602081101561003357600080fd5b81019080805164010000000081111561004b57600080fd5b8281019050602081018481111561006157600080fd5b815185600182028301116401000000008211171561007e57600080fd5b50509291905050506100958161009b60201b60201c565b5061015a565b80600090805190602001906100b19291906100b5565b5050565b828054600181600116156101000203166002900490600052602060002090601f016020900481019282601f106100f657805160ff1916838001178555610124565b82800160010185558215610124579182015b82811115610123578251825591602001919060010190610108565b5b5090506101319190610135565b5090565b61015791905b8082111561015357600081600090555060010161013b565b5090565b90565b610181806101696000396000f3fe608060405234801561001057600080fd5b506004361061002b5760003560e01c80633c130d9014610030575b600080fd5b6100386100b3565b6040518080602001828103825283818151815260200191508051906020019080838360005b8381101561007857808201518184015260208101905061005d565b50505050905090810190601f1680156100a55780820380516001836020036101000a031916815260200191505b509250505060405180910390f35b606060008054600181600116156101000203166002900480601f01602080910402602001604051908101604052809291908181526020018280546001816001161561010002031660029004801561014b5780601f106101205761010080835404028352916020019161014b565b820191906000526020600020905b81548152906001019060200180831161012e57829003601f168201915b505050505090509056fea165627a7a7230582067fb206a7c0dcaa0e62376e0892a291fc5f0943d23d5555dbf5f454ed37a5a8e0029",
  "source": "pragma solidity ^0.5.0;\n\nimport \"../../token/ERC20/IERC20.sol\";\n\n/**\n * @title ERC-1047 Token Metadata\n * @dev See https://eips.ethereum.org/EIPS/eip-1046\n * @dev {tokenURI} must respond with a URI that implements https://eips.ethereum.org/EIPS/eip-1047\n */\ncontract ERC20Metadata {\n    string private _tokenURI;\n\n    constructor (string memory tokenURI_) public {\n        _setTokenURI(tokenURI_);\n    }\n\n    function tokenURI() external view returns (string memory) {\n        return _tokenURI;\n    }\n\n    function _setTokenURI(string memory tokenURI_) internal {\n        _tokenURI = tokenURI_;\n    }\n}\n",
  "sourcePath": "E:\\document\\blockchain\\myprojects\\simplevat\\contracts\\openzeppelin\\contracts\\drafts\\ERC1046\\ERC20Metadata.sol",
  "compiler": {
    "name": "solc",
    "version": "0.5.8+commit.23d335f2.Emscripten.clang"
  },
  "schemaVersion": "3.0.16",
  "updatedAt": "2019-10-02T05:35:30.164Z",
  "devdoc": {
    "details": "See https://eips.ethereum.org/EIPS/eip-1046{tokenURI} must respond with a URI that implements https://eips.ethereum.org/EIPS/eip-1047",
    "methods": {},
    "title": "ERC-1047 Token Metadata"
  },
  "userdoc": {
    "methods": {}
  }
}