{
  "contractName": "MainChain",
  "abi": [
    {
      "constant": false,
      "inputs": [],
      "name": "renounceMeFromBuyer",
      "outputs": [],
      "payable": false,
      "stateMutability": "nonpayable",
      "type": "function"
    },
    {
      "constant": true,
      "inputs": [
        {
          "name": "_udpc",
          "type": "uint256"
        }
      ],
      "name": "featchProductDesignMetaData",
      "outputs": [
        {
          "name": "name",
          "type": "string"
        },
        {
          "name": "description",
          "type": "string"
        },
        {
          "name": "notes",
          "type": "string"
        }
      ],
      "payable": false,
      "stateMutability": "view",
      "type": "function"
    },
    {
      "constant": true,
      "inputs": [
        {
          "name": "account",
          "type": "address"
        }
      ],
      "name": "isManufacturer",
      "outputs": [
        {
          "name": "",
          "type": "bool"
        }
      ],
      "payable": false,
      "stateMutability": "view",
      "type": "function"
    },
    {
      "constant": false,
      "inputs": [
        {
          "name": "_udpc",
          "type": "uint256"
        },
        {
          "name": "_description",
          "type": "string"
        },
        {
          "name": "_isPassed",
          "type": "bool"
        },
        {
          "name": "_notes",
          "type": "string"
        }
      ],
      "name": "addTestCase",
      "outputs": [],
      "payable": false,
      "stateMutability": "nonpayable",
      "type": "function"
    },
    {
      "constant": false,
      "inputs": [
        {
          "name": "recipient",
          "type": "address"
        }
      ],
      "name": "transferPrimary",
      "outputs": [],
      "payable": false,
      "stateMutability": "nonpayable",
      "type": "function"
    },
    {
      "constant": false,
      "inputs": [
        {
          "name": "_udpc",
          "type": "uint256"
        }
      ],
      "name": "approveProduct",
      "outputs": [],
      "payable": false,
      "stateMutability": "nonpayable",
      "type": "function"
    },
    {
      "constant": false,
      "inputs": [
        {
          "name": "_udpc",
          "type": "uint256"
        },
        {
          "name": "quantity",
          "type": "uint256"
        }
      ],
      "name": "manufacturProductsLoud",
      "outputs": [],
      "payable": false,
      "stateMutability": "nonpayable",
      "type": "function"
    },
    {
      "constant": true,
      "inputs": [
        {
          "name": "account",
          "type": "address"
        }
      ],
      "name": "isBuyer",
      "outputs": [
        {
          "name": "",
          "type": "bool"
        }
      ],
      "payable": false,
      "stateMutability": "view",
      "type": "function"
    },
    {
      "constant": true,
      "inputs": [
        {
          "name": "_pku",
          "type": "uint256"
        }
      ],
      "name": "fetchtaxHistory",
      "outputs": [
        {
          "name": "numberOfupdate",
          "type": "uint256"
        },
        {
          "name": "timeStamps",
          "type": "uint256[]"
        },
        {
          "name": "lastPaidTax",
          "type": "uint256[]"
        },
        {
          "name": "updaterAddresses",
          "type": "address[]"
        }
      ],
      "payable": false,
      "stateMutability": "view",
      "type": "function"
    },
    {
      "constant": false,
      "inputs": [],
      "name": "assignMeAsBuyer",
      "outputs": [],
      "payable": false,
      "stateMutability": "nonpayable",
      "type": "function"
    },
    {
      "constant": false,
      "inputs": [],
      "name": "unpause",
      "outputs": [],
      "payable": false,
      "stateMutability": "nonpayable",
      "type": "function"
    },
    {
      "constant": true,
      "inputs": [
        {
          "name": "_udpc",
          "type": "uint256"
        },
        {
          "name": "_testIndex",
          "type": "uint256"
        }
      ],
      "name": "featchProductDesignTestCases",
      "outputs": [
        {
          "name": "description",
          "type": "string"
        },
        {
          "name": "isPassed",
          "type": "bool"
        },
        {
          "name": "notes",
          "type": "string"
        }
      ],
      "payable": false,
      "stateMutability": "view",
      "type": "function"
    },
    {
      "constant": false,
      "inputs": [
        {
          "name": "_udpc",
          "type": "uint256"
        },
        {
          "name": "_description",
          "type": "string"
        },
        {
          "name": "_isPassed",
          "type": "bool"
        },
        {
          "name": "_notes",
          "type": "string"
        }
      ],
      "name": "addTestCaseByRegulaor",
      "outputs": [],
      "payable": false,
      "stateMutability": "nonpayable",
      "type": "function"
    },
    {
      "constant": true,
      "inputs": [
        {
          "name": "account",
          "type": "address"
        }
      ],
      "name": "isPauser",
      "outputs": [
        {
          "name": "",
          "type": "bool"
        }
      ],
      "payable": false,
      "stateMutability": "view",
      "type": "function"
    },
    {
      "constant": false,
      "inputs": [],
      "name": "assignMeAsManufacturer",
      "outputs": [],
      "payable": false,
      "stateMutability": "nonpayable",
      "type": "function"
    },
    {
      "constant": false,
      "inputs": [
        {
          "name": "_udpc",
          "type": "uint256"
        }
      ],
      "name": "purchaseProductDesign",
      "outputs": [],
      "payable": true,
      "stateMutability": "payable",
      "type": "function"
    },
    {
      "constant": true,
      "inputs": [],
      "name": "paused",
      "outputs": [
        {
          "name": "",
          "type": "bool"
        }
      ],
      "payable": false,
      "stateMutability": "view",
      "type": "function"
    },
    {
      "constant": true,
      "inputs": [],
      "name": "amIDesigner",
      "outputs": [
        {
          "name": "",
          "type": "bool"
        }
      ],
      "payable": false,
      "stateMutability": "view",
      "type": "function"
    },
    {
      "constant": false,
      "inputs": [
        {
          "name": "_slu",
          "type": "uint256"
        }
      ],
      "name": "buyProductsLoud",
      "outputs": [],
      "payable": true,
      "stateMutability": "payable",
      "type": "function"
    },
    {
      "constant": false,
      "inputs": [],
      "name": "renouncePauser",
      "outputs": [],
      "payable": false,
      "stateMutability": "nonpayable",
      "type": "function"
    },
    {
      "constant": false,
      "inputs": [],
      "name": "renounceOwnership",
      "outputs": [],
      "payable": false,
      "stateMutability": "nonpayable",
      "type": "function"
    },
    {
      "constant": false,
      "inputs": [
        {
          "name": "_udpc",
          "type": "uint256"
        },
        {
          "name": "_price",
          "type": "uint256"
        }
      ],
      "name": "upForSale",
      "outputs": [],
      "payable": false,
      "stateMutability": "nonpayable",
      "type": "function"
    },
    {
      "constant": true,
      "inputs": [
        {
          "name": "_udpc",
          "type": "uint256"
        }
      ],
      "name": "fetchProductDesignData",
      "outputs": [
        {
          "name": "currentOwner",
          "type": "address"
        },
        {
          "name": "designerId",
          "type": "address"
        },
        {
          "name": "designerName",
          "type": "string"
        },
        {
          "name": "ProductName",
          "type": "string"
        },
        {
          "name": "currentState",
          "type": "string"
        },
        {
          "name": "forSale",
          "type": "bool"
        },
        {
          "name": "salePrice",
          "type": "uint256"
        },
        {
          "name": "numberOfTests",
          "type": "uint256"
        },
        {
          "name": "numberOfManufacturers",
          "type": "uint256"
        }
      ],
      "payable": false,
      "stateMutability": "view",
      "type": "function"
    },
    {
      "constant": true,
      "inputs": [
        {
          "name": "_pku",
          "type": "uint256"
        }
      ],
      "name": "fetchProductItemData",
      "outputs": [
        {
          "name": "_udpc",
          "type": "uint256"
        },
        {
          "name": "_slu",
          "type": "uint256"
        },
        {
          "name": "state",
          "type": "string"
        },
        {
          "name": "currentOwner",
          "type": "address"
        },
        {
          "name": "manufacturerId",
          "type": "address"
        },
        {
          "name": "price",
          "type": "uint256"
        },
        {
          "name": "packingTimeStamp",
          "type": "uint256"
        },
        {
          "name": "numberOfTaxUpdate",
          "type": "uint256"
        }
      ],
      "payable": false,
      "stateMutability": "view",
      "type": "function"
    },
    {
      "constant": false,
      "inputs": [
        {
          "name": "account",
          "type": "address"
        }
      ],
      "name": "addPauser",
      "outputs": [],
      "payable": false,
      "stateMutability": "nonpayable",
      "type": "function"
    },
    {
      "constant": false,
      "inputs": [],
      "name": "pause",
      "outputs": [],
      "payable": false,
      "stateMutability": "nonpayable",
      "type": "function"
    },
    {
      "constant": true,
      "inputs": [],
      "name": "owner",
      "outputs": [
        {
          "name": "",
          "type": "address"
        }
      ],
      "payable": false,
      "stateMutability": "view",
      "type": "function"
    },
    {
      "constant": true,
      "inputs": [],
      "name": "isOwner",
      "outputs": [
        {
          "name": "",
          "type": "bool"
        }
      ],
      "payable": false,
      "stateMutability": "view",
      "type": "function"
    },
    {
      "constant": false,
      "inputs": [],
      "name": "renounceMeFromSeller",
      "outputs": [],
      "payable": false,
      "stateMutability": "nonpayable",
      "type": "function"
    },
    {
      "constant": false,
      "inputs": [],
      "name": "renounceMeFromManufacturer",
      "outputs": [],
      "payable": false,
      "stateMutability": "nonpayable",
      "type": "function"
    },
    {
      "constant": false,
      "inputs": [],
      "name": "assignMeAsDesigner",
      "outputs": [],
      "payable": false,
      "stateMutability": "nonpayable",
      "type": "function"
    },
    {
      "constant": true,
      "inputs": [
        {
          "name": "account",
          "type": "address"
        }
      ],
      "name": "isDesigner",
      "outputs": [
        {
          "name": "",
          "type": "bool"
        }
      ],
      "payable": false,
      "stateMutability": "view",
      "type": "function"
    },
    {
      "constant": false,
      "inputs": [
        {
          "name": "_slu",
          "type": "uint256"
        },
        {
          "name": "_paidTax",
          "type": "uint256"
        }
      ],
      "name": "updateTaxHistory",
      "outputs": [],
      "payable": false,
      "stateMutability": "nonpayable",
      "type": "function"
    },
    {
      "constant": true,
      "inputs": [
        {
          "name": "_slu",
          "type": "uint256"
        }
      ],
      "name": "fetchProductLoaudData",
      "outputs": [
        {
          "name": "quantity",
          "type": "uint256"
        },
        {
          "name": "_udpc",
          "type": "uint256"
        },
        {
          "name": "state",
          "type": "string"
        },
        {
          "name": "currentOwner",
          "type": "address"
        },
        {
          "name": "manufacturerId",
          "type": "address"
        },
        {
          "name": "price",
          "type": "uint256"
        }
      ],
      "payable": false,
      "stateMutability": "view",
      "type": "function"
    },
    {
      "constant": false,
      "inputs": [],
      "name": "assignMeAsSeller",
      "outputs": [],
      "payable": false,
      "stateMutability": "nonpayable",
      "type": "function"
    },
    {
      "constant": true,
      "inputs": [],
      "name": "amISeller",
      "outputs": [
        {
          "name": "",
          "type": "bool"
        }
      ],
      "payable": false,
      "stateMutability": "view",
      "type": "function"
    },
    {
      "constant": true,
      "inputs": [],
      "name": "taxCollector",
      "outputs": [
        {
          "name": "",
          "type": "address"
        }
      ],
      "payable": false,
      "stateMutability": "view",
      "type": "function"
    },
    {
      "constant": true,
      "inputs": [],
      "name": "amIBuyer",
      "outputs": [
        {
          "name": "",
          "type": "bool"
        }
      ],
      "payable": false,
      "stateMutability": "view",
      "type": "function"
    },
    {
      "constant": true,
      "inputs": [],
      "name": "primary",
      "outputs": [
        {
          "name": "",
          "type": "address"
        }
      ],
      "payable": false,
      "stateMutability": "view",
      "type": "function"
    },
    {
      "constant": true,
      "inputs": [
        {
          "name": "_slu",
          "type": "uint256"
        }
      ],
      "name": "fetchLoudPKUs",
      "outputs": [
        {
          "name": "loadPKUs",
          "type": "uint256[]"
        }
      ],
      "payable": false,
      "stateMutability": "view",
      "type": "function"
    },
    {
      "constant": true,
      "inputs": [],
      "name": "whoAmI",
      "outputs": [
        {
          "name": "Buyer",
          "type": "bool"
        },
        {
          "name": "Seller",
          "type": "bool"
        },
        {
          "name": "manufacturer",
          "type": "bool"
        },
        {
          "name": "designer",
          "type": "bool"
        }
      ],
      "payable": false,
      "stateMutability": "view",
      "type": "function"
    },
    {
      "constant": true,
      "inputs": [],
      "name": "amIManufacturer",
      "outputs": [
        {
          "name": "",
          "type": "bool"
        }
      ],
      "payable": false,
      "stateMutability": "view",
      "type": "function"
    },
    {
      "constant": false,
      "inputs": [
        {
          "name": "_designerName",
          "type": "string"
        },
        {
          "name": "_ProductName",
          "type": "string"
        },
        {
          "name": "_description",
          "type": "string"
        },
        {
          "name": "_notes",
          "type": "string"
        }
      ],
      "name": "designProduct",
      "outputs": [],
      "payable": false,
      "stateMutability": "nonpayable",
      "type": "function"
    },
    {
      "constant": false,
      "inputs": [],
      "name": "renounceMeFromDesigner",
      "outputs": [],
      "payable": false,
      "stateMutability": "nonpayable",
      "type": "function"
    },
    {
      "constant": true,
      "inputs": [
        {
          "name": "account",
          "type": "address"
        }
      ],
      "name": "isSeller",
      "outputs": [
        {
          "name": "",
          "type": "bool"
        }
      ],
      "payable": false,
      "stateMutability": "view",
      "type": "function"
    },
    {
      "constant": false,
      "inputs": [
        {
          "name": "newOwner",
          "type": "address"
        }
      ],
      "name": "transferOwnership",
      "outputs": [],
      "payable": false,
      "stateMutability": "nonpayable",
      "type": "function"
    },
    {
      "inputs": [],
      "payable": false,
      "stateMutability": "nonpayable",
      "type": "constructor"
    },
    {
      "anonymous": false,
      "inputs": [
        {
          "indexed": false,
          "name": "recipient",
          "type": "address"
        }
      ],
      "name": "PrimaryTransferred",
      "type": "event"
    },
    {
      "anonymous": false,
      "inputs": [
        {
          "indexed": true,
          "name": "previousOwner",
          "type": "address"
        },
        {
          "indexed": true,
          "name": "newOwner",
          "type": "address"
        }
      ],
      "name": "OwnershipTransferred",
      "type": "event"
    },
    {
      "anonymous": false,
      "inputs": [
        {
          "indexed": false,
          "name": "slu",
          "type": "uint256"
        }
      ],
      "name": "Manufactured",
      "type": "event"
    },
    {
      "anonymous": false,
      "inputs": [
        {
          "indexed": false,
          "name": "slu",
          "type": "uint256"
        }
      ],
      "name": "taxUpdated",
      "type": "event"
    },
    {
      "anonymous": false,
      "inputs": [
        {
          "indexed": false,
          "name": "slu",
          "type": "uint256"
        }
      ],
      "name": "Sold",
      "type": "event"
    },
    {
      "anonymous": false,
      "inputs": [
        {
          "indexed": false,
          "name": "pku",
          "type": "uint256"
        }
      ],
      "name": "Purchased",
      "type": "event"
    },
    {
      "anonymous": false,
      "inputs": [
        {
          "indexed": false,
          "name": "udpc",
          "type": "uint256"
        }
      ],
      "name": "Owned",
      "type": "event"
    },
    {
      "anonymous": false,
      "inputs": [
        {
          "indexed": false,
          "name": "udpc",
          "type": "uint256"
        }
      ],
      "name": "TestCaseAdded",
      "type": "event"
    },
    {
      "anonymous": false,
      "inputs": [
        {
          "indexed": false,
          "name": "udpc",
          "type": "uint256"
        }
      ],
      "name": "Approved",
      "type": "event"
    },
    {
      "anonymous": false,
      "inputs": [
        {
          "indexed": false,
          "name": "udpc",
          "type": "uint256"
        }
      ],
      "name": "UpForSale",
      "type": "event"
    },
    {
      "anonymous": false,
      "inputs": [
        {
          "indexed": false,
          "name": "udpc",
          "type": "uint256"
        }
      ],
      "name": "ProductDesignPurchased",
      "type": "event"
    },
    {
      "anonymous": false,
      "inputs": [
        {
          "indexed": false,
          "name": "udpc",
          "type": "uint256"
        }
      ],
      "name": "SaleCanceled",
      "type": "event"
    },
    {
      "anonymous": false,
      "inputs": [
        {
          "indexed": false,
          "name": "account",
          "type": "address"
        }
      ],
      "name": "Paused",
      "type": "event"
    },
    {
      "anonymous": false,
      "inputs": [
        {
          "indexed": false,
          "name": "account",
          "type": "address"
        }
      ],
      "name": "Unpaused",
      "type": "event"
    },
    {
      "anonymous": false,
      "inputs": [
        {
          "indexed": true,
          "name": "account",
          "type": "address"
        }
      ],
      "name": "PauserAdded",
      "type": "event"
    },
    {
      "anonymous": false,
      "inputs": [
        {
          "indexed": true,
          "name": "account",
          "type": "address"
        }
      ],
      "name": "PauserRemoved",
      "type": "event"
    },
    {
      "anonymous": false,
      "inputs": [
        {
          "indexed": true,
          "name": "account",
          "type": "address"
        }
      ],
      "name": "SellerAdded",
      "type": "event"
    },
    {
      "anonymous": false,
      "inputs": [
        {
          "indexed": true,
          "name": "account",
          "type": "address"
        }
      ],
      "name": "SellerRemoved",
      "type": "event"
    },
    {
      "anonymous": false,
      "inputs": [
        {
          "indexed": true,
          "name": "account",
          "type": "address"
        }
      ],
      "name": "DesignerAdded",
      "type": "event"
    },
    {
      "anonymous": false,
      "inputs": [
        {
          "indexed": true,
          "name": "account",
          "type": "address"
        }
      ],
      "name": "DesignerRemoved",
      "type": "event"
    },
    {
      "anonymous": false,
      "inputs": [
        {
          "indexed": true,
          "name": "account",
          "type": "address"
        }
      ],
      "name": "ManufacturerAdded",
      "type": "event"
    },
    {
      "anonymous": false,
      "inputs": [
        {
          "indexed": true,
          "name": "account",
          "type": "address"
        }
      ],
      "name": "ManufacturerRemoved",
      "type": "event"
    },
    {
      "anonymous": false,
      "inputs": [
        {
          "indexed": true,
          "name": "account",
          "type": "address"
        }
      ],
      "name": "BuyerAdded",
      "type": "event"
    },
    {
      "anonymous": false,
      "inputs": [
        {
          "indexed": true,
          "name": "account",
          "type": "address"
        }
      ],
      "name": "BuyerRemoved",
      "type": "event"
    },
    {
      "constant": false,
      "inputs": [],
      "name": "kill",
      "outputs": [],
      "payable": false,
      "stateMutability": "nonpayable",
      "type": "function"
    },
    {
      "constant": false,
      "inputs": [
        {
          "name": "_pku",
          "type": "uint256"
        }
      ],
      "name": "purchaseProduct",
      "outputs": [],
      "payable": true,
      "stateMutability": "payable",
      "type": "function"
    }
  ],
  "bytecode": "0x60806040523480156200001157600080fd5b5062000023336200025160201b60201c565b6200003433620002b260201b60201c565b62000045336200031360201b60201c565b62000056336200037460201b60201c565b620000766200006a620003d560201b60201c565b620003dd60201b60201c565b6000600560006101000a81548160ff021916908315150217905550600060068190555060006009819055506000600881905550620000b9620003d560201b60201c565b600d60006101000a81548173ffffffffffffffffffffffffffffffffffffffff021916908373ffffffffffffffffffffffffffffffffffffffff160217905550600d60009054906101000a900473ffffffffffffffffffffffffffffffffffffffff1673ffffffffffffffffffffffffffffffffffffffff16600073ffffffffffffffffffffffffffffffffffffffff167f8be0079c531659141344cd1fd0a4f28419497f9722a3daafe3b4186f6b6457e060405160405180910390a362000186620003d560201b60201c565b600e60006101000a81548173ffffffffffffffffffffffffffffffffffffffff021916908373ffffffffffffffffffffffffffffffffffffffff1602179055507f4101e71e974f68df5e9730cc223280b41654676bbb052cdcc735c3337e64d2d9600e60009054906101000a900473ffffffffffffffffffffffffffffffffffffffff16604051808273ffffffffffffffffffffffffffffffffffffffff1673ffffffffffffffffffffffffffffffffffffffff16815260200191505060405180910390a162000602565b6200026c8160006200043e60201b620054881790919060201c565b8073ffffffffffffffffffffffffffffffffffffffff167f6599d9dd7f97ccdc3d99ab507544f9f6ebfca20c63a7e3c018da49eeaefb164a60405160405180910390a250565b620002cd8160016200043e60201b620054881790919060201c565b8073ffffffffffffffffffffffffffffffffffffffff167f561138658ca49a8540dc70dcfe64c9026c1c5b9344642242dd6562970f9c127860405160405180910390a250565b6200032e8160026200043e60201b620054881790919060201c565b8073ffffffffffffffffffffffffffffffffffffffff167f97069a05372df648feb174cc125711b2c72a81450a1ab2769c8faf49917d7fd260405160405180910390a250565b6200038f8160036200043e60201b620054881790919060201c565b8073ffffffffffffffffffffffffffffffffffffffff167f3d78526f2568d430fd8e20719601f7bc3f979936f8880236cc284e8127251b4260405160405180910390a250565b600033905090565b620003f88160046200043e60201b620054881790919060201c565b8073ffffffffffffffffffffffffffffffffffffffff167f6719d08c1888103bea251a4ed56406bd0c3e69723c8a1686e017e7bbe159b6f860405160405180910390a250565b6200045082826200052260201b60201c565b15620004c4576040517f08c379a000000000000000000000000000000000000000000000000000000000815260040180806020018281038252601f8152602001807f526f6c65733a206163636f756e7420616c72656164792068617320726f6c650081525060200191505060405180910390fd5b60018260000160008373ffffffffffffffffffffffffffffffffffffffff1673ffffffffffffffffffffffffffffffffffffffff16815260200190815260200160002060006101000a81548160ff0219169083151502179055505050565b60008073ffffffffffffffffffffffffffffffffffffffff168273ffffffffffffffffffffffffffffffffffffffff161415620005ab576040517f08c379a000000000000000000000000000000000000000000000000000000000815260040180806020018281038252602281526020018062005fbf6022913960400191505060405180910390fd5b8260000160008373ffffffffffffffffffffffffffffffffffffffff1673ffffffffffffffffffffffffffffffffffffffff16815260200190815260200160002060009054906101000a900460ff16905092915050565b6159ad80620006126000396000f3fe6080604052600436106102935760003560e01c806378c817541161015a578063b60eedbb116100c1578063da91254c1161007a578063da91254c14611556578063e1d6f86f146115a6578063e84228ce146115d5578063eda0baa814611862578063ee95feaf14611879578063f2fde38b146118e257610293565b8063b60eedbb146113a3578063bccd2462146113ba578063bea1dcf8146113e9578063c40f1bdc14611440578063c6dbdf611461146f578063d8f271a9146114c657610293565b80639741d150116101135780639741d15014611181578063a40e210f14611198578063a4a418b1146111af578063a4f03e23146111c6578063aa9903ee1461122f578063adf21b011461127457610293565b806378c8175414610d445780637ace31ef14610f5657806382dc1ec4146110935780638456cb59146110e45780638da5cb5b146110fb5780638f32d59b1461115257610293565b806341a117cf116101fe5780635c975abb116101b75780635c975abb14610c455780635ec5b72814610c74578063616d187514610ca35780636ef8d66d14610cd1578063715018a614610ce8578063784167af14610cff57610293565b806341a117cf146108d657806341c0e1b514610a0b5780634314d44d14610a2257806346fbf68e14610b9757806348c149bd14610c005780635929130c14610c1757610293565b806329e998c31161025057806329e998c3146106a55780632a55feec146106ea5780632c7cef2e1461075357806335db95e51461087a57806338e76a03146108915780633f4ba83a146108bf57610293565b806307e3c303146102985780631443bec7146102af57806317d4a4911461043b5780631e8acbeb146104a45780632348238c1461061957806327d554951461066a575b600080fd5b3480156102a457600080fd5b506102ad611933565b005b3480156102bb57600080fd5b506102e8600480360360208110156102d257600080fd5b810190808035906020019092919050505061193e565b60405180806020018060200180602001848103845287818151815260200191508051906020019080838360005b83811015610330578082015181840152602081019050610315565b50505050905090810190601f16801561035d5780820380516001836020036101000a031916815260200191505b50848103835286818151815260200191508051906020019080838360005b8381101561039657808201518184015260208101905061037b565b50505050905090810190601f1680156103c35780820380516001836020036101000a031916815260200191505b50848103825285818151815260200191508051906020019080838360005b838110156103fc5780820151818401526020810190506103e1565b50505050905090810190601f1680156104295780820380516001836020036101000a031916815260200191505b50965050505050505060405180910390f35b34801561044757600080fd5b5061048a6004803603602081101561045e57600080fd5b81019080803573ffffffffffffffffffffffffffffffffffffffff169060200190929190505050611bed565b604051808215151515815260200191505060405180910390f35b3480156104b057600080fd5b50610617600480360360808110156104c757600080fd5b8101908080359060200190929190803590602001906401000000008111156104ee57600080fd5b82018360208201111561050057600080fd5b8035906020019184600183028401116401000000008311171561052257600080fd5b91908080601f016020809104026020016040519081016040528093929190818152602001838380828437600081840152601f19601f8201169050808301925050505050505091929192908035151590602001909291908035906020019064010000000081111561059157600080fd5b8201836020820111156105a357600080fd5b803590602001918460018302840111640100000000831117156105c557600080fd5b91908080601f016020809104026020016040519081016040528093929190818152602001838380828437600081840152601f19601f820116905080830192505050505050509192919290505050611c0a565b005b34801561062557600080fd5b506106686004803603602081101561063c57600080fd5b81019080803573ffffffffffffffffffffffffffffffffffffffff169060200190929190505050611e96565b005b34801561067657600080fd5b506106a36004803603602081101561068d57600080fd5b8101908080359060200190929190505050612092565b005b3480156106b157600080fd5b506106e8600480360360408110156106c857600080fd5b81019080803590602001909291908035906020019092919050505061214c565b005b3480156106f657600080fd5b506107396004803603602081101561070d57600080fd5b81019080803573ffffffffffffffffffffffffffffffffffffffff1690602001909291905050506121d5565b604051808215151515815260200191505060405180910390f35b34801561075f57600080fd5b5061078c6004803603602081101561077657600080fd5b81019080803590602001909291905050506121f2565b60405180858152602001806020018060200180602001848103845287818151815260200191508051906020019060200280838360005b838110156107dd5780820151818401526020810190506107c2565b50505050905001848103835286818151815260200191508051906020019060200280838360005b8381101561081f578082015181840152602081019050610804565b50505050905001848103825285818151815260200191508051906020019060200280838360005b83811015610861578082015181840152602081019050610846565b5050505090500197505050505050505060405180910390f35b34801561088657600080fd5b5061088f6123d2565b005b6108bd600480360360208110156108a757600080fd5b81019080803590602001909291905050506123dd565b005b3480156108cb57600080fd5b506108d461246c565b005b3480156108e257600080fd5b50610919600480360360408110156108f957600080fd5b8101908080359060200190929190803590602001909291905050506125da565b60405180806020018415151515815260200180602001838103835286818151815260200191508051906020019080838360005b8381101561096757808201518184015260208101905061094c565b50505050905090810190601f1680156109945780820380516001836020036101000a031916815260200191505b50838103825284818151815260200191508051906020019080838360005b838110156109cd5780820151818401526020810190506109b2565b50505050905090810190601f1680156109fa5780820380516001836020036101000a031916815260200191505b509550505050505060405180910390f35b348015610a1757600080fd5b50610a206128ba565b005b348015610a2e57600080fd5b50610b9560048036036080811015610a4557600080fd5b810190808035906020019092919080359060200190640100000000811115610a6c57600080fd5b820183602082011115610a7e57600080fd5b80359060200191846001830284011164010000000083111715610aa057600080fd5b91908080601f016020809104026020016040519081016040528093929190818152602001838380828437600081840152601f19601f82011690508083019250505050505050919291929080351515906020019092919080359060200190640100000000811115610b0f57600080fd5b820183602082011115610b2157600080fd5b80359060200191846001830284011164010000000083111715610b4357600080fd5b91908080601f016020809104026020016040519081016040528093929190818152602001838380828437600081840152601f19601f82011690508083019250505050505050919291929050505061294d565b005b348015610ba357600080fd5b50610be660048036036020811015610bba57600080fd5b81019080803573ffffffffffffffffffffffffffffffffffffffff169060200190929190505050612bd9565b604051808215151515815260200191505060405180910390f35b348015610c0c57600080fd5b50610c15612bf6565b005b610c4360048036036020811015610c2d57600080fd5b8101908080359060200190929190505050612c01565b005b348015610c5157600080fd5b50610c5a612c88565b604051808215151515815260200191505060405180910390f35b348015610c8057600080fd5b50610c89612c9f565b604051808215151515815260200191505060405180910390f35b610ccf60048036036020811015610cb957600080fd5b8101908080359060200190929190505050612cba565b005b348015610cdd57600080fd5b50610ce6613035565b005b348015610cf457600080fd5b50610cfd613047565b005b348015610d0b57600080fd5b50610d4260048036036040811015610d2257600080fd5b810190808035906020019092919080359060200190929190505050613182565b005b348015610d5057600080fd5b50610d7d60048036036020811015610d6757600080fd5b81019080803590602001909291905050506132c8565b604051808a73ffffffffffffffffffffffffffffffffffffffff1673ffffffffffffffffffffffffffffffffffffffff1681526020018973ffffffffffffffffffffffffffffffffffffffff1673ffffffffffffffffffffffffffffffffffffffff1681526020018060200180602001806020018815151515815260200187815260200186815260200185815260200184810384528b818151815260200191508051906020019080838360005b83811015610e45578082015181840152602081019050610e2a565b50505050905090810190601f168015610e725780820380516001836020036101000a031916815260200191505b5084810383528a818151815260200191508051906020019080838360005b83811015610eab578082015181840152602081019050610e90565b50505050905090810190601f168015610ed85780820380516001836020036101000a031916815260200191505b50848103825289818151815260200191508051906020019080838360005b83811015610f11578082015181840152602081019050610ef6565b50505050905090810190601f168015610f3e5780820380516001836020036101000a031916815260200191505b509c5050505050505050505050505060405180910390f35b348015610f6257600080fd5b50610f8f60048036036020811015610f7957600080fd5b81019080803590602001909291905050506137fa565b60405180898152602001888152602001806020018773ffffffffffffffffffffffffffffffffffffffff1673ffffffffffffffffffffffffffffffffffffffff1681526020018673ffffffffffffffffffffffffffffffffffffffff1673ffffffffffffffffffffffffffffffffffffffff168152602001858152602001848152602001838152602001828103825288818151815260200191508051906020019080838360005b83811015611051578082015181840152602081019050611036565b50505050905090810190601f16801561107e5780820380516001836020036101000a031916815260200191505b50995050505050505050505060405180910390f35b34801561109f57600080fd5b506110e2600480360360208110156110b657600080fd5b81019080803573ffffffffffffffffffffffffffffffffffffffff1690602001909291905050506139ef565b005b3480156110f057600080fd5b506110f9613a60565b005b34801561110757600080fd5b50611110613bcf565b604051808273ffffffffffffffffffffffffffffffffffffffff1673ffffffffffffffffffffffffffffffffffffffff16815260200191505060405180910390f35b34801561115e57600080fd5b50611167613bf9565b604051808215151515815260200191505060405180910390f35b34801561118d57600080fd5b50611196613c58565b005b3480156111a457600080fd5b506111ad613c63565b005b3480156111bb57600080fd5b506111c4613c6e565b005b3480156111d257600080fd5b50611215600480360360208110156111e957600080fd5b81019080803573ffffffffffffffffffffffffffffffffffffffff169060200190929190505050613c90565b604051808215151515815260200191505060405180910390f35b34801561123b57600080fd5b506112726004803603604081101561125257600080fd5b810190808035906020019092919080359060200190929190505050613cad565b005b34801561128057600080fd5b506112ad6004803603602081101561129757600080fd5b8101908080359060200190929190505050613e4c565b60405180878152602001868152602001806020018573ffffffffffffffffffffffffffffffffffffffff1673ffffffffffffffffffffffffffffffffffffffff1681526020018473ffffffffffffffffffffffffffffffffffffffff1673ffffffffffffffffffffffffffffffffffffffff168152602001838152602001828103825286818151815260200191508051906020019080838360005b83811015611363578082015181840152602081019050611348565b50505050905090810190601f1680156113905780820380516001836020036101000a031916815260200191505b5097505050505050505060405180910390f35b3480156113af57600080fd5b506113b8613f6b565b005b3480156113c657600080fd5b506113cf613f76565b604051808215151515815260200191505060405180910390f35b3480156113f557600080fd5b506113fe613f91565b604051808273ffffffffffffffffffffffffffffffffffffffff1673ffffffffffffffffffffffffffffffffffffffff16815260200191505060405180910390f35b34801561144c57600080fd5b50611455613fb7565b604051808215151515815260200191505060405180910390f35b34801561147b57600080fd5b50611484613fd2565b604051808273ffffffffffffffffffffffffffffffffffffffff1673ffffffffffffffffffffffffffffffffffffffff16815260200191505060405180910390f35b3480156114d257600080fd5b506114ff600480360360208110156114e957600080fd5b8101908080359060200190929190505050613ffc565b6040518080602001828103825283818151815260200191508051906020019060200280838360005b83811015611542578082015181840152602081019050611527565b505050509050019250505060405180910390f35b34801561156257600080fd5b5061156b614067565b604051808515151515815260200184151515158152602001831515151581526020018215151515815260200194505050505060405180910390f35b3480156115b257600080fd5b506115bb61409b565b604051808215151515815260200191505060405180910390f35b3480156115e157600080fd5b50611860600480360360808110156115f857600080fd5b810190808035906020019064010000000081111561161557600080fd5b82018360208201111561162757600080fd5b8035906020019184600183028401116401000000008311171561164957600080fd5b91908080601f016020809104026020016040519081016040528093929190818152602001838380828437600081840152601f19601f820116905080830192505050505050509192919290803590602001906401000000008111156116ac57600080fd5b8201836020820111156116be57600080fd5b803590602001918460018302840111640100000000831117156116e057600080fd5b91908080601f016020809104026020016040519081016040528093929190818152602001838380828437600081840152601f19601f8201169050808301925050505050505091929192908035906020019064010000000081111561174357600080fd5b82018360208201111561175557600080fd5b8035906020019184600183028401116401000000008311171561177757600080fd5b91908080601f016020809104026020016040519081016040528093929190818152602001838380828437600081840152601f19601f820116905080830192505050505050509192919290803590602001906401000000008111156117da57600080fd5b8201836020820111156117ec57600080fd5b8035906020019184600183028401116401000000008311171561180e57600080fd5b91908080601f016020809104026020016040519081016040528093929190818152602001838380828437600081840152601f19601f8201169050808301925050505050505091929192905050506140b6565b005b34801561186e57600080fd5b506118776141c6565b005b34801561188557600080fd5b506118c86004803603602081101561189c57600080fd5b81019080803573ffffffffffffffffffffffffffffffffffffffff1690602001909291905050506141d1565b604051808215151515815260200191505060405180910390f35b3480156118ee57600080fd5b506119316004803603602081101561190557600080fd5b81019080803573ffffffffffffffffffffffffffffffffffffffff1690602001909291905050506141ee565b005b61193c33614274565b565b60608060606006548411156119bb576040517f08c379a000000000000000000000000000000000000000000000000000000000815260040180806020018281038252601b8152602001807f476976656e2055445043204e6f7420437265617465642059657421000000000081525060200191505060405180910390fd5b600760008581526020019081526020016000206005016000016007600086815260200190815260200160002060050160010160076000878152602001908152602001600020600501600201828054600181600116156101000203166002900480601f016020809104026020016040519081016040528092919081815260200182805460018160011615610100020316600290048015611a9b5780601f10611a7057610100808354040283529160200191611a9b565b820191906000526020600020905b815481529060010190602001808311611a7e57829003601f168201915b50505050509250818054600181600116156101000203166002900480601f016020809104026020016040519081016040528092919081815260200182805460018160011615610100020316600290048015611b375780601f10611b0c57610100808354040283529160200191611b37565b820191906000526020600020905b815481529060010190602001808311611b1a57829003601f168201915b50505050509150808054600181600116156101000203166002900480601f016020809104026020016040519081016040528092919081815260200182805460018160011615610100020316600290048015611bd35780601f10611ba857610100808354040283529160200191611bd3565b820191906000526020600020905b815481529060010190602001808311611bb657829003601f168201915b505050505090508093508194508295505050509193909250565b6000611c038260016142ce90919063ffffffff16565b9050919050565b600654841115611c82576040517f08c379a000000000000000000000000000000000000000000000000000000000815260040180806020018281038252601b8152602001807f476976656e2055445043204e6f7420437265617465642059657421000000000081525060200191505060405180910390fd5b611c8a615650565b6040518060a001604052803373ffffffffffffffffffffffffffffffffffffffff16815260200142815260200184151581526020018581526020018381525090508060076000878152602001908152602001600020600a0160006007600089815260200190815260200160002060090154815260200190815260200160002060008201518160000160006101000a81548173ffffffffffffffffffffffffffffffffffffffff021916908373ffffffffffffffffffffffffffffffffffffffff1602179055506020820151816001015560408201518160020160006101000a81548160ff0219169083151502179055506060820151816003019080519060200190611d96929190615697565b506080820151816004019080519060200190611db3929190615697565b50905050600760008681526020019081526020016000206009016000815480929190600101919050555060006003811115611dea57fe5b6007600087815260200190815260200160002060040160009054906101000a900460ff166003811115611e1957fe5b1415611e585760016007600087815260200190815260200160002060040160006101000a81548160ff02191690836003811115611e5257fe5b02179055505b7f81d5f9bced9b9d1723f40796f43346ab2f3d2147b09cc27e573f3eb3b5875864856040518082815260200191505060405180910390a15050505050565b600e60009054906101000a900473ffffffffffffffffffffffffffffffffffffffff1673ffffffffffffffffffffffffffffffffffffffff16611ed76143ac565b73ffffffffffffffffffffffffffffffffffffffff1614611f43576040517f08c379a000000000000000000000000000000000000000000000000000000000815260040180806020018281038252602c815260200180615956602c913960400191505060405180910390fd5b600073ffffffffffffffffffffffffffffffffffffffff168173ffffffffffffffffffffffffffffffffffffffff161415611fc9576040517f08c379a000000000000000000000000000000000000000000000000000000000815260040180806020018281038252602a81526020018061592c602a913960400191505060405180910390fd5b80600e60006101000a81548173ffffffffffffffffffffffffffffffffffffffff021916908373ffffffffffffffffffffffffffffffffffffffff1602179055507f4101e71e974f68df5e9730cc223280b41654676bbb052cdcc735c3337e64d2d9600e60009054906101000a900473ffffffffffffffffffffffffffffffffffffffff16604051808273ffffffffffffffffffffffffffffffffffffffff1673ffffffffffffffffffffffffffffffffffffffff16815260200191505060405180910390a150565b80600160038111156120a057fe5b6007600083815260200190815260200160002060040160009054906101000a900460ff1660038111156120cf57fe5b146120d957600080fd5b60026007600084815260200190815260200160002060040160006101000a81548160ff0219169083600381111561210c57fe5b02179055507f3ad93af63cb7967b23e4fb500b7d7d28b07516325dcf341f88bebf959d82c1cb826040518082815260200191505060405180910390a15050565b61215533611bed565b6121c7576040517f08c379a00000000000000000000000000000000000000000000000000000000081526004018080602001828103825260138152602001807f4e6f742041204d616e756661637475726572210000000000000000000000000081525060200191505060405180910390fd5b6121d182826143b4565b5050565b60006121eb8260006142ce90919063ffffffff16565b9050919050565b60006060806060846000600a600083815260200190815260200160002060070154141561221e57600080fd5b6000600a600088815260200190815260200160002090508060070154955060608660405190808252806020026020018201604052801561226d5781602001602082028038833980820191505090505b5090506060876040519080825280602002602001820160405280156122a15781602001602082028038833980820191505090505b5090506060886040519080825280602002602001820160405280156122d55781602001602082028038833980820191505090505b50905060008090505b84600701548110156123b65760008560060160008381526020019081526020016000209050806000015485838151811061231457fe5b602002602001018181525050806001015484838151811061233157fe5b6020026020010181815250508060020160009054906101000a900473ffffffffffffffffffffffffffffffffffffffff1683838151811061236e57fe5b602002602001019073ffffffffffffffffffffffffffffffffffffffff16908173ffffffffffffffffffffffffffffffffffffffff16815250505080806001019150506122de565b50828282809850819950829a5050505050505050509193509193565b6123db33614635565b565b6123e68161468f565b6000600a6000838152602001908152602001600020600501549050600061240b613bcf565b905060006064600184028161241c57fe5b0490508173ffffffffffffffffffffffffffffffffffffffff166108fc829081150290604051600060405180830381858888f19350505050158015612465573d6000803e3d6000fd5b5050505050565b61247c6124776143ac565b612bd9565b6124d1576040517f08c379a00000000000000000000000000000000000000000000000000000000081526004018080602001828103825260308152602001806158936030913960400191505060405180910390fd5b600560009054906101000a900460ff16612553576040517f08c379a00000000000000000000000000000000000000000000000000000000081526004018080602001828103825260148152602001807f5061757361626c653a206e6f742070617573656400000000000000000000000081525060200191505060405180910390fd5b6000600560006101000a81548160ff0219169083151502179055507f5db9ee0a495bf2e6ff9c91a7834c1ba4fdd244a5e8aa4e537bd38aeae4b073aa6125976143ac565b604051808273ffffffffffffffffffffffffffffffffffffffff1673ffffffffffffffffffffffffffffffffffffffff16815260200191505060405180910390a1565b606060006060600654851115612658576040517f08c379a000000000000000000000000000000000000000000000000000000000815260040180806020018281038252601b8152602001807f476976656e2055445043204e6f7420437265617465642059657421000000000081525060200191505060405180910390fd5b600760008681526020019081526020016000206009015484106126e3576040517f08c379a000000000000000000000000000000000000000000000000000000000815260040180806020018281038252601a8152602001807f546573742043617365204e6f742043726561746564205965742100000000000081525060200191505060405180910390fd5b60076000868152602001908152602001600020600a01600085815260200190815260200160002060030160076000878152602001908152602001600020600a01600086815260200190815260200160002060020160009054906101000a900460ff1660076000888152602001908152602001600020600a016000878152602001908152602001600020600401828054600181600116156101000203166002900480601f0160208091040260200160405190810160405280929190818152602001828054600181600116156101000203166002900480156128045780601f106127d957610100808354040283529160200191612804565b820191906000526020600020905b8154815290600101906020018083116127e757829003601f168201915b50505050509250808054600181600116156101000203166002900480601f0160208091040260200160405190810160405280929190818152602001828054600181600116156101000203166002900480156128a05780601f10612875576101008083540402835291602001916128a0565b820191906000526020600020905b81548152906001019060200180831161288357829003601f168201915b505050505090508093508194508295505050509250925092565b6128c2613bf9565b612934576040517f08c379a00000000000000000000000000000000000000000000000000000000081526004018080602001828103825260208152602001807f4f776e61626c653a2063616c6c6572206973206e6f7420746865206f776e657281525060200191505060405180910390fd5b3373ffffffffffffffffffffffffffffffffffffffff16ff5b6006548411156129c5576040517f08c379a000000000000000000000000000000000000000000000000000000000815260040180806020018281038252601b8152602001807f476976656e2055445043204e6f7420437265617465642059657421000000000081525060200191505060405180910390fd5b6129cd615650565b6040518060a001604052803373ffffffffffffffffffffffffffffffffffffffff16815260200142815260200184151581526020018581526020018381525090508060076000878152602001908152602001600020600a0160006007600089815260200190815260200160002060090154815260200190815260200160002060008201518160000160006101000a81548173ffffffffffffffffffffffffffffffffffffffff021916908373ffffffffffffffffffffffffffffffffffffffff1602179055506020820151816001015560408201518160020160006101000a81548160ff0219169083151502179055506060820151816003019080519060200190612ad9929190615697565b506080820151816004019080519060200190612af6929190615697565b50905050600760008681526020019081526020016000206009016000815480929190600101919050555060006003811115612b2d57fe5b6007600087815260200190815260200160002060040160009054906101000a900460ff166003811115612b5c57fe5b1415612b9b5760016007600087815260200190815260200160002060040160006101000a81548160ff02191690836003811115612b9557fe5b02179055505b7f81d5f9bced9b9d1723f40796f43346ab2f3d2147b09cc27e573f3eb3b5875864856040518082815260200191505060405180910390a15050505050565b6000612bef8260046142ce90919063ffffffff16565b9050919050565b612bff336149db565b565b612c0a33611bed565b612c7c576040517f08c379a00000000000000000000000000000000000000000000000000000000081526004018080602001828103825260138152602001807f4e6f742041204d616e756661637475726572210000000000000000000000000081525060200191505060405180910390fd5b612c8581614a35565b50565b6000600560009054906101000a900460ff16905090565b6000612cb53360026142ce90919063ffffffff16565b905090565b612cc3336121d5565b612d35576040517f08c379a000000000000000000000000000000000000000000000000000000000815260040180806020018281038252600c8152602001807f4e6f74204120427579657221000000000000000000000000000000000000000081525060200191505060405180910390fd5b600560009054906101000a900460ff1615612db8576040517f08c379a00000000000000000000000000000000000000000000000000000000081526004018080602001828103825260108152602001807f5061757361626c653a207061757365640000000000000000000000000000000081525060200191505060405180910390fd5b6000600a6000600b6000858152602001908152602001600020600081548110612ddd57fe5b9060005260206000200154815260200190815260200160002090506000816005015490506000600b600085815260200190815260200160002080549050905060008360060160008560070154815260200190815260200160002060010154905060008160646009860281612e4d57fe5b0403905060008360646009870281612e6157fe5b0486010290506000848302905060008760030160019054906101000a900473ffffffffffffffffffffffffffffffffffffffff16905082341015612f0d576040517f08c379a000000000000000000000000000000000000000000000000000000000815260040180806020018281038252600b8152602001807f4e6f7420456e6f7567682100000000000000000000000000000000000000000081525060200191505060405180910390fd5b6000833403905060008114612f64573373ffffffffffffffffffffffffffffffffffffffff166108fc829081150290604051600060405180830381858888f19350505050158015612f62573d6000803e3d6000fd5b505b612f6d8a614c45565b612f778a86613cad565b8173ffffffffffffffffffffffffffffffffffffffff166108fc8486039081150290604051600060405180830381858888f19350505050158015612fbf573d6000803e3d6000fd5b50600c60009054906101000a900473ffffffffffffffffffffffffffffffffffffffff1673ffffffffffffffffffffffffffffffffffffffff166108fc849081150290604051600060405180830381858888f19350505050158015613028573d6000803e3d6000fd5b5050505050505050505050565b6130456130406143ac565b614d72565b565b61304f613bf9565b6130c1576040517f08c379a00000000000000000000000000000000000000000000000000000000081526004018080602001828103825260208152602001807f4f776e61626c653a2063616c6c6572206973206e6f7420746865206f776e657281525060200191505060405180910390fd5b600073ffffffffffffffffffffffffffffffffffffffff16600d60009054906101000a900473ffffffffffffffffffffffffffffffffffffffff1673ffffffffffffffffffffffffffffffffffffffff167f8be0079c531659141344cd1fd0a4f28419497f9722a3daafe3b4186f6b6457e060405160405180910390a36000600d60006101000a81548173ffffffffffffffffffffffffffffffffffffffff021916908373ffffffffffffffffffffffffffffffffffffffff160217905550565b813373ffffffffffffffffffffffffffffffffffffffff166007600083815260200190815260200160002060010160009054906101000a900473ffffffffffffffffffffffffffffffffffffffff1673ffffffffffffffffffffffffffffffffffffffff16146131f157600080fd5b82600260038111156131ff57fe5b6007600083815260200190815260200160002060040160009054906101000a900460ff16600381111561322e57fe5b1461323857600080fd5b82600760008681526020019081526020016000206008018190555060036007600086815260200190815260200160002060040160006101000a81548160ff0219169083600381111561328657fe5b02179055507f9830dea00c267e7b6913a128e9a399b9272b3c2b650ac4c447ce2b876b100488846040518082815260200191505060405180910390a150505050565b60008060608060606000806000806006548a111561334e576040517f08c379a000000000000000000000000000000000000000000000000000000000815260040180806020018281038252601b8152602001807f476976656e2055445043204e6f7420437265617465642059657421000000000081525060200191505060405180910390fd5b600760008b815260200190815260200160002060010160009054906101000a900473ffffffffffffffffffffffffffffffffffffffff169850600760008b815260200190815260200160002060020160009054906101000a900473ffffffffffffffffffffffffffffffffffffffff169750600760008b81526020019081526020016000206003018054600181600116156101000203166002900480601f01602080910402602001604051908101604052809291908181526020018280546001816001161561010002031660029004801561346a5780601f1061343f5761010080835404028352916020019161346a565b820191906000526020600020905b81548152906001019060200180831161344d57829003601f168201915b50505050509650600760008b81526020019081526020016000206005016000018054600181600116156101000203166002900480601f01602080910402602001604051908101604052809291908181526020018280546001816001161561010002031660029004801561351e5780601f106134f35761010080835404028352916020019161351e565b820191906000526020600020905b81548152906001019060200180831161350157829003601f168201915b505050505095506000600381111561353257fe5b600760008c815260200190815260200160002060040160009054906101000a900460ff16600381111561356157fe5b14156135a4576040518060400160405280600781526020017f4372656174656400000000000000000000000000000000000000000000000000815250945061379e565b600160038111156135b157fe5b600760008c815260200190815260200160002060040160009054906101000a900460ff1660038111156135e057fe5b1415613623576040518060400160405280600681526020017f5465737465640000000000000000000000000000000000000000000000000000815250945061379d565b6002600381111561363057fe5b600760008c815260200190815260200160002060040160009054906101000a900460ff16600381111561365f57fe5b14156136a2576040518060400160405280600881526020017f417070726f766564000000000000000000000000000000000000000000000000815250945061379c565b6003808111156136ae57fe5b600760008c815260200190815260200160002060040160009054906101000a900460ff1660038111156136dd57fe5b1415613720576040518060400160405280600781526020017f466f7253616c6500000000000000000000000000000000000000000000000000815250945061379b565b60038081111561372c57fe5b600760008c815260200190815260200160002060040160009054906101000a900460ff16600381111561375b57fe5b141561379a576040518060400160405280600781526020017f466f7253616c650000000000000000000000000000000000000000000000000081525094505b5b5b5b5b6000600760008c81526020019081526020016000206008015414159350600760008b8152602001908152602001600020600801549250600760008b81526020019081526020016000206009015491509193959799909294969850565b60008060606000806000806000600854891115801561381a575060008914155b61388c576040517f08c379a000000000000000000000000000000000000000000000000000000000815260040180806020018281038252601a8152602001807f476976656e20504b55204e6f742043726561746564205965742100000000000081525060200191505060405180910390fd5b6000600a60008b815260200190815260200160002090508060000154985080600201549750600060028111156138be57fe5b8160030160009054906101000a900460ff1660028111156138db57fe5b141561391e576040518060400160405280600c81526020017f4d616e75666163747572656400000000000000000000000000000000000000008152509650613987565b60028081111561392a57fe5b8160030160009054906101000a900460ff16600281111561394757fe5b1415613986576040518060400160405280600981526020017f507572636861736564000000000000000000000000000000000000000000000081525096505b5b8060030160019054906101000a900473ffffffffffffffffffffffffffffffffffffffff1695508060040160009054906101000a900473ffffffffffffffffffffffffffffffffffffffff169450806005015493508060070154915050919395975091939597565b6139ff6139fa6143ac565b612bd9565b613a54576040517f08c379a00000000000000000000000000000000000000000000000000000000081526004018080602001828103825260308152602001806158936030913960400191505060405180910390fd5b613a5d81614dcc565b50565b613a70613a6b6143ac565b612bd9565b613ac5576040517f08c379a00000000000000000000000000000000000000000000000000000000081526004018080602001828103825260308152602001806158936030913960400191505060405180910390fd5b600560009054906101000a900460ff1615613b48576040517f08c379a00000000000000000000000000000000000000000000000000000000081526004018080602001828103825260108152602001807f5061757361626c653a207061757365640000000000000000000000000000000081525060200191505060405180910390fd5b6001600560006101000a81548160ff0219169083151502179055507f62e78cea01bee320cd4e420270b5ea74000d11b0c9f74754ebdbfc544b05a258613b8c6143ac565b604051808273ffffffffffffffffffffffffffffffffffffffff1673ffffffffffffffffffffffffffffffffffffffff16815260200191505060405180910390a1565b6000600d60009054906101000a900473ffffffffffffffffffffffffffffffffffffffff16905090565b6000600d60009054906101000a900473ffffffffffffffffffffffffffffffffffffffff1673ffffffffffffffffffffffffffffffffffffffff16613c3c6143ac565b73ffffffffffffffffffffffffffffffffffffffff1614905090565b613c6133614e26565b565b613c6c33614e80565b565b613c7733614eda565b613c8033611bed565b613c8e57613c8d336149db565b5b565b6000613ca68260026142ce90919063ffffffff16565b9050919050565b6000600b6000848152602001908152602001600020805490509050613cd0615717565b60405180606001604052804281526020018481526020013373ffffffffffffffffffffffffffffffffffffffff16815250905060008090505b82811015613e0e576000600b60008781526020019081526020016000208281548110613d3157fe5b9060005260206000200154905082600a60008381526020019081526020016000206006016000600a6000858152602001908152602001600020600701548152602001908152602001600020600082015181600001556020820151816001015560408201518160020160006101000a81548173ffffffffffffffffffffffffffffffffffffffff021916908373ffffffffffffffffffffffffffffffffffffffff160217905550905050600a600082815260200190815260200160002060070160008154809291906001019190505550508080600101915050613d09565b507fe0abde12d5564a014f3a4a4468f87400e13c581a9847e1868181a29dcc31e222846040518082815260200191505060405180910390a150505050565b600080606060008060006009548711158015613e69575060008714155b613edb576040517f08c379a000000000000000000000000000000000000000000000000000000000815260040180806020018281038252601a8152602001807f476976656e20534c55204e6f742043726561746564205965742100000000000081525060200191505060405180910390fd5b6000600b60008981526020019081526020016000206001600b60008b8152602001908152602001600020805490500381548110613f1457fe5b90600052602060002001549050613f2a816137fa565b90919293949550905050809650819750829850839950849a505050505050600b60008981526020019081526020016000208054905096505091939550919395565b613f7433614f34565b565b6000613f8c3360036142ce90919063ffffffff16565b905090565b600c60009054906101000a900473ffffffffffffffffffffffffffffffffffffffff1681565b6000613fcd3360006142ce90919063ffffffff16565b905090565b6000600e60009054906101000a900473ffffffffffffffffffffffffffffffffffffffff16905090565b6060600b600083815260200190815260200160002080548060200260200160405190810160405280929190818152602001828054801561405b57602002820191906000526020600020905b815481526020019060010190808311614047575b50505050509050919050565b600080600080614075613fb7565b935061407f613f76565b925061408961409b565b9150614093612c9f565b905090919293565b60006140b13360016142ce90919063ffffffff16565b905090565b6140bf33613c90565b614131576040517f08c379a000000000000000000000000000000000000000000000000000000000815260040180806020018281038252600f8152602001807f4e6f7420412044657369676e657221000000000000000000000000000000000081525060200191505060405180910390fd5b600560009054906101000a900460ff16156141b4576040517f08c379a00000000000000000000000000000000000000000000000000000000081526004018080602001828103825260108152602001807f5061757361626c653a207061757365640000000000000000000000000000000081525060200191505060405180910390fd5b6141c084848484614f8e565b50505050565b6141cf3361522b565b565b60006141e78260036142ce90919063ffffffff16565b9050919050565b6141f6613bf9565b614268576040517f08c379a00000000000000000000000000000000000000000000000000000000081526004018080602001828103825260208152602001807f4f776e61626c653a2063616c6c6572206973206e6f7420746865206f776e657281525060200191505060405180910390fd5b61427181615285565b50565b6142888160006153cb90919063ffffffff16565b8073ffffffffffffffffffffffffffffffffffffffff167f83fd4cbc7bc934bdfbae994ac6e72fcc0e50abd6995c1949520e761ba650d58260405160405180910390a250565b60008073ffffffffffffffffffffffffffffffffffffffff168273ffffffffffffffffffffffffffffffffffffffff161415614355576040517f08c379a000000000000000000000000000000000000000000000000000000000815260040180806020018281038252602281526020018061590a6022913960400191505060405180910390fd5b8260000160008373ffffffffffffffffffffffffffffffffffffffff1673ffffffffffffffffffffffffffffffffffffffff16815260200190815260200160002060009054906101000a900460ff16905092915050565b600033905090565b600060096000815460010191905081905590506143cf61574e565b83816000018181525050818160400181815250506000816060019060028111156143f557fe5b9081600281111561440257fe5b8152505033816080019073ffffffffffffffffffffffffffffffffffffffff16908173ffffffffffffffffffffffffffffffffffffffff1681525050338160a0019073ffffffffffffffffffffffffffffffffffffffff16908173ffffffffffffffffffffffffffffffffffffffff168152505060008160e001818152505060008090505b838110156145f757600060086000815460010191905081905590508083602001818152505082600a600083815260200190815260200160002060008201518160000155602082015181600101556040820151816002015560608201518160030160006101000a81548160ff0219169083600281111561450257fe5b021790555060808201518160030160016101000a81548173ffffffffffffffffffffffffffffffffffffffff021916908373ffffffffffffffffffffffffffffffffffffffff16021790555060a08201518160040160006101000a81548173ffffffffffffffffffffffffffffffffffffffff021916908373ffffffffffffffffffffffffffffffffffffffff16021790555060c0820151816005015560e08201518160070155905050600b6000858152602001908152602001600020819080600181540180825580915050906001820390600052602060002001600090919290919091505550508080600101915050614487565b507fd29d8a68ca7c8c74be5579719d445aabfe230ed6e6a83aff475a663500eb7609826040518082815260200191505060405180910390a150505050565b61464981600061548890919063ffffffff16565b8073ffffffffffffffffffffffffffffffffffffffff167f6599d9dd7f97ccdc3d99ab507544f9f6ebfca20c63a7e3c018da49eeaefb164a60405160405180910390a250565b614698336121d5565b61470a576040517f08c379a000000000000000000000000000000000000000000000000000000000815260040180806020018281038252600c8152602001807f4e6f74204120427579657221000000000000000000000000000000000000000081525060200191505060405180910390fd5b600560009054906101000a900460ff161561478d576040517f08c379a00000000000000000000000000000000000000000000000000000000081526004018080602001828103825260108152602001807f5061757361626c653a207061757365640000000000000000000000000000000081525060200191505060405180910390fd5b6000600a60008381526020019081526020016000206005015490506000600a600084815260200190815260200160002060030160019054906101000a900473ffffffffffffffffffffffffffffffffffffffff1690506000600a60008581526020019081526020016000206006016000600a60008781526020019081526020016000206007015481526020019081526020016000206001015490506000816064600986028161483857fe5b040390506064600985028161484957fe5b0484013410156148c1576040517f08c379a000000000000000000000000000000000000000000000000000000000815260040180806020018281038252600b8152602001807f4e6f7420456e6f7567682100000000000000000000000000000000000000000081525060200191505060405180910390fd5b6000843403905060008114614918573373ffffffffffffffffffffffffffffffffffffffff166108fc829081150290604051600060405180830381858888f19350505050158015614916573d6000803e3d6000fd5b505b61492186615563565b8373ffffffffffffffffffffffffffffffffffffffff166108fc8487019081150290604051600060405180830381858888f19350505050158015614969573d6000803e3d6000fd5b50600c60009054906101000a900473ffffffffffffffffffffffffffffffffffffffff1673ffffffffffffffffffffffffffffffffffffffff166108fc839081150290604051600060405180830381858888f193505050501580156149d2573d6000803e3d6000fd5b50505050505050565b6149ef81600161548890919063ffffffff16565b8073ffffffffffffffffffffffffffffffffffffffff167f561138658ca49a8540dc70dcfe64c9026c1c5b9344642242dd6562970f9c127860405160405180910390a250565b80600380811115614a4257fe5b6007600083815260200190815260200160002060040160009054906101000a900460ff166003811115614a7157fe5b14614a7b57600080fd5b816007600082815260200190815260200160002060080154341015614b08576040517f08c379a000000000000000000000000000000000000000000000000000000000815260040180806020018281038252600b8152602001807f4e6f7420456e6f7567682100000000000000000000000000000000000000000081525060200191505060405180910390fd5b60026007600085815260200190815260200160002060040160006101000a81548160ff02191690836003811115614b3b57fe5b0217905550336007600085815260200190815260200160002060010160006101000a81548173ffffffffffffffffffffffffffffffffffffffff021916908373ffffffffffffffffffffffffffffffffffffffff1602179055507f729b55dd54c77cd63e2c1075795bd042790838b8114ed30292106ffed1916b90836040518082815260200191505060405180910390a16000600760008381526020019081526020016000206008015490506000813403905060008114614c3e573373ffffffffffffffffffffffffffffffffffffffff166108fc829081150290604051600060405180830381858888f19350505050158015614c3c573d6000803e3d6000fd5b505b5050505050565b6000600b600083815260200190815260200160002080549050905060008090505b81811015614d36576000600b60008581526020019081526020016000208281548110614c8e57fe5b906000526020600020015490506001600a600083815260200190815260200160002060030160006101000a81548160ff02191690836002811115614cce57fe5b021790555033600a600083815260200190815260200160002060030160016101000a81548173ffffffffffffffffffffffffffffffffffffffff021916908373ffffffffffffffffffffffffffffffffffffffff160217905550508080600101915050614c66565b507f92f64ca637d023f354075a4be751b169c1a8a9ccb6d33cdd0cb3520543995727826040518082815260200191505060405180910390a15050565b614d868160046153cb90919063ffffffff16565b8073ffffffffffffffffffffffffffffffffffffffff167fcd265ebaf09df2871cc7bd4133404a235ba12eff2041bb89d9c714a2621c7c7e60405160405180910390a250565b614de081600461548890919063ffffffff16565b8073ffffffffffffffffffffffffffffffffffffffff167f6719d08c1888103bea251a4ed56406bd0c3e69723c8a1686e017e7bbe159b6f860405160405180910390a250565b614e3a8160036153cb90919063ffffffff16565b8073ffffffffffffffffffffffffffffffffffffffff167fa6f3b3030df964d974376ba4db21cbe49207bd79998f0d619c1c3a422259707f60405160405180910390a250565b614e948160016153cb90919063ffffffff16565b8073ffffffffffffffffffffffffffffffffffffffff167f2fed5abf6a80d6dfe30b4895481b2fc5d7dce5f8f7b931832f4a2947d5040c7f60405160405180910390a250565b614eee81600261548890919063ffffffff16565b8073ffffffffffffffffffffffffffffffffffffffff167f97069a05372df648feb174cc125711b2c72a81450a1ab2769c8faf49917d7fd260405160405180910390a250565b614f4881600361548890919063ffffffff16565b8073ffffffffffffffffffffffffffffffffffffffff167f3d78526f2568d430fd8e20719601f7bc3f979936f8880236cc284e8127251b4260405160405180910390a250565b600660008154809291906001019190505550614fa86157ca565b60065481600001818152505033816020019073ffffffffffffffffffffffffffffffffffffffff16908173ffffffffffffffffffffffffffffffffffffffff168152505033816040019073ffffffffffffffffffffffffffffffffffffffff16908173ffffffffffffffffffffffffffffffffffffffff168152505084816060018190525060008160800190600381111561503f57fe5b9081600381111561504c57fe5b815250506040518060600160405280858152602001848152602001838152508160a0018190525060008160c0018181525050806007600060065481526020019081526020016000206000820151816000015560208201518160010160006101000a81548173ffffffffffffffffffffffffffffffffffffffff021916908373ffffffffffffffffffffffffffffffffffffffff16021790555060408201518160020160006101000a81548173ffffffffffffffffffffffffffffffffffffffff021916908373ffffffffffffffffffffffffffffffffffffffff1602179055506060820151816003019080519060200190615148929190615697565b5060808201518160040160006101000a81548160ff0219169083600381111561516d57fe5b021790555060a0820151816005016000820151816000019080519060200190615197929190615697565b5060208201518160010190805190602001906151b4929190615697565b5060408201518160020190805190602001906151d1929190615697565b50505060c0820151816008015560e082015181600901559050507f4bea4fa538d41a7b7fb10bb3405cf3e168122aa3438625bbf0ac6dde64fbdb0c6006546040518082815260200191505060405180910390a15050505050565b61523f8160026153cb90919063ffffffff16565b8073ffffffffffffffffffffffffffffffffffffffff167fe16181bbb8b138f88a23696ae25f2c63713913e3fc6922b234a08639bf53cbea60405160405180910390a250565b600073ffffffffffffffffffffffffffffffffffffffff168173ffffffffffffffffffffffffffffffffffffffff16141561530b576040517f08c379a00000000000000000000000000000000000000000000000000000000081526004018080602001828103825260268152602001806158c36026913960400191505060405180910390fd5b8073ffffffffffffffffffffffffffffffffffffffff16600d60009054906101000a900473ffffffffffffffffffffffffffffffffffffffff1673ffffffffffffffffffffffffffffffffffffffff167f8be0079c531659141344cd1fd0a4f28419497f9722a3daafe3b4186f6b6457e060405160405180910390a380600d60006101000a81548173ffffffffffffffffffffffffffffffffffffffff021916908373ffffffffffffffffffffffffffffffffffffffff16021790555050565b6153d582826142ce565b61542a576040517f08c379a00000000000000000000000000000000000000000000000000000000081526004018080602001828103825260218152602001806158e96021913960400191505060405180910390fd5b60008260000160008373ffffffffffffffffffffffffffffffffffffffff1673ffffffffffffffffffffffffffffffffffffffff16815260200190815260200160002060006101000a81548160ff0219169083151502179055505050565b61549282826142ce565b15615505576040517f08c379a000000000000000000000000000000000000000000000000000000000815260040180806020018281038252601f8152602001807f526f6c65733a206163636f756e7420616c72656164792068617320726f6c650081525060200191505060405180910390fd5b60018260000160008373ffffffffffffffffffffffffffffffffffffffff1673ffffffffffffffffffffffffffffffffffffffff16815260200190815260200160002060006101000a81548160ff0219169083151502179055505050565b806000600a600083815260200190815260200160002060070154141561558857600080fd5b6002600a600084815260200190815260200160002060030160006101000a81548160ff021916908360028111156155bb57fe5b021790555033600a600084815260200190815260200160002060030160016101000a81548173ffffffffffffffffffffffffffffffffffffffff021916908373ffffffffffffffffffffffffffffffffffffffff1602179055507f653d56639fee6b566a5c804764e9689de38645f0b733df89a36a1b7b42173dd8826040518082815260200191505060405180910390a15050565b6040518060a00160405280600073ffffffffffffffffffffffffffffffffffffffff1681526020016000815260200160001515815260200160608152602001606081525090565b828054600181600116156101000203166002900490600052602060002090601f016020900481019282601f106156d857805160ff1916838001178555615706565b82800160010185558215615706579182015b828111156157055782518255916020019190600101906156ea565b5b509050615713919061584c565b5090565b60405180606001604052806000815260200160008152602001600073ffffffffffffffffffffffffffffffffffffffff1681525090565b6040518061010001604052806000815260200160008152602001600081526020016000600281111561577c57fe5b8152602001600073ffffffffffffffffffffffffffffffffffffffff168152602001600073ffffffffffffffffffffffffffffffffffffffff16815260200160008152602001600081525090565b60405180610140016040528060008152602001600073ffffffffffffffffffffffffffffffffffffffff168152602001600073ffffffffffffffffffffffffffffffffffffffff168152602001606081526020016000600381111561582b57fe5b8152602001615838615871565b815260200160008152602001600081525090565b61586e91905b8082111561586a576000816000905550600101615852565b5090565b90565b6040518060600160405280606081526020016060815260200160608152509056fe506175736572526f6c653a2063616c6c657220646f6573206e6f742068617665207468652050617573657220726f6c654f776e61626c653a206e6577206f776e657220697320746865207a65726f2061646472657373526f6c65733a206163636f756e7420646f6573206e6f74206861766520726f6c65526f6c65733a206163636f756e7420697320746865207a65726f20616464726573735365636f6e646172793a206e6577207072696d61727920697320746865207a65726f20616464726573735365636f6e646172793a2063616c6c6572206973206e6f7420746865207072696d617279206163636f756e74a165627a7a723058209187a8731abf639ec6d10f7e4a65d626848d743a5be0bc875075f3b175c37c370029526f6c65733a206163636f756e7420697320746865207a65726f2061646472657373",
  "source": "pragma solidity ^0.5.0;\r\n\r\n/// Import supply chain `Base` contract\r\nimport \"./SupplyChain.sol\";\r\n\r\n/// Import `Ownable` contract from OpenZeppelin package\r\nimport \"./openzeppelin/contracts/ownership/Ownable.sol\";\r\n\r\n/// Import `Secondary` contract from OpenZeppelin package\r\nimport \"./openzeppelin/contracts/ownership/Secondary.sol\";\r\n\r\n/// @title Main Chain Contract \r\n/// @dev  **TODO** this contract will use Proxy to make the suply chain upgradable\r\ncontract MainChain is SupplyChain, Ownable, Secondary {\r\n    constructor() public {\r\n\r\n    }\r\n\r\n    // Kill function if required\r\n    function kill() public onlyOwner() {\r\n        selfdestruct(msg.sender);\r\n    }\r\n\r\n    function purchaseProduct (uint _pku)\r\n        public\r\n        payable\r\n    {\r\n        super.purchaseProduct(_pku);\r\n\r\n        uint price = pItems[_pku].price;\r\n        address payable developerId = address(uint160(owner()));\r\n        uint developerBounty = price*1 /100;\r\n        developerId.transfer(developerBounty);\r\n\r\n    }\r\n\r\n}\r\n",
  "sourcePath": "E:/document/blockchain/myprojects/simplevat/contracts/MainChain.sol",
  "compiler": {
    "name": "solc",
    "version": "0.5.8+commit.23d335f2.Emscripten.clang"
  },
  "schemaVersion": "3.0.16",
  "updatedAt": "2019-09-24T08:10:27.640Z",
  "devdoc": {
    "details": "**TODO** this contract will use Proxy to make the suply chain upgradable",
    "methods": {
      "amIBuyer()": {
        "return": "boolean for caller address state in `_Buyers` Role"
      },
      "amIDesigner()": {
        "return": "boolean for caller address state in `_designers` Role"
      },
      "amIManufacturer()": {
        "return": "boolean for caller address state in `_manufacturers` Role"
      },
      "amISeller()": {
        "return": "boolean for caller address state in `_Sellers` Role"
      },
      "isOwner()": {
        "details": "Returns true if the caller is the current owner."
      },
      "owner()": {
        "details": "Returns the address of the current owner."
      },
      "pause()": {
        "details": "Called by a pauser to pause, triggers stopped state."
      },
      "paused()": {
        "details": "Returns true if the contract is paused, and false otherwise."
      },
      "primary()": {
        "return": "the address of the primary."
      },
      "renounceOwnership()": {
        "details": "Leaves the contract without owner. It will not be possible to call `onlyOwner` functions anymore. Can only be called by the current owner.     * NOTE: Renouncing ownership will leave the contract without an owner, thereby removing any functionality that is only available to the owner."
      },
      "transferOwnership(address)": {
        "details": "Transfers ownership of the contract to a new account (`newOwner`). Can only be called by the current owner."
      },
      "transferPrimary(address)": {
        "details": "Transfers contract to a new primary.",
        "params": {
          "recipient": "The address of new primary."
        }
      },
      "unpause()": {
        "details": "Called by a pauser to unpause, returns to normal state."
      },
      "whoAmI()": {
        "return": "array contining every role with its state as boolean"
      }
    }
  },
  "userdoc": {
    "methods": {
      "addTestCase(uint256,string,bool,string)": {
        "notice": "Add Test Case for Product Design by currentOwner"
      },
      "approveProduct(uint256)": {
        "notice": "Function to approve Product by a regulator only"
      },
      "assignMeAsBuyer()": {
        "notice": "Function to assign caller `msg.sender` to Buyer role"
      },
      "assignMeAsDesigner()": {
        "notice": "designer allways should be a menufacturer, after checking isManufacturer add it if not"
      },
      "assignMeAsManufacturer()": {
        "notice": "Function to assign caller `msg.sender` to manufacturer role"
      },
      "assignMeAsSeller()": {
        "notice": "Function to assign caller `msg.sender` to Seller role"
      },
      "designProduct(string,string,string,string)": {
        "notice": "Function helps Designer to estaplish a new Product Design"
      },
      "fetchProductLoaudData(uint256)": {
        "notice": "public data featching functions"
      },
      "isBuyer(address)": {
        "notice": "uses'Roles' library's internal function `has()` to check, refer to library for more detail"
      },
      "isDesigner(address)": {
        "notice": "uses'Roles' library's internal function `has()` to check, refer to library for more detail"
      },
      "isManufacturer(address)": {
        "notice": "uses'Roles' library's internal function `has()` to check, refer to library for more detail"
      },
      "isSeller(address)": {
        "notice": "uses'Roles' library's internal function `has()` to check, refer to library for more detail"
      },
      "manufacturProductsLoud(uint256,uint256)": {
        "notice": "Function helps manufacturer to manufactur a new Product Loud"
      },
      "purchaseProductDesign(uint256)": {
        "notice": "Function to purchase a Product design"
      },
      "renounceMeFromBuyer()": {
        "notice": "Function to renounce caller `msg.sender` from Buyer role"
      },
      "renounceMeFromDesigner()": {
        "notice": "Function to renounce caller `msg.sender` from designer role"
      },
      "renounceMeFromManufacturer()": {
        "notice": "Function to renounce caller `msg.sender` from manufacturer role"
      },
      "renounceMeFromSeller()": {
        "notice": "Function to renounce caller `msg.sender` from Seller role"
      },
      "upForSale(uint256,uint256)": {
        "notice": "Function to sale a Product design"
      }
    }
  }
}