{
  "contractName": "MainChain",
  "abi": [
    {
      "constant": false,
      "inputs": [],
      "name": "renounceMeFromBuyer",
      "outputs": [],
      "payable": false,
      "stateMutability": "nonpayable",
      "type": "function"
    },
    {
      "constant": true,
      "inputs": [
        {
          "name": "account",
          "type": "address"
        }
      ],
      "name": "isManufacturer",
      "outputs": [
        {
          "name": "",
          "type": "bool"
        }
      ],
      "payable": false,
      "stateMutability": "view",
      "type": "function"
    },
    {
      "constant": false,
      "inputs": [
        {
          "name": "recipient",
          "type": "address"
        }
      ],
      "name": "transferPrimary",
      "outputs": [],
      "payable": false,
      "stateMutability": "nonpayable",
      "type": "function"
    },
    {
      "constant": true,
      "inputs": [
        {
          "name": "account",
          "type": "address"
        }
      ],
      "name": "isBuyer",
      "outputs": [
        {
          "name": "",
          "type": "bool"
        }
      ],
      "payable": false,
      "stateMutability": "view",
      "type": "function"
    },
    {
      "constant": true,
      "inputs": [
        {
          "name": "_pID",
          "type": "uint256"
        }
      ],
      "name": "fetchtaxHistory",
      "outputs": [
        {
          "name": "numberOfupdate",
          "type": "uint256"
        },
        {
          "name": "timeStamps",
          "type": "uint256[]"
        },
        {
          "name": "lastPaidTax",
          "type": "uint256[]"
        },
        {
          "name": "totalTax",
          "type": "uint256[]"
        },
        {
          "name": "updaterAddresses",
          "type": "address[]"
        }
      ],
      "payable": false,
      "stateMutability": "view",
      "type": "function"
    },
    {
      "constant": false,
      "inputs": [],
      "name": "assignMeAsBuyer",
      "outputs": [],
      "payable": false,
      "stateMutability": "nonpayable",
      "type": "function"
    },
    {
      "constant": false,
      "inputs": [
        {
          "name": "_pID",
          "type": "uint256"
        }
      ],
      "name": "purchaseProduct",
      "outputs": [],
      "payable": true,
      "stateMutability": "payable",
      "type": "function"
    },
    {
      "constant": false,
      "inputs": [],
      "name": "unpause",
      "outputs": [],
      "payable": false,
      "stateMutability": "nonpayable",
      "type": "function"
    },
    {
      "constant": true,
      "inputs": [
        {
          "name": "account",
          "type": "address"
        }
      ],
      "name": "isPauser",
      "outputs": [
        {
          "name": "",
          "type": "bool"
        }
      ],
      "payable": false,
      "stateMutability": "view",
      "type": "function"
    },
    {
      "constant": false,
      "inputs": [],
      "name": "assignMeAsManufacturer",
      "outputs": [],
      "payable": false,
      "stateMutability": "nonpayable",
      "type": "function"
    },
    {
      "constant": true,
      "inputs": [],
      "name": "paused",
      "outputs": [
        {
          "name": "",
          "type": "bool"
        }
      ],
      "payable": false,
      "stateMutability": "view",
      "type": "function"
    },
    {
      "constant": false,
      "inputs": [],
      "name": "renouncePauser",
      "outputs": [],
      "payable": false,
      "stateMutability": "nonpayable",
      "type": "function"
    },
    {
      "constant": false,
      "inputs": [],
      "name": "renounceOwnership",
      "outputs": [],
      "payable": false,
      "stateMutability": "nonpayable",
      "type": "function"
    },
    {
      "constant": true,
      "inputs": [
        {
          "name": "_pID",
          "type": "uint256"
        }
      ],
      "name": "fetchProductItemData",
      "outputs": [
        {
          "name": "pID",
          "type": "uint256"
        },
        {
          "name": "name",
          "type": "string"
        },
        {
          "name": "currentOwner",
          "type": "address"
        },
        {
          "name": "manufacturerId",
          "type": "address"
        },
        {
          "name": "price",
          "type": "uint256"
        },
        {
          "name": "totalTax",
          "type": "uint256"
        },
        {
          "name": "lastPaidTax",
          "type": "uint256"
        },
        {
          "name": "numberOfTaxUpdate",
          "type": "uint256"
        }
      ],
      "payable": false,
      "stateMutability": "view",
      "type": "function"
    },
    {
      "constant": false,
      "inputs": [
        {
          "name": "account",
          "type": "address"
        }
      ],
      "name": "addPauser",
      "outputs": [],
      "payable": false,
      "stateMutability": "nonpayable",
      "type": "function"
    },
    {
      "constant": false,
      "inputs": [],
      "name": "pause",
      "outputs": [],
      "payable": false,
      "stateMutability": "nonpayable",
      "type": "function"
    },
    {
      "constant": true,
      "inputs": [],
      "name": "owner",
      "outputs": [
        {
          "name": "",
          "type": "address"
        }
      ],
      "payable": false,
      "stateMutability": "view",
      "type": "function"
    },
    {
      "constant": true,
      "inputs": [],
      "name": "isOwner",
      "outputs": [
        {
          "name": "",
          "type": "bool"
        }
      ],
      "payable": false,
      "stateMutability": "view",
      "type": "function"
    },
    {
      "constant": false,
      "inputs": [],
      "name": "renounceMeFromManufacturer",
      "outputs": [],
      "payable": false,
      "stateMutability": "nonpayable",
      "type": "function"
    },
    {
      "constant": false,
      "inputs": [
        {
          "name": "_pID",
          "type": "uint256"
        },
        {
          "name": "_paidTax",
          "type": "uint256"
        }
      ],
      "name": "updateTaxHistory",
      "outputs": [],
      "payable": false,
      "stateMutability": "nonpayable",
      "type": "function"
    },
    {
      "constant": true,
      "inputs": [],
      "name": "taxCollector",
      "outputs": [
        {
          "name": "",
          "type": "address"
        }
      ],
      "payable": false,
      "stateMutability": "view",
      "type": "function"
    },
    {
      "constant": true,
      "inputs": [],
      "name": "amIBuyer",
      "outputs": [
        {
          "name": "",
          "type": "bool"
        }
      ],
      "payable": false,
      "stateMutability": "view",
      "type": "function"
    },
    {
      "constant": true,
      "inputs": [],
      "name": "primary",
      "outputs": [
        {
          "name": "",
          "type": "address"
        }
      ],
      "payable": false,
      "stateMutability": "view",
      "type": "function"
    },
    {
      "constant": false,
      "inputs": [
        {
          "name": "_price",
          "type": "uint256"
        },
        {
          "name": "_tax",
          "type": "uint256"
        },
        {
          "name": "_name",
          "type": "string"
        }
      ],
      "name": "manufacturProductsLoud",
      "outputs": [],
      "payable": false,
      "stateMutability": "nonpayable",
      "type": "function"
    },
    {
      "constant": true,
      "inputs": [],
      "name": "whoAmI",
      "outputs": [
        {
          "name": "Buyer",
          "type": "bool"
        },
        {
          "name": "manufacturer",
          "type": "bool"
        }
      ],
      "payable": false,
      "stateMutability": "view",
      "type": "function"
    },
    {
      "constant": true,
      "inputs": [],
      "name": "amIManufacturer",
      "outputs": [
        {
          "name": "",
          "type": "bool"
        }
      ],
      "payable": false,
      "stateMutability": "view",
      "type": "function"
    },
    {
      "constant": false,
      "inputs": [
        {
          "name": "_pID",
          "type": "uint256"
        },
        {
          "name": "newPrice",
          "type": "uint256"
        }
      ],
      "name": "setNewPrice",
      "outputs": [],
      "payable": false,
      "stateMutability": "nonpayable",
      "type": "function"
    },
    {
      "constant": false,
      "inputs": [
        {
          "name": "newOwner",
          "type": "address"
        }
      ],
      "name": "transferOwnership",
      "outputs": [],
      "payable": false,
      "stateMutability": "nonpayable",
      "type": "function"
    },
    {
      "inputs": [],
      "payable": false,
      "stateMutability": "nonpayable",
      "type": "constructor"
    },
    {
      "anonymous": false,
      "inputs": [
        {
          "indexed": false,
          "name": "recipient",
          "type": "address"
        }
      ],
      "name": "PrimaryTransferred",
      "type": "event"
    },
    {
      "anonymous": false,
      "inputs": [
        {
          "indexed": true,
          "name": "previousOwner",
          "type": "address"
        },
        {
          "indexed": true,
          "name": "newOwner",
          "type": "address"
        }
      ],
      "name": "OwnershipTransferred",
      "type": "event"
    },
    {
      "anonymous": false,
      "inputs": [
        {
          "indexed": false,
          "name": "pID",
          "type": "uint256"
        }
      ],
      "name": "Manufactured",
      "type": "event"
    },
    {
      "anonymous": false,
      "inputs": [
        {
          "indexed": false,
          "name": "pID",
          "type": "uint256"
        }
      ],
      "name": "taxUpdated",
      "type": "event"
    },
    {
      "anonymous": false,
      "inputs": [
        {
          "indexed": false,
          "name": "pID",
          "type": "uint256"
        }
      ],
      "name": "Purchased",
      "type": "event"
    },
    {
      "anonymous": false,
      "inputs": [
        {
          "indexed": false,
          "name": "account",
          "type": "address"
        }
      ],
      "name": "Paused",
      "type": "event"
    },
    {
      "anonymous": false,
      "inputs": [
        {
          "indexed": false,
          "name": "account",
          "type": "address"
        }
      ],
      "name": "Unpaused",
      "type": "event"
    },
    {
      "anonymous": false,
      "inputs": [
        {
          "indexed": true,
          "name": "account",
          "type": "address"
        }
      ],
      "name": "PauserAdded",
      "type": "event"
    },
    {
      "anonymous": false,
      "inputs": [
        {
          "indexed": true,
          "name": "account",
          "type": "address"
        }
      ],
      "name": "PauserRemoved",
      "type": "event"
    },
    {
      "anonymous": false,
      "inputs": [
        {
          "indexed": true,
          "name": "account",
          "type": "address"
        }
      ],
      "name": "ManufacturerAdded",
      "type": "event"
    },
    {
      "anonymous": false,
      "inputs": [
        {
          "indexed": true,
          "name": "account",
          "type": "address"
        }
      ],
      "name": "ManufacturerRemoved",
      "type": "event"
    },
    {
      "anonymous": false,
      "inputs": [
        {
          "indexed": true,
          "name": "account",
          "type": "address"
        }
      ],
      "name": "BuyerAdded",
      "type": "event"
    },
    {
      "anonymous": false,
      "inputs": [
        {
          "indexed": true,
          "name": "account",
          "type": "address"
        }
      ],
      "name": "BuyerRemoved",
      "type": "event"
    },
    {
      "constant": false,
      "inputs": [],
      "name": "kill",
      "outputs": [],
      "payable": false,
      "stateMutability": "nonpayable",
      "type": "function"
    }
  ],
  "bytecode": "0x60806040527314c2f828c13781b60e35d8dc3990dceb3cfbb704600660006101000a81548173ffffffffffffffffffffffffffffffffffffffff021916908373ffffffffffffffffffffffffffffffffffffffff1602179055503480156200006657600080fd5b5062000078336200027460201b60201c565b6200008933620002d560201b60201c565b620000a96200009d6200033660201b60201c565b6200033e60201b60201c565b6000600360006101000a81548160ff0219169083151502179055506000600481905550620000dc6200033660201b60201c565b600760006101000a81548173ffffffffffffffffffffffffffffffffffffffff021916908373ffffffffffffffffffffffffffffffffffffffff160217905550600760009054906101000a900473ffffffffffffffffffffffffffffffffffffffff1673ffffffffffffffffffffffffffffffffffffffff16600073ffffffffffffffffffffffffffffffffffffffff167f8be0079c531659141344cd1fd0a4f28419497f9722a3daafe3b4186f6b6457e060405160405180910390a3620001a96200033660201b60201c565b600860006101000a81548173ffffffffffffffffffffffffffffffffffffffff021916908373ffffffffffffffffffffffffffffffffffffffff1602179055507f4101e71e974f68df5e9730cc223280b41654676bbb052cdcc735c3337e64d2d9600860009054906101000a900473ffffffffffffffffffffffffffffffffffffffff16604051808273ffffffffffffffffffffffffffffffffffffffff1673ffffffffffffffffffffffffffffffffffffffff16815260200191505060405180910390a162000563565b6200028f8160006200039f60201b6200268d1790919060201c565b8073ffffffffffffffffffffffffffffffffffffffff167f6599d9dd7f97ccdc3d99ab507544f9f6ebfca20c63a7e3c018da49eeaefb164a60405160405180910390a250565b620002f08160016200039f60201b6200268d1790919060201c565b8073ffffffffffffffffffffffffffffffffffffffff167f561138658ca49a8540dc70dcfe64c9026c1c5b9344642242dd6562970f9c127860405160405180910390a250565b600033905090565b620003598160026200039f60201b6200268d1790919060201c565b8073ffffffffffffffffffffffffffffffffffffffff167f6719d08c1888103bea251a4ed56406bd0c3e69723c8a1686e017e7bbe159b6f860405160405180910390a250565b620003b182826200048360201b60201c565b1562000425576040517f08c379a000000000000000000000000000000000000000000000000000000000815260040180806020018281038252601f8152602001807f526f6c65733a206163636f756e7420616c72656164792068617320726f6c650081525060200191505060405180910390fd5b60018260000160008373ffffffffffffffffffffffffffffffffffffffff1673ffffffffffffffffffffffffffffffffffffffff16815260200190815260200160002060006101000a81548160ff0219169083151502179055505050565b60008073ffffffffffffffffffffffffffffffffffffffff168273ffffffffffffffffffffffffffffffffffffffff1614156200050c576040517f08c379a000000000000000000000000000000000000000000000000000000000815260040180806020018281038252602281526020018062002f4d6022913960400191505060405180910390fd5b8260000160008373ffffffffffffffffffffffffffffffffffffffff1673ffffffffffffffffffffffffffffffffffffffff16815260200190815260200160002060009054906101000a900460ff16905092915050565b6129da80620005736000396000f3fe6080604052600436106101c25760003560e01c80637ace31ef116100f7578063bea1dcf811610095578063da91254c11610064578063da91254c14610a00578063e1d6f86f14610a3a578063e23a60fe14610a69578063f2fde38b14610aae576101c2565b8063bea1dcf814610847578063c40f1bdc1461089e578063c6dbdf61146108cd578063d130cd6414610924576101c2565b80638da5cb5b116100d15780638da5cb5b146107655780638f32d59b146107bc578063a40e210f146107eb578063aa9903ee14610802576101c2565b80637ace31ef146105c057806382dc1ec4146106fd5780638456cb591461074e576101c2565b80633f4ba83a1161016457806348c149bd1161013e57806348c149bd1461054c5780635c975abb146105635780636ef8d66d14610592578063715018a6146105a9576101c2565b80633f4ba83a146104b557806341c0e1b5146104cc57806346fbf68e146104e3576101c2565b80632a55feec116101a05780632a55feec146102985780632c7cef2e1461030157806335db95e51461047057806338e76a0314610487576101c2565b806307e3c303146101c757806317d4a491146101de5780632348238c14610247575b600080fd5b3480156101d357600080fd5b506101dc610aff565b005b3480156101ea57600080fd5b5061022d6004803603602081101561020157600080fd5b81019080803573ffffffffffffffffffffffffffffffffffffffff169060200190929190505050610b0a565b604051808215151515815260200191505060405180910390f35b34801561025357600080fd5b506102966004803603602081101561026a57600080fd5b81019080803573ffffffffffffffffffffffffffffffffffffffff169060200190929190505050610b27565b005b3480156102a457600080fd5b506102e7600480360360208110156102bb57600080fd5b81019080803573ffffffffffffffffffffffffffffffffffffffff169060200190929190505050610d23565b604051808215151515815260200191505060405180910390f35b34801561030d57600080fd5b5061033a6004803603602081101561032457600080fd5b8101908080359060200190929190505050610d40565b6040518086815260200180602001806020018060200180602001858103855289818151815260200191508051906020019060200280838360005b8381101561038f578082015181840152602081019050610374565b50505050905001858103845288818151815260200191508051906020019060200280838360005b838110156103d15780820151818401526020810190506103b6565b50505050905001858103835287818151815260200191508051906020019060200280838360005b838110156104135780820151818401526020810190506103f8565b50505050905001858103825286818151815260200191508051906020019060200280838360005b8381101561045557808201518184015260208101905061043a565b50505050905001995050505050505050505060405180910390f35b34801561047c57600080fd5b50610485610f7a565b005b6104b36004803603602081101561049d57600080fd5b8101908080359060200190929190505050610f85565b005b3480156104c157600080fd5b506104ca611267565b005b3480156104d857600080fd5b506104e16113d5565b005b3480156104ef57600080fd5b506105326004803603602081101561050657600080fd5b81019080803573ffffffffffffffffffffffffffffffffffffffff169060200190929190505050611468565b604051808215151515815260200191505060405180910390f35b34801561055857600080fd5b50610561611485565b005b34801561056f57600080fd5b50610578611490565b604051808215151515815260200191505060405180910390f35b34801561059e57600080fd5b506105a76114a7565b005b3480156105b557600080fd5b506105be6114b9565b005b3480156105cc57600080fd5b506105f9600480360360208110156105e357600080fd5b81019080803590602001909291905050506115f4565b60405180898152602001806020018873ffffffffffffffffffffffffffffffffffffffff1673ffffffffffffffffffffffffffffffffffffffff1681526020018773ffffffffffffffffffffffffffffffffffffffff1673ffffffffffffffffffffffffffffffffffffffff168152602001868152602001858152602001848152602001838152602001828103825289818151815260200191508051906020019080838360005b838110156106bb5780820151818401526020810190506106a0565b50505050905090810190601f1680156106e85780820380516001836020036101000a031916815260200191505b50995050505050505050505060405180910390f35b34801561070957600080fd5b5061074c6004803603602081101561072057600080fd5b81019080803573ffffffffffffffffffffffffffffffffffffffff1690602001909291905050506117d5565b005b34801561075a57600080fd5b50610763611846565b005b34801561077157600080fd5b5061077a6119b5565b604051808273ffffffffffffffffffffffffffffffffffffffff1673ffffffffffffffffffffffffffffffffffffffff16815260200191505060405180910390f35b3480156107c857600080fd5b506107d16119df565b604051808215151515815260200191505060405180910390f35b3480156107f757600080fd5b50610800611a3e565b005b34801561080e57600080fd5b506108456004803603604081101561082557600080fd5b810190808035906020019092919080359060200190929190505050611a49565b005b34801561085357600080fd5b5061085c611a57565b604051808273ffffffffffffffffffffffffffffffffffffffff1673ffffffffffffffffffffffffffffffffffffffff16815260200191505060405180910390f35b3480156108aa57600080fd5b506108b3611a7d565b604051808215151515815260200191505060405180910390f35b3480156108d957600080fd5b506108e2611a98565b604051808273ffffffffffffffffffffffffffffffffffffffff1673ffffffffffffffffffffffffffffffffffffffff16815260200191505060405180910390f35b34801561093057600080fd5b506109fe6004803603606081101561094757600080fd5b8101908080359060200190929190803590602001909291908035906020019064010000000081111561097857600080fd5b82018360208201111561098a57600080fd5b803590602001918460018302840111640100000000831117156109ac57600080fd5b91908080601f016020809104026020016040519081016040528093929190818152602001838380828437600081840152601f19601f820116905080830192505050505050509192919290505050611ac2565b005b348015610a0c57600080fd5b50610a15611ad2565b6040518083151515158152602001821515151581526020019250505060405180910390f35b348015610a4657600080fd5b50610a4f611aed565b604051808215151515815260200191505060405180910390f35b348015610a7557600080fd5b50610aac60048036036040811015610a8c57600080fd5b810190808035906020019092919080359060200190929190505050611b08565b005b348015610aba57600080fd5b50610afd60048036036020811015610ad157600080fd5b81019080803573ffffffffffffffffffffffffffffffffffffffff169060200190929190505050611c14565b005b610b0833611c9a565b565b6000610b20826001611cf490919063ffffffff16565b9050919050565b600860009054906101000a900473ffffffffffffffffffffffffffffffffffffffff1673ffffffffffffffffffffffffffffffffffffffff16610b68611dd2565b73ffffffffffffffffffffffffffffffffffffffff1614610bd4576040517f08c379a000000000000000000000000000000000000000000000000000000000815260040180806020018281038252602c815260200180612983602c913960400191505060405180910390fd5b600073ffffffffffffffffffffffffffffffffffffffff168173ffffffffffffffffffffffffffffffffffffffff161415610c5a576040517f08c379a000000000000000000000000000000000000000000000000000000000815260040180806020018281038252602a815260200180612959602a913960400191505060405180910390fd5b80600860006101000a81548173ffffffffffffffffffffffffffffffffffffffff021916908373ffffffffffffffffffffffffffffffffffffffff1602179055507f4101e71e974f68df5e9730cc223280b41654676bbb052cdcc735c3337e64d2d9600860009054906101000a900473ffffffffffffffffffffffffffffffffffffffff16604051808273ffffffffffffffffffffffffffffffffffffffff1673ffffffffffffffffffffffffffffffffffffffff16815260200191505060405180910390a150565b6000610d39826000611cf490919063ffffffff16565b9050919050565b600060608060608085600060056000838152602001908152602001600020600601541415610d6d57600080fd5b600060056000898152602001908152602001600020905080600601549650606087604051908082528060200260200182016040528015610dbc5781602001602082028038833980820191505090505b509050606088604051908082528060200260200182016040528015610df05781602001602082028038833980820191505090505b509050606089604051908082528060200260200182016040528015610e245781602001602082028038833980820191505090505b50905060608a604051908082528060200260200182016040528015610e585781602001602082028038833980820191505090505b50905060008090505b8560060154811015610f5657600086600501600083815260200190815260200160002090508060000154868381518110610e9757fe5b6020026020010181815250508060010154858381518110610eb457fe5b6020026020010181815250508060020154848381518110610ed157fe5b6020026020010181815250508060030160009054906101000a900473ffffffffffffffffffffffffffffffffffffffff16838381518110610f0e57fe5b602002602001019073ffffffffffffffffffffffffffffffffffffffff16908173ffffffffffffffffffffffffffffffffffffffff1681525050508080600101915050610e61565b5083838383809a50819b50829c50839d505050505050505050505091939590929450565b610f8333611dda565b565b600360009054906101000a900460ff1615611008576040517f08c379a00000000000000000000000000000000000000000000000000000000081526004018080602001828103825260108152602001807f5061757361626c653a207061757365640000000000000000000000000000000081525060200191505060405180910390fd5b60006005600083815260200190815260200160002060040154905060006005600084815260200190815260200160002060020160019054906101000a900473ffffffffffffffffffffffffffffffffffffffff169050600060056000858152602001908152602001600020600501600060016005600088815260200190815260200160002060060154038152602001908152602001600020600101549050600081606460098602816110b657fe5b04039050606460098502816110c757fe5b04840134101561113f576040517f08c379a000000000000000000000000000000000000000000000000000000000815260040180806020018281038252600b8152602001807f4e6f7420456e6f7567682100000000000000000000000000000000000000000081525060200191505060405180910390fd5b60008183860101340390506000811461119a573373ffffffffffffffffffffffffffffffffffffffff166108fc829081150290604051600060405180830381858888f19350505050158015611198573d6000803e3d6000fd5b505b6111a386611e34565b6111ad8683611a49565b8373ffffffffffffffffffffffffffffffffffffffff166108fc8487019081150290604051600060405180830381858888f193505050501580156111f5573d6000803e3d6000fd5b50600660009054906101000a900473ffffffffffffffffffffffffffffffffffffffff1673ffffffffffffffffffffffffffffffffffffffff166108fc839081150290604051600060405180830381858888f1935050505015801561125e573d6000803e3d6000fd5b50505050505050565b611277611272611dd2565b611468565b6112cc576040517f08c379a00000000000000000000000000000000000000000000000000000000081526004018080602001828103825260308152602001806128c06030913960400191505060405180910390fd5b600360009054906101000a900460ff1661134e576040517f08c379a00000000000000000000000000000000000000000000000000000000081526004018080602001828103825260148152602001807f5061757361626c653a206e6f742070617573656400000000000000000000000081525060200191505060405180910390fd5b6000600360006101000a81548160ff0219169083151502179055507f5db9ee0a495bf2e6ff9c91a7834c1ba4fdd244a5e8aa4e537bd38aeae4b073aa611392611dd2565b604051808273ffffffffffffffffffffffffffffffffffffffff1673ffffffffffffffffffffffffffffffffffffffff16815260200191505060405180910390a1565b6113dd6119df565b61144f576040517f08c379a00000000000000000000000000000000000000000000000000000000081526004018080602001828103825260208152602001807f4f776e61626c653a2063616c6c6572206973206e6f7420746865206f776e657281525060200191505060405180910390fd5b3373ffffffffffffffffffffffffffffffffffffffff16ff5b600061147e826002611cf490919063ffffffff16565b9050919050565b61148e33611f21565b565b6000600360009054906101000a900460ff16905090565b6114b76114b2611dd2565b611f7b565b565b6114c16119df565b611533576040517f08c379a00000000000000000000000000000000000000000000000000000000081526004018080602001828103825260208152602001807f4f776e61626c653a2063616c6c6572206973206e6f7420746865206f776e657281525060200191505060405180910390fd5b600073ffffffffffffffffffffffffffffffffffffffff16600760009054906101000a900473ffffffffffffffffffffffffffffffffffffffff1673ffffffffffffffffffffffffffffffffffffffff167f8be0079c531659141344cd1fd0a4f28419497f9722a3daafe3b4186f6b6457e060405160405180910390a36000600760006101000a81548173ffffffffffffffffffffffffffffffffffffffff021916908373ffffffffffffffffffffffffffffffffffffffff160217905550565b600060606000806000806000806000891415611678576040517f08c379a000000000000000000000000000000000000000000000000000000000815260040180806020018281038252601a8152602001807f476976656e20704944204e6f742043726561746564205965742100000000000081525060200191505060405180910390fd5b6000600560008b81526020019081526020016000209050899850806000018054600181600116156101000203166002900480601f01602080910402602001604051908101604052809291908181526020018280546001816001161561010002031660029004801561172a5780601f106116ff5761010080835404028352916020019161172a565b820191906000526020600020905b81548152906001019060200180831161170d57829003601f168201915b505050505097508060020160019054906101000a900473ffffffffffffffffffffffffffffffffffffffff1696508060030160009054906101000a900473ffffffffffffffffffffffffffffffffffffffff169550806004015494508060060154915080600501600060018403815260200190815260200160002060020154935080600501600060018403815260200190815260200160002060010154925050919395975091939597565b6117e56117e0611dd2565b611468565b61183a576040517f08c379a00000000000000000000000000000000000000000000000000000000081526004018080602001828103825260308152602001806128c06030913960400191505060405180910390fd5b61184381611fd5565b50565b611856611851611dd2565b611468565b6118ab576040517f08c379a00000000000000000000000000000000000000000000000000000000081526004018080602001828103825260308152602001806128c06030913960400191505060405180910390fd5b600360009054906101000a900460ff161561192e576040517f08c379a00000000000000000000000000000000000000000000000000000000081526004018080602001828103825260108152602001807f5061757361626c653a207061757365640000000000000000000000000000000081525060200191505060405180910390fd5b6001600360006101000a81548160ff0219169083151502179055507f62e78cea01bee320cd4e420270b5ea74000d11b0c9f74754ebdbfc544b05a258611972611dd2565b604051808273ffffffffffffffffffffffffffffffffffffffff1673ffffffffffffffffffffffffffffffffffffffff16815260200191505060405180910390a1565b6000600760009054906101000a900473ffffffffffffffffffffffffffffffffffffffff16905090565b6000600760009054906101000a900473ffffffffffffffffffffffffffffffffffffffff1673ffffffffffffffffffffffffffffffffffffffff16611a22611dd2565b73ffffffffffffffffffffffffffffffffffffffff1614905090565b611a473361202f565b565b611a538282612089565b5050565b600660009054906101000a900473ffffffffffffffffffffffffffffffffffffffff1681565b6000611a93336000611cf490919063ffffffff16565b905090565b6000600860009054906101000a900473ffffffffffffffffffffffffffffffffffffffff16905090565b611acd838383612263565b505050565b600080611add611a7d565b9150611ae7611aed565b90509091565b6000611b03336001611cf490919063ffffffff16565b905090565b8160003373ffffffffffffffffffffffffffffffffffffffff166005600084815260200190815260200160002060020160019054906101000a900473ffffffffffffffffffffffffffffffffffffffff1673ffffffffffffffffffffffffffffffffffffffff1614905080611b7c57600080fd5b6000841415611bf3576040517f08c379a000000000000000000000000000000000000000000000000000000000815260040180806020018281038252601a8152602001807f476976656e20704944204e6f742043726561746564205965742100000000000081525060200191505060405180910390fd5b82600560008681526020019081526020016000206004018190555050505050565b611c1c6119df565b611c8e576040517f08c379a00000000000000000000000000000000000000000000000000000000081526004018080602001828103825260208152602001807f4f776e61626c653a2063616c6c6572206973206e6f7420746865206f776e657281525060200191505060405180910390fd5b611c978161248a565b50565b611cae8160006125d090919063ffffffff16565b8073ffffffffffffffffffffffffffffffffffffffff167f83fd4cbc7bc934bdfbae994ac6e72fcc0e50abd6995c1949520e761ba650d58260405160405180910390a250565b60008073ffffffffffffffffffffffffffffffffffffffff168273ffffffffffffffffffffffffffffffffffffffff161415611d7b576040517f08c379a00000000000000000000000000000000000000000000000000000000081526004018080602001828103825260228152602001806129376022913960400191505060405180910390fd5b8260000160008373ffffffffffffffffffffffffffffffffffffffff1673ffffffffffffffffffffffffffffffffffffffff16815260200190815260200160002060009054906101000a900460ff16905092915050565b600033905090565b611dee81600061268d90919063ffffffff16565b8073ffffffffffffffffffffffffffffffffffffffff167f6599d9dd7f97ccdc3d99ab507544f9f6ebfca20c63a7e3c018da49eeaefb164a60405160405180910390a250565b80600060056000838152602001908152602001600020600601541415611e5957600080fd5b60016005600084815260200190815260200160002060020160006101000a81548160ff02191690836001811115611e8c57fe5b0217905550336005600084815260200190815260200160002060020160016101000a81548173ffffffffffffffffffffffffffffffffffffffff021916908373ffffffffffffffffffffffffffffffffffffffff1602179055507f653d56639fee6b566a5c804764e9689de38645f0b733df89a36a1b7b42173dd8826040518082815260200191505060405180910390a15050565b611f3581600161268d90919063ffffffff16565b8073ffffffffffffffffffffffffffffffffffffffff167f561138658ca49a8540dc70dcfe64c9026c1c5b9344642242dd6562970f9c127860405160405180910390a250565b611f8f8160026125d090919063ffffffff16565b8073ffffffffffffffffffffffffffffffffffffffff167fcd265ebaf09df2871cc7bd4133404a235ba12eff2041bb89d9c714a2621c7c7e60405160405180910390a250565b611fe981600261268d90919063ffffffff16565b8073ffffffffffffffffffffffffffffffffffffffff167f6719d08c1888103bea251a4ed56406bd0c3e69723c8a1686e017e7bbe159b6f860405160405180910390a250565b6120438160016125d090919063ffffffff16565b8073ffffffffffffffffffffffffffffffffffffffff167f2fed5abf6a80d6dfe30b4895481b2fc5d7dce5f8f7b931832f4a2947d5040c7f60405160405180910390a250565b600080600560008581526020019081526020016000206006015414156120b157819050612119565b6000600560008581526020019081526020016000206006015414612118578160056000858152602001908152602001600020600501600060016005600088815260200190815260200160002060060154038152602001908152602001600020600201540190505b5b612121612768565b60405180608001604052804281526020018481526020018381526020013373ffffffffffffffffffffffffffffffffffffffff168152509050806005600086815260200190815260200160002060050160006005600088815260200190815260200160002060060154815260200190815260200160002060008201518160000155602082015181600101556040820151816002015560608201518160030160006101000a81548173ffffffffffffffffffffffffffffffffffffffff021916908373ffffffffffffffffffffffffffffffffffffffff16021790555090505060056000858152602001908152602001600020600601600081548092919060010191905055507fe0abde12d5564a014f3a4a4468f87400e13c581a9847e1868181a29dcc31e222846040518082815260200191505060405180910390a150505050565b6000600460008154600101919050819055905061227e6127a6565b8181602001818152505060008160400190600181111561229a57fe5b908160018111156122a757fe5b8152505033816060019073ffffffffffffffffffffffffffffffffffffffff16908173ffffffffffffffffffffffffffffffffffffffff168152505033816080019073ffffffffffffffffffffffffffffffffffffffff16908173ffffffffffffffffffffffffffffffffffffffff168152505060008160c0018181525050848160a00181815250508281600001819052508060056000848152602001908152602001600020600082015181600001908051906020019061236992919061281a565b506020820151816001015560408201518160020160006101000a81548160ff0219169083600181111561239857fe5b021790555060608201518160020160016101000a81548173ffffffffffffffffffffffffffffffffffffffff021916908373ffffffffffffffffffffffffffffffffffffffff16021790555060808201518160030160006101000a81548173ffffffffffffffffffffffffffffffffffffffff021916908373ffffffffffffffffffffffffffffffffffffffff16021790555060a0820151816004015560c0820151816006015590505061244c8285611a49565b7fd29d8a68ca7c8c74be5579719d445aabfe230ed6e6a83aff475a663500eb7609826040518082815260200191505060405180910390a15050505050565b600073ffffffffffffffffffffffffffffffffffffffff168173ffffffffffffffffffffffffffffffffffffffff161415612510576040517f08c379a00000000000000000000000000000000000000000000000000000000081526004018080602001828103825260268152602001806128f06026913960400191505060405180910390fd5b8073ffffffffffffffffffffffffffffffffffffffff16600760009054906101000a900473ffffffffffffffffffffffffffffffffffffffff1673ffffffffffffffffffffffffffffffffffffffff167f8be0079c531659141344cd1fd0a4f28419497f9722a3daafe3b4186f6b6457e060405160405180910390a380600760006101000a81548173ffffffffffffffffffffffffffffffffffffffff021916908373ffffffffffffffffffffffffffffffffffffffff16021790555050565b6125da8282611cf4565b61262f576040517f08c379a00000000000000000000000000000000000000000000000000000000081526004018080602001828103825260218152602001806129166021913960400191505060405180910390fd5b60008260000160008373ffffffffffffffffffffffffffffffffffffffff1673ffffffffffffffffffffffffffffffffffffffff16815260200190815260200160002060006101000a81548160ff0219169083151502179055505050565b6126978282611cf4565b1561270a576040517f08c379a000000000000000000000000000000000000000000000000000000000815260040180806020018281038252601f8152602001807f526f6c65733a206163636f756e7420616c72656164792068617320726f6c650081525060200191505060405180910390fd5b60018260000160008373ffffffffffffffffffffffffffffffffffffffff1673ffffffffffffffffffffffffffffffffffffffff16815260200190815260200160002060006101000a81548160ff0219169083151502179055505050565b6040518060800160405280600081526020016000815260200160008152602001600073ffffffffffffffffffffffffffffffffffffffff1681525090565b6040518060e001604052806060815260200160008152602001600060018111156127cc57fe5b8152602001600073ffffffffffffffffffffffffffffffffffffffff168152602001600073ffffffffffffffffffffffffffffffffffffffff16815260200160008152602001600081525090565b828054600181600116156101000203166002900490600052602060002090601f016020900481019282601f1061285b57805160ff1916838001178555612889565b82800160010185558215612889579182015b8281111561288857825182559160200191906001019061286d565b5b509050612896919061289a565b5090565b6128bc91905b808211156128b85760008160009055506001016128a0565b5090565b9056fe506175736572526f6c653a2063616c6c657220646f6573206e6f742068617665207468652050617573657220726f6c654f776e61626c653a206e6577206f776e657220697320746865207a65726f2061646472657373526f6c65733a206163636f756e7420646f6573206e6f74206861766520726f6c65526f6c65733a206163636f756e7420697320746865207a65726f20616464726573735365636f6e646172793a206e6577207072696d61727920697320746865207a65726f20616464726573735365636f6e646172793a2063616c6c6572206973206e6f7420746865207072696d617279206163636f756e74a165627a7a7230582099395734c164fd99ae4ab11c52a784d5767686866e20677f3a53eac7617e22a60029526f6c65733a206163636f756e7420697320746865207a65726f2061646472657373",
  "source": "pragma solidity ^0.5.0;\r\n\r\n/// Import supply chain `Base` contract\r\nimport \"./SupplyChain.sol\";\r\n\r\n/// Import `Ownable` contract from OpenZeppelin package\r\nimport \"./openzeppelin/contracts/ownership/Ownable.sol\";\r\n\r\n/// Import `Secondary` contract from OpenZeppelin package\r\nimport \"./openzeppelin/contracts/ownership/Secondary.sol\";\r\n\r\n/// @title Main Chain Contract \r\n/// @dev  **TODO** this contract will use Proxy to make the suply chain upgradable\r\ncontract MainChain is SupplyChain, Ownable, Secondary {\r\n    constructor() public {\r\n\r\n    }\r\n\r\n    // Kill function if required\r\n    function kill() public onlyOwner() {\r\n        selfdestruct(msg.sender);\r\n    }\r\n\r\n   /* function purchaseProduct (uint _pku)\r\n        public\r\n        payable\r\n    {\r\n        super.purchaseProduct(_pku);\r\n\r\n        uint price = pItems[_pku].price;\r\n        address payable developerId = address(uint160(owner()));\r\n        uint developerBounty = price*1 /100;\r\n        developerId.transfer(developerBounty);\r\n\r\n    }*/\r\n\r\n}\r\n",
  "sourcePath": "E:/document/blockchain/myprojects/simplevat/contracts/MainChain.sol",
  "compiler": {
    "name": "solc",
    "version": "0.5.8+commit.23d335f2.Emscripten.clang"
  },
  "schemaVersion": "3.0.16",
  "updatedAt": "2019-09-28T09:14:33.689Z",
  "devdoc": {
    "details": "**TODO** this contract will use Proxy to make the suply chain upgradable",
    "methods": {
      "amIBuyer()": {
        "return": "boolean for caller address state in `_Buyers` Role"
      },
      "amIManufacturer()": {
        "return": "boolean for caller address state in `_manufacturers` Role"
      },
      "isOwner()": {
        "details": "Returns true if the caller is the current owner."
      },
      "owner()": {
        "details": "Returns the address of the current owner."
      },
      "pause()": {
        "details": "Called by a pauser to pause, triggers stopped state."
      },
      "paused()": {
        "details": "Returns true if the contract is paused, and false otherwise."
      },
      "primary()": {
        "return": "the address of the primary."
      },
      "renounceOwnership()": {
        "details": "Leaves the contract without owner. It will not be possible to call `onlyOwner` functions anymore. Can only be called by the current owner.     * NOTE: Renouncing ownership will leave the contract without an owner, thereby removing any functionality that is only available to the owner."
      },
      "transferOwnership(address)": {
        "details": "Transfers ownership of the contract to a new account (`newOwner`). Can only be called by the current owner."
      },
      "transferPrimary(address)": {
        "details": "Transfers contract to a new primary.",
        "params": {
          "recipient": "The address of new primary."
        }
      },
      "unpause()": {
        "details": "Called by a pauser to unpause, returns to normal state."
      },
      "whoAmI()": {
        "return": "array contining every role with its state as boolean"
      }
    }
  },
  "userdoc": {
    "methods": {
      "assignMeAsBuyer()": {
        "notice": "Function to assign caller `msg.sender` to Buyer role"
      },
      "assignMeAsManufacturer()": {
        "notice": "Function to assign caller `msg.sender` to manufacturer role"
      },
      "isBuyer(address)": {
        "notice": "uses'Roles' library's internal function `has()` to check, refer to library for more detail"
      },
      "isManufacturer(address)": {
        "notice": "uses'Roles' library's internal function `has()` to check, refer to library for more detail"
      },
      "purchaseProduct(uint256)": {
        "notice": "Function helps manufacturer to Pack a isManufactured Product Loud"
      },
      "renounceMeFromBuyer()": {
        "notice": "Function to renounce caller `msg.sender` from Buyer role"
      },
      "renounceMeFromManufacturer()": {
        "notice": "Function to renounce caller `msg.sender` from manufacturer role"
      }
    }
  }
}