{
  "contractName": "MainChain",
  "abi": [
    {
      "constant": false,
      "inputs": [],
      "name": "renounceMeFromBuyer",
      "outputs": [],
      "payable": false,
      "stateMutability": "nonpayable",
      "type": "function"
    },
    {
      "constant": true,
      "inputs": [
        {
          "name": "account",
          "type": "address"
        }
      ],
      "name": "isManufacturer",
      "outputs": [
        {
          "name": "",
          "type": "bool"
        }
      ],
      "payable": false,
      "stateMutability": "view",
      "type": "function"
    },
    {
      "constant": false,
      "inputs": [
        {
          "name": "recipient",
          "type": "address"
        }
      ],
      "name": "transferPrimary",
      "outputs": [],
      "payable": false,
      "stateMutability": "nonpayable",
      "type": "function"
    },
    {
      "constant": true,
      "inputs": [
        {
          "name": "account",
          "type": "address"
        }
      ],
      "name": "isBuyer",
      "outputs": [
        {
          "name": "",
          "type": "bool"
        }
      ],
      "payable": false,
      "stateMutability": "view",
      "type": "function"
    },
    {
      "constant": true,
      "inputs": [
        {
          "name": "_pID",
          "type": "uint256"
        }
      ],
      "name": "fetchtaxHistory",
      "outputs": [
        {
          "name": "numberOfupdate",
          "type": "uint256"
        },
        {
          "name": "timeStamps",
          "type": "uint256[]"
        },
        {
          "name": "lastPaidTax",
          "type": "uint256[]"
        },
        {
          "name": "totalTax",
          "type": "uint256[]"
        },
        {
          "name": "updaterAddresses",
          "type": "address[]"
        }
      ],
      "payable": false,
      "stateMutability": "view",
      "type": "function"
    },
    {
      "constant": false,
      "inputs": [],
      "name": "assignMeAsBuyer",
      "outputs": [],
      "payable": false,
      "stateMutability": "nonpayable",
      "type": "function"
    },
    {
      "constant": false,
      "inputs": [
        {
          "name": "_pID",
          "type": "uint256"
        }
      ],
      "name": "purchaseProduct",
      "outputs": [],
      "payable": true,
      "stateMutability": "payable",
      "type": "function"
    },
    {
      "constant": false,
      "inputs": [],
      "name": "unpause",
      "outputs": [],
      "payable": false,
      "stateMutability": "nonpayable",
      "type": "function"
    },
    {
      "constant": false,
      "inputs": [
        {
          "name": "_pID",
          "type": "uint256"
        }
      ],
      "name": "setCustomerRecieved",
      "outputs": [],
      "payable": false,
      "stateMutability": "nonpayable",
      "type": "function"
    },
    {
      "constant": true,
      "inputs": [
        {
          "name": "account",
          "type": "address"
        }
      ],
      "name": "isPauser",
      "outputs": [
        {
          "name": "",
          "type": "bool"
        }
      ],
      "payable": false,
      "stateMutability": "view",
      "type": "function"
    },
    {
      "constant": false,
      "inputs": [],
      "name": "assignMeAsManufacturer",
      "outputs": [],
      "payable": false,
      "stateMutability": "nonpayable",
      "type": "function"
    },
    {
      "constant": true,
      "inputs": [],
      "name": "paused",
      "outputs": [
        {
          "name": "",
          "type": "bool"
        }
      ],
      "payable": false,
      "stateMutability": "view",
      "type": "function"
    },
    {
      "constant": false,
      "inputs": [],
      "name": "renouncePauser",
      "outputs": [],
      "payable": false,
      "stateMutability": "nonpayable",
      "type": "function"
    },
    {
      "constant": false,
      "inputs": [],
      "name": "renounceOwnership",
      "outputs": [],
      "payable": false,
      "stateMutability": "nonpayable",
      "type": "function"
    },
    {
      "constant": true,
      "inputs": [
        {
          "name": "_pID",
          "type": "uint256"
        }
      ],
      "name": "fetchProductItemData",
      "outputs": [
        {
          "name": "pID",
          "type": "uint256"
        },
        {
          "name": "name",
          "type": "string"
        },
        {
          "name": "currentOwner",
          "type": "address"
        },
        {
          "name": "manufacturerId",
          "type": "address"
        },
        {
          "name": "price",
          "type": "uint256"
        },
        {
          "name": "totalTax",
          "type": "uint256"
        },
        {
          "name": "lastPaidTax",
          "type": "uint256"
        },
        {
          "name": "numberOfTaxUpdate",
          "type": "uint256"
        },
        {
          "name": "customerRecieved",
          "type": "bool"
        }
      ],
      "payable": false,
      "stateMutability": "view",
      "type": "function"
    },
    {
      "constant": false,
      "inputs": [
        {
          "name": "account",
          "type": "address"
        }
      ],
      "name": "addPauser",
      "outputs": [],
      "payable": false,
      "stateMutability": "nonpayable",
      "type": "function"
    },
    {
      "constant": false,
      "inputs": [],
      "name": "pause",
      "outputs": [],
      "payable": false,
      "stateMutability": "nonpayable",
      "type": "function"
    },
    {
      "constant": true,
      "inputs": [],
      "name": "owner",
      "outputs": [
        {
          "name": "",
          "type": "address"
        }
      ],
      "payable": false,
      "stateMutability": "view",
      "type": "function"
    },
    {
      "constant": true,
      "inputs": [],
      "name": "isOwner",
      "outputs": [
        {
          "name": "",
          "type": "bool"
        }
      ],
      "payable": false,
      "stateMutability": "view",
      "type": "function"
    },
    {
      "constant": false,
      "inputs": [],
      "name": "renounceMeFromManufacturer",
      "outputs": [],
      "payable": false,
      "stateMutability": "nonpayable",
      "type": "function"
    },
    {
      "constant": false,
      "inputs": [
        {
          "name": "_pID",
          "type": "uint256"
        },
        {
          "name": "_paidTax",
          "type": "uint256"
        }
      ],
      "name": "updateTaxHistory",
      "outputs": [],
      "payable": false,
      "stateMutability": "nonpayable",
      "type": "function"
    },
    {
      "constant": true,
      "inputs": [],
      "name": "getLastPID",
      "outputs": [
        {
          "name": "",
          "type": "uint256"
        }
      ],
      "payable": false,
      "stateMutability": "view",
      "type": "function"
    },
    {
      "constant": true,
      "inputs": [
        {
          "name": "_pID",
          "type": "uint256"
        }
      ],
      "name": "getCustomerRecieved",
      "outputs": [
        {
          "name": "",
          "type": "bool"
        }
      ],
      "payable": false,
      "stateMutability": "view",
      "type": "function"
    },
    {
      "constant": true,
      "inputs": [],
      "name": "taxCollector",
      "outputs": [
        {
          "name": "",
          "type": "address"
        }
      ],
      "payable": false,
      "stateMutability": "view",
      "type": "function"
    },
    {
      "constant": true,
      "inputs": [],
      "name": "amIBuyer",
      "outputs": [
        {
          "name": "",
          "type": "bool"
        }
      ],
      "payable": false,
      "stateMutability": "view",
      "type": "function"
    },
    {
      "constant": true,
      "inputs": [],
      "name": "primary",
      "outputs": [
        {
          "name": "",
          "type": "address"
        }
      ],
      "payable": false,
      "stateMutability": "view",
      "type": "function"
    },
    {
      "constant": false,
      "inputs": [
        {
          "name": "_price",
          "type": "uint256"
        },
        {
          "name": "_tax",
          "type": "uint256"
        },
        {
          "name": "_name",
          "type": "string"
        }
      ],
      "name": "manufacturProductsLoud",
      "outputs": [],
      "payable": false,
      "stateMutability": "nonpayable",
      "type": "function"
    },
    {
      "constant": true,
      "inputs": [],
      "name": "whoAmI",
      "outputs": [
        {
          "name": "Buyer",
          "type": "bool"
        },
        {
          "name": "manufacturer",
          "type": "bool"
        }
      ],
      "payable": false,
      "stateMutability": "view",
      "type": "function"
    },
    {
      "constant": true,
      "inputs": [],
      "name": "amIManufacturer",
      "outputs": [
        {
          "name": "",
          "type": "bool"
        }
      ],
      "payable": false,
      "stateMutability": "view",
      "type": "function"
    },
    {
      "constant": false,
      "inputs": [
        {
          "name": "_pID",
          "type": "uint256"
        },
        {
          "name": "newPrice",
          "type": "uint256"
        }
      ],
      "name": "setNewPrice",
      "outputs": [],
      "payable": false,
      "stateMutability": "nonpayable",
      "type": "function"
    },
    {
      "constant": false,
      "inputs": [
        {
          "name": "newOwner",
          "type": "address"
        }
      ],
      "name": "transferOwnership",
      "outputs": [],
      "payable": false,
      "stateMutability": "nonpayable",
      "type": "function"
    },
    {
      "inputs": [],
      "payable": false,
      "stateMutability": "nonpayable",
      "type": "constructor"
    },
    {
      "anonymous": false,
      "inputs": [
        {
          "indexed": false,
          "name": "recipient",
          "type": "address"
        }
      ],
      "name": "PrimaryTransferred",
      "type": "event"
    },
    {
      "anonymous": false,
      "inputs": [
        {
          "indexed": true,
          "name": "previousOwner",
          "type": "address"
        },
        {
          "indexed": true,
          "name": "newOwner",
          "type": "address"
        }
      ],
      "name": "OwnershipTransferred",
      "type": "event"
    },
    {
      "anonymous": false,
      "inputs": [
        {
          "indexed": false,
          "name": "pID",
          "type": "uint256"
        }
      ],
      "name": "Manufactured",
      "type": "event"
    },
    {
      "anonymous": false,
      "inputs": [
        {
          "indexed": false,
          "name": "pID",
          "type": "uint256"
        }
      ],
      "name": "taxUpdated",
      "type": "event"
    },
    {
      "anonymous": false,
      "inputs": [
        {
          "indexed": false,
          "name": "pID",
          "type": "uint256"
        }
      ],
      "name": "Purchased",
      "type": "event"
    },
    {
      "anonymous": false,
      "inputs": [
        {
          "indexed": false,
          "name": "account",
          "type": "address"
        }
      ],
      "name": "Paused",
      "type": "event"
    },
    {
      "anonymous": false,
      "inputs": [
        {
          "indexed": false,
          "name": "account",
          "type": "address"
        }
      ],
      "name": "Unpaused",
      "type": "event"
    },
    {
      "anonymous": false,
      "inputs": [
        {
          "indexed": true,
          "name": "account",
          "type": "address"
        }
      ],
      "name": "PauserAdded",
      "type": "event"
    },
    {
      "anonymous": false,
      "inputs": [
        {
          "indexed": true,
          "name": "account",
          "type": "address"
        }
      ],
      "name": "PauserRemoved",
      "type": "event"
    },
    {
      "anonymous": false,
      "inputs": [
        {
          "indexed": true,
          "name": "account",
          "type": "address"
        }
      ],
      "name": "ManufacturerAdded",
      "type": "event"
    },
    {
      "anonymous": false,
      "inputs": [
        {
          "indexed": true,
          "name": "account",
          "type": "address"
        }
      ],
      "name": "ManufacturerRemoved",
      "type": "event"
    },
    {
      "anonymous": false,
      "inputs": [
        {
          "indexed": true,
          "name": "account",
          "type": "address"
        }
      ],
      "name": "BuyerAdded",
      "type": "event"
    },
    {
      "anonymous": false,
      "inputs": [
        {
          "indexed": true,
          "name": "account",
          "type": "address"
        }
      ],
      "name": "BuyerRemoved",
      "type": "event"
    },
    {
      "constant": false,
      "inputs": [],
      "name": "kill",
      "outputs": [],
      "payable": false,
      "stateMutability": "nonpayable",
      "type": "function"
    }
  ],
  "bytecode": "0x6080604052600060055573ac9cef7d952a26b75777ab191213073cdb987adb600760006101000a81548173ffffffffffffffffffffffffffffffffffffffff021916908373ffffffffffffffffffffffffffffffffffffffff1602179055503480156200006b57600080fd5b506200007d336200027960201b60201c565b6200008e33620002da60201b60201c565b620000ae620000a26200033b60201b60201c565b6200034360201b60201c565b6000600360006101000a81548160ff0219169083151502179055506000600481905550620000e16200033b60201b60201c565b600860006101000a81548173ffffffffffffffffffffffffffffffffffffffff021916908373ffffffffffffffffffffffffffffffffffffffff160217905550600860009054906101000a900473ffffffffffffffffffffffffffffffffffffffff1673ffffffffffffffffffffffffffffffffffffffff16600073ffffffffffffffffffffffffffffffffffffffff167f8be0079c531659141344cd1fd0a4f28419497f9722a3daafe3b4186f6b6457e060405160405180910390a3620001ae6200033b60201b60201c565b600960006101000a81548173ffffffffffffffffffffffffffffffffffffffff021916908373ffffffffffffffffffffffffffffffffffffffff1602179055507f4101e71e974f68df5e9730cc223280b41654676bbb052cdcc735c3337e64d2d9600960009054906101000a900473ffffffffffffffffffffffffffffffffffffffff16604051808273ffffffffffffffffffffffffffffffffffffffff1673ffffffffffffffffffffffffffffffffffffffff16815260200191505060405180910390a162000568565b62000294816000620003a460201b620029cf1790919060201c565b8073ffffffffffffffffffffffffffffffffffffffff167f6599d9dd7f97ccdc3d99ab507544f9f6ebfca20c63a7e3c018da49eeaefb164a60405160405180910390a250565b620002f5816001620003a460201b620029cf1790919060201c565b8073ffffffffffffffffffffffffffffffffffffffff167f561138658ca49a8540dc70dcfe64c9026c1c5b9344642242dd6562970f9c127860405160405180910390a250565b600033905090565b6200035e816002620003a460201b620029cf1790919060201c565b8073ffffffffffffffffffffffffffffffffffffffff167f6719d08c1888103bea251a4ed56406bd0c3e69723c8a1686e017e7bbe159b6f860405160405180910390a250565b620003b682826200048860201b60201c565b156200042a576040517f08c379a000000000000000000000000000000000000000000000000000000000815260040180806020018281038252601f8152602001807f526f6c65733a206163636f756e7420616c72656164792068617320726f6c650081525060200191505060405180910390fd5b60018260000160008373ffffffffffffffffffffffffffffffffffffffff1673ffffffffffffffffffffffffffffffffffffffff16815260200190815260200160002060006101000a81548160ff0219169083151502179055505050565b60008073ffffffffffffffffffffffffffffffffffffffff168273ffffffffffffffffffffffffffffffffffffffff16141562000511576040517f08c379a00000000000000000000000000000000000000000000000000000000081526004018080602001828103825260228152602001806200329e6022913960400191505060405180910390fd5b8260000160008373ffffffffffffffffffffffffffffffffffffffff1673ffffffffffffffffffffffffffffffffffffffff16815260200190815260200160002060009054906101000a900460ff16905092915050565b612d2680620005786000396000f3fe6080604052600436106101e35760003560e01c806382dc1ec411610102578063bea1dcf811610095578063da91254c11610064578063da91254c14610ae5578063e1d6f86f14610b1f578063e23a60fe14610b4e578063f2fde38b14610b93576101e3565b8063bea1dcf81461092c578063c40f1bdc14610983578063c6dbdf61146109b2578063d130cd6414610a09576101e3565b8063a40e210f116100d1578063a40e210f14610852578063aa9903ee14610869578063ac2f03e0146108ae578063b3bf8d3e146108d9576101e3565b806382dc1ec4146107645780638456cb59146107b55780638da5cb5b146107cc5780638f32d59b14610823576101e3565b806341c0e1b51161017a5780635c975abb116101495780635c975abb146105bf5780636ef8d66d146105ee578063715018a6146106055780637ace31ef1461061c576101e3565b806341c0e1b5146104ed578063449094f31461050457806346fbf68e1461053f57806348c149bd146105a8576101e3565b80632c7cef2e116101b65780632c7cef2e1461032257806335db95e51461049157806338e76a03146104a85780633f4ba83a146104d6576101e3565b806307e3c303146101e857806317d4a491146101ff5780632348238c146102685780632a55feec146102b9575b600080fd5b3480156101f457600080fd5b506101fd610be4565b005b34801561020b57600080fd5b5061024e6004803603602081101561022257600080fd5b81019080803573ffffffffffffffffffffffffffffffffffffffff169060200190929190505050610bef565b604051808215151515815260200191505060405180910390f35b34801561027457600080fd5b506102b76004803603602081101561028b57600080fd5b81019080803573ffffffffffffffffffffffffffffffffffffffff169060200190929190505050610c0c565b005b3480156102c557600080fd5b50610308600480360360208110156102dc57600080fd5b81019080803573ffffffffffffffffffffffffffffffffffffffff169060200190929190505050610e08565b604051808215151515815260200191505060405180910390f35b34801561032e57600080fd5b5061035b6004803603602081101561034557600080fd5b8101908080359060200190929190505050610e25565b6040518086815260200180602001806020018060200180602001858103855289818151815260200191508051906020019060200280838360005b838110156103b0578082015181840152602081019050610395565b50505050905001858103845288818151815260200191508051906020019060200280838360005b838110156103f25780820151818401526020810190506103d7565b50505050905001858103835287818151815260200191508051906020019060200280838360005b83811015610434578082015181840152602081019050610419565b50505050905001858103825286818151815260200191508051906020019060200280838360005b8381101561047657808201518184015260208101905061045b565b50505050905001995050505050505050505060405180910390f35b34801561049d57600080fd5b506104a661105f565b005b6104d4600480360360208110156104be57600080fd5b810190808035906020019092919050505061106a565b005b3480156104e257600080fd5b506104eb61134c565b005b3480156104f957600080fd5b506105026114ba565b005b34801561051057600080fd5b5061053d6004803603602081101561052757600080fd5b810190808035906020019092919050505061154d565b005b34801561054b57600080fd5b5061058e6004803603602081101561056257600080fd5b81019080803573ffffffffffffffffffffffffffffffffffffffff16906020019092919050505061166c565b604051808215151515815260200191505060405180910390f35b3480156105b457600080fd5b506105bd611689565b005b3480156105cb57600080fd5b506105d4611694565b604051808215151515815260200191505060405180910390f35b3480156105fa57600080fd5b506106036116ab565b005b34801561061157600080fd5b5061061a6116bd565b005b34801561062857600080fd5b506106556004803603602081101561063f57600080fd5b81019080803590602001909291905050506117f8565b604051808a8152602001806020018973ffffffffffffffffffffffffffffffffffffffff1673ffffffffffffffffffffffffffffffffffffffff1681526020018873ffffffffffffffffffffffffffffffffffffffff1673ffffffffffffffffffffffffffffffffffffffff1681526020018781526020018681526020018581526020018481526020018315151515815260200182810382528a818151815260200191508051906020019080838360005b83811015610721578082015181840152602081019050610706565b50505050905090810190601f16801561074e5780820380516001836020036101000a031916815260200191505b509a505050505050505050505060405180910390f35b34801561077057600080fd5b506107b36004803603602081101561078757600080fd5b81019080803573ffffffffffffffffffffffffffffffffffffffff1690602001909291905050506119f0565b005b3480156107c157600080fd5b506107ca611a61565b005b3480156107d857600080fd5b506107e1611bd0565b604051808273ffffffffffffffffffffffffffffffffffffffff1673ffffffffffffffffffffffffffffffffffffffff16815260200191505060405180910390f35b34801561082f57600080fd5b50610838611bfa565b604051808215151515815260200191505060405180910390f35b34801561085e57600080fd5b50610867611c59565b005b34801561087557600080fd5b506108ac6004803603604081101561088c57600080fd5b810190808035906020019092919080359060200190929190505050611c64565b005b3480156108ba57600080fd5b506108c3611c72565b6040518082815260200191505060405180910390f35b3480156108e557600080fd5b50610912600480360360208110156108fc57600080fd5b8101908080359060200190929190505050611c7c565b604051808215151515815260200191505060405180910390f35b34801561093857600080fd5b50610941611d1f565b604051808273ffffffffffffffffffffffffffffffffffffffff1673ffffffffffffffffffffffffffffffffffffffff16815260200191505060405180910390f35b34801561098f57600080fd5b50610998611d45565b604051808215151515815260200191505060405180910390f35b3480156109be57600080fd5b506109c7611d60565b604051808273ffffffffffffffffffffffffffffffffffffffff1673ffffffffffffffffffffffffffffffffffffffff16815260200191505060405180910390f35b348015610a1557600080fd5b50610ae360048036036060811015610a2c57600080fd5b81019080803590602001909291908035906020019092919080359060200190640100000000811115610a5d57600080fd5b820183602082011115610a6f57600080fd5b80359060200191846001830284011164010000000083111715610a9157600080fd5b91908080601f016020809104026020016040519081016040528093929190818152602001838380828437600081840152601f19601f820116905080830192505050505050509192919290505050611d8a565b005b348015610af157600080fd5b50610afa611d9a565b6040518083151515158152602001821515151581526020019250505060405180910390f35b348015610b2b57600080fd5b50610b34611db5565b604051808215151515815260200191505060405180910390f35b348015610b5a57600080fd5b50610b9160048036036040811015610b7157600080fd5b810190808035906020019092919080359060200190929190505050611dd0565b005b348015610b9f57600080fd5b50610be260048036036020811015610bb657600080fd5b81019080803573ffffffffffffffffffffffffffffffffffffffff169060200190929190505050611edc565b005b610bed33611f62565b565b6000610c05826001611fbc90919063ffffffff16565b9050919050565b600960009054906101000a900473ffffffffffffffffffffffffffffffffffffffff1673ffffffffffffffffffffffffffffffffffffffff16610c4d61209a565b73ffffffffffffffffffffffffffffffffffffffff1614610cb9576040517f08c379a000000000000000000000000000000000000000000000000000000000815260040180806020018281038252602c815260200180612ccf602c913960400191505060405180910390fd5b600073ffffffffffffffffffffffffffffffffffffffff168173ffffffffffffffffffffffffffffffffffffffff161415610d3f576040517f08c379a000000000000000000000000000000000000000000000000000000000815260040180806020018281038252602a815260200180612ca5602a913960400191505060405180910390fd5b80600960006101000a81548173ffffffffffffffffffffffffffffffffffffffff021916908373ffffffffffffffffffffffffffffffffffffffff1602179055507f4101e71e974f68df5e9730cc223280b41654676bbb052cdcc735c3337e64d2d9600960009054906101000a900473ffffffffffffffffffffffffffffffffffffffff16604051808273ffffffffffffffffffffffffffffffffffffffff1673ffffffffffffffffffffffffffffffffffffffff16815260200191505060405180910390a150565b6000610e1e826000611fbc90919063ffffffff16565b9050919050565b600060608060608085600060066000838152602001908152602001600020600601541415610e5257600080fd5b600060066000898152602001908152602001600020905080600601549650606087604051908082528060200260200182016040528015610ea15781602001602082028038833980820191505090505b509050606088604051908082528060200260200182016040528015610ed55781602001602082028038833980820191505090505b509050606089604051908082528060200260200182016040528015610f095781602001602082028038833980820191505090505b50905060608a604051908082528060200260200182016040528015610f3d5781602001602082028038833980820191505090505b50905060008090505b856006015481101561103b57600086600501600083815260200190815260200160002090508060000154868381518110610f7c57fe5b6020026020010181815250508060010154858381518110610f9957fe5b6020026020010181815250508060020154848381518110610fb657fe5b6020026020010181815250508060030160009054906101000a900473ffffffffffffffffffffffffffffffffffffffff16838381518110610ff357fe5b602002602001019073ffffffffffffffffffffffffffffffffffffffff16908173ffffffffffffffffffffffffffffffffffffffff1681525050508080600101915050610f46565b5083838383809a50819b50829c50839d505050505050505050505091939590929450565b611068336120a2565b565b600360009054906101000a900460ff16156110ed576040517f08c379a00000000000000000000000000000000000000000000000000000000081526004018080602001828103825260108152602001807f5061757361626c653a207061757365640000000000000000000000000000000081525060200191505060405180910390fd5b60006006600083815260200190815260200160002060040154905060006006600084815260200190815260200160002060020160019054906101000a900473ffffffffffffffffffffffffffffffffffffffff1690506000600660008581526020019081526020016000206005016000600160066000888152602001908152602001600020600601540381526020019081526020016000206001015490506000816064600986028161119b57fe5b04039050606460098502816111ac57fe5b048401341015611224576040517f08c379a000000000000000000000000000000000000000000000000000000000815260040180806020018281038252600b8152602001807f4e6f7420456e6f7567682100000000000000000000000000000000000000000081525060200191505060405180910390fd5b60008183860101340390506000811461127f573373ffffffffffffffffffffffffffffffffffffffff166108fc829081150290604051600060405180830381858888f1935050505015801561127d573d6000803e3d6000fd5b505b611288866120fc565b6112928683611c64565b8373ffffffffffffffffffffffffffffffffffffffff166108fc8487019081150290604051600060405180830381858888f193505050501580156112da573d6000803e3d6000fd5b50600760009054906101000a900473ffffffffffffffffffffffffffffffffffffffff1673ffffffffffffffffffffffffffffffffffffffff166108fc839081150290604051600060405180830381858888f19350505050158015611343573d6000803e3d6000fd5b50505050505050565b61135c61135761209a565b61166c565b6113b1576040517f08c379a0000000000000000000000000000000000000000000000000000000008152600401808060200182810382526030815260200180612c0c6030913960400191505060405180910390fd5b600360009054906101000a900460ff16611433576040517f08c379a00000000000000000000000000000000000000000000000000000000081526004018080602001828103825260148152602001807f5061757361626c653a206e6f742070617573656400000000000000000000000081525060200191505060405180910390fd5b6000600360006101000a81548160ff0219169083151502179055507f5db9ee0a495bf2e6ff9c91a7834c1ba4fdd244a5e8aa4e537bd38aeae4b073aa61147761209a565b604051808273ffffffffffffffffffffffffffffffffffffffff1673ffffffffffffffffffffffffffffffffffffffff16815260200191505060405180910390a1565b6114c2611bfa565b611534576040517f08c379a00000000000000000000000000000000000000000000000000000000081526004018080602001828103825260208152602001807f4f776e61626c653a2063616c6c6572206973206e6f7420746865206f776e657281525060200191505060405180910390fd5b3373ffffffffffffffffffffffffffffffffffffffff16ff5b8060003373ffffffffffffffffffffffffffffffffffffffff166006600084815260200190815260200160002060020160019054906101000a900473ffffffffffffffffffffffffffffffffffffffff1673ffffffffffffffffffffffffffffffffffffffff16149050806115c157600080fd5b6000831415611638576040517f08c379a000000000000000000000000000000000000000000000000000000000815260040180806020018281038252601a8152602001807f476976656e20704944204e6f742043726561746564205965742100000000000081525060200191505060405180910390fd5b60016006600085815260200190815260200160002060070160006101000a81548160ff021916908315150217905550505050565b6000611682826002611fbc90919063ffffffff16565b9050919050565b61169233612220565b565b6000600360009054906101000a900460ff16905090565b6116bb6116b661209a565b61227a565b565b6116c5611bfa565b611737576040517f08c379a00000000000000000000000000000000000000000000000000000000081526004018080602001828103825260208152602001807f4f776e61626c653a2063616c6c6572206973206e6f7420746865206f776e657281525060200191505060405180910390fd5b600073ffffffffffffffffffffffffffffffffffffffff16600860009054906101000a900473ffffffffffffffffffffffffffffffffffffffff1673ffffffffffffffffffffffffffffffffffffffff167f8be0079c531659141344cd1fd0a4f28419497f9722a3daafe3b4186f6b6457e060405160405180910390a36000600860006101000a81548173ffffffffffffffffffffffffffffffffffffffff021916908373ffffffffffffffffffffffffffffffffffffffff160217905550565b600060606000806000806000806000808a141561187d576040517f08c379a000000000000000000000000000000000000000000000000000000000815260040180806020018281038252601a8152602001807f476976656e20704944204e6f742043726561746564205965742100000000000081525060200191505060405180910390fd5b6000600660008c815260200190815260200160002090508a9950806000018054600181600116156101000203166002900480601f01602080910402602001604051908101604052809291908181526020018280546001816001161561010002031660029004801561192f5780601f106119045761010080835404028352916020019161192f565b820191906000526020600020905b81548152906001019060200180831161191257829003601f168201915b505050505098508060020160019054906101000a900473ffffffffffffffffffffffffffffffffffffffff1697508060030160009054906101000a900473ffffffffffffffffffffffffffffffffffffffff16965080600401549550806006015492508060050160006001850381526020019081526020016000206002015494508060050160006001850381526020019081526020016000206001015493508060070160009054906101000a900460ff169150509193959799909294969850565b611a006119fb61209a565b61166c565b611a55576040517f08c379a0000000000000000000000000000000000000000000000000000000008152600401808060200182810382526030815260200180612c0c6030913960400191505060405180910390fd5b611a5e816122d4565b50565b611a71611a6c61209a565b61166c565b611ac6576040517f08c379a0000000000000000000000000000000000000000000000000000000008152600401808060200182810382526030815260200180612c0c6030913960400191505060405180910390fd5b600360009054906101000a900460ff1615611b49576040517f08c379a00000000000000000000000000000000000000000000000000000000081526004018080602001828103825260108152602001807f5061757361626c653a207061757365640000000000000000000000000000000081525060200191505060405180910390fd5b6001600360006101000a81548160ff0219169083151502179055507f62e78cea01bee320cd4e420270b5ea74000d11b0c9f74754ebdbfc544b05a258611b8d61209a565b604051808273ffffffffffffffffffffffffffffffffffffffff1673ffffffffffffffffffffffffffffffffffffffff16815260200191505060405180910390a1565b6000600860009054906101000a900473ffffffffffffffffffffffffffffffffffffffff16905090565b6000600860009054906101000a900473ffffffffffffffffffffffffffffffffffffffff1673ffffffffffffffffffffffffffffffffffffffff16611c3d61209a565b73ffffffffffffffffffffffffffffffffffffffff1614905090565b611c623361232e565b565b611c6e8282612388565b5050565b6000600554905090565b600080821415611cf4576040517f08c379a000000000000000000000000000000000000000000000000000000000815260040180806020018281038252601a8152602001807f476976656e20704944204e6f742043726561746564205965742100000000000081525060200191505060405180910390fd5b6006600083815260200190815260200160002060070160009054906101000a900460ff169050919050565b600760009054906101000a900473ffffffffffffffffffffffffffffffffffffffff1681565b6000611d5b336000611fbc90919063ffffffff16565b905090565b6000600960009054906101000a900473ffffffffffffffffffffffffffffffffffffffff16905090565b611d95838383612562565b505050565b600080611da5611d45565b9150611daf611db5565b90509091565b6000611dcb336001611fbc90919063ffffffff16565b905090565b8160003373ffffffffffffffffffffffffffffffffffffffff166006600084815260200190815260200160002060020160019054906101000a900473ffffffffffffffffffffffffffffffffffffffff1673ffffffffffffffffffffffffffffffffffffffff1614905080611e4457600080fd5b6000841415611ebb576040517f08c379a000000000000000000000000000000000000000000000000000000000815260040180806020018281038252601a8152602001807f476976656e20704944204e6f742043726561746564205965742100000000000081525060200191505060405180910390fd5b82600660008681526020019081526020016000206004018190555050505050565b611ee4611bfa565b611f56576040517f08c379a00000000000000000000000000000000000000000000000000000000081526004018080602001828103825260208152602001807f4f776e61626c653a2063616c6c6572206973206e6f7420746865206f776e657281525060200191505060405180910390fd5b611f5f816127cc565b50565b611f7681600061291290919063ffffffff16565b8073ffffffffffffffffffffffffffffffffffffffff167f83fd4cbc7bc934bdfbae994ac6e72fcc0e50abd6995c1949520e761ba650d58260405160405180910390a250565b60008073ffffffffffffffffffffffffffffffffffffffff168273ffffffffffffffffffffffffffffffffffffffff161415612043576040517f08c379a0000000000000000000000000000000000000000000000000000000008152600401808060200182810382526022815260200180612c836022913960400191505060405180910390fd5b8260000160008373ffffffffffffffffffffffffffffffffffffffff1673ffffffffffffffffffffffffffffffffffffffff16815260200190815260200160002060009054906101000a900460ff16905092915050565b600033905090565b6120b68160006129cf90919063ffffffff16565b8073ffffffffffffffffffffffffffffffffffffffff167f6599d9dd7f97ccdc3d99ab507544f9f6ebfca20c63a7e3c018da49eeaefb164a60405160405180910390a250565b8060006006600083815260200190815260200160002060060154141561212157600080fd5b81600115156006600083815260200190815260200160002060070160009054906101000a900460ff161515141561215757600080fd5b60016006600085815260200190815260200160002060020160006101000a81548160ff0219169083600181111561218a57fe5b0217905550336006600085815260200190815260200160002060020160016101000a81548173ffffffffffffffffffffffffffffffffffffffff021916908373ffffffffffffffffffffffffffffffffffffffff1602179055507f653d56639fee6b566a5c804764e9689de38645f0b733df89a36a1b7b42173dd8836040518082815260200191505060405180910390a1505050565b6122348160016129cf90919063ffffffff16565b8073ffffffffffffffffffffffffffffffffffffffff167f561138658ca49a8540dc70dcfe64c9026c1c5b9344642242dd6562970f9c127860405160405180910390a250565b61228e81600261291290919063ffffffff16565b8073ffffffffffffffffffffffffffffffffffffffff167fcd265ebaf09df2871cc7bd4133404a235ba12eff2041bb89d9c714a2621c7c7e60405160405180910390a250565b6122e88160026129cf90919063ffffffff16565b8073ffffffffffffffffffffffffffffffffffffffff167f6719d08c1888103bea251a4ed56406bd0c3e69723c8a1686e017e7bbe159b6f860405160405180910390a250565b61234281600161291290919063ffffffff16565b8073ffffffffffffffffffffffffffffffffffffffff167f2fed5abf6a80d6dfe30b4895481b2fc5d7dce5f8f7b931832f4a2947d5040c7f60405160405180910390a250565b600080600660008581526020019081526020016000206006015414156123b057819050612418565b6000600660008581526020019081526020016000206006015414612417578160066000858152602001908152602001600020600501600060016006600088815260200190815260200160002060060154038152602001908152602001600020600201540190505b5b612420612aaa565b60405180608001604052804281526020018481526020018381526020013373ffffffffffffffffffffffffffffffffffffffff168152509050806006600086815260200190815260200160002060050160006006600088815260200190815260200160002060060154815260200190815260200160002060008201518160000155602082015181600101556040820151816002015560608201518160030160006101000a81548173ffffffffffffffffffffffffffffffffffffffff021916908373ffffffffffffffffffffffffffffffffffffffff16021790555090505060066000858152602001908152602001600020600601600081548092919060010191905055507fe0abde12d5564a014f3a4a4468f87400e13c581a9847e1868181a29dcc31e222846040518082815260200191505060405180910390a150505050565b6000600460008154600101919050819055905061257d612ae8565b8181602001818152505060008160400190600181111561259957fe5b908160018111156125a657fe5b8152505033816060019073ffffffffffffffffffffffffffffffffffffffff16908173ffffffffffffffffffffffffffffffffffffffff168152505033816080019073ffffffffffffffffffffffffffffffffffffffff16908173ffffffffffffffffffffffffffffffffffffffff168152505060008160c0018181525050848160a001818152505082816000018190525060008160e001901515908115158152505080600660008481526020019081526020016000206000820151816000019080519060200190612679929190612b66565b506020820151816001015560408201518160020160006101000a81548160ff021916908360018111156126a857fe5b021790555060608201518160020160016101000a81548173ffffffffffffffffffffffffffffffffffffffff021916908373ffffffffffffffffffffffffffffffffffffffff16021790555060808201518160030160006101000a81548173ffffffffffffffffffffffffffffffffffffffff021916908373ffffffffffffffffffffffffffffffffffffffff16021790555060a0820151816004015560c0820151816006015560e08201518160070160006101000a81548160ff02191690831515021790555090505061277c8285611c64565b6005600081548092919060010191905055507fd29d8a68ca7c8c74be5579719d445aabfe230ed6e6a83aff475a663500eb7609826040518082815260200191505060405180910390a15050505050565b600073ffffffffffffffffffffffffffffffffffffffff168173ffffffffffffffffffffffffffffffffffffffff161415612852576040517f08c379a0000000000000000000000000000000000000000000000000000000008152600401808060200182810382526026815260200180612c3c6026913960400191505060405180910390fd5b8073ffffffffffffffffffffffffffffffffffffffff16600860009054906101000a900473ffffffffffffffffffffffffffffffffffffffff1673ffffffffffffffffffffffffffffffffffffffff167f8be0079c531659141344cd1fd0a4f28419497f9722a3daafe3b4186f6b6457e060405160405180910390a380600860006101000a81548173ffffffffffffffffffffffffffffffffffffffff021916908373ffffffffffffffffffffffffffffffffffffffff16021790555050565b61291c8282611fbc565b612971576040517f08c379a0000000000000000000000000000000000000000000000000000000008152600401808060200182810382526021815260200180612c626021913960400191505060405180910390fd5b60008260000160008373ffffffffffffffffffffffffffffffffffffffff1673ffffffffffffffffffffffffffffffffffffffff16815260200190815260200160002060006101000a81548160ff0219169083151502179055505050565b6129d98282611fbc565b15612a4c576040517f08c379a000000000000000000000000000000000000000000000000000000000815260040180806020018281038252601f8152602001807f526f6c65733a206163636f756e7420616c72656164792068617320726f6c650081525060200191505060405180910390fd5b60018260000160008373ffffffffffffffffffffffffffffffffffffffff1673ffffffffffffffffffffffffffffffffffffffff16815260200190815260200160002060006101000a81548160ff0219169083151502179055505050565b6040518060800160405280600081526020016000815260200160008152602001600073ffffffffffffffffffffffffffffffffffffffff1681525090565b604051806101000160405280606081526020016000815260200160006001811115612b0f57fe5b8152602001600073ffffffffffffffffffffffffffffffffffffffff168152602001600073ffffffffffffffffffffffffffffffffffffffff16815260200160008152602001600081526020016000151581525090565b828054600181600116156101000203166002900490600052602060002090601f016020900481019282601f10612ba757805160ff1916838001178555612bd5565b82800160010185558215612bd5579182015b82811115612bd4578251825591602001919060010190612bb9565b5b509050612be29190612be6565b5090565b612c0891905b80821115612c04576000816000905550600101612bec565b5090565b9056fe506175736572526f6c653a2063616c6c657220646f6573206e6f742068617665207468652050617573657220726f6c654f776e61626c653a206e6577206f776e657220697320746865207a65726f2061646472657373526f6c65733a206163636f756e7420646f6573206e6f74206861766520726f6c65526f6c65733a206163636f756e7420697320746865207a65726f20616464726573735365636f6e646172793a206e6577207072696d61727920697320746865207a65726f20616464726573735365636f6e646172793a2063616c6c6572206973206e6f7420746865207072696d617279206163636f756e74a165627a7a72305820d091acf9e85b8fc23d58ce355b4dbcd7760a363c767539f10bf3d3757510aec60029526f6c65733a206163636f756e7420697320746865207a65726f2061646472657373",
  "source": "pragma solidity ^0.5.0;\r\n\r\n/// Import supply chain `Base` contract\r\nimport \"./SupplyChain.sol\";\r\n\r\n/// Import `Ownable` contract from OpenZeppelin package\r\nimport \"./openzeppelin/contracts/ownership/Ownable.sol\";\r\n\r\n/// Import `Secondary` contract from OpenZeppelin package\r\nimport \"./openzeppelin/contracts/ownership/Secondary.sol\";\r\n\r\n/// @title Main Chain Contract \r\n/// @dev  **TODO** this contract will use Proxy to make the suply chain upgradable\r\ncontract MainChain is SupplyChain, Ownable, Secondary {\r\n    constructor() public {\r\n\r\n    }\r\n\r\n    // Kill function if required\r\n    function kill() public onlyOwner() {\r\n        selfdestruct(msg.sender);\r\n    }\r\n\r\n   /* function purchaseProduct (uint _pku)\r\n        public\r\n        payable\r\n    {\r\n        super.purchaseProduct(_pku);\r\n\r\n        uint price = pItems[_pku].price;\r\n        address payable developerId = address(uint160(owner()));\r\n        uint developerBounty = price*1 /100;\r\n        developerId.transfer(developerBounty);\r\n\r\n    }*/\r\n\r\n}\r\n",
  "sourcePath": "E:/document/blockchain/myprojects/simplevat/contracts/MainChain.sol",
  "compiler": {
    "name": "solc",
    "version": "0.5.8+commit.23d335f2.Emscripten.clang"
  },
  "schemaVersion": "3.0.16",
  "updatedAt": "2019-10-02T05:35:35.377Z",
  "devdoc": {
    "details": "**TODO** this contract will use Proxy to make the suply chain upgradable",
    "methods": {
      "amIBuyer()": {
        "return": "boolean for caller address state in `_Buyers` Role"
      },
      "amIManufacturer()": {
        "return": "boolean for caller address state in `_manufacturers` Role"
      },
      "isOwner()": {
        "details": "Returns true if the caller is the current owner."
      },
      "owner()": {
        "details": "Returns the address of the current owner."
      },
      "pause()": {
        "details": "Called by a pauser to pause, triggers stopped state."
      },
      "paused()": {
        "details": "Returns true if the contract is paused, and false otherwise."
      },
      "primary()": {
        "return": "the address of the primary."
      },
      "renounceOwnership()": {
        "details": "Leaves the contract without owner. It will not be possible to call `onlyOwner` functions anymore. Can only be called by the current owner.     * NOTE: Renouncing ownership will leave the contract without an owner, thereby removing any functionality that is only available to the owner."
      },
      "transferOwnership(address)": {
        "details": "Transfers ownership of the contract to a new account (`newOwner`). Can only be called by the current owner."
      },
      "transferPrimary(address)": {
        "details": "Transfers contract to a new primary.",
        "params": {
          "recipient": "The address of new primary."
        }
      },
      "unpause()": {
        "details": "Called by a pauser to unpause, returns to normal state."
      },
      "whoAmI()": {
        "return": "array contining every role with its state as boolean"
      }
    }
  },
  "userdoc": {
    "methods": {
      "assignMeAsBuyer()": {
        "notice": "Function to assign caller `msg.sender` to Buyer role"
      },
      "assignMeAsManufacturer()": {
        "notice": "Function to assign caller `msg.sender` to manufacturer role"
      },
      "isBuyer(address)": {
        "notice": "uses'Roles' library's internal function `has()` to check, refer to library for more detail"
      },
      "isManufacturer(address)": {
        "notice": "uses'Roles' library's internal function `has()` to check, refer to library for more detail"
      },
      "purchaseProduct(uint256)": {
        "notice": "Function helps manufacturer to Pack a isManufactured Product Loud"
      },
      "renounceMeFromBuyer()": {
        "notice": "Function to renounce caller `msg.sender` from Buyer role"
      },
      "renounceMeFromManufacturer()": {
        "notice": "Function to renounce caller `msg.sender` from manufacturer role"
      }
    }
  }
}