{
  "contractName": "OwnableInterfaceId",
  "abi": [
    {
      "constant": true,
      "inputs": [],
      "name": "getInterfaceId",
      "outputs": [
        {
          "name": "",
          "type": "bytes4"
        }
      ],
      "payable": false,
      "stateMutability": "pure",
      "type": "function"
    }
  ],
  "bytecode": "0x608060405234801561001057600080fd5b50610148806100206000396000f3fe608060405234801561001057600080fd5b506004361061002b5760003560e01c80636b9241fc14610030575b600080fd5b61003861008c565b60405180827bffffffffffffffffffffffffffffffffffffffffffffffffffffffff19167bffffffffffffffffffffffffffffffffffffffffffffffffffffffff1916815260200191505060405180910390f35b6000808073ffffffffffffffffffffffffffffffffffffffff1663f2fde38b905060e01b8173ffffffffffffffffffffffffffffffffffffffff1663715018a6905060e01b8273ffffffffffffffffffffffffffffffffffffffff16638f32d59b905060e01b8373ffffffffffffffffffffffffffffffffffffffff16638da5cb5b905060e01b1818189150509056fea165627a7a72305820ae96af087fb0ce50e109085c7e8fc900c758cae4760d2cfdb2c49afeb6b2757b0029",
  "source": "pragma solidity ^0.5.0;\n\nimport \"../ownership/Ownable.sol\";\n\n/**\n * @title Ownable interface id calculator.\n * @dev See the EIP165 specification for more information:\n * https://eips.ethereum.org/EIPS/eip-165#specification\n */\ncontract OwnableInterfaceId {\n    function getInterfaceId() public pure returns (bytes4) {\n        Ownable i;\n        return i.owner.selector ^ i.isOwner.selector ^ i.renounceOwnership.selector ^ i.transferOwnership.selector;\n    }\n}\n",
  "sourcePath": "E:/document/blockchain/myprojects/simplevat/contracts/openzeppelin/contracts/mocks/OwnableInterfaceId.sol",
  "compiler": {
    "name": "solc",
    "version": "0.5.8+commit.23d335f2.Emscripten.clang"
  },
  "schemaVersion": "3.0.16",
  "updatedAt": "2019-09-24T08:06:32.761Z",
  "devdoc": {
    "details": "See the EIP165 specification for more information: https://eips.ethereum.org/EIPS/eip-165#specification",
    "methods": {},
    "title": "Ownable interface id calculator."
  },
  "userdoc": {
    "methods": {}
  }
}