{
  "contractName": "PausableMock",
  "abi": [
    {
      "constant": true,
      "inputs": [],
      "name": "count",
      "outputs": [
        {
          "name": "",
          "type": "uint256"
        }
      ],
      "payable": false,
      "stateMutability": "view",
      "type": "function"
    },
    {
      "constant": true,
      "inputs": [],
      "name": "onlyPauserMock",
      "outputs": [],
      "payable": false,
      "stateMutability": "view",
      "type": "function"
    },
    {
      "constant": false,
      "inputs": [],
      "name": "unpause",
      "outputs": [],
      "payable": false,
      "stateMutability": "nonpayable",
      "type": "function"
    },
    {
      "constant": true,
      "inputs": [
        {
          "name": "account",
          "type": "address"
        }
      ],
      "name": "isPauser",
      "outputs": [
        {
          "name": "",
          "type": "bool"
        }
      ],
      "payable": false,
      "stateMutability": "view",
      "type": "function"
    },
    {
      "constant": true,
      "inputs": [],
      "name": "paused",
      "outputs": [
        {
          "name": "",
          "type": "bool"
        }
      ],
      "payable": false,
      "stateMutability": "view",
      "type": "function"
    },
    {
      "constant": false,
      "inputs": [
        {
          "name": "account",
          "type": "address"
        }
      ],
      "name": "removePauser",
      "outputs": [],
      "payable": false,
      "stateMutability": "nonpayable",
      "type": "function"
    },
    {
      "constant": false,
      "inputs": [],
      "name": "renouncePauser",
      "outputs": [],
      "payable": false,
      "stateMutability": "nonpayable",
      "type": "function"
    },
    {
      "constant": true,
      "inputs": [],
      "name": "drasticMeasureTaken",
      "outputs": [
        {
          "name": "",
          "type": "bool"
        }
      ],
      "payable": false,
      "stateMutability": "view",
      "type": "function"
    },
    {
      "constant": false,
      "inputs": [
        {
          "name": "account",
          "type": "address"
        }
      ],
      "name": "addPauser",
      "outputs": [],
      "payable": false,
      "stateMutability": "nonpayable",
      "type": "function"
    },
    {
      "constant": false,
      "inputs": [],
      "name": "pause",
      "outputs": [],
      "payable": false,
      "stateMutability": "nonpayable",
      "type": "function"
    },
    {
      "inputs": [],
      "payable": false,
      "stateMutability": "nonpayable",
      "type": "constructor"
    },
    {
      "anonymous": false,
      "inputs": [
        {
          "indexed": false,
          "name": "account",
          "type": "address"
        }
      ],
      "name": "Paused",
      "type": "event"
    },
    {
      "anonymous": false,
      "inputs": [
        {
          "indexed": false,
          "name": "account",
          "type": "address"
        }
      ],
      "name": "Unpaused",
      "type": "event"
    },
    {
      "anonymous": false,
      "inputs": [
        {
          "indexed": true,
          "name": "account",
          "type": "address"
        }
      ],
      "name": "PauserAdded",
      "type": "event"
    },
    {
      "anonymous": false,
      "inputs": [
        {
          "indexed": true,
          "name": "account",
          "type": "address"
        }
      ],
      "name": "PauserRemoved",
      "type": "event"
    },
    {
      "constant": false,
      "inputs": [],
      "name": "normalProcess",
      "outputs": [],
      "payable": false,
      "stateMutability": "nonpayable",
      "type": "function"
    },
    {
      "constant": false,
      "inputs": [],
      "name": "drasticMeasure",
      "outputs": [],
      "payable": false,
      "stateMutability": "nonpayable",
      "type": "function"
    }
  ],
  "bytecode": "0x608060405234801561001057600080fd5b5061002d61002261006f60201b60201c565b61007760201b60201c565b6000600160006101000a81548160ff02191690831515021790555060006001806101000a81548160ff0219169083151502179055506000600281905550610294565b600033905090565b61008f8160006100d560201b6109341790919060201c565b8073ffffffffffffffffffffffffffffffffffffffff167f6719d08c1888103bea251a4ed56406bd0c3e69723c8a1686e017e7bbe159b6f860405160405180910390a250565b6100e582826101b660201b60201c565b15610158576040517f08c379a000000000000000000000000000000000000000000000000000000000815260040180806020018281038252601f8152602001807f526f6c65733a206163636f756e7420616c72656164792068617320726f6c650081525060200191505060405180910390fd5b60018260000160008373ffffffffffffffffffffffffffffffffffffffff1673ffffffffffffffffffffffffffffffffffffffff16815260200190815260200160002060006101000a81548160ff0219169083151502179055505050565b60008073ffffffffffffffffffffffffffffffffffffffff168273ffffffffffffffffffffffffffffffffffffffff16141561023d576040517f08c379a0000000000000000000000000000000000000000000000000000000008152600401808060200182810382526022815260200180610e0e6022913960400191505060405180910390fd5b8260000160008373ffffffffffffffffffffffffffffffffffffffff1673ffffffffffffffffffffffffffffffffffffffff16815260200190815260200160002060009054906101000a900460ff16905092915050565b610b6b806102a36000396000f3fe608060405234801561001057600080fd5b50600436106100b45760003560e01c80636ef8d66d116100715780636ef8d66d146101ad57806376657b8e146101b757806382dc1ec4146101d95780638456cb591461021d5780639958f04514610227578063e7651d7a14610231576100b4565b806306661abd146100b9578063329daf90146100d75780633f4ba83a146100e157806346fbf68e146100eb5780635c975abb146101475780636b2c0f5514610169575b600080fd5b6100c161023b565b6040518082815260200191505060405180910390f35b6100df610241565b005b6100e96102a8565b005b61012d6004803603602081101561010157600080fd5b81019080803573ffffffffffffffffffffffffffffffffffffffff169060200190929190505050610416565b604051808215151515815260200191505060405180910390f35b61014f610433565b604051808215151515815260200191505060405180910390f35b6101ab6004803603602081101561017f57600080fd5b81019080803573ffffffffffffffffffffffffffffffffffffffff16906020019092919050505061044a565b005b6101b5610456565b005b6101bf610468565b604051808215151515815260200191505060405180910390f35b61021b600480360360208110156101ef57600080fd5b81019080803573ffffffffffffffffffffffffffffffffffffffff16906020019092919050505061047a565b005b6102256104eb565b005b61022f610659565b005b6102396106f7565b005b60025481565b61025161024c61078e565b610416565b6102a6576040517f08c379a0000000000000000000000000000000000000000000000000000000008152600401808060200182810382526030815260200180610acd6030913960400191505060405180910390fd5b565b6102b86102b361078e565b610416565b61030d576040517f08c379a0000000000000000000000000000000000000000000000000000000008152600401808060200182810382526030815260200180610acd6030913960400191505060405180910390fd5b600160009054906101000a900460ff1661038f576040517f08c379a00000000000000000000000000000000000000000000000000000000081526004018080602001828103825260148152602001807f5061757361626c653a206e6f742070617573656400000000000000000000000081525060200191505060405180910390fd5b6000600160006101000a81548160ff0219169083151502179055507f5db9ee0a495bf2e6ff9c91a7834c1ba4fdd244a5e8aa4e537bd38aeae4b073aa6103d361078e565b604051808273ffffffffffffffffffffffffffffffffffffffff1673ffffffffffffffffffffffffffffffffffffffff16815260200191505060405180910390a1565b600061042c82600061079690919063ffffffff16565b9050919050565b6000600160009054906101000a900460ff16905090565b61045381610874565b50565b61046661046161078e565b610874565b565b6001809054906101000a900460ff1681565b61048a61048561078e565b610416565b6104df576040517f08c379a0000000000000000000000000000000000000000000000000000000008152600401808060200182810382526030815260200180610acd6030913960400191505060405180910390fd5b6104e881610880565b50565b6104fb6104f661078e565b610416565b610550576040517f08c379a0000000000000000000000000000000000000000000000000000000008152600401808060200182810382526030815260200180610acd6030913960400191505060405180910390fd5b600160009054906101000a900460ff16156105d3576040517f08c379a00000000000000000000000000000000000000000000000000000000081526004018080602001828103825260108152602001807f5061757361626c653a207061757365640000000000000000000000000000000081525060200191505060405180910390fd5b60018060006101000a81548160ff0219169083151502179055507f62e78cea01bee320cd4e420270b5ea74000d11b0c9f74754ebdbfc544b05a25861061661078e565b604051808273ffffffffffffffffffffffffffffffffffffffff1673ffffffffffffffffffffffffffffffffffffffff16815260200191505060405180910390a1565b600160009054906101000a900460ff166106db576040517f08c379a00000000000000000000000000000000000000000000000000000000081526004018080602001828103825260148152602001807f5061757361626c653a206e6f742070617573656400000000000000000000000081525060200191505060405180910390fd5b60018060016101000a81548160ff021916908315150217905550565b600160009054906101000a900460ff161561077a576040517f08c379a00000000000000000000000000000000000000000000000000000000081526004018080602001828103825260108152602001807f5061757361626c653a207061757365640000000000000000000000000000000081525060200191505060405180910390fd5b600260008154809291906001019190505550565b600033905090565b60008073ffffffffffffffffffffffffffffffffffffffff168273ffffffffffffffffffffffffffffffffffffffff16141561081d576040517f08c379a0000000000000000000000000000000000000000000000000000000008152600401808060200182810382526022815260200180610b1e6022913960400191505060405180910390fd5b8260000160008373ffffffffffffffffffffffffffffffffffffffff1673ffffffffffffffffffffffffffffffffffffffff16815260200190815260200160002060009054906101000a900460ff16905092915050565b61087d816108da565b50565b61089481600061093490919063ffffffff16565b8073ffffffffffffffffffffffffffffffffffffffff167f6719d08c1888103bea251a4ed56406bd0c3e69723c8a1686e017e7bbe159b6f860405160405180910390a250565b6108ee816000610a0f90919063ffffffff16565b8073ffffffffffffffffffffffffffffffffffffffff167fcd265ebaf09df2871cc7bd4133404a235ba12eff2041bb89d9c714a2621c7c7e60405160405180910390a250565b61093e8282610796565b156109b1576040517f08c379a000000000000000000000000000000000000000000000000000000000815260040180806020018281038252601f8152602001807f526f6c65733a206163636f756e7420616c72656164792068617320726f6c650081525060200191505060405180910390fd5b60018260000160008373ffffffffffffffffffffffffffffffffffffffff1673ffffffffffffffffffffffffffffffffffffffff16815260200190815260200160002060006101000a81548160ff0219169083151502179055505050565b610a198282610796565b610a6e576040517f08c379a0000000000000000000000000000000000000000000000000000000008152600401808060200182810382526021815260200180610afd6021913960400191505060405180910390fd5b60008260000160008373ffffffffffffffffffffffffffffffffffffffff1673ffffffffffffffffffffffffffffffffffffffff16815260200190815260200160002060006101000a81548160ff021916908315150217905550505056fe506175736572526f6c653a2063616c6c657220646f6573206e6f742068617665207468652050617573657220726f6c65526f6c65733a206163636f756e7420646f6573206e6f74206861766520726f6c65526f6c65733a206163636f756e7420697320746865207a65726f2061646472657373a165627a7a72305820b9692890add3d7188bc5b5554afd449d542dccf975137fb2ff23facd789045af0029526f6c65733a206163636f756e7420697320746865207a65726f2061646472657373",
  "source": "pragma solidity ^0.5.0;\n\nimport \"../lifecycle/Pausable.sol\";\nimport \"./PauserRoleMock.sol\";\n\n// mock class using Pausable\ncontract PausableMock is Pausable, PauserRoleMock {\n    bool public drasticMeasureTaken;\n    uint256 public count;\n\n    constructor () public {\n        drasticMeasureTaken = false;\n        count = 0;\n    }\n\n    function normalProcess() external whenNotPaused {\n        count++;\n    }\n\n    function drasticMeasure() external whenPaused {\n        drasticMeasureTaken = true;\n    }\n}\n",
  "sourcePath": "E:/document/blockchain/myprojects/simplevat/contracts/openzeppelin/contracts/mocks/PausableMock.sol",
  "compiler": {
    "name": "solc",
    "version": "0.5.8+commit.23d335f2.Emscripten.clang"
  },
  "schemaVersion": "3.0.16",
  "updatedAt": "2019-09-24T08:06:33.142Z",
  "devdoc": {
    "methods": {
      "pause()": {
        "details": "Called by a pauser to pause, triggers stopped state."
      },
      "paused()": {
        "details": "Returns true if the contract is paused, and false otherwise."
      },
      "unpause()": {
        "details": "Called by a pauser to unpause, returns to normal state."
      }
    }
  },
  "userdoc": {
    "methods": {}
  }
}