{
  "contractName": "ProductDesign",
  "abi": [
    {
      "inputs": [],
      "payable": false,
      "stateMutability": "nonpayable",
      "type": "constructor"
    },
    {
      "anonymous": false,
      "inputs": [
        {
          "indexed": false,
          "name": "udpc",
          "type": "uint256"
        }
      ],
      "name": "Owned",
      "type": "event"
    },
    {
      "anonymous": false,
      "inputs": [
        {
          "indexed": false,
          "name": "udpc",
          "type": "uint256"
        }
      ],
      "name": "TestCaseAdded",
      "type": "event"
    },
    {
      "anonymous": false,
      "inputs": [
        {
          "indexed": false,
          "name": "udpc",
          "type": "uint256"
        }
      ],
      "name": "Approved",
      "type": "event"
    },
    {
      "anonymous": false,
      "inputs": [
        {
          "indexed": false,
          "name": "udpc",
          "type": "uint256"
        }
      ],
      "name": "UpForSale",
      "type": "event"
    },
    {
      "anonymous": false,
      "inputs": [
        {
          "indexed": false,
          "name": "udpc",
          "type": "uint256"
        }
      ],
      "name": "ProductDesignPurchased",
      "type": "event"
    },
    {
      "anonymous": false,
      "inputs": [
        {
          "indexed": false,
          "name": "udpc",
          "type": "uint256"
        }
      ],
      "name": "SaleCanceled",
      "type": "event"
    },
    {
      "constant": false,
      "inputs": [
        {
          "name": "_designerName",
          "type": "string"
        },
        {
          "name": "_ProductName",
          "type": "string"
        },
        {
          "name": "_description",
          "type": "string"
        },
        {
          "name": "_notes",
          "type": "string"
        }
      ],
      "name": "designProduct",
      "outputs": [],
      "payable": false,
      "stateMutability": "nonpayable",
      "type": "function"
    },
    {
      "constant": false,
      "inputs": [
        {
          "name": "_udpc",
          "type": "uint256"
        },
        {
          "name": "_description",
          "type": "string"
        },
        {
          "name": "_isPassed",
          "type": "bool"
        },
        {
          "name": "_notes",
          "type": "string"
        }
      ],
      "name": "addTestCase",
      "outputs": [],
      "payable": false,
      "stateMutability": "nonpayable",
      "type": "function"
    },
    {
      "constant": false,
      "inputs": [
        {
          "name": "_udpc",
          "type": "uint256"
        },
        {
          "name": "_description",
          "type": "string"
        },
        {
          "name": "_isPassed",
          "type": "bool"
        },
        {
          "name": "_notes",
          "type": "string"
        }
      ],
      "name": "addTestCaseByRegulaor",
      "outputs": [],
      "payable": false,
      "stateMutability": "nonpayable",
      "type": "function"
    },
    {
      "constant": false,
      "inputs": [
        {
          "name": "_udpc",
          "type": "uint256"
        }
      ],
      "name": "approveProduct",
      "outputs": [],
      "payable": false,
      "stateMutability": "nonpayable",
      "type": "function"
    },
    {
      "constant": false,
      "inputs": [
        {
          "name": "_udpc",
          "type": "uint256"
        },
        {
          "name": "_price",
          "type": "uint256"
        }
      ],
      "name": "upForSale",
      "outputs": [],
      "payable": false,
      "stateMutability": "nonpayable",
      "type": "function"
    },
    {
      "constant": false,
      "inputs": [
        {
          "name": "_udpc",
          "type": "uint256"
        }
      ],
      "name": "purchaseProductDesign",
      "outputs": [],
      "payable": true,
      "stateMutability": "payable",
      "type": "function"
    },
    {
      "constant": true,
      "inputs": [
        {
          "name": "_udpc",
          "type": "uint256"
        }
      ],
      "name": "fetchProductDesignData",
      "outputs": [
        {
          "name": "currentOwner",
          "type": "address"
        },
        {
          "name": "designerId",
          "type": "address"
        },
        {
          "name": "designerName",
          "type": "string"
        },
        {
          "name": "ProductName",
          "type": "string"
        },
        {
          "name": "currentState",
          "type": "string"
        },
        {
          "name": "forSale",
          "type": "bool"
        },
        {
          "name": "salePrice",
          "type": "uint256"
        },
        {
          "name": "numberOfTests",
          "type": "uint256"
        },
        {
          "name": "numberOfManufacturers",
          "type": "uint256"
        }
      ],
      "payable": false,
      "stateMutability": "view",
      "type": "function"
    },
    {
      "constant": true,
      "inputs": [
        {
          "name": "_udpc",
          "type": "uint256"
        }
      ],
      "name": "featchProductDesignMetaData",
      "outputs": [
        {
          "name": "name",
          "type": "string"
        },
        {
          "name": "description",
          "type": "string"
        },
        {
          "name": "notes",
          "type": "string"
        }
      ],
      "payable": false,
      "stateMutability": "view",
      "type": "function"
    },
    {
      "constant": true,
      "inputs": [
        {
          "name": "_udpc",
          "type": "uint256"
        },
        {
          "name": "_testIndex",
          "type": "uint256"
        }
      ],
      "name": "featchProductDesignTestCases",
      "outputs": [
        {
          "name": "description",
          "type": "string"
        },
        {
          "name": "isPassed",
          "type": "bool"
        },
        {
          "name": "notes",
          "type": "string"
        }
      ],
      "payable": false,
      "stateMutability": "view",
      "type": "function"
    }
  ],
  "bytecode": "0x608060405234801561001057600080fd5b50600080819055506123c0806100276000396000f3fe6080604052600436106100865760003560e01c80634314d44d116100595780634314d44d146104fc5780635929130c14610671578063784167af1461069f57806378c81754146106e4578063e84228ce146108f657610086565b80631443bec71461008b5780631e8acbeb1461021757806327d554951461038c57806341a117cf146103c7575b600080fd5b34801561009757600080fd5b506100c4600480360360208110156100ae57600080fd5b8101908080359060200190929190505050610b83565b60405180806020018060200180602001848103845287818151815260200191508051906020019080838360005b8381101561010c5780820151818401526020810190506100f1565b50505050905090810190601f1680156101395780820380516001836020036101000a031916815260200191505b50848103835286818151815260200191508051906020019080838360005b83811015610172578082015181840152602081019050610157565b50505050905090810190601f16801561019f5780820380516001836020036101000a031916815260200191505b50848103825285818151815260200191508051906020019080838360005b838110156101d85780820151818401526020810190506101bd565b50505050905090810190601f1680156102055780820380516001836020036101000a031916815260200191505b50965050505050505060405180910390f35b34801561022357600080fd5b5061038a6004803603608081101561023a57600080fd5b81019080803590602001909291908035906020019064010000000081111561026157600080fd5b82018360208201111561027357600080fd5b8035906020019184600183028401116401000000008311171561029557600080fd5b91908080601f016020809104026020016040519081016040528093929190818152602001838380828437600081840152601f19601f8201169050808301925050505050505091929192908035151590602001909291908035906020019064010000000081111561030457600080fd5b82018360208201111561031657600080fd5b8035906020019184600183028401116401000000008311171561033857600080fd5b91908080601f016020809104026020016040519081016040528093929190818152602001838380828437600081840152601f19601f820116905080830192505050505050509192919290505050610e32565b005b34801561039857600080fd5b506103c5600480360360208110156103af57600080fd5b81019080803590602001909291905050506110bd565b005b3480156103d357600080fd5b5061040a600480360360408110156103ea57600080fd5b810190808035906020019092919080359060200190929190505050611177565b60405180806020018415151515815260200180602001838103835286818151815260200191508051906020019080838360005b8381101561045857808201518184015260208101905061043d565b50505050905090810190601f1680156104855780820380516001836020036101000a031916815260200191505b50838103825284818151815260200191508051906020019080838360005b838110156104be5780820151818401526020810190506104a3565b50505050905090810190601f1680156104eb5780820380516001836020036101000a031916815260200191505b509550505050505060405180910390f35b34801561050857600080fd5b5061066f6004803603608081101561051f57600080fd5b81019080803590602001909291908035906020019064010000000081111561054657600080fd5b82018360208201111561055857600080fd5b8035906020019184600183028401116401000000008311171561057a57600080fd5b91908080601f016020809104026020016040519081016040528093929190818152602001838380828437600081840152601f19601f820116905080830192505050505050509192919290803515159060200190929190803590602001906401000000008111156105e957600080fd5b8201836020820111156105fb57600080fd5b8035906020019184600183028401116401000000008311171561061d57600080fd5b91908080601f016020809104026020016040519081016040528093929190818152602001838380828437600081840152601f19601f820116905080830192505050505050509192919290505050611457565b005b61069d6004803603602081101561068757600080fd5b81019080803590602001909291905050506116e2565b005b3480156106ab57600080fd5b506106e2600480360360408110156106c257600080fd5b8101908080359060200190929190803590602001909291905050506118f2565b005b3480156106f057600080fd5b5061071d6004803603602081101561070757600080fd5b8101908080359060200190929190505050611a38565b604051808a73ffffffffffffffffffffffffffffffffffffffff1673ffffffffffffffffffffffffffffffffffffffff1681526020018973ffffffffffffffffffffffffffffffffffffffff1673ffffffffffffffffffffffffffffffffffffffff1681526020018060200180602001806020018815151515815260200187815260200186815260200185815260200184810384528b818151815260200191508051906020019080838360005b838110156107e55780820151818401526020810190506107ca565b50505050905090810190601f1680156108125780820380516001836020036101000a031916815260200191505b5084810383528a818151815260200191508051906020019080838360005b8381101561084b578082015181840152602081019050610830565b50505050905090810190601f1680156108785780820380516001836020036101000a031916815260200191505b50848103825289818151815260200191508051906020019080838360005b838110156108b1578082015181840152602081019050610896565b50505050905090810190601f1680156108de5780820380516001836020036101000a031916815260200191505b509c5050505050505050505050505060405180910390f35b34801561090257600080fd5b50610b816004803603608081101561091957600080fd5b810190808035906020019064010000000081111561093657600080fd5b82018360208201111561094857600080fd5b8035906020019184600183028401116401000000008311171561096a57600080fd5b91908080601f016020809104026020016040519081016040528093929190818152602001838380828437600081840152601f19601f820116905080830192505050505050509192919290803590602001906401000000008111156109cd57600080fd5b8201836020820111156109df57600080fd5b80359060200191846001830284011164010000000083111715610a0157600080fd5b91908080601f016020809104026020016040519081016040528093929190818152602001838380828437600081840152601f19601f82011690508083019250505050505050919291929080359060200190640100000000811115610a6457600080fd5b820183602082011115610a7657600080fd5b80359060200191846001830284011164010000000083111715610a9857600080fd5b91908080601f016020809104026020016040519081016040528093929190818152602001838380828437600081840152601f19601f82011690508083019250505050505050919291929080359060200190640100000000811115610afb57600080fd5b820183602082011115610b0d57600080fd5b80359060200191846001830284011164010000000083111715610b2f57600080fd5b91908080601f016020809104026020016040519081016040528093929190818152602001838380828437600081840152601f19601f820116905080830192505050505050509192919290505050611f6a565b005b6060806060600054841115610c00576040517f08c379a000000000000000000000000000000000000000000000000000000000815260040180806020018281038252601b8152602001807f476976656e2055445043204e6f7420437265617465642059657421000000000081525060200191505060405180910390fd5b600160008581526020019081526020016000206005016000016001600086815260200190815260200160002060050160010160016000878152602001908152602001600020600501600201828054600181600116156101000203166002900480601f016020809104026020016040519081016040528092919081815260200182805460018160011615610100020316600290048015610ce05780601f10610cb557610100808354040283529160200191610ce0565b820191906000526020600020905b815481529060010190602001808311610cc357829003601f168201915b50505050509250818054600181600116156101000203166002900480601f016020809104026020016040519081016040528092919081815260200182805460018160011615610100020316600290048015610d7c5780601f10610d5157610100808354040283529160200191610d7c565b820191906000526020600020905b815481529060010190602001808311610d5f57829003601f168201915b50505050509150808054600181600116156101000203166002900480601f016020809104026020016040519081016040528092919081815260200182805460018160011615610100020316600290048015610e185780601f10610ded57610100808354040283529160200191610e18565b820191906000526020600020905b815481529060010190602001808311610dfb57829003601f168201915b505050505090508093508194508295505050509193909250565b600054841115610eaa576040517f08c379a000000000000000000000000000000000000000000000000000000000815260040180806020018281038252601b8152602001807f476976656e2055445043204e6f7420437265617465642059657421000000000081525060200191505060405180910390fd5b610eb2612205565b6040518060a001604052803373ffffffffffffffffffffffffffffffffffffffff16815260200142815260200184151581526020018581526020018381525090508060016000878152602001908152602001600020600a0160006001600089815260200190815260200160002060090154815260200190815260200160002060008201518160000160006101000a81548173ffffffffffffffffffffffffffffffffffffffff021916908373ffffffffffffffffffffffffffffffffffffffff1602179055506020820151816001015560408201518160020160006101000a81548160ff0219169083151502179055506060820151816003019080519060200190610fbe92919061224c565b506080820151816004019080519060200190610fdb92919061224c565b5090505060016000868152602001908152602001600020600901600081548092919060010191905055506000600381111561101257fe5b6001600087815260200190815260200160002060040160009054906101000a900460ff16600381111561104157fe5b141561107f57600180600087815260200190815260200160002060040160006101000a81548160ff0219169083600381111561107957fe5b02179055505b7f81d5f9bced9b9d1723f40796f43346ab2f3d2147b09cc27e573f3eb3b5875864856040518082815260200191505060405180910390a15050505050565b80600160038111156110cb57fe5b6001600083815260200190815260200160002060040160009054906101000a900460ff1660038111156110fa57fe5b1461110457600080fd5b60026001600084815260200190815260200160002060040160006101000a81548160ff0219169083600381111561113757fe5b02179055507f3ad93af63cb7967b23e4fb500b7d7d28b07516325dcf341f88bebf959d82c1cb826040518082815260200191505060405180910390a15050565b6060600060606000548511156111f5576040517f08c379a000000000000000000000000000000000000000000000000000000000815260040180806020018281038252601b8152602001807f476976656e2055445043204e6f7420437265617465642059657421000000000081525060200191505060405180910390fd5b60016000868152602001908152602001600020600901548410611280576040517f08c379a000000000000000000000000000000000000000000000000000000000815260040180806020018281038252601a8152602001807f546573742043617365204e6f742043726561746564205965742100000000000081525060200191505060405180910390fd5b60016000868152602001908152602001600020600a01600085815260200190815260200160002060030160016000878152602001908152602001600020600a01600086815260200190815260200160002060020160009054906101000a900460ff1660016000888152602001908152602001600020600a016000878152602001908152602001600020600401828054600181600116156101000203166002900480601f0160208091040260200160405190810160405280929190818152602001828054600181600116156101000203166002900480156113a15780601f10611376576101008083540402835291602001916113a1565b820191906000526020600020905b81548152906001019060200180831161138457829003601f168201915b50505050509250808054600181600116156101000203166002900480601f01602080910402602001604051908101604052809291908181526020018280546001816001161561010002031660029004801561143d5780601f106114125761010080835404028352916020019161143d565b820191906000526020600020905b81548152906001019060200180831161142057829003601f168201915b505050505090508093508194508295505050509250925092565b6000548411156114cf576040517f08c379a000000000000000000000000000000000000000000000000000000000815260040180806020018281038252601b8152602001807f476976656e2055445043204e6f7420437265617465642059657421000000000081525060200191505060405180910390fd5b6114d7612205565b6040518060a001604052803373ffffffffffffffffffffffffffffffffffffffff16815260200142815260200184151581526020018581526020018381525090508060016000878152602001908152602001600020600a0160006001600089815260200190815260200160002060090154815260200190815260200160002060008201518160000160006101000a81548173ffffffffffffffffffffffffffffffffffffffff021916908373ffffffffffffffffffffffffffffffffffffffff1602179055506020820151816001015560408201518160020160006101000a81548160ff02191690831515021790555060608201518160030190805190602001906115e392919061224c565b50608082015181600401908051906020019061160092919061224c565b5090505060016000868152602001908152602001600020600901600081548092919060010191905055506000600381111561163757fe5b6001600087815260200190815260200160002060040160009054906101000a900460ff16600381111561166657fe5b14156116a457600180600087815260200190815260200160002060040160006101000a81548160ff0219169083600381111561169e57fe5b02179055505b7f81d5f9bced9b9d1723f40796f43346ab2f3d2147b09cc27e573f3eb3b5875864856040518082815260200191505060405180910390a15050505050565b806003808111156116ef57fe5b6001600083815260200190815260200160002060040160009054906101000a900460ff16600381111561171e57fe5b1461172857600080fd5b8160016000828152602001908152602001600020600801543410156117b5576040517f08c379a000000000000000000000000000000000000000000000000000000000815260040180806020018281038252600b8152602001807f4e6f7420456e6f7567682100000000000000000000000000000000000000000081525060200191505060405180910390fd5b60026001600085815260200190815260200160002060040160006101000a81548160ff021916908360038111156117e857fe5b0217905550336001600085815260200190815260200160002060010160006101000a81548173ffffffffffffffffffffffffffffffffffffffff021916908373ffffffffffffffffffffffffffffffffffffffff1602179055507f729b55dd54c77cd63e2c1075795bd042790838b8114ed30292106ffed1916b90836040518082815260200191505060405180910390a160006001600083815260200190815260200160002060080154905060008134039050600081146118eb573373ffffffffffffffffffffffffffffffffffffffff166108fc829081150290604051600060405180830381858888f193505050501580156118e9573d6000803e3d6000fd5b505b5050505050565b813373ffffffffffffffffffffffffffffffffffffffff166001600083815260200190815260200160002060010160009054906101000a900473ffffffffffffffffffffffffffffffffffffffff1673ffffffffffffffffffffffffffffffffffffffff161461196157600080fd5b826002600381111561196f57fe5b6001600083815260200190815260200160002060040160009054906101000a900460ff16600381111561199e57fe5b146119a857600080fd5b82600160008681526020019081526020016000206008018190555060036001600086815260200190815260200160002060040160006101000a81548160ff021916908360038111156119f657fe5b02179055507f9830dea00c267e7b6913a128e9a399b9272b3c2b650ac4c447ce2b876b100488846040518082815260200191505060405180910390a150505050565b60008060608060606000806000806000548a1115611abe576040517f08c379a000000000000000000000000000000000000000000000000000000000815260040180806020018281038252601b8152602001807f476976656e2055445043204e6f7420437265617465642059657421000000000081525060200191505060405180910390fd5b600160008b815260200190815260200160002060010160009054906101000a900473ffffffffffffffffffffffffffffffffffffffff169850600160008b815260200190815260200160002060020160009054906101000a900473ffffffffffffffffffffffffffffffffffffffff169750600160008b81526020019081526020016000206003018054600181600116156101000203166002900480601f016020809104026020016040519081016040528092919081815260200182805460018160011615610100020316600290048015611bda5780601f10611baf57610100808354040283529160200191611bda565b820191906000526020600020905b815481529060010190602001808311611bbd57829003601f168201915b50505050509650600160008b81526020019081526020016000206005016000018054600181600116156101000203166002900480601f016020809104026020016040519081016040528092919081815260200182805460018160011615610100020316600290048015611c8e5780601f10611c6357610100808354040283529160200191611c8e565b820191906000526020600020905b815481529060010190602001808311611c7157829003601f168201915b5050505050955060006003811115611ca257fe5b600160008c815260200190815260200160002060040160009054906101000a900460ff166003811115611cd157fe5b1415611d14576040518060400160405280600781526020017f43726561746564000000000000000000000000000000000000000000000000008152509450611f0e565b60016003811115611d2157fe5b600160008c815260200190815260200160002060040160009054906101000a900460ff166003811115611d5057fe5b1415611d93576040518060400160405280600681526020017f54657374656400000000000000000000000000000000000000000000000000008152509450611f0d565b60026003811115611da057fe5b600160008c815260200190815260200160002060040160009054906101000a900460ff166003811115611dcf57fe5b1415611e12576040518060400160405280600881526020017f417070726f7665640000000000000000000000000000000000000000000000008152509450611f0c565b600380811115611e1e57fe5b600160008c815260200190815260200160002060040160009054906101000a900460ff166003811115611e4d57fe5b1415611e90576040518060400160405280600781526020017f466f7253616c65000000000000000000000000000000000000000000000000008152509450611f0b565b600380811115611e9c57fe5b600160008c815260200190815260200160002060040160009054906101000a900460ff166003811115611ecb57fe5b1415611f0a576040518060400160405280600781526020017f466f7253616c650000000000000000000000000000000000000000000000000081525094505b5b5b5b5b6000600160008c81526020019081526020016000206008015414159350600160008b8152602001908152602001600020600801549250600160008b81526020019081526020016000206009015491509193959799909294969850565b6000808154809291906001019190505550611f836122cc565b60005481600001818152505033816020019073ffffffffffffffffffffffffffffffffffffffff16908173ffffffffffffffffffffffffffffffffffffffff168152505033816040019073ffffffffffffffffffffffffffffffffffffffff16908173ffffffffffffffffffffffffffffffffffffffff168152505084816060018190525060008160800190600381111561201a57fe5b9081600381111561202757fe5b815250506040518060600160405280858152602001848152602001838152508160a0018190525060008160c00181815250508060016000805481526020019081526020016000206000820151816000015560208201518160010160006101000a81548173ffffffffffffffffffffffffffffffffffffffff021916908373ffffffffffffffffffffffffffffffffffffffff16021790555060408201518160020160006101000a81548173ffffffffffffffffffffffffffffffffffffffff021916908373ffffffffffffffffffffffffffffffffffffffff160217905550606082015181600301908051906020019061212292919061224c565b5060808201518160040160006101000a81548160ff0219169083600381111561214757fe5b021790555060a082015181600501600082015181600001908051906020019061217192919061224c565b50602082015181600101908051906020019061218e92919061224c565b5060408201518160020190805190602001906121ab92919061224c565b50505060c0820151816008015560e082015181600901559050507f4bea4fa538d41a7b7fb10bb3405cf3e168122aa3438625bbf0ac6dde64fbdb0c6000546040518082815260200191505060405180910390a15050505050565b6040518060a00160405280600073ffffffffffffffffffffffffffffffffffffffff1681526020016000815260200160001515815260200160608152602001606081525090565b828054600181600116156101000203166002900490600052602060002090601f016020900481019282601f1061228d57805160ff19168380011785556122bb565b828001600101855582156122bb579182015b828111156122ba57825182559160200191906001019061229f565b5b5090506122c8919061234e565b5090565b60405180610140016040528060008152602001600073ffffffffffffffffffffffffffffffffffffffff168152602001600073ffffffffffffffffffffffffffffffffffffffff168152602001606081526020016000600381111561232d57fe5b815260200161233a612373565b815260200160008152602001600081525090565b61237091905b8082111561236c576000816000905550600101612354565b5090565b90565b6040518060600160405280606081526020016060815260200160608152509056fea165627a7a72305820415a6079881db7378d55111c1c7b5003e211e6ec4bbd6cdd983cddd4aa95d96c0029",
  "source": "pragma solidity ^0.5.0;\r\n\r\n/// Import Partnerships library\r\n//import \"./Partnerships.sol\";\r\n\r\ncontract ProductDesign {\r\n\r\n    /// Variable for tracking Universal Product Product Code (UDPC)\r\n    uint udpc;\r\n\r\n    /// Public mapping from UDPC to a Product Design Item\r\n    mapping (uint => ProductDesignItem) pDItems;\r\n\r\n    /// Enumaration for defining variety of Product Design State\r\n    enum ProductDesignState {\r\n        Owned,\r\n        Tested,\r\n        Approved,\r\n        ForSale\r\n    }\r\n\r\n    /// Structure keeping meta data for a Product Design **TODO**\r\n    struct ProductDesignMeta {\r\n        string name;\r\n        string description;\r\n        string notes;\r\n    }\r\n\r\n    /// Structure for Product Design Test Case **TODO**\r\n    struct ProductDesignTestCase {\r\n        address testerId;\r\n        uint timeStamp;\r\n        bool isPassed;\r\n        string description;\r\n        string notes;\r\n    }\r\n\r\n    /// Structure for keeping Product Design fields structured\r\n    struct ProductDesignItem {\r\n        uint udpc;\r\n        address payable currentOwner;\r\n        address designerId;\r\n        string designerName;\r\n        ProductDesignState state;\r\n        ProductDesignMeta metaData;\r\n        uint salePrice;\r\n        uint testIndexed;\r\n        mapping(uint => ProductDesignTestCase) testCases;\r\n        //Partnerships.Partnership manufacturers;\r\n    }\r\n\r\n    /// Event to emit them for users in functions, accept `udpc` as input\r\n    event Owned(uint udpc);\r\n    event TestCaseAdded(uint udpc);\r\n    event Approved(uint udpc);\r\n    event UpForSale(uint udpc);\r\n    event ProductDesignPurchased(uint udpc);\r\n    event SaleCanceled(uint udpc);\r\n\r\n    /// Modifier that checks the paid enough as expected and refunds the remaining balance\r\n    modifier checkProductDesignPaymentValue(uint _udpc) {\r\n        require(msg.value >= pDItems[_udpc].salePrice, \"Not Enough!\");\r\n        _;\r\n        uint _price = pDItems[_udpc].salePrice;\r\n        uint amountToReturn = msg.value - _price;\r\n        if (amountToReturn != 0)\r\n            address(msg.sender).transfer(amountToReturn);\r\n    }\r\n\r\n    /// Modifier that checks if an ProductDesignItem.state of a udpc is Owned\r\n    modifier isOwned(uint _udpc) {\r\n        require(pDItems[_udpc].state == ProductDesignState.Owned);\r\n        _;\r\n    }\r\n\r\n    /// Modifier that checks if an ProductDesignItem.state of a udpc is Tested\r\n    modifier isTested(uint _udpc) {\r\n        require(pDItems[_udpc].state == ProductDesignState.Tested);\r\n        _;\r\n    }\r\n\r\n    /// Modifier that checks if an ProductDesignItem.state of a udpc is Approved\r\n    modifier isApproved(uint _udpc) {\r\n        require(pDItems[_udpc].state == ProductDesignState.Approved);\r\n        _;\r\n    }\r\n\r\n    /// Modifier that checks if the caller he is the currentOwner of Product Design\r\n    modifier onlyOwnerOf(uint _udpc) {\r\n        require(pDItems[_udpc].currentOwner == msg.sender);\r\n        _;\r\n    }\r\n\r\n    /// Modifier that checks if the caller he is the currentOwner of Product Design\r\n    modifier ProductDesignForSale(uint _udpc) {\r\n        require(pDItems[_udpc].state == ProductDesignState.ForSale);\r\n        _;\r\n    }\r\n\r\n\r\n    /// Constructor Function sets up UDPC to 0\r\n    constructor() public {\r\n        udpc = 0;\r\n    }\r\n\r\n    /// Function helps Designer to estaplish a new Product Design\r\n    function designProduct(\r\n        string memory _designerName,\r\n        string memory _ProductName,\r\n        string memory _description,\r\n        string memory _notes\r\n    )\r\n        public\r\n    {\r\n        udpc ++;\r\n        ProductDesignItem memory newDDItem;\r\n        newDDItem.udpc = udpc;\r\n        newDDItem.currentOwner = msg.sender;\r\n        newDDItem.designerId = msg.sender;\r\n        newDDItem.designerName = _designerName;\r\n        newDDItem.state = ProductDesignState.Owned;\r\n        newDDItem.metaData = ProductDesignMeta(_ProductName, _description, _notes);\r\n        newDDItem.salePrice = 0;\r\n        pDItems[udpc] = newDDItem;\r\n        emit Owned(udpc);\r\n    }\r\n\r\n    /// Add Test Case for Product Design by currentOwner\r\n    function addTestCase(\r\n        uint _udpc,\r\n        string memory _description,\r\n        bool _isPassed,\r\n        string memory _notes\r\n    )\r\n        public\r\n        // onlyOwnerOf(_udpc) ==>uncomment this after test\r\n    {\r\n        require(_udpc <= udpc, 'Given UDPC Not Created Yet!');\r\n        ProductDesignTestCase memory _ddtc = ProductDesignTestCase(\r\n            msg.sender,\r\n            block.timestamp,\r\n            _isPassed,\r\n            _description,\r\n            _notes\r\n        );\r\n        pDItems[_udpc].testCases[pDItems[_udpc].testIndexed] = _ddtc;\r\n        pDItems[_udpc].testIndexed ++;\r\n        if (pDItems[_udpc].state == ProductDesignState.Owned)\r\n            pDItems[_udpc].state = ProductDesignState.Tested;\r\n        emit TestCaseAdded(_udpc);\r\n    }\r\n\r\n    // Add Test Case for Product Design by regulator\r\n    function addTestCaseByRegulaor(\r\n        uint _udpc,\r\n        string memory _description,\r\n        bool _isPassed,\r\n        string memory _notes\r\n    )\r\n        public\r\n    {\r\n        require(_udpc <= udpc, 'Given UDPC Not Created Yet!');\r\n        ProductDesignTestCase memory _ddtc = ProductDesignTestCase(\r\n            msg.sender,\r\n            block.timestamp,\r\n            _isPassed,\r\n            _description,\r\n            _notes\r\n        );\r\n        pDItems[_udpc].testCases[pDItems[_udpc].testIndexed] = _ddtc;\r\n        pDItems[_udpc].testIndexed ++;\r\n        if (pDItems[_udpc].state == ProductDesignState.Owned)\r\n            pDItems[_udpc].state = ProductDesignState.Tested;\r\n\r\n        emit TestCaseAdded(_udpc);\r\n    }\r\n\r\n    /// Function to approve Product by a regulator only\r\n    function approveProduct(uint _udpc) public isTested(_udpc) {\r\n        pDItems[_udpc].state = ProductDesignState.Approved;\r\n\r\n        emit Approved(_udpc);\r\n    }\r\n\r\n    /// Function to sale a Product design\r\n    function upForSale(uint _udpc,uint _price)\r\n        public\r\n        onlyOwnerOf(_udpc)\r\n        isApproved(_udpc)\r\n    {\r\n        pDItems[_udpc].salePrice = _price;\r\n        pDItems[_udpc].state = ProductDesignState.ForSale;\r\n\r\n        emit UpForSale(_udpc);\r\n    }\r\n\r\n    /// Function to purchase a Product design\r\n    function purchaseProductDesign(uint _udpc)\r\n        public\r\n        payable\r\n        ProductDesignForSale(_udpc)\r\n        checkProductDesignPaymentValue(_udpc)\r\n    {\r\n        pDItems[_udpc].state = ProductDesignState.Approved;\r\n        pDItems[_udpc].currentOwner = msg.sender;\r\n\r\n        emit ProductDesignPurchased(_udpc);\r\n    }\r\n\r\n    function fetchProductDesignData(uint _udpc) \r\n        external \r\n        view \r\n        returns(\r\n            address currentOwner,\r\n            address designerId,\r\n            string memory designerName,\r\n            string memory ProductName,\r\n            string memory currentState,\r\n            bool forSale,\r\n            uint salePrice,\r\n            uint numberOfTests,\r\n            uint numberOfManufacturers\r\n        )\r\n    {\r\n        require(_udpc <= udpc, 'Given UDPC Not Created Yet!');\r\n        currentOwner = pDItems[_udpc].currentOwner;\r\n        designerId = pDItems[_udpc].designerId;\r\n        designerName = pDItems[_udpc].designerName;\r\n        ProductName = pDItems[_udpc].metaData.name;\r\n\r\n        if (pDItems[_udpc].state == ProductDesignState.Owned)\r\n            currentState = 'Created';\r\n        else if (pDItems[_udpc].state == ProductDesignState.Tested)\r\n            currentState = 'Tested';\r\n        else if (pDItems[_udpc].state == ProductDesignState.Approved)\r\n            currentState = 'Approved';\r\n        else if (pDItems[_udpc].state == ProductDesignState.ForSale)\r\n            currentState = 'ForSale';\r\n        else if (pDItems[_udpc].state == ProductDesignState.ForSale)\r\n            currentState = 'ForSale';\r\n\r\n        forSale = (pDItems[_udpc].salePrice != 0);\r\n        salePrice = pDItems[_udpc].salePrice;\r\n\r\n        numberOfTests = pDItems[_udpc].testIndexed;\r\n    }\r\n\r\n    function featchProductDesignMetaData(uint _udpc) \r\n        external\r\n        view\r\n        returns(\r\n            string memory name,\r\n            string memory description,\r\n            string memory notes\r\n        )\r\n    {\r\n        require(_udpc <= udpc, 'Given UDPC Not Created Yet!');\r\n        (name, description, notes) = (\r\n            pDItems[_udpc].metaData.name,\r\n            pDItems[_udpc].metaData.description,\r\n            pDItems[_udpc].metaData.notes\r\n        );\r\n    }\r\n\r\n    function featchProductDesignTestCases(uint _udpc, uint _testIndex) \r\n        external\r\n        view\r\n        returns(\r\n            string memory description,\r\n            bool isPassed, \r\n            string  memory notes\r\n        )\r\n    {\r\n        require(_udpc <= udpc, 'Given UDPC Not Created Yet!');\r\n        require(_testIndex < pDItems[_udpc].testIndexed, 'Test Case Not Created Yet!');\r\n        \r\n        (description, isPassed, notes) = (\r\n            pDItems[_udpc].testCases[_testIndex].description,\r\n            pDItems[_udpc].testCases[_testIndex].isPassed,\r\n            pDItems[_udpc].testCases[_testIndex].notes\r\n        );\r\n        \r\n    }\r\n\r\n\r\n\r\n}\r\n",
  "sourcePath": "E:/document/blockchain/myprojects/simplevat/contracts/productDesign.sol",
  "compiler": {
    "name": "solc",
    "version": "0.5.8+commit.23d335f2.Emscripten.clang"
  },
  "schemaVersion": "3.0.16",
  "updatedAt": "2019-09-24T08:06:18.404Z",
  "devdoc": {
    "methods": {}
  },
  "userdoc": {
    "methods": {
      "addTestCase(uint256,string,bool,string)": {
        "notice": "Add Test Case for Product Design by currentOwner"
      },
      "approveProduct(uint256)": {
        "notice": "Function to approve Product by a regulator only"
      },
      "constructor": "Constructor Function sets up UDPC to 0",
      "designProduct(string,string,string,string)": {
        "notice": "Function helps Designer to estaplish a new Product Design"
      },
      "purchaseProductDesign(uint256)": {
        "notice": "Function to purchase a Product design"
      },
      "upForSale(uint256,uint256)": {
        "notice": "Function to sale a Product design"
      }
    },
    "notice": "Import Partnerships library"
  }
}