{
  "contractName": "Product",
  "abi": [
    {
      "inputs": [],
      "payable": false,
      "stateMutability": "nonpayable",
      "type": "constructor"
    },
    {
      "anonymous": false,
      "inputs": [
        {
          "indexed": false,
          "name": "pID",
          "type": "uint256"
        }
      ],
      "name": "Manufactured",
      "type": "event"
    },
    {
      "anonymous": false,
      "inputs": [
        {
          "indexed": false,
          "name": "pID",
          "type": "uint256"
        }
      ],
      "name": "taxUpdated",
      "type": "event"
    },
    {
      "anonymous": false,
      "inputs": [
        {
          "indexed": false,
          "name": "pID",
          "type": "uint256"
        }
      ],
      "name": "Purchased",
      "type": "event"
    },
    {
      "constant": false,
      "inputs": [
        {
          "name": "_price",
          "type": "uint256"
        },
        {
          "name": "_tax",
          "type": "uint256"
        },
        {
          "name": "_name",
          "type": "string"
        }
      ],
      "name": "manufacturProductsLoud",
      "outputs": [],
      "payable": false,
      "stateMutability": "nonpayable",
      "type": "function"
    },
    {
      "constant": false,
      "inputs": [
        {
          "name": "_pID",
          "type": "uint256"
        }
      ],
      "name": "purchaseProduct",
      "outputs": [],
      "payable": true,
      "stateMutability": "payable",
      "type": "function"
    },
    {
      "constant": false,
      "inputs": [
        {
          "name": "_pID",
          "type": "uint256"
        },
        {
          "name": "newPrice",
          "type": "uint256"
        }
      ],
      "name": "setNewPrice",
      "outputs": [],
      "payable": false,
      "stateMutability": "nonpayable",
      "type": "function"
    },
    {
      "constant": true,
      "inputs": [
        {
          "name": "_pID",
          "type": "uint256"
        }
      ],
      "name": "fetchProductItemData",
      "outputs": [
        {
          "name": "pID",
          "type": "uint256"
        },
        {
          "name": "name",
          "type": "string"
        },
        {
          "name": "currentOwner",
          "type": "address"
        },
        {
          "name": "manufacturerId",
          "type": "address"
        },
        {
          "name": "price",
          "type": "uint256"
        },
        {
          "name": "totalTax",
          "type": "uint256"
        },
        {
          "name": "lastPaidTax",
          "type": "uint256"
        },
        {
          "name": "numberOfTaxUpdate",
          "type": "uint256"
        }
      ],
      "payable": false,
      "stateMutability": "view",
      "type": "function"
    },
    {
      "constant": false,
      "inputs": [
        {
          "name": "_pID",
          "type": "uint256"
        },
        {
          "name": "_paidTax",
          "type": "uint256"
        }
      ],
      "name": "updateTaxHistory",
      "outputs": [],
      "payable": false,
      "stateMutability": "nonpayable",
      "type": "function"
    },
    {
      "constant": true,
      "inputs": [
        {
          "name": "_pID",
          "type": "uint256"
        }
      ],
      "name": "fetchtaxHistory",
      "outputs": [
        {
          "name": "numberOfupdate",
          "type": "uint256"
        },
        {
          "name": "timeStamps",
          "type": "uint256[]"
        },
        {
          "name": "lastPaidTax",
          "type": "uint256[]"
        },
        {
          "name": "totalTax",
          "type": "uint256[]"
        },
        {
          "name": "updaterAddresses",
          "type": "address[]"
        }
      ],
      "payable": false,
      "stateMutability": "view",
      "type": "function"
    }
  ],
  "bytecode": "0x608060405234801561001057600080fd5b506000808190555061102f806100276000396000f3fe6080604052600436106100555760003560e01c80632c7cef2e1461005a57806338e76a03146101c95780637ace31ef146101f7578063aa9903ee14610334578063d130cd6414610379578063e23a60fe14610455575b600080fd5b34801561006657600080fd5b506100936004803603602081101561007d57600080fd5b810190808035906020019092919050505061049a565b6040518086815260200180602001806020018060200180602001858103855289818151815260200191508051906020019060200280838360005b838110156100e85780820151818401526020810190506100cd565b50505050905001858103845288818151815260200191508051906020019060200280838360005b8381101561012a57808201518184015260208101905061010f565b50505050905001858103835287818151815260200191508051906020019060200280838360005b8381101561016c578082015181840152602081019050610151565b50505050905001858103825286818151815260200191508051906020019060200280838360005b838110156101ae578082015181840152602081019050610193565b50505050905001995050505050505050505060405180910390f35b6101f5600480360360208110156101df57600080fd5b81019080803590602001909291905050506106d4565b005b34801561020357600080fd5b506102306004803603602081101561021a57600080fd5b81019080803590602001909291905050506107c0565b60405180898152602001806020018873ffffffffffffffffffffffffffffffffffffffff1673ffffffffffffffffffffffffffffffffffffffff1681526020018773ffffffffffffffffffffffffffffffffffffffff1673ffffffffffffffffffffffffffffffffffffffff168152602001868152602001858152602001848152602001838152602001828103825289818151815260200191508051906020019080838360005b838110156102f25780820151818401526020810190506102d7565b50505050905090810190601f16801561031f5780820380516001836020036101000a031916815260200191505b50995050505050505050505060405180910390f35b34801561034057600080fd5b506103776004803603604081101561035757600080fd5b8101908080359060200190929190803590602001909291905050506109a1565b005b34801561038557600080fd5b506104536004803603606081101561039c57600080fd5b810190808035906020019092919080359060200190929190803590602001906401000000008111156103cd57600080fd5b8201836020820111156103df57600080fd5b8035906020019184600183028401116401000000008311171561040157600080fd5b91908080601f016020809104026020016040519081016040528093929190818152602001838380828437600081840152601f19601f820116905080830192505050505050509192919290505050610b7a565b005b34801561046157600080fd5b506104986004803603604081101561047857600080fd5b810190808035906020019092919080359060200190929190505050610da0565b005b6000606080606080856000600160008381526020019081526020016000206006015414156104c757600080fd5b6000600160008981526020019081526020016000209050806006015496506060876040519080825280602002602001820160405280156105165781602001602082028038833980820191505090505b50905060608860405190808252806020026020018201604052801561054a5781602001602082028038833980820191505090505b50905060608960405190808252806020026020018201604052801561057e5781602001602082028038833980820191505090505b50905060608a6040519080825280602002602001820160405280156105b25781602001602082028038833980820191505090505b50905060008090505b85600601548110156106b0576000866005016000838152602001908152602001600020905080600001548683815181106105f157fe5b602002602001018181525050806001015485838151811061060e57fe5b602002602001018181525050806002015484838151811061062b57fe5b6020026020010181815250508060030160009054906101000a900473ffffffffffffffffffffffffffffffffffffffff1683838151811061066857fe5b602002602001019073ffffffffffffffffffffffffffffffffffffffff16908173ffffffffffffffffffffffffffffffffffffffff16815250505080806001019150506105bb565b5083838383809a50819b50829c50839d505050505050505050505091939590929450565b806000600160008381526020019081526020016000206006015414156106f957600080fd5b600180600084815260200190815260200160002060020160006101000a81548160ff0219169083600181111561072b57fe5b0217905550336001600084815260200190815260200160002060020160016101000a81548173ffffffffffffffffffffffffffffffffffffffff021916908373ffffffffffffffffffffffffffffffffffffffff1602179055507f653d56639fee6b566a5c804764e9689de38645f0b733df89a36a1b7b42173dd8826040518082815260200191505060405180910390a15050565b600060606000806000806000806000891415610844576040517f08c379a000000000000000000000000000000000000000000000000000000000815260040180806020018281038252601a8152602001807f476976656e20704944204e6f742043726561746564205965742100000000000081525060200191505060405180910390fd5b6000600160008b81526020019081526020016000209050899850806000018054600181600116156101000203166002900480601f0160208091040260200160405190810160405280929190818152602001828054600181600116156101000203166002900480156108f65780601f106108cb576101008083540402835291602001916108f6565b820191906000526020600020905b8154815290600101906020018083116108d957829003601f168201915b505050505097508060020160019054906101000a900473ffffffffffffffffffffffffffffffffffffffff1696508060030160009054906101000a900473ffffffffffffffffffffffffffffffffffffffff169550806004015494508060060154915080600501600060018403815260200190815260200160002060020154935080600501600060018403815260200190815260200160002060010154925050919395975091939597565b600080600160008581526020019081526020016000206006015414156109c957819050610a30565b6000600160008581526020019081526020016000206006015414610a2f5781600160008581526020019081526020016000206005016000600180600088815260200190815260200160002060060154038152602001908152602001600020600201540190505b5b610a38610eac565b60405180608001604052804281526020018481526020018381526020013373ffffffffffffffffffffffffffffffffffffffff168152509050806001600086815260200190815260200160002060050160006001600088815260200190815260200160002060060154815260200190815260200160002060008201518160000155602082015181600101556040820151816002015560608201518160030160006101000a81548173ffffffffffffffffffffffffffffffffffffffff021916908373ffffffffffffffffffffffffffffffffffffffff16021790555090505060016000858152602001908152602001600020600601600081548092919060010191905055507fe0abde12d5564a014f3a4a4468f87400e13c581a9847e1868181a29dcc31e222846040518082815260200191505060405180910390a150505050565b600080600081546001019190508190559050610b94610eea565b81816020018181525050600081604001906001811115610bb057fe5b90816001811115610bbd57fe5b8152505033816060019073ffffffffffffffffffffffffffffffffffffffff16908173ffffffffffffffffffffffffffffffffffffffff168152505033816080019073ffffffffffffffffffffffffffffffffffffffff16908173ffffffffffffffffffffffffffffffffffffffff168152505060008160c0018181525050848160a001818152505082816000018190525080600160008481526020019081526020016000206000820151816000019080519060200190610c7f929190610f5e565b506020820151816001015560408201518160020160006101000a81548160ff02191690836001811115610cae57fe5b021790555060608201518160020160016101000a81548173ffffffffffffffffffffffffffffffffffffffff021916908373ffffffffffffffffffffffffffffffffffffffff16021790555060808201518160030160006101000a81548173ffffffffffffffffffffffffffffffffffffffff021916908373ffffffffffffffffffffffffffffffffffffffff16021790555060a0820151816004015560c08201518160060155905050610d6282856109a1565b7fd29d8a68ca7c8c74be5579719d445aabfe230ed6e6a83aff475a663500eb7609826040518082815260200191505060405180910390a15050505050565b8160003373ffffffffffffffffffffffffffffffffffffffff166001600084815260200190815260200160002060020160019054906101000a900473ffffffffffffffffffffffffffffffffffffffff1673ffffffffffffffffffffffffffffffffffffffff1614905080610e1457600080fd5b6000841415610e8b576040517f08c379a000000000000000000000000000000000000000000000000000000000815260040180806020018281038252601a8152602001807f476976656e20704944204e6f742043726561746564205965742100000000000081525060200191505060405180910390fd5b82600160008681526020019081526020016000206004018190555050505050565b6040518060800160405280600081526020016000815260200160008152602001600073ffffffffffffffffffffffffffffffffffffffff1681525090565b6040518060e00160405280606081526020016000815260200160006001811115610f1057fe5b8152602001600073ffffffffffffffffffffffffffffffffffffffff168152602001600073ffffffffffffffffffffffffffffffffffffffff16815260200160008152602001600081525090565b828054600181600116156101000203166002900490600052602060002090601f016020900481019282601f10610f9f57805160ff1916838001178555610fcd565b82800160010185558215610fcd579182015b82811115610fcc578251825591602001919060010190610fb1565b5b509050610fda9190610fde565b5090565b61100091905b80821115610ffc576000816000905550600101610fe4565b5090565b9056fea165627a7a723058209dfb7f4e627635b1db81683f4092a3d1b3ce776d8b3bcaae92c1ce9912a432f00029",
  "source": "pragma solidity ^0.5.0;\r\n\r\ncontract Product {\r\n\r\n    uint pID;\r\n\r\n    mapping (uint => ProductItem) pItems;\r\n\r\n    enum ProductState {\r\n        Manufactured,\r\n        Purchased\r\n    }\r\n\r\n    // Structure for Envirument update unit\r\n    struct TaxUpdateOpj {\r\n        uint timeStamp;\r\n        uint lastPaidTax;\r\n        uint totalTax;\r\n        address updaterAddress;\r\n    }\r\n\r\n    /// Structure for keeping Product Design fields structured\r\n    struct ProductItem {\r\n\r\n        string name;\r\n        uint pID;\r\n        ProductState state;\r\n        address payable currentOwnerId;\r\n        address manufacturerId;\r\n        uint price;\r\n        mapping(uint => TaxUpdateOpj) taxHistory;\r\n        uint taxUpdateCounter;\r\n    }\r\n\r\n    /// Event to emit them for users in functions, accept `pID` as input as stock expected\r\n    event Manufactured(uint pID);\r\n    event taxUpdated(uint pID);\r\n    //event Sold(uint pID);\r\n    /// Event to emit them for users in functions, accept `pID` as input as one product unit expected\r\n    event Purchased(uint pID);\r\n\r\n    /// Modifier that checks if an ProductDesignItem.state of a udpc is Owned\r\n    modifier isManufactured(uint _pID) {\r\n        //uint firstpID = stockLouds[_pID][0];\r\n        require(pItems[_pID].state == ProductState.Manufactured);\r\n        _;\r\n    }\r\n\r\n    /// Modifier that checks if an ProductDesignItem.state of a udpc is Owned\r\n    modifier isTaxTracked(uint _pID) {\r\n        //uint firstpID = stockLouds[_pID][0];\r\n        require(pItems[_pID].taxUpdateCounter != 0);\r\n        _;\r\n    }\r\n\r\n    /// Modifier that checks if an ProductDesignItem.state of a udpc is Owned\r\n    modifier onlyManufacturerOf(uint _pID) {\r\n        //uint firstpID = stockLouds[_pID][0];\r\n        bool isManuf = pItems[_pID].manufacturerId == msg.sender;\r\n        require(isManuf);\r\n        _;\r\n    }\r\n\r\n    modifier onlyOwnerOf(uint _pID) {\r\n        //uint firstpID = stockLouds[_pID][0];\r\n        bool isOwner = pItems[_pID].currentOwnerId == msg.sender;\r\n        require(isOwner);\r\n        _;\r\n    }\r\n\r\n    /// Modifier that checks if an ProductDesignItem.state of a udpc is Owned\r\n    modifier isProductTaxTracked(uint _pID) {\r\n        require(pItems[_pID].taxUpdateCounter != 0);\r\n        _;\r\n    }\r\n\r\n    /// Constructor Function sets up pID and pID to 0\r\n    constructor() public {\r\n        pID = 0;\r\n    }\r\n\r\n    /// Function helps manufacturer to manufactur a new Product Loud\r\n    function manufacturProductsLoud(uint _price, uint _tax, string memory _name) public {\r\n        uint _pID = ++pID;\r\n        ProductItem memory newProductItem;\r\n        //newProductItem.udpc = _udpc;\r\n        newProductItem.pID = _pID;\r\n        newProductItem.state = ProductState.Manufactured;\r\n        newProductItem.currentOwnerId = msg.sender;\r\n        newProductItem.manufacturerId = msg.sender;\r\n        newProductItem.taxUpdateCounter = 0;\r\n        newProductItem.price = _price;\r\n        newProductItem.name = _name;\r\n        pItems[_pID] = newProductItem;\r\n        updateTaxHistory(_pID , _tax);\r\n        \r\n        //newProductItem.taxUpdateCounter = pItems[_pID].taxUpdateCounter ;\r\n        emit Manufactured(_pID);\r\n    }\r\n\r\n    function purchaseProduct (uint _pID)\r\n        public\r\n        payable\r\n        isProductTaxTracked(_pID)\r\n    {\r\n        pItems[_pID].state = ProductState.Purchased;\r\n        pItems[_pID].currentOwnerId = msg.sender;\r\n\r\n        emit Purchased(_pID);\r\n    }\r\n    \r\n    function setNewPrice(uint _pID,uint newPrice) public onlyOwnerOf(_pID){\r\n        require( _pID != 0, 'Given pID Not Created Yet!');\r\n        pItems[_pID].price = newPrice;\r\n    }\r\n\r\n    function fetchProductItemData(uint _pID)\r\n        public\r\n        view\r\n        returns(\r\n            //uint _udpc,\r\n            uint pID,\r\n            string memory name,\r\n            address currentOwner,\r\n            address manufacturerId,\r\n            uint price,\r\n            uint totalTax,\r\n            uint lastPaidTax,\r\n            uint numberOfTaxUpdate\r\n        )\r\n    {\r\n        require( _pID != 0, 'Given pID Not Created Yet!');\r\n        ProductItem  storage _ProductItem = pItems[_pID];\r\n        pID = _pID;\r\n        name = _ProductItem.name;\r\n        currentOwner = _ProductItem.currentOwnerId;\r\n        manufacturerId = _ProductItem.manufacturerId;\r\n        price = _ProductItem.price;\r\n        numberOfTaxUpdate = _ProductItem.taxUpdateCounter;\r\n        totalTax = _ProductItem.taxHistory[numberOfTaxUpdate-1].totalTax;\r\n        lastPaidTax = _ProductItem.taxHistory[numberOfTaxUpdate-1].lastPaidTax;\r\n    }\r\n\r\n\r\n    function updateTaxHistory(\r\n        uint _pID,\r\n        uint _paidTax\r\n        //uint _totalTax\r\n    )\r\n        public\r\n    {   \r\n        uint _totalTax;\r\n        if(pItems[_pID].taxUpdateCounter == 0){\r\n            _totalTax = _paidTax;\r\n        }\r\n        else if(pItems[_pID].taxUpdateCounter != 0){\r\n            _totalTax = pItems[_pID].taxHistory[pItems[_pID].taxUpdateCounter - 1].totalTax + _paidTax; \r\n        }\r\n        \r\n        \r\n        TaxUpdateOpj memory _taxUpdate = TaxUpdateOpj(\r\n            now,\r\n            _paidTax,\r\n            _totalTax,\r\n            msg.sender\r\n        );\r\n        //for (uint i = 0; i < quantity; i++) {\r\n            //uint _pID = stockLouds[_pID][i];\r\n\r\n        pItems[_pID].taxHistory[pItems[_pID].taxUpdateCounter] = _taxUpdate;\r\n        pItems[_pID].taxUpdateCounter ++;\r\n       // }\r\n        emit taxUpdated(_pID);\r\n      \r\n    }\r\n\r\n\r\n\r\n\r\n    function fetchtaxHistory(uint _pID)\r\n        public\r\n        view\r\n        isProductTaxTracked(_pID)\r\n        returns(\r\n            uint numberOfupdate,\r\n            uint[] memory timeStamps,\r\n            uint[] memory lastPaidTax,\r\n            uint[] memory totalTax,\r\n            address[] memory updaterAddresses\r\n        )\r\n    {\r\n        ProductItem  storage _ProductItem = pItems[_pID];\r\n        numberOfupdate = _ProductItem.taxUpdateCounter;\r\n        uint[] memory _timeStamps = new uint[](numberOfupdate);\r\n        uint[] memory _lastPaidTax = new uint[](numberOfupdate);\r\n        uint[] memory _totalTax = new uint[](numberOfupdate);\r\n        address[] memory _updaterAddresses = new address[](numberOfupdate);\r\n        for (uint i = 0; i < _ProductItem.taxUpdateCounter; i++) {\r\n            TaxUpdateOpj storage _taxUpdate = _ProductItem.taxHistory[i];\r\n            _timeStamps[i] = _taxUpdate.timeStamp;\r\n            _lastPaidTax[i] = _taxUpdate.lastPaidTax;\r\n            _totalTax[i] = _taxUpdate.totalTax;\r\n            _updaterAddresses[i] = _taxUpdate.updaterAddress;\r\n        }\r\n        (timeStamps, lastPaidTax, totalTax, updaterAddresses) = (\r\n            _timeStamps, \r\n            _lastPaidTax, \r\n             _totalTax,\r\n            _updaterAddresses\r\n        );\r\n    }\r\n\r\n}\r\n",
  "sourcePath": "E:/document/blockchain/myprojects/simplevat/contracts/product.sol",
  "compiler": {
    "name": "solc",
    "version": "0.5.8+commit.23d335f2.Emscripten.clang"
  },
  "schemaVersion": "3.0.16",
  "updatedAt": "2019-09-28T08:08:33.086Z",
  "devdoc": {
    "methods": {}
  },
  "userdoc": {
    "methods": {
      "constructor": "Constructor Function sets up pID and pID to 0",
      "manufacturProductsLoud(uint256,uint256,string)": {
        "notice": "Function helps manufacturer to manufactur a new Product Loud"
      }
    }
  }
}