{
  "contractName": "Product",
  "abi": [
    {
      "inputs": [],
      "payable": false,
      "stateMutability": "nonpayable",
      "type": "constructor"
    },
    {
      "anonymous": false,
      "inputs": [
        {
          "indexed": false,
          "name": "slu",
          "type": "uint256"
        }
      ],
      "name": "Manufactured",
      "type": "event"
    },
    {
      "anonymous": false,
      "inputs": [
        {
          "indexed": false,
          "name": "slu",
          "type": "uint256"
        }
      ],
      "name": "taxUpdated",
      "type": "event"
    },
    {
      "anonymous": false,
      "inputs": [
        {
          "indexed": false,
          "name": "slu",
          "type": "uint256"
        }
      ],
      "name": "Sold",
      "type": "event"
    },
    {
      "anonymous": false,
      "inputs": [
        {
          "indexed": false,
          "name": "pku",
          "type": "uint256"
        }
      ],
      "name": "Purchased",
      "type": "event"
    },
    {
      "constant": false,
      "inputs": [
        {
          "name": "_udpc",
          "type": "uint256"
        },
        {
          "name": "quantity",
          "type": "uint256"
        }
      ],
      "name": "manufacturProductsLoud",
      "outputs": [],
      "payable": false,
      "stateMutability": "nonpayable",
      "type": "function"
    },
    {
      "constant": false,
      "inputs": [
        {
          "name": "_slu",
          "type": "uint256"
        }
      ],
      "name": "buyProductsLoud",
      "outputs": [],
      "payable": true,
      "stateMutability": "payable",
      "type": "function"
    },
    {
      "constant": false,
      "inputs": [
        {
          "name": "_pku",
          "type": "uint256"
        }
      ],
      "name": "purchaseProduct",
      "outputs": [],
      "payable": true,
      "stateMutability": "payable",
      "type": "function"
    },
    {
      "constant": true,
      "inputs": [
        {
          "name": "_slu",
          "type": "uint256"
        }
      ],
      "name": "fetchProductLoaudData",
      "outputs": [
        {
          "name": "quantity",
          "type": "uint256"
        },
        {
          "name": "_udpc",
          "type": "uint256"
        },
        {
          "name": "state",
          "type": "string"
        },
        {
          "name": "currentOwner",
          "type": "address"
        },
        {
          "name": "manufacturerId",
          "type": "address"
        },
        {
          "name": "price",
          "type": "uint256"
        }
      ],
      "payable": false,
      "stateMutability": "view",
      "type": "function"
    },
    {
      "constant": true,
      "inputs": [
        {
          "name": "_pku",
          "type": "uint256"
        }
      ],
      "name": "fetchProductItemData",
      "outputs": [
        {
          "name": "_udpc",
          "type": "uint256"
        },
        {
          "name": "_slu",
          "type": "uint256"
        },
        {
          "name": "state",
          "type": "string"
        },
        {
          "name": "currentOwner",
          "type": "address"
        },
        {
          "name": "manufacturerId",
          "type": "address"
        },
        {
          "name": "price",
          "type": "uint256"
        },
        {
          "name": "packingTimeStamp",
          "type": "uint256"
        },
        {
          "name": "numberOfTaxUpdate",
          "type": "uint256"
        }
      ],
      "payable": false,
      "stateMutability": "view",
      "type": "function"
    },
    {
      "constant": true,
      "inputs": [
        {
          "name": "_slu",
          "type": "uint256"
        }
      ],
      "name": "fetchLoudPKUs",
      "outputs": [
        {
          "name": "loadPKUs",
          "type": "uint256[]"
        }
      ],
      "payable": false,
      "stateMutability": "view",
      "type": "function"
    },
    {
      "constant": false,
      "inputs": [
        {
          "name": "_slu",
          "type": "uint256"
        },
        {
          "name": "_paidTax",
          "type": "uint256"
        }
      ],
      "name": "updateTaxHistory",
      "outputs": [],
      "payable": false,
      "stateMutability": "nonpayable",
      "type": "function"
    },
    {
      "constant": true,
      "inputs": [
        {
          "name": "_pku",
          "type": "uint256"
        }
      ],
      "name": "fetchtaxHistory",
      "outputs": [
        {
          "name": "numberOfupdate",
          "type": "uint256"
        },
        {
          "name": "timeStamps",
          "type": "uint256[]"
        },
        {
          "name": "lastPaidTax",
          "type": "uint256[]"
        },
        {
          "name": "updaterAddresses",
          "type": "address[]"
        }
      ],
      "payable": false,
      "stateMutability": "view",
      "type": "function"
    }
  ],
  "bytecode": "0x608060405234801561001057600080fd5b506000600181905550600080819055506111fe8061002f6000396000f3fe60806040526004361061007b5760003560e01c80637ace31ef1161004e5780637ace31ef14610248578063aa9903ee14610385578063adf21b01146103ca578063d8f271a9146104f95761007b565b806329e998c3146100805780632c7cef2e146100c557806338e76a03146101ec578063616d18751461021a575b600080fd5b34801561008c57600080fd5b506100c3600480360360408110156100a357600080fd5b810190808035906020019092919080359060200190929190505050610589565b005b3480156100d157600080fd5b506100fe600480360360208110156100e857600080fd5b8101908080359060200190929190505050610809565b60405180858152602001806020018060200180602001848103845287818151815260200191508051906020019060200280838360005b8381101561014f578082015181840152602081019050610134565b50505050905001848103835286818151815260200191508051906020019060200280838360005b83811015610191578082015181840152602081019050610176565b50505050905001848103825285818151815260200191508051906020019060200280838360005b838110156101d35780820151818401526020810190506101b8565b5050505090500197505050505050505060405180910390f35b6102186004803603602081101561020257600080fd5b81019080803590602001909291905050506109e9565b005b6102466004803603602081101561023057600080fd5b8101908080359060200190929190505050610ad5565b005b34801561025457600080fd5b506102816004803603602081101561026b57600080fd5b8101908080359060200190929190505050610c02565b60405180898152602001888152602001806020018773ffffffffffffffffffffffffffffffffffffffff1673ffffffffffffffffffffffffffffffffffffffff1681526020018673ffffffffffffffffffffffffffffffffffffffff1673ffffffffffffffffffffffffffffffffffffffff168152602001858152602001848152602001838152602001828103825288818151815260200191508051906020019080838360005b83811015610343578082015181840152602081019050610328565b50505050905090810190601f1680156103705780820380516001836020036101000a031916815260200191505b50995050505050505050505060405180910390f35b34801561039157600080fd5b506103c8600480360360408110156103a857600080fd5b810190808035906020019092919080359060200190929190505050610df6565b005b3480156103d657600080fd5b50610403600480360360208110156103ed57600080fd5b8101908080359060200190929190505050610f95565b60405180878152602001868152602001806020018573ffffffffffffffffffffffffffffffffffffffff1673ffffffffffffffffffffffffffffffffffffffff1681526020018473ffffffffffffffffffffffffffffffffffffffff1673ffffffffffffffffffffffffffffffffffffffff168152602001838152602001828103825286818151815260200191508051906020019080838360005b838110156104b957808201518184015260208101905061049e565b50505050905090810190601f1680156104e65780820380516001836020036101000a031916815260200191505b5097505050505050505060405180910390f35b34801561050557600080fd5b506105326004803603602081101561051c57600080fd5b81019080803590602001909291905050506110b4565b6040518080602001828103825283818151815260200191508051906020019060200280838360005b8381101561057557808201518184015260208101905061055a565b505050509050019250505060405180910390f35b600060016000815460010191905081905590506105a461111f565b83816000018181525050818160400181815250506000816060019060028111156105ca57fe5b908160028111156105d757fe5b8152505033816080019073ffffffffffffffffffffffffffffffffffffffff16908173ffffffffffffffffffffffffffffffffffffffff1681525050338160a0019073ffffffffffffffffffffffffffffffffffffffff16908173ffffffffffffffffffffffffffffffffffffffff168152505060008160e001818152505060008090505b838110156107cb5760008060008154600101919050819055905080836020018181525050826002600083815260200190815260200160002060008201518160000155602082015181600101556040820151816002015560608201518160030160006101000a81548160ff021916908360028111156106d657fe5b021790555060808201518160030160016101000a81548173ffffffffffffffffffffffffffffffffffffffff021916908373ffffffffffffffffffffffffffffffffffffffff16021790555060a08201518160040160006101000a81548173ffffffffffffffffffffffffffffffffffffffff021916908373ffffffffffffffffffffffffffffffffffffffff16021790555060c0820151816005015560e082015181600701559050506003600085815260200190815260200160002081908060018154018082558091505090600182039060005260206000200160009091929091909150555050808060010191505061065c565b507fd29d8a68ca7c8c74be5579719d445aabfe230ed6e6a83aff475a663500eb7609826040518082815260200191505060405180910390a150505050565b600060608060608460006002600083815260200190815260200160002060070154141561083557600080fd5b6000600260008881526020019081526020016000209050806007015495506060866040519080825280602002602001820160405280156108845781602001602082028038833980820191505090505b5090506060876040519080825280602002602001820160405280156108b85781602001602082028038833980820191505090505b5090506060886040519080825280602002602001820160405280156108ec5781602001602082028038833980820191505090505b50905060008090505b84600701548110156109cd5760008560060160008381526020019081526020016000209050806000015485838151811061092b57fe5b602002602001018181525050806001015484838151811061094857fe5b6020026020010181815250508060020160009054906101000a900473ffffffffffffffffffffffffffffffffffffffff1683838151811061098557fe5b602002602001019073ffffffffffffffffffffffffffffffffffffffff16908173ffffffffffffffffffffffffffffffffffffffff16815250505080806001019150506108f5565b50828282809850819950829a5050505050505050509193509193565b80600060026000838152602001908152602001600020600701541415610a0e57600080fd5b600280600084815260200190815260200160002060030160006101000a81548160ff02191690836002811115610a4057fe5b0217905550336002600084815260200190815260200160002060030160016101000a81548173ffffffffffffffffffffffffffffffffffffffff021916908373ffffffffffffffffffffffffffffffffffffffff1602179055507f653d56639fee6b566a5c804764e9689de38645f0b733df89a36a1b7b42173dd8826040518082815260200191505060405180910390a15050565b60006003600083815260200190815260200160002080549050905060008090505b81811015610bc6576000600360008581526020019081526020016000208281548110610b1e57fe5b9060005260206000200154905060016002600083815260200190815260200160002060030160006101000a81548160ff02191690836002811115610b5e57fe5b0217905550336002600083815260200190815260200160002060030160016101000a81548173ffffffffffffffffffffffffffffffffffffffff021916908373ffffffffffffffffffffffffffffffffffffffff160217905550508080600101915050610af6565b507f92f64ca637d023f354075a4be751b169c1a8a9ccb6d33cdd0cb3520543995727826040518082815260200191505060405180910390a15050565b6000806060600080600080600080548911158015610c21575060008914155b610c93576040517f08c379a000000000000000000000000000000000000000000000000000000000815260040180806020018281038252601a8152602001807f476976656e20504b55204e6f742043726561746564205965742100000000000081525060200191505060405180910390fd5b6000600260008b81526020019081526020016000209050806000015498508060020154975060006002811115610cc557fe5b8160030160009054906101000a900460ff166002811115610ce257fe5b1415610d25576040518060400160405280600c81526020017f4d616e75666163747572656400000000000000000000000000000000000000008152509650610d8e565b600280811115610d3157fe5b8160030160009054906101000a900460ff166002811115610d4e57fe5b1415610d8d576040518060400160405280600981526020017f507572636861736564000000000000000000000000000000000000000000000081525096505b5b8060030160019054906101000a900473ffffffffffffffffffffffffffffffffffffffff1695508060040160009054906101000a900473ffffffffffffffffffffffffffffffffffffffff169450806005015493508060070154915050919395975091939597565b600060036000848152602001908152602001600020805490509050610e1961119b565b60405180606001604052804281526020018481526020013373ffffffffffffffffffffffffffffffffffffffff16815250905060008090505b82811015610f57576000600360008781526020019081526020016000208281548110610e7a57fe5b906000526020600020015490508260026000838152602001908152602001600020600601600060026000858152602001908152602001600020600701548152602001908152602001600020600082015181600001556020820151816001015560408201518160020160006101000a81548173ffffffffffffffffffffffffffffffffffffffff021916908373ffffffffffffffffffffffffffffffffffffffff1602179055509050506002600082815260200190815260200160002060070160008154809291906001019190505550508080600101915050610e52565b507fe0abde12d5564a014f3a4a4468f87400e13c581a9847e1868181a29dcc31e222846040518082815260200191505060405180910390a150505050565b600080606060008060006001548711158015610fb2575060008714155b611024576040517f08c379a000000000000000000000000000000000000000000000000000000000815260040180806020018281038252601a8152602001807f476976656e20534c55204e6f742043726561746564205965742100000000000081525060200191505060405180910390fd5b6000600360008981526020019081526020016000206001600360008b815260200190815260200160002080549050038154811061105d57fe5b9060005260206000200154905061107381610c02565b90919293949550905050809650819750829850839950849a505050505050600360008981526020019081526020016000208054905096505091939550919395565b60606003600083815260200190815260200160002080548060200260200160405190810160405280929190818152602001828054801561111357602002820191906000526020600020905b8154815260200190600101908083116110ff575b50505050509050919050565b6040518061010001604052806000815260200160008152602001600081526020016000600281111561114d57fe5b8152602001600073ffffffffffffffffffffffffffffffffffffffff168152602001600073ffffffffffffffffffffffffffffffffffffffff16815260200160008152602001600081525090565b60405180606001604052806000815260200160008152602001600073ffffffffffffffffffffffffffffffffffffffff168152509056fea165627a7a7230582010c8ea65e6e6df275d9ecfb51e086bb0e73d540681d8a6f2511c3087ca7a036d0029",
  "source": "pragma solidity ^0.5.0;\r\n\r\ncontract Product {\r\n\r\n    /// Variable for tracking Product Kepping Unit (PKU)\r\n    uint pku;\r\n\r\n    /// Variable for tracking Stock Louding Uint (SLU)\r\n    uint slu;\r\n\r\n    /// Public mapping from PKU to a Product Item\r\n    mapping (uint => ProductItem) pItems;\r\n\r\n    /// Public mapping from SLU to a array of PKU\r\n    mapping (uint => uint[]) stockLouds;\r\n\r\n    // Enumaration for defining variety of Product State\r\n    enum ProductState {\r\n        Manufactured,\r\n        NotPurchasedYet,\r\n        Purchased\r\n    }\r\n\r\n    // Structure for Envirument update unit\r\n    struct TaxUpdateOpj {\r\n        uint timeStamp;\r\n        uint lastPaidTax;\r\n        //uint totalTax;\r\n        address updaterAddress;\r\n    }\r\n\r\n    /// Structure for keeping Product Design fields structured\r\n    struct ProductItem {\r\n        uint udpc;\r\n        uint pku;\r\n        uint slu;\r\n        ProductState state;\r\n        address payable currentOwnerId;\r\n        address manufacturerId;\r\n        //address sellerId;\r\n        uint price;\r\n        mapping(uint => TaxUpdateOpj) taxHistory;\r\n        uint taxUpdateCounter;\r\n    }\r\n\r\n    /// Event to emit them for users in functions, accept `slu` as input as stock expected\r\n    event Manufactured(uint slu);\r\n    event taxUpdated(uint slu);\r\n    event Sold(uint slu);\r\n    /// Event to emit them for users in functions, accept `pku` as input as one product unit expected\r\n    event Purchased(uint pku);\r\n\r\n    /// Modifier that checks if an ProductDesignItem.state of a udpc is Owned\r\n    modifier isManufactured(uint _slu) {\r\n        uint firstPKU = stockLouds[_slu][0];\r\n        require(pItems[firstPKU].state == ProductState.Manufactured);\r\n        _;\r\n    }\r\n\r\n    /// Modifier that checks if an ProductDesignItem.state of a udpc is Owned\r\n    modifier isTaxTracked(uint _slu) {\r\n        uint firstPKU = stockLouds[_slu][0];\r\n        require(pItems[firstPKU].taxUpdateCounter != 0);\r\n        _;\r\n    }\r\n\r\n    /// Modifier that checks if an ProductDesignItem.state of a udpc is Owned\r\n    modifier onlyManufacturerOf(uint _slu) {\r\n        uint firstPKU = stockLouds[_slu][0];\r\n        bool isManuf = pItems[firstPKU].manufacturerId == msg.sender;\r\n        require(isManuf);\r\n        _;\r\n    }\r\n\r\n\r\n    /// Modifier that checks if an ProductDesignItem.state of a udpc is Owned\r\n    modifier isProductTaxTracked(uint _pku) {\r\n        require(pItems[_pku].taxUpdateCounter != 0);\r\n        _;\r\n    }\r\n\r\n    /// Constructor Function sets up SLU and PKU to 0\r\n    constructor() public {\r\n        slu = 0;\r\n        pku = 0;\r\n    }\r\n\r\n    /// Function helps manufacturer to manufactur a new Product Loud\r\n    function manufacturProductsLoud(uint _udpc, uint quantity) public {\r\n        uint _slu = ++slu;\r\n        ProductItem memory newProductItem;\r\n        newProductItem.udpc = _udpc;\r\n        newProductItem.slu = _slu;\r\n        newProductItem.state = ProductState.Manufactured;\r\n        newProductItem.currentOwnerId = msg.sender;\r\n        newProductItem.manufacturerId = msg.sender;\r\n        newProductItem.taxUpdateCounter = 0;\r\n        for (uint i = 0; i < quantity; i++) {\r\n            uint _pku = ++pku;\r\n            newProductItem.pku = _pku;\r\n            pItems[_pku] = newProductItem;\r\n            \r\n            stockLouds[_slu].push(_pku);\r\n        }\r\n        emit Manufactured(_slu);\r\n    }\r\n\r\n    function buyProductsLoud(uint _slu)\r\n        public\r\n        payable\r\n        {\r\n        uint quantity = stockLouds[_slu].length;\r\n        for (uint i = 0; i < quantity; i++) {\r\n            uint _pku = stockLouds[_slu][i];\r\n            pItems[_pku].state = ProductState.NotPurchasedYet;\r\n            pItems[_pku].currentOwnerId = msg.sender;\r\n            //pItems[_pku].deistributorId = msg.sender;\r\n            //pItems[_pku].retailerId = _receiver;\r\n\r\n        }\r\n        emit Sold(_slu);\r\n} \r\n\r\n\r\n    /// Function helps manufacturer to Pack a isManufactured Product Loud\r\n    function purchaseProduct (uint _pku)\r\n        public\r\n        payable\r\n        isProductTaxTracked(_pku)\r\n    {\r\n        pItems[_pku].state = ProductState.Purchased;\r\n        pItems[_pku].currentOwnerId = msg.sender;\r\n\r\n        emit Purchased(_pku);\r\n    }\r\n    \r\n    /// public data featching functions\r\n    function fetchProductLoaudData(uint _slu) \r\n        external \r\n        view \r\n        returns(\r\n            uint quantity,\r\n            uint _udpc,\r\n            string memory state,\r\n            address currentOwner,\r\n            address manufacturerId,\r\n            uint price\r\n        )\r\n    {\r\n        require(_slu <= slu && _slu != 0, 'Given SLU Not Created Yet!');\r\n\r\n        uint sampleItemPKU = stockLouds[_slu][stockLouds[_slu].length-1];\r\n        (\r\n            _udpc,\r\n            ,\r\n            state,\r\n            currentOwner,\r\n            manufacturerId,\r\n            price,\r\n            ,\r\n            \r\n        ) = fetchProductItemData(sampleItemPKU);\r\n\r\n        quantity = stockLouds[_slu].length;\r\n    }\r\n\r\n    function fetchProductItemData(uint _pku)\r\n        public\r\n        view\r\n        returns(\r\n            uint _udpc,\r\n            uint _slu,\r\n            string memory state,\r\n            address currentOwner,\r\n            address manufacturerId,\r\n            uint price,\r\n            uint packingTimeStamp,\r\n            uint numberOfTaxUpdate\r\n        )\r\n    {\r\n        require(_pku <= pku && _pku != 0, 'Given PKU Not Created Yet!');\r\n        ProductItem  storage _ProductItem = pItems[_pku];\r\n\r\n        _udpc = _ProductItem.udpc;\r\n        _slu = _ProductItem.slu;\r\n\r\n        if (_ProductItem.state == ProductState.Manufactured)\r\n            state = 'Manufactured';\r\n        else if (_ProductItem.state == ProductState.Purchased)\r\n            state = 'Purchased';\r\n\r\n        currentOwner = _ProductItem.currentOwnerId;\r\n        manufacturerId = _ProductItem.manufacturerId;\r\n        price = _ProductItem.price;\r\n        numberOfTaxUpdate = _ProductItem.taxUpdateCounter;\r\n    }\r\n\r\n    function fetchLoudPKUs(uint _slu)\r\n        external\r\n        view\r\n        returns(\r\n            uint[] memory loadPKUs\r\n        )\r\n    {\r\n        loadPKUs = stockLouds[_slu];\r\n    }\r\n\r\n\r\n    function updateTaxHistory (\r\n        uint _slu,\r\n        uint _paidTax\r\n        //uint _totalTax\r\n    )\r\n        public\r\n    {   \r\n        //uint _totalTax = pItems[_pku].taxHistory[pItems[_pku].taxUpdateCounter-1].totalTax + _paidTax; \r\n        uint quantity = stockLouds[_slu].length;\r\n        TaxUpdateOpj memory _taxUpdate = TaxUpdateOpj(\r\n            now,\r\n            _paidTax,\r\n            /*_totalTax,*/\r\n            msg.sender\r\n        );\r\n        for (uint i = 0; i < quantity; i++) {\r\n            uint _pku = stockLouds[_slu][i];\r\n\r\n            pItems[_pku].taxHistory[pItems[_pku].taxUpdateCounter] = _taxUpdate;\r\n            pItems[_pku].taxUpdateCounter ++;\r\n        }\r\n        emit taxUpdated(_slu);\r\n    }\r\n\r\n\r\n\r\n\r\n    function fetchtaxHistory(uint _pku)\r\n        external\r\n        view\r\n        isProductTaxTracked(_pku)\r\n        returns(\r\n            uint numberOfupdate,\r\n            uint[] memory timeStamps,\r\n            uint[] memory lastPaidTax,\r\n           // uint[] memory totalTax,\r\n            address[] memory updaterAddresses\r\n        )\r\n    {\r\n        ProductItem  storage _ProductItem = pItems[_pku];\r\n        numberOfupdate = _ProductItem.taxUpdateCounter;\r\n        uint[] memory _timeStamps = new uint[](numberOfupdate);\r\n        uint[] memory _lastPaidTax = new uint[](numberOfupdate);\r\n       // uint[] memory _totalTax = new uint[](numberOfupdate);\r\n        address[] memory _updaterAddresses = new address[](numberOfupdate);\r\n        for (uint i = 0; i < _ProductItem.taxUpdateCounter; i++) {\r\n            TaxUpdateOpj storage _taxUpdate = _ProductItem.taxHistory[i];\r\n            _timeStamps[i] = _taxUpdate.timeStamp;\r\n            _lastPaidTax[i] = _taxUpdate.lastPaidTax;\r\n            //_totalTax[i] = _taxUpdate.totalTax;\r\n            _updaterAddresses[i] = _taxUpdate.updaterAddress;\r\n        }\r\n        (timeStamps, lastPaidTax, /*totalTax,*/ updaterAddresses) = (\r\n            _timeStamps, \r\n            _lastPaidTax, \r\n           // _totalTax,\r\n            _updaterAddresses\r\n        );\r\n    }\r\n\r\n}\r\n",
  "sourcePath": "E:/document/blockchain/myprojects/simplevat/contracts/product.sol",
  "compiler": {
    "name": "solc",
    "version": "0.5.8+commit.23d335f2.Emscripten.clang"
  },
  "schemaVersion": "3.0.16",
  "updatedAt": "2019-09-24T08:06:17.820Z",
  "devdoc": {
    "methods": {}
  },
  "userdoc": {
    "methods": {
      "constructor": "Constructor Function sets up SLU and PKU to 0",
      "fetchProductLoaudData(uint256)": {
        "notice": "public data featching functions"
      },
      "manufacturProductsLoud(uint256,uint256)": {
        "notice": "Function helps manufacturer to manufactur a new Product Loud"
      },
      "purchaseProduct(uint256)": {
        "notice": "Function helps manufacturer to Pack a isManufactured Product Loud"
      }
    }
  }
}