{
  "contractName": "Product",
  "abi": [
    {
      "inputs": [],
      "payable": false,
      "stateMutability": "nonpayable",
      "type": "constructor"
    },
    {
      "anonymous": false,
      "inputs": [
        {
          "indexed": false,
          "name": "pID",
          "type": "uint256"
        }
      ],
      "name": "Manufactured",
      "type": "event"
    },
    {
      "anonymous": false,
      "inputs": [
        {
          "indexed": false,
          "name": "pID",
          "type": "uint256"
        }
      ],
      "name": "taxUpdated",
      "type": "event"
    },
    {
      "anonymous": false,
      "inputs": [
        {
          "indexed": false,
          "name": "pID",
          "type": "uint256"
        }
      ],
      "name": "Purchased",
      "type": "event"
    },
    {
      "constant": false,
      "inputs": [
        {
          "name": "_price",
          "type": "uint256"
        },
        {
          "name": "_tax",
          "type": "uint256"
        },
        {
          "name": "_name",
          "type": "string"
        }
      ],
      "name": "manufacturProductsLoud",
      "outputs": [],
      "payable": false,
      "stateMutability": "nonpayable",
      "type": "function"
    },
    {
      "constant": false,
      "inputs": [
        {
          "name": "_pID",
          "type": "uint256"
        }
      ],
      "name": "purchaseProduct",
      "outputs": [],
      "payable": true,
      "stateMutability": "payable",
      "type": "function"
    },
    {
      "constant": false,
      "inputs": [
        {
          "name": "_pID",
          "type": "uint256"
        },
        {
          "name": "newPrice",
          "type": "uint256"
        }
      ],
      "name": "setNewPrice",
      "outputs": [],
      "payable": false,
      "stateMutability": "nonpayable",
      "type": "function"
    },
    {
      "constant": false,
      "inputs": [
        {
          "name": "_pID",
          "type": "uint256"
        }
      ],
      "name": "setCustomerRecieved",
      "outputs": [],
      "payable": false,
      "stateMutability": "nonpayable",
      "type": "function"
    },
    {
      "constant": true,
      "inputs": [
        {
          "name": "_pID",
          "type": "uint256"
        }
      ],
      "name": "getCustomerRecieved",
      "outputs": [
        {
          "name": "",
          "type": "bool"
        }
      ],
      "payable": false,
      "stateMutability": "view",
      "type": "function"
    },
    {
      "constant": true,
      "inputs": [],
      "name": "getLastPID",
      "outputs": [
        {
          "name": "",
          "type": "uint256"
        }
      ],
      "payable": false,
      "stateMutability": "view",
      "type": "function"
    },
    {
      "constant": true,
      "inputs": [
        {
          "name": "_pID",
          "type": "uint256"
        }
      ],
      "name": "fetchProductItemData",
      "outputs": [
        {
          "name": "pID",
          "type": "uint256"
        },
        {
          "name": "name",
          "type": "string"
        },
        {
          "name": "currentOwner",
          "type": "address"
        },
        {
          "name": "manufacturerId",
          "type": "address"
        },
        {
          "name": "price",
          "type": "uint256"
        },
        {
          "name": "totalTax",
          "type": "uint256"
        },
        {
          "name": "lastPaidTax",
          "type": "uint256"
        },
        {
          "name": "numberOfTaxUpdate",
          "type": "uint256"
        },
        {
          "name": "customerRecieved",
          "type": "bool"
        }
      ],
      "payable": false,
      "stateMutability": "view",
      "type": "function"
    },
    {
      "constant": false,
      "inputs": [
        {
          "name": "_pID",
          "type": "uint256"
        },
        {
          "name": "_paidTax",
          "type": "uint256"
        }
      ],
      "name": "updateTaxHistory",
      "outputs": [],
      "payable": false,
      "stateMutability": "nonpayable",
      "type": "function"
    },
    {
      "constant": true,
      "inputs": [
        {
          "name": "_pID",
          "type": "uint256"
        }
      ],
      "name": "fetchtaxHistory",
      "outputs": [
        {
          "name": "numberOfupdate",
          "type": "uint256"
        },
        {
          "name": "timeStamps",
          "type": "uint256[]"
        },
        {
          "name": "lastPaidTax",
          "type": "uint256[]"
        },
        {
          "name": "totalTax",
          "type": "uint256[]"
        },
        {
          "name": "updaterAddresses",
          "type": "address[]"
        }
      ],
      "payable": false,
      "stateMutability": "view",
      "type": "function"
    }
  ],
  "bytecode": "0x6080604052600060015534801561001557600080fd5b506000808190555061138d8061002c6000396000f3fe6080604052600436106100865760003560e01c8063aa9903ee11610059578063aa9903ee146103ab578063ac2f03e0146103f0578063b3bf8d3e1461041b578063d130cd641461046e578063e23a60fe1461054a57610086565b80632c7cef2e1461008b57806338e76a03146101fa578063449094f3146102285780637ace31ef14610263575b600080fd5b34801561009757600080fd5b506100c4600480360360208110156100ae57600080fd5b810190808035906020019092919050505061058f565b6040518086815260200180602001806020018060200180602001858103855289818151815260200191508051906020019060200280838360005b838110156101195780820151818401526020810190506100fe565b50505050905001858103845288818151815260200191508051906020019060200280838360005b8381101561015b578082015181840152602081019050610140565b50505050905001858103835287818151815260200191508051906020019060200280838360005b8381101561019d578082015181840152602081019050610182565b50505050905001858103825286818151815260200191508051906020019060200280838360005b838110156101df5780820151818401526020810190506101c4565b50505050905001995050505050505050505060405180910390f35b6102266004803603602081101561021057600080fd5b81019080803590602001909291905050506107c9565b005b34801561023457600080fd5b506102616004803603602081101561024b57600080fd5b81019080803590602001909291905050506108ed565b005b34801561026f57600080fd5b5061029c6004803603602081101561028657600080fd5b8101908080359060200190929190505050610a0c565b604051808a8152602001806020018973ffffffffffffffffffffffffffffffffffffffff1673ffffffffffffffffffffffffffffffffffffffff1681526020018873ffffffffffffffffffffffffffffffffffffffff1673ffffffffffffffffffffffffffffffffffffffff1681526020018781526020018681526020018581526020018481526020018315151515815260200182810382528a818151815260200191508051906020019080838360005b8381101561036857808201518184015260208101905061034d565b50505050905090810190601f1680156103955780820380516001836020036101000a031916815260200191505b509a505050505050505050505060405180910390f35b3480156103b757600080fd5b506103ee600480360360408110156103ce57600080fd5b810190808035906020019092919080359060200190929190505050610c04565b005b3480156103fc57600080fd5b50610405610dde565b6040518082815260200191505060405180910390f35b34801561042757600080fd5b506104546004803603602081101561043e57600080fd5b8101908080359060200190929190505050610de8565b604051808215151515815260200191505060405180910390f35b34801561047a57600080fd5b506105486004803603606081101561049157600080fd5b810190808035906020019092919080359060200190929190803590602001906401000000008111156104c257600080fd5b8201836020820111156104d457600080fd5b803590602001918460018302840111640100000000831117156104f657600080fd5b91908080601f016020809104026020016040519081016040528093929190818152602001838380828437600081840152601f19601f820116905080830192505050505050509192919290505050610e8b565b005b34801561055657600080fd5b5061058d6004803603604081101561056d57600080fd5b8101908080359060200190929190803590602001909291905050506110f4565b005b6000606080606080856000600260008381526020019081526020016000206006015414156105bc57600080fd5b60006002600089815260200190815260200160002090508060060154965060608760405190808252806020026020018201604052801561060b5781602001602082028038833980820191505090505b50905060608860405190808252806020026020018201604052801561063f5781602001602082028038833980820191505090505b5090506060896040519080825280602002602001820160405280156106735781602001602082028038833980820191505090505b50905060608a6040519080825280602002602001820160405280156106a75781602001602082028038833980820191505090505b50905060008090505b85600601548110156107a5576000866005016000838152602001908152602001600020905080600001548683815181106106e657fe5b602002602001018181525050806001015485838151811061070357fe5b602002602001018181525050806002015484838151811061072057fe5b6020026020010181815250508060030160009054906101000a900473ffffffffffffffffffffffffffffffffffffffff1683838151811061075d57fe5b602002602001019073ffffffffffffffffffffffffffffffffffffffff16908173ffffffffffffffffffffffffffffffffffffffff16815250505080806001019150506106b0565b5083838383809a50819b50829c50839d505050505050505050505091939590929450565b806000600260008381526020019081526020016000206006015414156107ee57600080fd5b81600115156002600083815260200190815260200160002060070160009054906101000a900460ff161515141561082457600080fd5b60016002600085815260200190815260200160002060020160006101000a81548160ff0219169083600181111561085757fe5b0217905550336002600085815260200190815260200160002060020160016101000a81548173ffffffffffffffffffffffffffffffffffffffff021916908373ffffffffffffffffffffffffffffffffffffffff1602179055507f653d56639fee6b566a5c804764e9689de38645f0b733df89a36a1b7b42173dd8836040518082815260200191505060405180910390a1505050565b8060003373ffffffffffffffffffffffffffffffffffffffff166002600084815260200190815260200160002060020160019054906101000a900473ffffffffffffffffffffffffffffffffffffffff1673ffffffffffffffffffffffffffffffffffffffff161490508061096157600080fd5b60008314156109d8576040517f08c379a000000000000000000000000000000000000000000000000000000000815260040180806020018281038252601a8152602001807f476976656e20704944204e6f742043726561746564205965742100000000000081525060200191505060405180910390fd5b60016002600085815260200190815260200160002060070160006101000a81548160ff021916908315150217905550505050565b600060606000806000806000806000808a1415610a91576040517f08c379a000000000000000000000000000000000000000000000000000000000815260040180806020018281038252601a8152602001807f476976656e20704944204e6f742043726561746564205965742100000000000081525060200191505060405180910390fd5b6000600260008c815260200190815260200160002090508a9950806000018054600181600116156101000203166002900480601f016020809104026020016040519081016040528092919081815260200182805460018160011615610100020316600290048015610b435780601f10610b1857610100808354040283529160200191610b43565b820191906000526020600020905b815481529060010190602001808311610b2657829003601f168201915b505050505098508060020160019054906101000a900473ffffffffffffffffffffffffffffffffffffffff1697508060030160009054906101000a900473ffffffffffffffffffffffffffffffffffffffff16965080600401549550806006015492508060050160006001850381526020019081526020016000206002015494508060050160006001850381526020019081526020016000206001015493508060070160009054906101000a900460ff169150509193959799909294969850565b60008060026000858152602001908152602001600020600601541415610c2c57819050610c94565b6000600260008581526020019081526020016000206006015414610c93578160026000858152602001908152602001600020600501600060016002600088815260200190815260200160002060060154038152602001908152602001600020600201540190505b5b610c9c611200565b60405180608001604052804281526020018481526020018381526020013373ffffffffffffffffffffffffffffffffffffffff168152509050806002600086815260200190815260200160002060050160006002600088815260200190815260200160002060060154815260200190815260200160002060008201518160000155602082015181600101556040820151816002015560608201518160030160006101000a81548173ffffffffffffffffffffffffffffffffffffffff021916908373ffffffffffffffffffffffffffffffffffffffff16021790555090505060026000858152602001908152602001600020600601600081548092919060010191905055507fe0abde12d5564a014f3a4a4468f87400e13c581a9847e1868181a29dcc31e222846040518082815260200191505060405180910390a150505050565b6000600154905090565b600080821415610e60576040517f08c379a000000000000000000000000000000000000000000000000000000000815260040180806020018281038252601a8152602001807f476976656e20704944204e6f742043726561746564205965742100000000000081525060200191505060405180910390fd5b6002600083815260200190815260200160002060070160009054906101000a900460ff169050919050565b600080600081546001019190508190559050610ea561123e565b81816020018181525050600081604001906001811115610ec157fe5b90816001811115610ece57fe5b8152505033816060019073ffffffffffffffffffffffffffffffffffffffff16908173ffffffffffffffffffffffffffffffffffffffff168152505033816080019073ffffffffffffffffffffffffffffffffffffffff16908173ffffffffffffffffffffffffffffffffffffffff168152505060008160c0018181525050848160a001818152505082816000018190525060008160e001901515908115158152505080600260008481526020019081526020016000206000820151816000019080519060200190610fa19291906112bc565b506020820151816001015560408201518160020160006101000a81548160ff02191690836001811115610fd057fe5b021790555060608201518160020160016101000a81548173ffffffffffffffffffffffffffffffffffffffff021916908373ffffffffffffffffffffffffffffffffffffffff16021790555060808201518160030160006101000a81548173ffffffffffffffffffffffffffffffffffffffff021916908373ffffffffffffffffffffffffffffffffffffffff16021790555060a0820151816004015560c0820151816006015560e08201518160070160006101000a81548160ff0219169083151502179055509050506110a48285610c04565b6001600081548092919060010191905055507fd29d8a68ca7c8c74be5579719d445aabfe230ed6e6a83aff475a663500eb7609826040518082815260200191505060405180910390a15050505050565b8160003373ffffffffffffffffffffffffffffffffffffffff166002600084815260200190815260200160002060020160019054906101000a900473ffffffffffffffffffffffffffffffffffffffff1673ffffffffffffffffffffffffffffffffffffffff161490508061116857600080fd5b60008414156111df576040517f08c379a000000000000000000000000000000000000000000000000000000000815260040180806020018281038252601a8152602001807f476976656e20704944204e6f742043726561746564205965742100000000000081525060200191505060405180910390fd5b82600260008681526020019081526020016000206004018190555050505050565b6040518060800160405280600081526020016000815260200160008152602001600073ffffffffffffffffffffffffffffffffffffffff1681525090565b60405180610100016040528060608152602001600081526020016000600181111561126557fe5b8152602001600073ffffffffffffffffffffffffffffffffffffffff168152602001600073ffffffffffffffffffffffffffffffffffffffff16815260200160008152602001600081526020016000151581525090565b828054600181600116156101000203166002900490600052602060002090601f016020900481019282601f106112fd57805160ff191683800117855561132b565b8280016001018555821561132b579182015b8281111561132a57825182559160200191906001019061130f565b5b509050611338919061133c565b5090565b61135e91905b8082111561135a576000816000905550600101611342565b5090565b9056fea165627a7a72305820f39d7c5d43eef5dc1da5003378b3ea465dc807c3c0cf1f3825f93f9b712965520029",
  "source": "pragma solidity ^0.5.0;\r\n\r\ncontract Product {\r\n\r\n    uint pID;\r\n    uint counter = 0;\r\n    mapping (uint => ProductItem) pItems;\r\n\r\n    enum ProductState {\r\n        Manufactured,\r\n        Purchased\r\n    }\r\n\r\n    // Structure for Envirument update unit\r\n    struct TaxUpdateOpj {\r\n        uint timeStamp;\r\n        uint lastPaidTax;\r\n        uint totalTax;\r\n        address updaterAddress;\r\n    }\r\n\r\n    /// Structure for keeping Product Design fields structured\r\n    struct ProductItem {\r\n\r\n        string name;\r\n        uint pID;\r\n        ProductState state;\r\n        address payable currentOwnerId;\r\n        address manufacturerId;\r\n        uint price;\r\n        mapping(uint => TaxUpdateOpj) taxHistory;\r\n        uint taxUpdateCounter;\r\n        bool customerRecieved;\r\n    }\r\n\r\n    /// Event to emit them for users in functions, accept `pID` as input as stock expected\r\n    event Manufactured(uint pID);\r\n    event taxUpdated(uint pID);\r\n    //event Sold(uint pID);\r\n    /// Event to emit them for users in functions, accept `pID` as input as one product unit expected\r\n    event Purchased(uint pID);\r\n\r\n    /// Modifier that checks if an ProductDesignItem.state of a udpc is Owned\r\n    modifier isManufactured(uint _pID) {\r\n        //uint firstpID = stockLouds[_pID][0];\r\n        require(pItems[_pID].state == ProductState.Manufactured);\r\n        _;\r\n    }\r\n\r\n    /// Modifier that checks if an ProductDesignItem.state of a udpc is Owned\r\n    modifier isTaxTracked(uint _pID) {\r\n        //uint firstpID = stockLouds[_pID][0];\r\n        require(pItems[_pID].taxUpdateCounter != 0);\r\n        _;\r\n    }\r\n\r\n    /// Modifier that checks if an ProductDesignItem.state of a udpc is Owned\r\n    modifier onlyManufacturerOf(uint _pID) {\r\n        //uint firstpID = stockLouds[_pID][0];\r\n        bool isManuf = pItems[_pID].manufacturerId == msg.sender;\r\n        require(isManuf);\r\n        _;\r\n    }\r\n\r\n    modifier onlyOwnerOf(uint _pID) {\r\n        //uint firstpID = stockLouds[_pID][0];\r\n        bool isOwner = pItems[_pID].currentOwnerId == msg.sender;\r\n        require(isOwner);\r\n        _;\r\n    }\r\n\r\n    /// Modifier that checks if an ProductDesignItem.state of a udpc is Owned\r\n    modifier isProductTaxTracked(uint _pID) {\r\n        require(pItems[_pID].taxUpdateCounter != 0);\r\n        _;\r\n    }\r\n\r\n    modifier isNotCustomerRecieved(uint _pID){\r\n        require(pItems[_pID].customerRecieved != true);\r\n        _;\r\n    }\r\n    /// Constructor Function sets up pID and pID to 0\r\n    constructor() public {\r\n        pID = 0;\r\n    }\r\n\r\n    /// Function helps manufacturer to manufactur a new Product Loud\r\n    function manufacturProductsLoud(uint _price, uint _tax, string memory _name) public {\r\n        uint _pID = ++pID;\r\n        ProductItem memory newProductItem;\r\n        //newProductItem.udpc = _udpc;\r\n        newProductItem.pID = _pID;\r\n        newProductItem.state = ProductState.Manufactured;\r\n        newProductItem.currentOwnerId = msg.sender;\r\n        newProductItem.manufacturerId = msg.sender;\r\n        newProductItem.taxUpdateCounter = 0;\r\n        newProductItem.price = _price;\r\n        newProductItem.name = _name;\r\n        newProductItem.customerRecieved = false;\r\n        pItems[_pID] = newProductItem;\r\n        updateTaxHistory(_pID , _tax);\r\n        counter++;\r\n        //newProductItem.taxUpdateCounter = pItems[_pID].taxUpdateCounter ;\r\n        emit Manufactured(_pID);\r\n    }\r\n\r\n    function purchaseProduct (uint _pID)\r\n        public\r\n        payable\r\n        isProductTaxTracked(_pID)\r\n        isNotCustomerRecieved(_pID)\r\n    {\r\n        pItems[_pID].state = ProductState.Purchased;\r\n        pItems[_pID].currentOwnerId = msg.sender;\r\n\r\n        emit Purchased(_pID);\r\n    }\r\n    \r\n    function setNewPrice(uint _pID,uint newPrice) public onlyOwnerOf(_pID){\r\n        require( _pID != 0, 'Given pID Not Created Yet!');\r\n        pItems[_pID].price = newPrice;\r\n    }\r\n\r\n    function setCustomerRecieved(uint _pID) public onlyOwnerOf(_pID){\r\n        require( _pID != 0, 'Given pID Not Created Yet!');\r\n        pItems[_pID].customerRecieved = true;\r\n    }\r\n\r\n    function getCustomerRecieved(uint _pID) public view returns(bool){\r\n        require( _pID != 0, 'Given pID Not Created Yet!');\r\n        return (pItems[_pID].customerRecieved);\r\n    }\r\n\r\n    function getLastPID() public view returns(uint){\r\n        return counter ;\r\n    }\r\n\r\n    function fetchProductItemData(uint _pID)\r\n        public\r\n        view\r\n        returns(\r\n            //uint _udpc,\r\n            uint pID,\r\n            string memory name,\r\n            address currentOwner,\r\n            address manufacturerId,\r\n            uint price,\r\n            uint totalTax,\r\n            uint lastPaidTax,\r\n            uint numberOfTaxUpdate,\r\n            bool customerRecieved\r\n        )\r\n    {\r\n        require( _pID != 0, 'Given pID Not Created Yet!');\r\n        ProductItem  storage _ProductItem = pItems[_pID];\r\n        pID = _pID;\r\n        name = _ProductItem.name;\r\n        currentOwner = _ProductItem.currentOwnerId;\r\n        manufacturerId = _ProductItem.manufacturerId;\r\n        price = _ProductItem.price;\r\n        numberOfTaxUpdate = _ProductItem.taxUpdateCounter;\r\n        totalTax = _ProductItem.taxHistory[numberOfTaxUpdate-1].totalTax;\r\n        lastPaidTax = _ProductItem.taxHistory[numberOfTaxUpdate-1].lastPaidTax;\r\n        customerRecieved = _ProductItem.customerRecieved;\r\n    }\r\n\r\n\r\n    function updateTaxHistory(\r\n        uint _pID,\r\n        uint _paidTax\r\n        //uint _totalTax\r\n    )\r\n        public\r\n    {   \r\n        uint _totalTax;\r\n        if(pItems[_pID].taxUpdateCounter == 0){\r\n            _totalTax = _paidTax;\r\n        }\r\n        else if(pItems[_pID].taxUpdateCounter != 0){\r\n            _totalTax = pItems[_pID].taxHistory[pItems[_pID].taxUpdateCounter - 1].totalTax + _paidTax; \r\n        }\r\n        \r\n        \r\n        TaxUpdateOpj memory _taxUpdate = TaxUpdateOpj(\r\n            now,\r\n            _paidTax,\r\n            _totalTax,\r\n            msg.sender\r\n        );\r\n        //for (uint i = 0; i < quantity; i++) {\r\n            //uint _pID = stockLouds[_pID][i];\r\n\r\n        pItems[_pID].taxHistory[pItems[_pID].taxUpdateCounter] = _taxUpdate;\r\n        pItems[_pID].taxUpdateCounter ++;\r\n       // }\r\n        emit taxUpdated(_pID);\r\n      \r\n    }\r\n\r\n\r\n\r\n\r\n    function fetchtaxHistory(uint _pID)\r\n        public\r\n        view\r\n        isProductTaxTracked(_pID)\r\n        returns(\r\n            uint numberOfupdate,\r\n            uint[] memory timeStamps,\r\n            uint[] memory lastPaidTax,\r\n            uint[] memory totalTax,\r\n            address[] memory updaterAddresses\r\n        )\r\n    {\r\n        ProductItem  storage _ProductItem = pItems[_pID];\r\n        numberOfupdate = _ProductItem.taxUpdateCounter;\r\n        uint[] memory _timeStamps = new uint[](numberOfupdate);\r\n        uint[] memory _lastPaidTax = new uint[](numberOfupdate);\r\n        uint[] memory _totalTax = new uint[](numberOfupdate);\r\n        address[] memory _updaterAddresses = new address[](numberOfupdate);\r\n        for (uint i = 0; i < _ProductItem.taxUpdateCounter; i++) {\r\n            TaxUpdateOpj storage _taxUpdate = _ProductItem.taxHistory[i];\r\n            _timeStamps[i] = _taxUpdate.timeStamp;\r\n            _lastPaidTax[i] = _taxUpdate.lastPaidTax;\r\n            _totalTax[i] = _taxUpdate.totalTax;\r\n            _updaterAddresses[i] = _taxUpdate.updaterAddress;\r\n        }\r\n        (timeStamps, lastPaidTax, totalTax, updaterAddresses) = (\r\n            _timeStamps, \r\n            _lastPaidTax, \r\n             _totalTax,\r\n            _updaterAddresses\r\n        );\r\n    }\r\n\r\n}\r\n",
  "sourcePath": "E:/document/blockchain/myprojects/simplevat/contracts/product.sol",
  "compiler": {
    "name": "solc",
    "version": "0.5.8+commit.23d335f2.Emscripten.clang"
  },
  "schemaVersion": "3.0.16",
  "updatedAt": "2019-10-01T08:31:44.020Z",
  "devdoc": {
    "methods": {}
  },
  "userdoc": {
    "methods": {
      "constructor": "Constructor Function sets up pID and pID to 0",
      "manufacturProductsLoud(uint256,uint256,string)": {
        "notice": "Function helps manufacturer to manufactur a new Product Loud"
      }
    }
  }
}