{
  "contractName": "Rolable",
  "abi": [
    {
      "constant": false,
      "inputs": [],
      "name": "renounceMeFromBuyer",
      "outputs": [],
      "payable": false,
      "stateMutability": "nonpayable",
      "type": "function"
    },
    {
      "constant": true,
      "inputs": [
        {
          "name": "account",
          "type": "address"
        }
      ],
      "name": "isManufacturer",
      "outputs": [
        {
          "name": "",
          "type": "bool"
        }
      ],
      "payable": false,
      "stateMutability": "view",
      "type": "function"
    },
    {
      "constant": true,
      "inputs": [
        {
          "name": "account",
          "type": "address"
        }
      ],
      "name": "isBuyer",
      "outputs": [
        {
          "name": "",
          "type": "bool"
        }
      ],
      "payable": false,
      "stateMutability": "view",
      "type": "function"
    },
    {
      "constant": false,
      "inputs": [],
      "name": "assignMeAsBuyer",
      "outputs": [],
      "payable": false,
      "stateMutability": "nonpayable",
      "type": "function"
    },
    {
      "constant": false,
      "inputs": [],
      "name": "assignMeAsManufacturer",
      "outputs": [],
      "payable": false,
      "stateMutability": "nonpayable",
      "type": "function"
    },
    {
      "constant": false,
      "inputs": [],
      "name": "renounceMeFromManufacturer",
      "outputs": [],
      "payable": false,
      "stateMutability": "nonpayable",
      "type": "function"
    },
    {
      "constant": true,
      "inputs": [],
      "name": "amIBuyer",
      "outputs": [
        {
          "name": "",
          "type": "bool"
        }
      ],
      "payable": false,
      "stateMutability": "view",
      "type": "function"
    },
    {
      "constant": true,
      "inputs": [],
      "name": "amIManufacturer",
      "outputs": [
        {
          "name": "",
          "type": "bool"
        }
      ],
      "payable": false,
      "stateMutability": "view",
      "type": "function"
    },
    {
      "anonymous": false,
      "inputs": [
        {
          "indexed": true,
          "name": "account",
          "type": "address"
        }
      ],
      "name": "ManufacturerAdded",
      "type": "event"
    },
    {
      "anonymous": false,
      "inputs": [
        {
          "indexed": true,
          "name": "account",
          "type": "address"
        }
      ],
      "name": "ManufacturerRemoved",
      "type": "event"
    },
    {
      "anonymous": false,
      "inputs": [
        {
          "indexed": true,
          "name": "account",
          "type": "address"
        }
      ],
      "name": "BuyerAdded",
      "type": "event"
    },
    {
      "anonymous": false,
      "inputs": [
        {
          "indexed": true,
          "name": "account",
          "type": "address"
        }
      ],
      "name": "BuyerRemoved",
      "type": "event"
    },
    {
      "constant": true,
      "inputs": [],
      "name": "whoAmI",
      "outputs": [
        {
          "name": "Buyer",
          "type": "bool"
        },
        {
          "name": "manufacturer",
          "type": "bool"
        }
      ],
      "payable": false,
      "stateMutability": "view",
      "type": "function"
    }
  ],
  "bytecode": "0x60806040526100133361002760201b60201c565b6100223361008560201b60201c565b6102a2565b61003f8160006100e360201b6105a31790919060201c565b8073ffffffffffffffffffffffffffffffffffffffff167f6599d9dd7f97ccdc3d99ab507544f9f6ebfca20c63a7e3c018da49eeaefb164a60405160405180910390a250565b61009d8160016100e360201b6105a31790919060201c565b8073ffffffffffffffffffffffffffffffffffffffff167f561138658ca49a8540dc70dcfe64c9026c1c5b9344642242dd6562970f9c127860405160405180910390a250565b6100f382826101c460201b60201c565b15610166576040517f08c379a000000000000000000000000000000000000000000000000000000000815260040180806020018281038252601f8152602001807f526f6c65733a206163636f756e7420616c72656164792068617320726f6c650081525060200191505060405180910390fd5b60018260000160008373ffffffffffffffffffffffffffffffffffffffff1673ffffffffffffffffffffffffffffffffffffffff16815260200190815260200160002060006101000a81548160ff0219169083151502179055505050565b60008073ffffffffffffffffffffffffffffffffffffffff168273ffffffffffffffffffffffffffffffffffffffff16141561024b576040517f08c379a000000000000000000000000000000000000000000000000000000000815260040180806020018281038252602281526020018061099e6022913960400191505060405180910390fd5b8260000160008373ffffffffffffffffffffffffffffffffffffffff1673ffffffffffffffffffffffffffffffffffffffff16815260200190815260200160002060009054906101000a900460ff16905092915050565b6106ed806102b16000396000f3fe608060405234801561001057600080fd5b50600436106100935760003560e01c806348c149bd1161006657806348c149bd14610164578063a40e210f1461016e578063c40f1bdc14610178578063da91254c1461019a578063e1d6f86f146101c757610093565b806307e3c3031461009857806317d4a491146100a25780632a55feec146100fe57806335db95e51461015a575b600080fd5b6100a06101e9565b005b6100e4600480360360208110156100b857600080fd5b81019080803573ffffffffffffffffffffffffffffffffffffffff1690602001909291905050506101f4565b604051808215151515815260200191505060405180910390f35b6101406004803603602081101561011457600080fd5b81019080803573ffffffffffffffffffffffffffffffffffffffff169060200190929190505050610211565b604051808215151515815260200191505060405180910390f35b61016261022e565b005b61016c610239565b005b610176610244565b005b61018061024f565b604051808215151515815260200191505060405180910390f35b6101a261026a565b6040518083151515158152602001821515151581526020019250505060405180910390f35b6101cf610285565b604051808215151515815260200191505060405180910390f35b6101f2336102a0565b565b600061020a8260016102fa90919063ffffffff16565b9050919050565b60006102278260006102fa90919063ffffffff16565b9050919050565b610237336103d8565b565b61024233610432565b565b61024d3361048c565b565b60006102653360006102fa90919063ffffffff16565b905090565b60008061027561024f565b915061027f610285565b90509091565b600061029b3360016102fa90919063ffffffff16565b905090565b6102b48160006104e690919063ffffffff16565b8073ffffffffffffffffffffffffffffffffffffffff167f83fd4cbc7bc934bdfbae994ac6e72fcc0e50abd6995c1949520e761ba650d58260405160405180910390a250565b60008073ffffffffffffffffffffffffffffffffffffffff168273ffffffffffffffffffffffffffffffffffffffff161415610381576040517f08c379a00000000000000000000000000000000000000000000000000000000081526004018080602001828103825260228152602001806106a06022913960400191505060405180910390fd5b8260000160008373ffffffffffffffffffffffffffffffffffffffff1673ffffffffffffffffffffffffffffffffffffffff16815260200190815260200160002060009054906101000a900460ff16905092915050565b6103ec8160006105a390919063ffffffff16565b8073ffffffffffffffffffffffffffffffffffffffff167f6599d9dd7f97ccdc3d99ab507544f9f6ebfca20c63a7e3c018da49eeaefb164a60405160405180910390a250565b6104468160016105a390919063ffffffff16565b8073ffffffffffffffffffffffffffffffffffffffff167f561138658ca49a8540dc70dcfe64c9026c1c5b9344642242dd6562970f9c127860405160405180910390a250565b6104a08160016104e690919063ffffffff16565b8073ffffffffffffffffffffffffffffffffffffffff167f2fed5abf6a80d6dfe30b4895481b2fc5d7dce5f8f7b931832f4a2947d5040c7f60405160405180910390a250565b6104f082826102fa565b610545576040517f08c379a000000000000000000000000000000000000000000000000000000000815260040180806020018281038252602181526020018061067f6021913960400191505060405180910390fd5b60008260000160008373ffffffffffffffffffffffffffffffffffffffff1673ffffffffffffffffffffffffffffffffffffffff16815260200190815260200160002060006101000a81548160ff0219169083151502179055505050565b6105ad82826102fa565b15610620576040517f08c379a000000000000000000000000000000000000000000000000000000000815260040180806020018281038252601f8152602001807f526f6c65733a206163636f756e7420616c72656164792068617320726f6c650081525060200191505060405180910390fd5b60018260000160008373ffffffffffffffffffffffffffffffffffffffff1673ffffffffffffffffffffffffffffffffffffffff16815260200190815260200160002060006101000a81548160ff021916908315150217905550505056fe526f6c65733a206163636f756e7420646f6573206e6f74206861766520726f6c65526f6c65733a206163636f756e7420697320746865207a65726f2061646472657373a165627a7a72305820a1df2e420d35faa604a449a786acef9dfac8c3ccc0301212a42731a4d22b951d0029526f6c65733a206163636f756e7420697320746865207a65726f2061646472657373",
  "source": "pragma solidity ^0.5.0;\r\n\r\n/// Import all Roles\r\nimport \"./Roles/Buyer.sol\";\r\nimport \"./Roles/Manufacturer.sol\";\r\n\r\n\r\ncontract Rolable is Buyer,Manufacturer{\r\n\r\n    /// Function to check all roles for the caller\r\n    /// @return array contining every role with its state as boolean\r\n    function whoAmI() public view returns(\r\n        bool Buyer,\r\n        bool manufacturer\r\n    )\r\n    {\r\n        Buyer = amIBuyer();\r\n        manufacturer = amIManufacturer();\r\n    }\r\n}\r\n",
  "sourcePath": "E:\\document\\blockchain\\myprojects\\simplevat\\contracts\\AccessControl\\Rolable.sol",
  "compiler": {
    "name": "solc",
    "version": "0.5.8+commit.23d335f2.Emscripten.clang"
  },
  "schemaVersion": "3.0.16",
  "updatedAt": "2019-10-05T05:17:31.299Z",
  "devdoc": {
    "methods": {
      "amIBuyer()": {
        "return": "boolean for caller address state in `_Buyers` Role"
      },
      "amIManufacturer()": {
        "return": "boolean for caller address state in `_manufacturers` Role"
      },
      "whoAmI()": {
        "return": "array contining every role with its state as boolean"
      }
    }
  },
  "userdoc": {
    "methods": {
      "assignMeAsBuyer()": {
        "notice": "Function to assign caller `msg.sender` to Buyer role"
      },
      "assignMeAsManufacturer()": {
        "notice": "Function to assign caller `msg.sender` to manufacturer role"
      },
      "isBuyer(address)": {
        "notice": "uses'Roles' library's internal function `has()` to check, refer to library for more detail"
      },
      "isManufacturer(address)": {
        "notice": "uses'Roles' library's internal function `has()` to check, refer to library for more detail"
      },
      "renounceMeFromBuyer()": {
        "notice": "Function to renounce caller `msg.sender` from Buyer role"
      },
      "renounceMeFromManufacturer()": {
        "notice": "Function to renounce caller `msg.sender` from manufacturer role"
      }
    }
  }
}