{
  "contractName": "Rolable",
  "abi": [
    {
      "constant": false,
      "inputs": [],
      "name": "renounceMeFromBuyer",
      "outputs": [],
      "payable": false,
      "stateMutability": "nonpayable",
      "type": "function"
    },
    {
      "constant": true,
      "inputs": [
        {
          "name": "account",
          "type": "address"
        }
      ],
      "name": "isManufacturer",
      "outputs": [
        {
          "name": "",
          "type": "bool"
        }
      ],
      "payable": false,
      "stateMutability": "view",
      "type": "function"
    },
    {
      "constant": true,
      "inputs": [
        {
          "name": "account",
          "type": "address"
        }
      ],
      "name": "isBuyer",
      "outputs": [
        {
          "name": "",
          "type": "bool"
        }
      ],
      "payable": false,
      "stateMutability": "view",
      "type": "function"
    },
    {
      "constant": false,
      "inputs": [],
      "name": "assignMeAsBuyer",
      "outputs": [],
      "payable": false,
      "stateMutability": "nonpayable",
      "type": "function"
    },
    {
      "constant": false,
      "inputs": [],
      "name": "assignMeAsManufacturer",
      "outputs": [],
      "payable": false,
      "stateMutability": "nonpayable",
      "type": "function"
    },
    {
      "constant": true,
      "inputs": [],
      "name": "amIDesigner",
      "outputs": [
        {
          "name": "",
          "type": "bool"
        }
      ],
      "payable": false,
      "stateMutability": "view",
      "type": "function"
    },
    {
      "constant": false,
      "inputs": [],
      "name": "renounceMeFromSeller",
      "outputs": [],
      "payable": false,
      "stateMutability": "nonpayable",
      "type": "function"
    },
    {
      "constant": false,
      "inputs": [],
      "name": "renounceMeFromManufacturer",
      "outputs": [],
      "payable": false,
      "stateMutability": "nonpayable",
      "type": "function"
    },
    {
      "constant": false,
      "inputs": [],
      "name": "assignMeAsDesigner",
      "outputs": [],
      "payable": false,
      "stateMutability": "nonpayable",
      "type": "function"
    },
    {
      "constant": true,
      "inputs": [
        {
          "name": "account",
          "type": "address"
        }
      ],
      "name": "isDesigner",
      "outputs": [
        {
          "name": "",
          "type": "bool"
        }
      ],
      "payable": false,
      "stateMutability": "view",
      "type": "function"
    },
    {
      "constant": false,
      "inputs": [],
      "name": "assignMeAsSeller",
      "outputs": [],
      "payable": false,
      "stateMutability": "nonpayable",
      "type": "function"
    },
    {
      "constant": true,
      "inputs": [],
      "name": "amISeller",
      "outputs": [
        {
          "name": "",
          "type": "bool"
        }
      ],
      "payable": false,
      "stateMutability": "view",
      "type": "function"
    },
    {
      "constant": true,
      "inputs": [],
      "name": "amIBuyer",
      "outputs": [
        {
          "name": "",
          "type": "bool"
        }
      ],
      "payable": false,
      "stateMutability": "view",
      "type": "function"
    },
    {
      "constant": true,
      "inputs": [],
      "name": "amIManufacturer",
      "outputs": [
        {
          "name": "",
          "type": "bool"
        }
      ],
      "payable": false,
      "stateMutability": "view",
      "type": "function"
    },
    {
      "constant": false,
      "inputs": [],
      "name": "renounceMeFromDesigner",
      "outputs": [],
      "payable": false,
      "stateMutability": "nonpayable",
      "type": "function"
    },
    {
      "constant": true,
      "inputs": [
        {
          "name": "account",
          "type": "address"
        }
      ],
      "name": "isSeller",
      "outputs": [
        {
          "name": "",
          "type": "bool"
        }
      ],
      "payable": false,
      "stateMutability": "view",
      "type": "function"
    },
    {
      "anonymous": false,
      "inputs": [
        {
          "indexed": true,
          "name": "account",
          "type": "address"
        }
      ],
      "name": "SellerAdded",
      "type": "event"
    },
    {
      "anonymous": false,
      "inputs": [
        {
          "indexed": true,
          "name": "account",
          "type": "address"
        }
      ],
      "name": "SellerRemoved",
      "type": "event"
    },
    {
      "anonymous": false,
      "inputs": [
        {
          "indexed": true,
          "name": "account",
          "type": "address"
        }
      ],
      "name": "DesignerAdded",
      "type": "event"
    },
    {
      "anonymous": false,
      "inputs": [
        {
          "indexed": true,
          "name": "account",
          "type": "address"
        }
      ],
      "name": "DesignerRemoved",
      "type": "event"
    },
    {
      "anonymous": false,
      "inputs": [
        {
          "indexed": true,
          "name": "account",
          "type": "address"
        }
      ],
      "name": "ManufacturerAdded",
      "type": "event"
    },
    {
      "anonymous": false,
      "inputs": [
        {
          "indexed": true,
          "name": "account",
          "type": "address"
        }
      ],
      "name": "ManufacturerRemoved",
      "type": "event"
    },
    {
      "anonymous": false,
      "inputs": [
        {
          "indexed": true,
          "name": "account",
          "type": "address"
        }
      ],
      "name": "BuyerAdded",
      "type": "event"
    },
    {
      "anonymous": false,
      "inputs": [
        {
          "indexed": true,
          "name": "account",
          "type": "address"
        }
      ],
      "name": "BuyerRemoved",
      "type": "event"
    },
    {
      "constant": true,
      "inputs": [],
      "name": "whoAmI",
      "outputs": [
        {
          "name": "Buyer",
          "type": "bool"
        },
        {
          "name": "Seller",
          "type": "bool"
        },
        {
          "name": "manufacturer",
          "type": "bool"
        },
        {
          "name": "designer",
          "type": "bool"
        }
      ],
      "payable": false,
      "stateMutability": "view",
      "type": "function"
    }
  ],
  "bytecode": "0x608060405262000015336200004e60201b60201c565b6200002633620000af60201b60201c565b62000037336200011060201b60201c565b62000048336200017160201b60201c565b62000396565b62000069816000620001d260201b620009891790919060201c565b8073ffffffffffffffffffffffffffffffffffffffff167f6599d9dd7f97ccdc3d99ab507544f9f6ebfca20c63a7e3c018da49eeaefb164a60405160405180910390a250565b620000ca816001620001d260201b620009891790919060201c565b8073ffffffffffffffffffffffffffffffffffffffff167f561138658ca49a8540dc70dcfe64c9026c1c5b9344642242dd6562970f9c127860405160405180910390a250565b6200012b816002620001d260201b620009891790919060201c565b8073ffffffffffffffffffffffffffffffffffffffff167f97069a05372df648feb174cc125711b2c72a81450a1ab2769c8faf49917d7fd260405160405180910390a250565b6200018c816003620001d260201b620009891790919060201c565b8073ffffffffffffffffffffffffffffffffffffffff167f3d78526f2568d430fd8e20719601f7bc3f979936f8880236cc284e8127251b4260405160405180910390a250565b620001e48282620002b660201b60201c565b1562000258576040517f08c379a000000000000000000000000000000000000000000000000000000000815260040180806020018281038252601f8152602001807f526f6c65733a206163636f756e7420616c72656164792068617320726f6c650081525060200191505060405180910390fd5b60018260000160008373ffffffffffffffffffffffffffffffffffffffff1673ffffffffffffffffffffffffffffffffffffffff16815260200190815260200160002060006101000a81548160ff0219169083151502179055505050565b60008073ffffffffffffffffffffffffffffffffffffffff168273ffffffffffffffffffffffffffffffffffffffff1614156200033f576040517f08c379a000000000000000000000000000000000000000000000000000000000815260040180806020018281038252602281526020018062000e796022913960400191505060405180910390fd5b8260000160008373ffffffffffffffffffffffffffffffffffffffff1673ffffffffffffffffffffffffffffffffffffffff16815260200190815260200160002060009054906101000a900460ff16905092915050565b610ad380620003a66000396000f3fe608060405234801561001057600080fd5b506004361061010b5760003560e01c8063a4a418b1116100a2578063c40f1bdc11610071578063c40f1bdc146102ae578063da91254c146102d0578063e1d6f86f14610313578063eda0baa814610335578063ee95feaf1461033f5761010b565b8063a4a418b11461021c578063a4f03e2314610226578063b60eedbb14610282578063bccd24621461028c5761010b565b806348c149bd116100de57806348c149bd146101dc5780635ec5b728146101e65780639741d15014610208578063a40e210f146102125761010b565b806307e3c3031461011057806317d4a4911461011a5780632a55feec1461017657806335db95e5146101d2575b600080fd5b61011861039b565b005b61015c6004803603602081101561013057600080fd5b81019080803573ffffffffffffffffffffffffffffffffffffffff1690602001909291905050506103a6565b604051808215151515815260200191505060405180910390f35b6101b86004803603602081101561018c57600080fd5b81019080803573ffffffffffffffffffffffffffffffffffffffff1690602001909291905050506103c3565b604051808215151515815260200191505060405180910390f35b6101da6103e0565b005b6101e46103eb565b005b6101ee6103f6565b604051808215151515815260200191505060405180910390f35b610210610411565b005b61021a61041c565b005b610224610427565b005b6102686004803603602081101561023c57600080fd5b81019080803573ffffffffffffffffffffffffffffffffffffffff169060200190929190505050610449565b604051808215151515815260200191505060405180910390f35b61028a610466565b005b610294610471565b604051808215151515815260200191505060405180910390f35b6102b661048c565b604051808215151515815260200191505060405180910390f35b6102d86104a7565b604051808515151515815260200184151515158152602001831515151581526020018215151515815260200194505050505060405180910390f35b61031b6104db565b604051808215151515815260200191505060405180910390f35b61033d6104f6565b005b6103816004803603602081101561035557600080fd5b81019080803573ffffffffffffffffffffffffffffffffffffffff169060200190929190505050610501565b604051808215151515815260200191505060405180910390f35b6103a43361051e565b565b60006103bc82600161057890919063ffffffff16565b9050919050565b60006103d982600061057890919063ffffffff16565b9050919050565b6103e933610656565b565b6103f4336106b0565b565b600061040c33600261057890919063ffffffff16565b905090565b61041a3361070a565b565b61042533610764565b565b610430336107be565b610439336103a6565b61044757610446336106b0565b5b565b600061045f82600261057890919063ffffffff16565b9050919050565b61046f33610818565b565b600061048733600361057890919063ffffffff16565b905090565b60006104a233600061057890919063ffffffff16565b905090565b6000806000806104b561048c565b93506104bf610471565b92506104c96104db565b91506104d36103f6565b905090919293565b60006104f133600161057890919063ffffffff16565b905090565b6104ff33610872565b565b600061051782600361057890919063ffffffff16565b9050919050565b6105328160006108cc90919063ffffffff16565b8073ffffffffffffffffffffffffffffffffffffffff167f83fd4cbc7bc934bdfbae994ac6e72fcc0e50abd6995c1949520e761ba650d58260405160405180910390a250565b60008073ffffffffffffffffffffffffffffffffffffffff168273ffffffffffffffffffffffffffffffffffffffff1614156105ff576040517f08c379a0000000000000000000000000000000000000000000000000000000008152600401808060200182810382526022815260200180610a866022913960400191505060405180910390fd5b8260000160008373ffffffffffffffffffffffffffffffffffffffff1673ffffffffffffffffffffffffffffffffffffffff16815260200190815260200160002060009054906101000a900460ff16905092915050565b61066a81600061098990919063ffffffff16565b8073ffffffffffffffffffffffffffffffffffffffff167f6599d9dd7f97ccdc3d99ab507544f9f6ebfca20c63a7e3c018da49eeaefb164a60405160405180910390a250565b6106c481600161098990919063ffffffff16565b8073ffffffffffffffffffffffffffffffffffffffff167f561138658ca49a8540dc70dcfe64c9026c1c5b9344642242dd6562970f9c127860405160405180910390a250565b61071e8160036108cc90919063ffffffff16565b8073ffffffffffffffffffffffffffffffffffffffff167fa6f3b3030df964d974376ba4db21cbe49207bd79998f0d619c1c3a422259707f60405160405180910390a250565b6107788160016108cc90919063ffffffff16565b8073ffffffffffffffffffffffffffffffffffffffff167f2fed5abf6a80d6dfe30b4895481b2fc5d7dce5f8f7b931832f4a2947d5040c7f60405160405180910390a250565b6107d281600261098990919063ffffffff16565b8073ffffffffffffffffffffffffffffffffffffffff167f97069a05372df648feb174cc125711b2c72a81450a1ab2769c8faf49917d7fd260405160405180910390a250565b61082c81600361098990919063ffffffff16565b8073ffffffffffffffffffffffffffffffffffffffff167f3d78526f2568d430fd8e20719601f7bc3f979936f8880236cc284e8127251b4260405160405180910390a250565b6108868160026108cc90919063ffffffff16565b8073ffffffffffffffffffffffffffffffffffffffff167fe16181bbb8b138f88a23696ae25f2c63713913e3fc6922b234a08639bf53cbea60405160405180910390a250565b6108d68282610578565b61092b576040517f08c379a0000000000000000000000000000000000000000000000000000000008152600401808060200182810382526021815260200180610a656021913960400191505060405180910390fd5b60008260000160008373ffffffffffffffffffffffffffffffffffffffff1673ffffffffffffffffffffffffffffffffffffffff16815260200190815260200160002060006101000a81548160ff0219169083151502179055505050565b6109938282610578565b15610a06576040517f08c379a000000000000000000000000000000000000000000000000000000000815260040180806020018281038252601f8152602001807f526f6c65733a206163636f756e7420616c72656164792068617320726f6c650081525060200191505060405180910390fd5b60018260000160008373ffffffffffffffffffffffffffffffffffffffff1673ffffffffffffffffffffffffffffffffffffffff16815260200190815260200160002060006101000a81548160ff021916908315150217905550505056fe526f6c65733a206163636f756e7420646f6573206e6f74206861766520726f6c65526f6c65733a206163636f756e7420697320746865207a65726f2061646472657373a165627a7a72305820ca2efdc2f9acdc036140d7841c8c3e47164bc69b44c52cac8e78748fd0dbe5be0029526f6c65733a206163636f756e7420697320746865207a65726f2061646472657373",
  "source": "pragma solidity ^0.5.0;\r\n\r\n/// Import all Roles\r\nimport \"./Roles/Buyer.sol\";\r\nimport \"./Roles/Designer.sol\";\r\nimport \"./Roles/Seller.sol\";\r\nimport \"./Roles/Manufacturer.sol\";\r\n\r\n\r\ncontract Rolable is Buyer, Designer, Seller{\r\n\r\n    /// Function to check all roles for the caller\r\n    /// @return array contining every role with its state as boolean\r\n    function whoAmI() public view returns(\r\n        bool Buyer,\r\n        bool Seller,\r\n        bool manufacturer,\r\n        bool designer\r\n    )\r\n    {\r\n        Buyer = amIBuyer();\r\n        Seller = amISeller();\r\n        manufacturer = amIManufacturer();\r\n        designer = amIDesigner();\r\n    }\r\n}\r\n",
  "sourcePath": "E:\\document\\blockchain\\myprojects\\simplevat\\contracts\\AccessControl\\Rolable.sol",
  "compiler": {
    "name": "solc",
    "version": "0.5.8+commit.23d335f2.Emscripten.clang"
  },
  "schemaVersion": "3.0.16",
  "updatedAt": "2019-09-24T08:10:18.961Z",
  "devdoc": {
    "methods": {
      "amIBuyer()": {
        "return": "boolean for caller address state in `_Buyers` Role"
      },
      "amIDesigner()": {
        "return": "boolean for caller address state in `_designers` Role"
      },
      "amIManufacturer()": {
        "return": "boolean for caller address state in `_manufacturers` Role"
      },
      "amISeller()": {
        "return": "boolean for caller address state in `_Sellers` Role"
      },
      "whoAmI()": {
        "return": "array contining every role with its state as boolean"
      }
    }
  },
  "userdoc": {
    "methods": {
      "assignMeAsBuyer()": {
        "notice": "Function to assign caller `msg.sender` to Buyer role"
      },
      "assignMeAsDesigner()": {
        "notice": "designer allways should be a menufacturer, after checking isManufacturer add it if not"
      },
      "assignMeAsManufacturer()": {
        "notice": "Function to assign caller `msg.sender` to manufacturer role"
      },
      "assignMeAsSeller()": {
        "notice": "Function to assign caller `msg.sender` to Seller role"
      },
      "isBuyer(address)": {
        "notice": "uses'Roles' library's internal function `has()` to check, refer to library for more detail"
      },
      "isDesigner(address)": {
        "notice": "uses'Roles' library's internal function `has()` to check, refer to library for more detail"
      },
      "isManufacturer(address)": {
        "notice": "uses'Roles' library's internal function `has()` to check, refer to library for more detail"
      },
      "isSeller(address)": {
        "notice": "uses'Roles' library's internal function `has()` to check, refer to library for more detail"
      },
      "renounceMeFromBuyer()": {
        "notice": "Function to renounce caller `msg.sender` from Buyer role"
      },
      "renounceMeFromDesigner()": {
        "notice": "Function to renounce caller `msg.sender` from designer role"
      },
      "renounceMeFromManufacturer()": {
        "notice": "Function to renounce caller `msg.sender` from manufacturer role"
      },
      "renounceMeFromSeller()": {
        "notice": "Function to renounce caller `msg.sender` from Seller role"
      }
    }
  }
}