{
  "contractName": "SignatureBouncerMock",
  "abi": [
    {
      "constant": false,
      "inputs": [
        {
          "name": "account",
          "type": "address"
        }
      ],
      "name": "removeSigner",
      "outputs": [],
      "payable": false,
      "stateMutability": "nonpayable",
      "type": "function"
    },
    {
      "constant": true,
      "inputs": [
        {
          "name": "account",
          "type": "address"
        }
      ],
      "name": "isSigner",
      "outputs": [
        {
          "name": "",
          "type": "bool"
        }
      ],
      "payable": false,
      "stateMutability": "view",
      "type": "function"
    },
    {
      "constant": true,
      "inputs": [],
      "name": "onlySignerMock",
      "outputs": [],
      "payable": false,
      "stateMutability": "view",
      "type": "function"
    },
    {
      "constant": false,
      "inputs": [],
      "name": "renounceSigner",
      "outputs": [],
      "payable": false,
      "stateMutability": "nonpayable",
      "type": "function"
    },
    {
      "constant": false,
      "inputs": [
        {
          "name": "account",
          "type": "address"
        }
      ],
      "name": "addSigner",
      "outputs": [],
      "payable": false,
      "stateMutability": "nonpayable",
      "type": "function"
    },
    {
      "anonymous": false,
      "inputs": [
        {
          "indexed": true,
          "name": "account",
          "type": "address"
        }
      ],
      "name": "SignerAdded",
      "type": "event"
    },
    {
      "anonymous": false,
      "inputs": [
        {
          "indexed": true,
          "name": "account",
          "type": "address"
        }
      ],
      "name": "SignerRemoved",
      "type": "event"
    },
    {
      "constant": true,
      "inputs": [
        {
          "name": "account",
          "type": "address"
        },
        {
          "name": "signature",
          "type": "bytes"
        }
      ],
      "name": "checkValidSignature",
      "outputs": [
        {
          "name": "",
          "type": "bool"
        }
      ],
      "payable": false,
      "stateMutability": "view",
      "type": "function"
    },
    {
      "constant": true,
      "inputs": [
        {
          "name": "signature",
          "type": "bytes"
        }
      ],
      "name": "onlyWithValidSignature",
      "outputs": [],
      "payable": false,
      "stateMutability": "view",
      "type": "function"
    },
    {
      "constant": true,
      "inputs": [
        {
          "name": "account",
          "type": "address"
        },
        {
          "name": "signature",
          "type": "bytes"
        }
      ],
      "name": "checkValidSignatureAndMethod",
      "outputs": [
        {
          "name": "",
          "type": "bool"
        }
      ],
      "payable": false,
      "stateMutability": "view",
      "type": "function"
    },
    {
      "constant": true,
      "inputs": [
        {
          "name": "signature",
          "type": "bytes"
        }
      ],
      "name": "onlyWithValidSignatureAndMethod",
      "outputs": [],
      "payable": false,
      "stateMutability": "view",
      "type": "function"
    },
    {
      "constant": true,
      "inputs": [
        {
          "name": "account",
          "type": "address"
        },
        {
          "name": "",
          "type": "bytes"
        },
        {
          "name": "",
          "type": "uint256"
        },
        {
          "name": "signature",
          "type": "bytes"
        }
      ],
      "name": "checkValidSignatureAndData",
      "outputs": [
        {
          "name": "",
          "type": "bool"
        }
      ],
      "payable": false,
      "stateMutability": "view",
      "type": "function"
    },
    {
      "constant": true,
      "inputs": [
        {
          "name": "",
          "type": "uint256"
        },
        {
          "name": "signature",
          "type": "bytes"
        }
      ],
      "name": "onlyWithValidSignatureAndData",
      "outputs": [],
      "payable": false,
      "stateMutability": "view",
      "type": "function"
    },
    {
      "constant": true,
      "inputs": [
        {
          "name": "",
          "type": "bytes"
        }
      ],
      "name": "theWrongMethod",
      "outputs": [],
      "payable": false,
      "stateMutability": "pure",
      "type": "function"
    },
    {
      "constant": true,
      "inputs": [],
      "name": "tooShortMsgData",
      "outputs": [],
      "payable": false,
      "stateMutability": "view",
      "type": "function"
    }
  ],
  "bytecode": "0x608060405262000024620000186200002a60201b60201c565b6200003260201b60201c565b62000257565b600033905090565b6200004d8160006200009360201b620012011790919060201c565b8073ffffffffffffffffffffffffffffffffffffffff167f47d1c22a25bb3a5d4e481b9b1e6944c2eade3181a0a20b495ed61d35b5323f2460405160405180910390a250565b620000a582826200017760201b60201c565b1562000119576040517f08c379a000000000000000000000000000000000000000000000000000000000815260040180806020018281038252601f8152602001807f526f6c65733a206163636f756e7420616c72656164792068617320726f6c650081525060200191505060405180910390fd5b60018260000160008373ffffffffffffffffffffffffffffffffffffffff1673ffffffffffffffffffffffffffffffffffffffff16815260200190815260200160002060006101000a81548160ff0219169083151502179055505050565b60008073ffffffffffffffffffffffffffffffffffffffff168273ffffffffffffffffffffffffffffffffffffffff16141562000200576040517f08c379a0000000000000000000000000000000000000000000000000000000008152600401808060200182810382526022815260200180620018bc6022913960400191505060405180910390fd5b8260000160008373ffffffffffffffffffffffffffffffffffffffff1673ffffffffffffffffffffffffffffffffffffffff16815260200190815260200160002060009054906101000a900460ff16905092915050565b61165580620002676000396000f3fe608060405234801561001057600080fd5b50600436106100cf5760003560e01c80638263ac0c1161008c578063b44e2ab911610066578063b44e2ab9146107e4578063ca422c43146107ee578063e5c8b03d146107f8578063eb12d61e14610802576100cf565b80638263ac0c146104d0578063997027e81461058b578063b20bdb681461071f576100cf565b80630e316ab7146100d45780636123f7ba1461011857806368b51ac7146101d35780636b802108146102c65780636d5b9427146103b95780637df73e2714610474575b600080fd5b610116600480360360208110156100ea57600080fd5b81019080803573ffffffffffffffffffffffffffffffffffffffff169060200190929190505050610846565b005b6101d16004803603602081101561012e57600080fd5b810190808035906020019064010000000081111561014b57600080fd5b82018360208201111561015d57600080fd5b8035906020019184600183028401116401000000008311171561017f57600080fd5b91908080601f016020809104026020016040519081016040528093929190818152602001838380828437600081840152601f19601f820116905080830192505050505050509192919290505050610852565b005b6102ac600480360360408110156101e957600080fd5b81019080803573ffffffffffffffffffffffffffffffffffffffff1690602001909291908035906020019064010000000081111561022657600080fd5b82018360208201111561023857600080fd5b8035906020019184600183028401116401000000008311171561025a57600080fd5b91908080601f016020809104026020016040519081016040528093929190818152602001838380828437600081840152601f19601f8201169050808301925050505050505091929192905050506108bd565b604051808215151515815260200191505060405180910390f35b61039f600480360360408110156102dc57600080fd5b81019080803573ffffffffffffffffffffffffffffffffffffffff1690602001909291908035906020019064010000000081111561031957600080fd5b82018360208201111561032b57600080fd5b8035906020019184600183028401116401000000008311171561034d57600080fd5b91908080601f016020809104026020016040519081016040528093929190818152602001838380828437600081840152601f19601f8201169050808301925050505050505091929192905050506108d1565b604051808215151515815260200191505060405180910390f35b610472600480360360208110156103cf57600080fd5b81019080803590602001906401000000008111156103ec57600080fd5b8201836020820111156103fe57600080fd5b8035906020019184600183028401116401000000008311171561042057600080fd5b91908080601f016020809104026020016040519081016040528093929190818152602001838380828437600081840152601f19601f8201169050808301925050505050505091929192905050506108e5565b005b6104b66004803603602081101561048a57600080fd5b81019080803573ffffffffffffffffffffffffffffffffffffffff169060200190929190505050610950565b604051808215151515815260200191505060405180910390f35b610589600480360360208110156104e657600080fd5b810190808035906020019064010000000081111561050357600080fd5b82018360208201111561051557600080fd5b8035906020019184600183028401116401000000008311171561053757600080fd5b91908080601f016020809104026020016040519081016040528093929190818152602001838380828437600081840152601f19601f82011690508083019250505050505050919291929050505061096d565b005b610705600480360360808110156105a157600080fd5b81019080803573ffffffffffffffffffffffffffffffffffffffff169060200190929190803590602001906401000000008111156105de57600080fd5b8201836020820111156105f057600080fd5b8035906020019184600183028401116401000000008311171561061257600080fd5b91908080601f016020809104026020016040519081016040528093929190818152602001838380828437600081840152601f19601f820116905080830192505050505050509192919290803590602001909291908035906020019064010000000081111561067f57600080fd5b82018360208201111561069157600080fd5b803590602001918460018302840111640100000000831117156106b357600080fd5b91908080601f016020809104026020016040519081016040528093929190818152602001838380828437600081840152601f19601f820116905080830192505050505050509192919290505050610970565b604051808215151515815260200191505060405180910390f35b6107e26004803603604081101561073557600080fd5b81019080803590602001909291908035906020019064010000000081111561075c57600080fd5b82018360208201111561076e57600080fd5b8035906020019184600183028401116401000000008311171561079057600080fd5b91908080601f016020809104026020016040519081016040528093929190818152602001838380828437600081840152601f19601f820116905080830192505050505050509192919290505050610986565b005b6107ec6109f2565b005b6107f6610a59565b005b610800610ad2565b005b6108446004803603602081101561081857600080fd5b81019080803573ffffffffffffffffffffffffffffffffffffffff169060200190929190505050610ae4565b005b61084f81610b55565b50565b8061086461085e610b61565b82610b69565b6108b9576040517f08c379a00000000000000000000000000000000000000000000000000000000081526004018080602001828103825260398152602001806115ba6039913960400191505060405180910390fd5b5050565b60006108c98383610d12565b905092915050565b60006108dd8383610b69565b905092915050565b806108f76108f1610b61565b82610d12565b61094c576040517f08c379a000000000000000000000000000000000000000000000000000000000815260040180806020018281038252602e81526020018061158c602e913960400191505060405180910390fd5b5050565b6000610966826000610db290919063ffffffff16565b9050919050565b50565b600061097c8583610e90565b9050949350505050565b80610998610992610b61565b82610e90565b6109ed576040517f08c379a00000000000000000000000000000000000000000000000000000000081526004018080602001828103825260378152602001806115f36037913960400191505060405180910390fd5b505050565b610a026109fd610b61565b610950565b610a57576040517f08c379a000000000000000000000000000000000000000000000000000000000815260040180806020018281038252603081526020018061155c6030913960400191505060405180910390fd5b565b60405180602001604052806000815250610a7a610a74610b61565b82610e90565b610acf576040517f08c379a00000000000000000000000000000000000000000000000000000000081526004018080602001828103825260378152602001806115f36037913960400191505060405180910390fd5b50565b610ae2610add610b61565b610b55565b565b610af4610aef610b61565b610950565b610b49576040517f08c379a000000000000000000000000000000000000000000000000000000000815260040180806020018281038252603081526020018061155c6030913960400191505060405180910390fd5b610b5281611095565b50565b610b5e816110ef565b50565b600033905090565b60006060610b75611149565b9050606060046040519080825280601f01601f191660200182016040528015610bad5781602001600182028038833980820191505090505b50905060008090505b8151811015610c1e57828181518110610bcb57fe5b602001015160f81c60f81b828281518110610be257fe5b60200101907effffffffffffffffffffffffffffffffffffffffffffffffffffffffffffff1916908160001a9053508080600101915050610bb6565b50610d08308683604051602001808473ffffffffffffffffffffffffffffffffffffffff1673ffffffffffffffffffffffffffffffffffffffff1660601b81526014018373ffffffffffffffffffffffffffffffffffffffff1673ffffffffffffffffffffffffffffffffffffffff1660601b815260140182805190602001908083835b60208310610cc55780518252602082019150602081019050602083039250610ca2565b6001836020036101000a03801982511681845116808217855250505050505090500193505050506040516020818303038152906040528051906020012085611196565b9250505092915050565b6000610daa3084604051602001808373ffffffffffffffffffffffffffffffffffffffff1673ffffffffffffffffffffffffffffffffffffffff1660601b81526014018273ffffffffffffffffffffffffffffffffffffffff1673ffffffffffffffffffffffffffffffffffffffff1660601b8152601401925050506040516020818303038152906040528051906020012083611196565b905092915050565b60008073ffffffffffffffffffffffffffffffffffffffff168273ffffffffffffffffffffffffffffffffffffffff161415610e39576040517f08c379a000000000000000000000000000000000000000000000000000000000815260040180806020018281038252602281526020018061153a6022913960400191505060405180910390fd5b8260000160008373ffffffffffffffffffffffffffffffffffffffff1673ffffffffffffffffffffffffffffffffffffffff16815260200190815260200160002060009054906101000a900460ff16905092915050565b60006060610e9c611149565b90506060815111610ef8576040517f08c379a00000000000000000000000000000000000000000000000000000000081526004018080602001828103825260238152602001806114f66023913960400191505060405180910390fd5b6060808251036040519080825280601f01601f191660200182016040528015610f305781602001600182028038833980820191505090505b50905060008090505b8151811015610fa157828181518110610f4e57fe5b602001015160f81c60f81b828281518110610f6557fe5b60200101907effffffffffffffffffffffffffffffffffffffffffffffffffffffffffffff1916908160001a9053508080600101915050610f39565b5061108b308683604051602001808473ffffffffffffffffffffffffffffffffffffffff1673ffffffffffffffffffffffffffffffffffffffff1660601b81526014018373ffffffffffffffffffffffffffffffffffffffff1673ffffffffffffffffffffffffffffffffffffffff1660601b815260140182805190602001908083835b602083106110485780518252602082019150602081019050602083039250611025565b6001836020036101000a03801982511681845116808217855250505050505090500193505050506040516020818303038152906040528051906020012085611196565b9250505092915050565b6110a981600061120190919063ffffffff16565b8073ffffffffffffffffffffffffffffffffffffffff167f47d1c22a25bb3a5d4e481b9b1e6944c2eade3181a0a20b495ed61d35b5323f2460405160405180910390a250565b6111038160006112dc90919063ffffffff16565b8073ffffffffffffffffffffffffffffffffffffffff167f3525e22824a8a7df2c9a6029941c824cf95b6447f1e13d5128fd3826d35afe8b60405160405180910390a250565b60606000368080601f016020809104026020016040519081016040528093929190818152602001838380828437600081840152601f19601f82011690508083019250505050505050905090565b6000806111b4836111a686611399565b6113f190919063ffffffff16565b9050600073ffffffffffffffffffffffffffffffffffffffff168173ffffffffffffffffffffffffffffffffffffffff16141580156111f857506111f781610950565b5b91505092915050565b61120b8282610db2565b1561127e576040517f08c379a000000000000000000000000000000000000000000000000000000000815260040180806020018281038252601f8152602001807f526f6c65733a206163636f756e7420616c72656164792068617320726f6c650081525060200191505060405180910390fd5b60018260000160008373ffffffffffffffffffffffffffffffffffffffff1673ffffffffffffffffffffffffffffffffffffffff16815260200190815260200160002060006101000a81548160ff0219169083151502179055505050565b6112e68282610db2565b61133b576040517f08c379a00000000000000000000000000000000000000000000000000000000081526004018080602001828103825260218152602001806115196021913960400191505060405180910390fd5b60008260000160008373ffffffffffffffffffffffffffffffffffffffff1673ffffffffffffffffffffffffffffffffffffffff16815260200190815260200160002060006101000a81548160ff0219169083151502179055505050565b60008160405160200180807f19457468657265756d205369676e6564204d6573736167653a0a333200000000815250601c01828152602001915050604051602081830303815290604052805190602001209050919050565b6000604182511461140557600090506114ef565b60008060006020850151925060408501519150606085015160001a90507f7fffffffffffffffffffffffffffffff5d576e7357a4501ddfe92f46681b20a08260001c111561145957600093505050506114ef565b601b8160ff16141580156114715750601c8160ff1614155b1561148257600093505050506114ef565b60018682858560405160008152602001604052604051808581526020018460ff1660ff1681526020018381526020018281526020019450505050506020604051602081039080840390855afa1580156114df573d6000803e3d6000fd5b5050506020604051035193505050505b9291505056fe5369676e6174757265426f756e6365723a206461746120697320746f6f2073686f7274526f6c65733a206163636f756e7420646f6573206e6f74206861766520726f6c65526f6c65733a206163636f756e7420697320746865207a65726f20616464726573735369676e6572526f6c653a2063616c6c657220646f6573206e6f74206861766520746865205369676e657220726f6c655369676e6174757265426f756e6365723a20696e76616c6964207369676e617475726520666f722063616c6c65725369676e6174757265426f756e6365723a20696e76616c6964207369676e617475726520666f722063616c6c657220616e64206d6574686f645369676e6174757265426f756e6365723a20696e76616c6964207369676e617475726520666f722063616c6c657220616e642064617461a165627a7a72305820dd5b64d9e1d790839e40e83998a75e4a7b31a6baa36fb62f66886923c4b070480029526f6c65733a206163636f756e7420697320746865207a65726f2061646472657373",
  "source": "pragma solidity ^0.5.0;\n\nimport \"../drafts/SignatureBouncer.sol\";\nimport \"./SignerRoleMock.sol\";\n\ncontract SignatureBouncerMock is SignatureBouncer, SignerRoleMock {\n    function checkValidSignature(address account, bytes memory signature)\n        public view returns (bool)\n    {\n        return _isValidSignature(account, signature);\n    }\n\n    function onlyWithValidSignature(bytes memory signature)\n        public onlyValidSignature(signature) view\n    {\n        // solhint-disable-previous-line no-empty-blocks\n    }\n\n    function checkValidSignatureAndMethod(address account, bytes memory signature)\n        public view returns (bool)\n    {\n        return _isValidSignatureAndMethod(account, signature);\n    }\n\n    function onlyWithValidSignatureAndMethod(bytes memory signature)\n        public onlyValidSignatureAndMethod(signature) view\n    {\n        // solhint-disable-previous-line no-empty-blocks\n    }\n\n    function checkValidSignatureAndData(address account, bytes memory, uint, bytes memory signature)\n        public view returns (bool)\n    {\n        return _isValidSignatureAndData(account, signature);\n    }\n\n    function onlyWithValidSignatureAndData(uint, bytes memory signature)\n        public onlyValidSignatureAndData(signature) view\n    {\n        // solhint-disable-previous-line no-empty-blocks\n    }\n\n    function theWrongMethod(bytes memory) public pure {\n        // solhint-disable-previous-line no-empty-blocks\n    }\n\n    function tooShortMsgData() public onlyValidSignatureAndData(\"\") view {\n        // solhint-disable-previous-line no-empty-blocks\n    }\n}\n",
  "sourcePath": "E:/document/blockchain/myprojects/simplevat/contracts/openzeppelin/contracts/mocks/SignatureBouncerMock.sol",
  "compiler": {
    "name": "solc",
    "version": "0.5.8+commit.23d335f2.Emscripten.clang"
  },
  "schemaVersion": "3.0.16",
  "updatedAt": "2019-10-01T08:31:44.900Z",
  "devdoc": {
    "methods": {}
  },
  "userdoc": {
    "methods": {}
  }
}