{
  "contractName": "SupplyChain",
  "abi": [
    {
      "constant": false,
      "inputs": [],
      "name": "renounceMeFromBuyer",
      "outputs": [],
      "payable": false,
      "stateMutability": "nonpayable",
      "type": "function"
    },
    {
      "constant": true,
      "inputs": [
        {
          "name": "_udpc",
          "type": "uint256"
        }
      ],
      "name": "featchProductDesignMetaData",
      "outputs": [
        {
          "name": "name",
          "type": "string"
        },
        {
          "name": "description",
          "type": "string"
        },
        {
          "name": "notes",
          "type": "string"
        }
      ],
      "payable": false,
      "stateMutability": "view",
      "type": "function"
    },
    {
      "constant": true,
      "inputs": [
        {
          "name": "account",
          "type": "address"
        }
      ],
      "name": "isManufacturer",
      "outputs": [
        {
          "name": "",
          "type": "bool"
        }
      ],
      "payable": false,
      "stateMutability": "view",
      "type": "function"
    },
    {
      "constant": false,
      "inputs": [
        {
          "name": "_udpc",
          "type": "uint256"
        },
        {
          "name": "_description",
          "type": "string"
        },
        {
          "name": "_isPassed",
          "type": "bool"
        },
        {
          "name": "_notes",
          "type": "string"
        }
      ],
      "name": "addTestCase",
      "outputs": [],
      "payable": false,
      "stateMutability": "nonpayable",
      "type": "function"
    },
    {
      "constant": false,
      "inputs": [
        {
          "name": "_udpc",
          "type": "uint256"
        }
      ],
      "name": "approveProduct",
      "outputs": [],
      "payable": false,
      "stateMutability": "nonpayable",
      "type": "function"
    },
    {
      "constant": true,
      "inputs": [
        {
          "name": "account",
          "type": "address"
        }
      ],
      "name": "isBuyer",
      "outputs": [
        {
          "name": "",
          "type": "bool"
        }
      ],
      "payable": false,
      "stateMutability": "view",
      "type": "function"
    },
    {
      "constant": true,
      "inputs": [
        {
          "name": "_pku",
          "type": "uint256"
        }
      ],
      "name": "fetchtaxHistory",
      "outputs": [
        {
          "name": "numberOfupdate",
          "type": "uint256"
        },
        {
          "name": "timeStamps",
          "type": "uint256[]"
        },
        {
          "name": "lastPaidTax",
          "type": "uint256[]"
        },
        {
          "name": "updaterAddresses",
          "type": "address[]"
        }
      ],
      "payable": false,
      "stateMutability": "view",
      "type": "function"
    },
    {
      "constant": false,
      "inputs": [],
      "name": "assignMeAsBuyer",
      "outputs": [],
      "payable": false,
      "stateMutability": "nonpayable",
      "type": "function"
    },
    {
      "constant": false,
      "inputs": [],
      "name": "unpause",
      "outputs": [],
      "payable": false,
      "stateMutability": "nonpayable",
      "type": "function"
    },
    {
      "constant": true,
      "inputs": [
        {
          "name": "_udpc",
          "type": "uint256"
        },
        {
          "name": "_testIndex",
          "type": "uint256"
        }
      ],
      "name": "featchProductDesignTestCases",
      "outputs": [
        {
          "name": "description",
          "type": "string"
        },
        {
          "name": "isPassed",
          "type": "bool"
        },
        {
          "name": "notes",
          "type": "string"
        }
      ],
      "payable": false,
      "stateMutability": "view",
      "type": "function"
    },
    {
      "constant": false,
      "inputs": [
        {
          "name": "_udpc",
          "type": "uint256"
        },
        {
          "name": "_description",
          "type": "string"
        },
        {
          "name": "_isPassed",
          "type": "bool"
        },
        {
          "name": "_notes",
          "type": "string"
        }
      ],
      "name": "addTestCaseByRegulaor",
      "outputs": [],
      "payable": false,
      "stateMutability": "nonpayable",
      "type": "function"
    },
    {
      "constant": true,
      "inputs": [
        {
          "name": "account",
          "type": "address"
        }
      ],
      "name": "isPauser",
      "outputs": [
        {
          "name": "",
          "type": "bool"
        }
      ],
      "payable": false,
      "stateMutability": "view",
      "type": "function"
    },
    {
      "constant": false,
      "inputs": [],
      "name": "assignMeAsManufacturer",
      "outputs": [],
      "payable": false,
      "stateMutability": "nonpayable",
      "type": "function"
    },
    {
      "constant": true,
      "inputs": [],
      "name": "paused",
      "outputs": [
        {
          "name": "",
          "type": "bool"
        }
      ],
      "payable": false,
      "stateMutability": "view",
      "type": "function"
    },
    {
      "constant": true,
      "inputs": [],
      "name": "amIDesigner",
      "outputs": [
        {
          "name": "",
          "type": "bool"
        }
      ],
      "payable": false,
      "stateMutability": "view",
      "type": "function"
    },
    {
      "constant": false,
      "inputs": [],
      "name": "renouncePauser",
      "outputs": [],
      "payable": false,
      "stateMutability": "nonpayable",
      "type": "function"
    },
    {
      "constant": false,
      "inputs": [
        {
          "name": "_udpc",
          "type": "uint256"
        },
        {
          "name": "_price",
          "type": "uint256"
        }
      ],
      "name": "upForSale",
      "outputs": [],
      "payable": false,
      "stateMutability": "nonpayable",
      "type": "function"
    },
    {
      "constant": true,
      "inputs": [
        {
          "name": "_udpc",
          "type": "uint256"
        }
      ],
      "name": "fetchProductDesignData",
      "outputs": [
        {
          "name": "currentOwner",
          "type": "address"
        },
        {
          "name": "designerId",
          "type": "address"
        },
        {
          "name": "designerName",
          "type": "string"
        },
        {
          "name": "ProductName",
          "type": "string"
        },
        {
          "name": "currentState",
          "type": "string"
        },
        {
          "name": "forSale",
          "type": "bool"
        },
        {
          "name": "salePrice",
          "type": "uint256"
        },
        {
          "name": "numberOfTests",
          "type": "uint256"
        },
        {
          "name": "numberOfManufacturers",
          "type": "uint256"
        }
      ],
      "payable": false,
      "stateMutability": "view",
      "type": "function"
    },
    {
      "constant": true,
      "inputs": [
        {
          "name": "_pku",
          "type": "uint256"
        }
      ],
      "name": "fetchProductItemData",
      "outputs": [
        {
          "name": "_udpc",
          "type": "uint256"
        },
        {
          "name": "_slu",
          "type": "uint256"
        },
        {
          "name": "state",
          "type": "string"
        },
        {
          "name": "currentOwner",
          "type": "address"
        },
        {
          "name": "manufacturerId",
          "type": "address"
        },
        {
          "name": "price",
          "type": "uint256"
        },
        {
          "name": "packingTimeStamp",
          "type": "uint256"
        },
        {
          "name": "numberOfTaxUpdate",
          "type": "uint256"
        }
      ],
      "payable": false,
      "stateMutability": "view",
      "type": "function"
    },
    {
      "constant": false,
      "inputs": [
        {
          "name": "account",
          "type": "address"
        }
      ],
      "name": "addPauser",
      "outputs": [],
      "payable": false,
      "stateMutability": "nonpayable",
      "type": "function"
    },
    {
      "constant": false,
      "inputs": [],
      "name": "pause",
      "outputs": [],
      "payable": false,
      "stateMutability": "nonpayable",
      "type": "function"
    },
    {
      "constant": false,
      "inputs": [],
      "name": "renounceMeFromSeller",
      "outputs": [],
      "payable": false,
      "stateMutability": "nonpayable",
      "type": "function"
    },
    {
      "constant": false,
      "inputs": [],
      "name": "renounceMeFromManufacturer",
      "outputs": [],
      "payable": false,
      "stateMutability": "nonpayable",
      "type": "function"
    },
    {
      "constant": false,
      "inputs": [],
      "name": "assignMeAsDesigner",
      "outputs": [],
      "payable": false,
      "stateMutability": "nonpayable",
      "type": "function"
    },
    {
      "constant": true,
      "inputs": [
        {
          "name": "account",
          "type": "address"
        }
      ],
      "name": "isDesigner",
      "outputs": [
        {
          "name": "",
          "type": "bool"
        }
      ],
      "payable": false,
      "stateMutability": "view",
      "type": "function"
    },
    {
      "constant": false,
      "inputs": [
        {
          "name": "_slu",
          "type": "uint256"
        },
        {
          "name": "_paidTax",
          "type": "uint256"
        }
      ],
      "name": "updateTaxHistory",
      "outputs": [],
      "payable": false,
      "stateMutability": "nonpayable",
      "type": "function"
    },
    {
      "constant": true,
      "inputs": [
        {
          "name": "_slu",
          "type": "uint256"
        }
      ],
      "name": "fetchProductLoaudData",
      "outputs": [
        {
          "name": "quantity",
          "type": "uint256"
        },
        {
          "name": "_udpc",
          "type": "uint256"
        },
        {
          "name": "state",
          "type": "string"
        },
        {
          "name": "currentOwner",
          "type": "address"
        },
        {
          "name": "manufacturerId",
          "type": "address"
        },
        {
          "name": "price",
          "type": "uint256"
        }
      ],
      "payable": false,
      "stateMutability": "view",
      "type": "function"
    },
    {
      "constant": false,
      "inputs": [],
      "name": "assignMeAsSeller",
      "outputs": [],
      "payable": false,
      "stateMutability": "nonpayable",
      "type": "function"
    },
    {
      "constant": true,
      "inputs": [],
      "name": "amISeller",
      "outputs": [
        {
          "name": "",
          "type": "bool"
        }
      ],
      "payable": false,
      "stateMutability": "view",
      "type": "function"
    },
    {
      "constant": true,
      "inputs": [],
      "name": "taxCollector",
      "outputs": [
        {
          "name": "",
          "type": "address"
        }
      ],
      "payable": false,
      "stateMutability": "view",
      "type": "function"
    },
    {
      "constant": true,
      "inputs": [],
      "name": "amIBuyer",
      "outputs": [
        {
          "name": "",
          "type": "bool"
        }
      ],
      "payable": false,
      "stateMutability": "view",
      "type": "function"
    },
    {
      "constant": true,
      "inputs": [
        {
          "name": "_slu",
          "type": "uint256"
        }
      ],
      "name": "fetchLoudPKUs",
      "outputs": [
        {
          "name": "loadPKUs",
          "type": "uint256[]"
        }
      ],
      "payable": false,
      "stateMutability": "view",
      "type": "function"
    },
    {
      "constant": true,
      "inputs": [],
      "name": "whoAmI",
      "outputs": [
        {
          "name": "Buyer",
          "type": "bool"
        },
        {
          "name": "Seller",
          "type": "bool"
        },
        {
          "name": "manufacturer",
          "type": "bool"
        },
        {
          "name": "designer",
          "type": "bool"
        }
      ],
      "payable": false,
      "stateMutability": "view",
      "type": "function"
    },
    {
      "constant": true,
      "inputs": [],
      "name": "amIManufacturer",
      "outputs": [
        {
          "name": "",
          "type": "bool"
        }
      ],
      "payable": false,
      "stateMutability": "view",
      "type": "function"
    },
    {
      "constant": false,
      "inputs": [],
      "name": "renounceMeFromDesigner",
      "outputs": [],
      "payable": false,
      "stateMutability": "nonpayable",
      "type": "function"
    },
    {
      "constant": true,
      "inputs": [
        {
          "name": "account",
          "type": "address"
        }
      ],
      "name": "isSeller",
      "outputs": [
        {
          "name": "",
          "type": "bool"
        }
      ],
      "payable": false,
      "stateMutability": "view",
      "type": "function"
    },
    {
      "inputs": [],
      "payable": false,
      "stateMutability": "nonpayable",
      "type": "constructor"
    },
    {
      "anonymous": false,
      "inputs": [
        {
          "indexed": false,
          "name": "slu",
          "type": "uint256"
        }
      ],
      "name": "Manufactured",
      "type": "event"
    },
    {
      "anonymous": false,
      "inputs": [
        {
          "indexed": false,
          "name": "slu",
          "type": "uint256"
        }
      ],
      "name": "taxUpdated",
      "type": "event"
    },
    {
      "anonymous": false,
      "inputs": [
        {
          "indexed": false,
          "name": "slu",
          "type": "uint256"
        }
      ],
      "name": "Sold",
      "type": "event"
    },
    {
      "anonymous": false,
      "inputs": [
        {
          "indexed": false,
          "name": "pku",
          "type": "uint256"
        }
      ],
      "name": "Purchased",
      "type": "event"
    },
    {
      "anonymous": false,
      "inputs": [
        {
          "indexed": false,
          "name": "udpc",
          "type": "uint256"
        }
      ],
      "name": "Owned",
      "type": "event"
    },
    {
      "anonymous": false,
      "inputs": [
        {
          "indexed": false,
          "name": "udpc",
          "type": "uint256"
        }
      ],
      "name": "TestCaseAdded",
      "type": "event"
    },
    {
      "anonymous": false,
      "inputs": [
        {
          "indexed": false,
          "name": "udpc",
          "type": "uint256"
        }
      ],
      "name": "Approved",
      "type": "event"
    },
    {
      "anonymous": false,
      "inputs": [
        {
          "indexed": false,
          "name": "udpc",
          "type": "uint256"
        }
      ],
      "name": "UpForSale",
      "type": "event"
    },
    {
      "anonymous": false,
      "inputs": [
        {
          "indexed": false,
          "name": "udpc",
          "type": "uint256"
        }
      ],
      "name": "ProductDesignPurchased",
      "type": "event"
    },
    {
      "anonymous": false,
      "inputs": [
        {
          "indexed": false,
          "name": "udpc",
          "type": "uint256"
        }
      ],
      "name": "SaleCanceled",
      "type": "event"
    },
    {
      "anonymous": false,
      "inputs": [
        {
          "indexed": false,
          "name": "account",
          "type": "address"
        }
      ],
      "name": "Paused",
      "type": "event"
    },
    {
      "anonymous": false,
      "inputs": [
        {
          "indexed": false,
          "name": "account",
          "type": "address"
        }
      ],
      "name": "Unpaused",
      "type": "event"
    },
    {
      "anonymous": false,
      "inputs": [
        {
          "indexed": true,
          "name": "account",
          "type": "address"
        }
      ],
      "name": "PauserAdded",
      "type": "event"
    },
    {
      "anonymous": false,
      "inputs": [
        {
          "indexed": true,
          "name": "account",
          "type": "address"
        }
      ],
      "name": "PauserRemoved",
      "type": "event"
    },
    {
      "anonymous": false,
      "inputs": [
        {
          "indexed": true,
          "name": "account",
          "type": "address"
        }
      ],
      "name": "SellerAdded",
      "type": "event"
    },
    {
      "anonymous": false,
      "inputs": [
        {
          "indexed": true,
          "name": "account",
          "type": "address"
        }
      ],
      "name": "SellerRemoved",
      "type": "event"
    },
    {
      "anonymous": false,
      "inputs": [
        {
          "indexed": true,
          "name": "account",
          "type": "address"
        }
      ],
      "name": "DesignerAdded",
      "type": "event"
    },
    {
      "anonymous": false,
      "inputs": [
        {
          "indexed": true,
          "name": "account",
          "type": "address"
        }
      ],
      "name": "DesignerRemoved",
      "type": "event"
    },
    {
      "anonymous": false,
      "inputs": [
        {
          "indexed": true,
          "name": "account",
          "type": "address"
        }
      ],
      "name": "ManufacturerAdded",
      "type": "event"
    },
    {
      "anonymous": false,
      "inputs": [
        {
          "indexed": true,
          "name": "account",
          "type": "address"
        }
      ],
      "name": "ManufacturerRemoved",
      "type": "event"
    },
    {
      "anonymous": false,
      "inputs": [
        {
          "indexed": true,
          "name": "account",
          "type": "address"
        }
      ],
      "name": "BuyerAdded",
      "type": "event"
    },
    {
      "anonymous": false,
      "inputs": [
        {
          "indexed": true,
          "name": "account",
          "type": "address"
        }
      ],
      "name": "BuyerRemoved",
      "type": "event"
    },
    {
      "constant": false,
      "inputs": [
        {
          "name": "_designerName",
          "type": "string"
        },
        {
          "name": "_ProductName",
          "type": "string"
        },
        {
          "name": "_description",
          "type": "string"
        },
        {
          "name": "_notes",
          "type": "string"
        }
      ],
      "name": "designProduct",
      "outputs": [],
      "payable": false,
      "stateMutability": "nonpayable",
      "type": "function"
    },
    {
      "constant": false,
      "inputs": [
        {
          "name": "_udpc",
          "type": "uint256"
        }
      ],
      "name": "purchaseProductDesign",
      "outputs": [],
      "payable": true,
      "stateMutability": "payable",
      "type": "function"
    },
    {
      "constant": false,
      "inputs": [
        {
          "name": "_udpc",
          "type": "uint256"
        },
        {
          "name": "quantity",
          "type": "uint256"
        }
      ],
      "name": "manufacturProductsLoud",
      "outputs": [],
      "payable": false,
      "stateMutability": "nonpayable",
      "type": "function"
    },
    {
      "constant": false,
      "inputs": [
        {
          "name": "_slu",
          "type": "uint256"
        }
      ],
      "name": "buyProductsLoud",
      "outputs": [],
      "payable": true,
      "stateMutability": "payable",
      "type": "function"
    },
    {
      "constant": false,
      "inputs": [
        {
          "name": "_pku",
          "type": "uint256"
        }
      ],
      "name": "purchaseProduct",
      "outputs": [],
      "payable": true,
      "stateMutability": "payable",
      "type": "function"
    }
  ],
  "bytecode": "0x60806040523480156200001157600080fd5b506200002333620000af60201b60201c565b62000034336200011060201b60201c565b62000045336200017160201b60201c565b6200005633620001d260201b60201c565b620000766200006a6200023360201b60201c565b6200023b60201b60201c565b6000600560006101000a81548160ff02191690831515021790555060006006819055506000600981905550600060088190555062000460565b620000ca8160006200029c60201b62004ca31790919060201c565b8073ffffffffffffffffffffffffffffffffffffffff167f6599d9dd7f97ccdc3d99ab507544f9f6ebfca20c63a7e3c018da49eeaefb164a60405160405180910390a250565b6200012b8160016200029c60201b62004ca31790919060201c565b8073ffffffffffffffffffffffffffffffffffffffff167f561138658ca49a8540dc70dcfe64c9026c1c5b9344642242dd6562970f9c127860405160405180910390a250565b6200018c8160026200029c60201b62004ca31790919060201c565b8073ffffffffffffffffffffffffffffffffffffffff167f97069a05372df648feb174cc125711b2c72a81450a1ab2769c8faf49917d7fd260405160405180910390a250565b620001ed8160036200029c60201b62004ca31790919060201c565b8073ffffffffffffffffffffffffffffffffffffffff167f3d78526f2568d430fd8e20719601f7bc3f979936f8880236cc284e8127251b4260405160405180910390a250565b600033905090565b620002568160046200029c60201b62004ca31790919060201c565b8073ffffffffffffffffffffffffffffffffffffffff167f6719d08c1888103bea251a4ed56406bd0c3e69723c8a1686e017e7bbe159b6f860405160405180910390a250565b620002ae82826200038060201b60201c565b1562000322576040517f08c379a000000000000000000000000000000000000000000000000000000000815260040180806020018281038252601f8152602001807f526f6c65733a206163636f756e7420616c72656164792068617320726f6c650081525060200191505060405180910390fd5b60018260000160008373ffffffffffffffffffffffffffffffffffffffff1673ffffffffffffffffffffffffffffffffffffffff16815260200190815260200160002060006101000a81548160ff0219169083151502179055505050565b60008073ffffffffffffffffffffffffffffffffffffffff168273ffffffffffffffffffffffffffffffffffffffff16141562000409576040517f08c379a0000000000000000000000000000000000000000000000000000000008152600401808060200182810382526022815260200180620054cf6022913960400191505060405180910390fd5b8260000160008373ffffffffffffffffffffffffffffffffffffffff1673ffffffffffffffffffffffffffffffffffffffff16815260200190815260200160002060009054906101000a900460ff16905092915050565b61505f80620004706000396000f3fe6080604052600436106102465760003560e01c8063784167af11610139578063adf21b01116100b6578063d8f271a91161007a578063d8f271a91461131d578063da91254c146113ad578063e1d6f86f146113fd578063e84228ce1461142c578063eda0baa8146116b9578063ee95feaf146116d057610246565b8063adf21b0114611122578063b60eedbb14611251578063bccd246214611268578063bea1dcf814611297578063c40f1bdc146112ee57610246565b80639741d150116100fd5780639741d1501461102f578063a40e210f14611046578063a4a418b11461105d578063a4f03e2314611074578063aa9903ee146110dd57610246565b8063784167af14610c3357806378c8175414610c785780637ace31ef14610e8a57806382dc1ec414610fc75780638456cb591461101857610246565b80633f4ba83a116101c75780635929130c1161018b5780635929130c14610b625780635c975abb14610b905780635ec5b72814610bbf578063616d187514610bee5780636ef8d66d14610c1c57610246565b80633f4ba83a1461082157806341a117cf146108385780634314d44d1461096d57806346fbf68e14610ae257806348c149bd14610b4b57610246565b806329e998c31161020e57806329e998c3146106075780632a55feec1461064c5780632c7cef2e146106b557806335db95e5146107dc57806338e76a03146107f357610246565b806307e3c3031461024b5780631443bec71461026257806317d4a491146103ee5780631e8acbeb1461045757806327d55495146105cc575b600080fd5b34801561025757600080fd5b50610260611739565b005b34801561026e57600080fd5b5061029b6004803603602081101561028557600080fd5b8101908080359060200190929190505050611744565b60405180806020018060200180602001848103845287818151815260200191508051906020019080838360005b838110156102e35780820151818401526020810190506102c8565b50505050905090810190601f1680156103105780820380516001836020036101000a031916815260200191505b50848103835286818151815260200191508051906020019080838360005b8381101561034957808201518184015260208101905061032e565b50505050905090810190601f1680156103765780820380516001836020036101000a031916815260200191505b50848103825285818151815260200191508051906020019080838360005b838110156103af578082015181840152602081019050610394565b50505050905090810190601f1680156103dc5780820380516001836020036101000a031916815260200191505b50965050505050505060405180910390f35b3480156103fa57600080fd5b5061043d6004803603602081101561041157600080fd5b81019080803573ffffffffffffffffffffffffffffffffffffffff1690602001909291905050506119f3565b604051808215151515815260200191505060405180910390f35b34801561046357600080fd5b506105ca6004803603608081101561047a57600080fd5b8101908080359060200190929190803590602001906401000000008111156104a157600080fd5b8201836020820111156104b357600080fd5b803590602001918460018302840111640100000000831117156104d557600080fd5b91908080601f016020809104026020016040519081016040528093929190818152602001838380828437600081840152601f19601f8201169050808301925050505050505091929192908035151590602001909291908035906020019064010000000081111561054457600080fd5b82018360208201111561055657600080fd5b8035906020019184600183028401116401000000008311171561057857600080fd5b91908080601f016020809104026020016040519081016040528093929190818152602001838380828437600081840152601f19601f820116905080830192505050505050509192919290505050611a10565b005b3480156105d857600080fd5b50610605600480360360208110156105ef57600080fd5b8101908080359060200190929190505050611c9c565b005b34801561061357600080fd5b5061064a6004803603604081101561062a57600080fd5b810190808035906020019092919080359060200190929190505050611d56565b005b34801561065857600080fd5b5061069b6004803603602081101561066f57600080fd5b81019080803573ffffffffffffffffffffffffffffffffffffffff169060200190929190505050611ddf565b604051808215151515815260200191505060405180910390f35b3480156106c157600080fd5b506106ee600480360360208110156106d857600080fd5b8101908080359060200190929190505050611dfc565b60405180858152602001806020018060200180602001848103845287818151815260200191508051906020019060200280838360005b8381101561073f578082015181840152602081019050610724565b50505050905001848103835286818151815260200191508051906020019060200280838360005b83811015610781578082015181840152602081019050610766565b50505050905001848103825285818151815260200191508051906020019060200280838360005b838110156107c35780820151818401526020810190506107a8565b5050505090500197505050505050505060405180910390f35b3480156107e857600080fd5b506107f1611fdc565b005b61081f6004803603602081101561080957600080fd5b8101908080359060200190929190505050611fe7565b005b34801561082d57600080fd5b50610836612333565b005b34801561084457600080fd5b5061087b6004803603604081101561085b57600080fd5b8101908080359060200190929190803590602001909291905050506124a1565b60405180806020018415151515815260200180602001838103835286818151815260200191508051906020019080838360005b838110156108c95780820151818401526020810190506108ae565b50505050905090810190601f1680156108f65780820380516001836020036101000a031916815260200191505b50838103825284818151815260200191508051906020019080838360005b8381101561092f578082015181840152602081019050610914565b50505050905090810190601f16801561095c5780820380516001836020036101000a031916815260200191505b509550505050505060405180910390f35b34801561097957600080fd5b50610ae06004803603608081101561099057600080fd5b8101908080359060200190929190803590602001906401000000008111156109b757600080fd5b8201836020820111156109c957600080fd5b803590602001918460018302840111640100000000831117156109eb57600080fd5b91908080601f016020809104026020016040519081016040528093929190818152602001838380828437600081840152601f19601f82011690508083019250505050505050919291929080351515906020019092919080359060200190640100000000811115610a5a57600080fd5b820183602082011115610a6c57600080fd5b80359060200191846001830284011164010000000083111715610a8e57600080fd5b91908080601f016020809104026020016040519081016040528093929190818152602001838380828437600081840152601f19601f820116905080830192505050505050509192919290505050612781565b005b348015610aee57600080fd5b50610b3160048036036020811015610b0557600080fd5b81019080803573ffffffffffffffffffffffffffffffffffffffff169060200190929190505050612a0d565b604051808215151515815260200191505060405180910390f35b348015610b5757600080fd5b50610b60612a2a565b005b610b8e60048036036020811015610b7857600080fd5b8101908080359060200190929190505050612a35565b005b348015610b9c57600080fd5b50610ba5612abc565b604051808215151515815260200191505060405180910390f35b348015610bcb57600080fd5b50610bd4612ad3565b604051808215151515815260200191505060405180910390f35b610c1a60048036036020811015610c0457600080fd5b8101908080359060200190929190505050612aee565b005b348015610c2857600080fd5b50610c31612e69565b005b348015610c3f57600080fd5b50610c7660048036036040811015610c5657600080fd5b810190808035906020019092919080359060200190929190505050612e7b565b005b348015610c8457600080fd5b50610cb160048036036020811015610c9b57600080fd5b8101908080359060200190929190505050612fc1565b604051808a73ffffffffffffffffffffffffffffffffffffffff1673ffffffffffffffffffffffffffffffffffffffff1681526020018973ffffffffffffffffffffffffffffffffffffffff1673ffffffffffffffffffffffffffffffffffffffff1681526020018060200180602001806020018815151515815260200187815260200186815260200185815260200184810384528b818151815260200191508051906020019080838360005b83811015610d79578082015181840152602081019050610d5e565b50505050905090810190601f168015610da65780820380516001836020036101000a031916815260200191505b5084810383528a818151815260200191508051906020019080838360005b83811015610ddf578082015181840152602081019050610dc4565b50505050905090810190601f168015610e0c5780820380516001836020036101000a031916815260200191505b50848103825289818151815260200191508051906020019080838360005b83811015610e45578082015181840152602081019050610e2a565b50505050905090810190601f168015610e725780820380516001836020036101000a031916815260200191505b509c5050505050505050505050505060405180910390f35b348015610e9657600080fd5b50610ec360048036036020811015610ead57600080fd5b81019080803590602001909291905050506134f3565b60405180898152602001888152602001806020018773ffffffffffffffffffffffffffffffffffffffff1673ffffffffffffffffffffffffffffffffffffffff1681526020018673ffffffffffffffffffffffffffffffffffffffff1673ffffffffffffffffffffffffffffffffffffffff168152602001858152602001848152602001838152602001828103825288818151815260200191508051906020019080838360005b83811015610f85578082015181840152602081019050610f6a565b50505050905090810190601f168015610fb25780820380516001836020036101000a031916815260200191505b50995050505050505050505060405180910390f35b348015610fd357600080fd5b5061101660048036036020811015610fea57600080fd5b81019080803573ffffffffffffffffffffffffffffffffffffffff1690602001909291905050506136e8565b005b34801561102457600080fd5b5061102d613759565b005b34801561103b57600080fd5b506110446138c8565b005b34801561105257600080fd5b5061105b6138d3565b005b34801561106957600080fd5b506110726138de565b005b34801561108057600080fd5b506110c36004803603602081101561109757600080fd5b81019080803573ffffffffffffffffffffffffffffffffffffffff169060200190929190505050613900565b604051808215151515815260200191505060405180910390f35b3480156110e957600080fd5b506111206004803603604081101561110057600080fd5b81019080803590602001909291908035906020019092919050505061391d565b005b34801561112e57600080fd5b5061115b6004803603602081101561114557600080fd5b8101908080359060200190929190505050613abc565b60405180878152602001868152602001806020018573ffffffffffffffffffffffffffffffffffffffff1673ffffffffffffffffffffffffffffffffffffffff1681526020018473ffffffffffffffffffffffffffffffffffffffff1673ffffffffffffffffffffffffffffffffffffffff168152602001838152602001828103825286818151815260200191508051906020019080838360005b838110156112115780820151818401526020810190506111f6565b50505050905090810190601f16801561123e5780820380516001836020036101000a031916815260200191505b5097505050505050505060405180910390f35b34801561125d57600080fd5b50611266613bdb565b005b34801561127457600080fd5b5061127d613be6565b604051808215151515815260200191505060405180910390f35b3480156112a357600080fd5b506112ac613c01565b604051808273ffffffffffffffffffffffffffffffffffffffff1673ffffffffffffffffffffffffffffffffffffffff16815260200191505060405180910390f35b3480156112fa57600080fd5b50611303613c27565b604051808215151515815260200191505060405180910390f35b34801561132957600080fd5b506113566004803603602081101561134057600080fd5b8101908080359060200190929190505050613c42565b6040518080602001828103825283818151815260200191508051906020019060200280838360005b8381101561139957808201518184015260208101905061137e565b505050509050019250505060405180910390f35b3480156113b957600080fd5b506113c2613cad565b604051808515151515815260200184151515158152602001831515151581526020018215151515815260200194505050505060405180910390f35b34801561140957600080fd5b50611412613ce1565b604051808215151515815260200191505060405180910390f35b34801561143857600080fd5b506116b76004803603608081101561144f57600080fd5b810190808035906020019064010000000081111561146c57600080fd5b82018360208201111561147e57600080fd5b803590602001918460018302840111640100000000831117156114a057600080fd5b91908080601f016020809104026020016040519081016040528093929190818152602001838380828437600081840152601f19601f8201169050808301925050505050505091929192908035906020019064010000000081111561150357600080fd5b82018360208201111561151557600080fd5b8035906020019184600183028401116401000000008311171561153757600080fd5b91908080601f016020809104026020016040519081016040528093929190818152602001838380828437600081840152601f19601f8201169050808301925050505050505091929192908035906020019064010000000081111561159a57600080fd5b8201836020820111156115ac57600080fd5b803590602001918460018302840111640100000000831117156115ce57600080fd5b91908080601f016020809104026020016040519081016040528093929190818152602001838380828437600081840152601f19601f8201169050808301925050505050505091929192908035906020019064010000000081111561163157600080fd5b82018360208201111561164357600080fd5b8035906020019184600183028401116401000000008311171561166557600080fd5b91908080601f016020809104026020016040519081016040528093929190818152602001838380828437600081840152601f19601f820116905080830192505050505050509192919290505050613cfc565b005b3480156116c557600080fd5b506116ce613e0c565b005b3480156116dc57600080fd5b5061171f600480360360208110156116f357600080fd5b81019080803573ffffffffffffffffffffffffffffffffffffffff169060200190929190505050613e17565b604051808215151515815260200191505060405180910390f35b61174233613e34565b565b60608060606006548411156117c1576040517f08c379a000000000000000000000000000000000000000000000000000000000815260040180806020018281038252601b8152602001807f476976656e2055445043204e6f7420437265617465642059657421000000000081525060200191505060405180910390fd5b600760008581526020019081526020016000206005016000016007600086815260200190815260200160002060050160010160076000878152602001908152602001600020600501600201828054600181600116156101000203166002900480601f0160208091040260200160405190810160405280929190818152602001828054600181600116156101000203166002900480156118a15780601f10611876576101008083540402835291602001916118a1565b820191906000526020600020905b81548152906001019060200180831161188457829003601f168201915b50505050509250818054600181600116156101000203166002900480601f01602080910402602001604051908101604052809291908181526020018280546001816001161561010002031660029004801561193d5780601f106119125761010080835404028352916020019161193d565b820191906000526020600020905b81548152906001019060200180831161192057829003601f168201915b50505050509150808054600181600116156101000203166002900480601f0160208091040260200160405190810160405280929190818152602001828054600181600116156101000203166002900480156119d95780601f106119ae576101008083540402835291602001916119d9565b820191906000526020600020905b8154815290600101906020018083116119bc57829003601f168201915b505050505090508093508194508295505050509193909250565b6000611a09826001613e8e90919063ffffffff16565b9050919050565b600654841115611a88576040517f08c379a000000000000000000000000000000000000000000000000000000000815260040180806020018281038252601b8152602001807f476976656e2055445043204e6f7420437265617465642059657421000000000081525060200191505060405180910390fd5b611a90614d7e565b6040518060a001604052803373ffffffffffffffffffffffffffffffffffffffff16815260200142815260200184151581526020018581526020018381525090508060076000878152602001908152602001600020600a0160006007600089815260200190815260200160002060090154815260200190815260200160002060008201518160000160006101000a81548173ffffffffffffffffffffffffffffffffffffffff021916908373ffffffffffffffffffffffffffffffffffffffff1602179055506020820151816001015560408201518160020160006101000a81548160ff0219169083151502179055506060820151816003019080519060200190611b9c929190614dc5565b506080820151816004019080519060200190611bb9929190614dc5565b50905050600760008681526020019081526020016000206009016000815480929190600101919050555060006003811115611bf057fe5b6007600087815260200190815260200160002060040160009054906101000a900460ff166003811115611c1f57fe5b1415611c5e5760016007600087815260200190815260200160002060040160006101000a81548160ff02191690836003811115611c5857fe5b02179055505b7f81d5f9bced9b9d1723f40796f43346ab2f3d2147b09cc27e573f3eb3b5875864856040518082815260200191505060405180910390a15050505050565b8060016003811115611caa57fe5b6007600083815260200190815260200160002060040160009054906101000a900460ff166003811115611cd957fe5b14611ce357600080fd5b60026007600084815260200190815260200160002060040160006101000a81548160ff02191690836003811115611d1657fe5b02179055507f3ad93af63cb7967b23e4fb500b7d7d28b07516325dcf341f88bebf959d82c1cb826040518082815260200191505060405180910390a15050565b611d5f336119f3565b611dd1576040517f08c379a00000000000000000000000000000000000000000000000000000000081526004018080602001828103825260138152602001807f4e6f742041204d616e756661637475726572210000000000000000000000000081525060200191505060405180910390fd5b611ddb8282613f6c565b5050565b6000611df5826000613e8e90919063ffffffff16565b9050919050565b60006060806060846000600a6000838152602001908152602001600020600701541415611e2857600080fd5b6000600a6000888152602001908152602001600020905080600701549550606086604051908082528060200260200182016040528015611e775781602001602082028038833980820191505090505b509050606087604051908082528060200260200182016040528015611eab5781602001602082028038833980820191505090505b509050606088604051908082528060200260200182016040528015611edf5781602001602082028038833980820191505090505b50905060008090505b8460070154811015611fc057600085600601600083815260200190815260200160002090508060000154858381518110611f1e57fe5b6020026020010181815250508060010154848381518110611f3b57fe5b6020026020010181815250508060020160009054906101000a900473ffffffffffffffffffffffffffffffffffffffff16838381518110611f7857fe5b602002602001019073ffffffffffffffffffffffffffffffffffffffff16908173ffffffffffffffffffffffffffffffffffffffff1681525050508080600101915050611ee8565b50828282809850819950829a5050505050505050509193509193565b611fe5336141ed565b565b611ff033611ddf565b612062576040517f08c379a000000000000000000000000000000000000000000000000000000000815260040180806020018281038252600c8152602001807f4e6f74204120427579657221000000000000000000000000000000000000000081525060200191505060405180910390fd5b600560009054906101000a900460ff16156120e5576040517f08c379a00000000000000000000000000000000000000000000000000000000081526004018080602001828103825260108152602001807f5061757361626c653a207061757365640000000000000000000000000000000081525060200191505060405180910390fd5b6000600a60008381526020019081526020016000206005015490506000600a600084815260200190815260200160002060030160019054906101000a900473ffffffffffffffffffffffffffffffffffffffff1690506000600a60008581526020019081526020016000206006016000600a60008781526020019081526020016000206007015481526020019081526020016000206001015490506000816064600986028161219057fe5b04039050606460098502816121a157fe5b048401341015612219576040517f08c379a000000000000000000000000000000000000000000000000000000000815260040180806020018281038252600b8152602001807f4e6f7420456e6f7567682100000000000000000000000000000000000000000081525060200191505060405180910390fd5b6000843403905060008114612270573373ffffffffffffffffffffffffffffffffffffffff166108fc829081150290604051600060405180830381858888f1935050505015801561226e573d6000803e3d6000fd5b505b61227986614247565b8373ffffffffffffffffffffffffffffffffffffffff166108fc8487019081150290604051600060405180830381858888f193505050501580156122c1573d6000803e3d6000fd5b50600c60009054906101000a900473ffffffffffffffffffffffffffffffffffffffff1673ffffffffffffffffffffffffffffffffffffffff166108fc839081150290604051600060405180830381858888f1935050505015801561232a573d6000803e3d6000fd5b50505050505050565b61234361233e614334565b612a0d565b612398576040517f08c379a0000000000000000000000000000000000000000000000000000000008152600401808060200182810382526030815260200180614fc16030913960400191505060405180910390fd5b600560009054906101000a900460ff1661241a576040517f08c379a00000000000000000000000000000000000000000000000000000000081526004018080602001828103825260148152602001807f5061757361626c653a206e6f742070617573656400000000000000000000000081525060200191505060405180910390fd5b6000600560006101000a81548160ff0219169083151502179055507f5db9ee0a495bf2e6ff9c91a7834c1ba4fdd244a5e8aa4e537bd38aeae4b073aa61245e614334565b604051808273ffffffffffffffffffffffffffffffffffffffff1673ffffffffffffffffffffffffffffffffffffffff16815260200191505060405180910390a1565b60606000606060065485111561251f576040517f08c379a000000000000000000000000000000000000000000000000000000000815260040180806020018281038252601b8152602001807f476976656e2055445043204e6f7420437265617465642059657421000000000081525060200191505060405180910390fd5b600760008681526020019081526020016000206009015484106125aa576040517f08c379a000000000000000000000000000000000000000000000000000000000815260040180806020018281038252601a8152602001807f546573742043617365204e6f742043726561746564205965742100000000000081525060200191505060405180910390fd5b60076000868152602001908152602001600020600a01600085815260200190815260200160002060030160076000878152602001908152602001600020600a01600086815260200190815260200160002060020160009054906101000a900460ff1660076000888152602001908152602001600020600a016000878152602001908152602001600020600401828054600181600116156101000203166002900480601f0160208091040260200160405190810160405280929190818152602001828054600181600116156101000203166002900480156126cb5780601f106126a0576101008083540402835291602001916126cb565b820191906000526020600020905b8154815290600101906020018083116126ae57829003601f168201915b50505050509250808054600181600116156101000203166002900480601f0160208091040260200160405190810160405280929190818152602001828054600181600116156101000203166002900480156127675780601f1061273c57610100808354040283529160200191612767565b820191906000526020600020905b81548152906001019060200180831161274a57829003601f168201915b505050505090508093508194508295505050509250925092565b6006548411156127f9576040517f08c379a000000000000000000000000000000000000000000000000000000000815260040180806020018281038252601b8152602001807f476976656e2055445043204e6f7420437265617465642059657421000000000081525060200191505060405180910390fd5b612801614d7e565b6040518060a001604052803373ffffffffffffffffffffffffffffffffffffffff16815260200142815260200184151581526020018581526020018381525090508060076000878152602001908152602001600020600a0160006007600089815260200190815260200160002060090154815260200190815260200160002060008201518160000160006101000a81548173ffffffffffffffffffffffffffffffffffffffff021916908373ffffffffffffffffffffffffffffffffffffffff1602179055506020820151816001015560408201518160020160006101000a81548160ff021916908315150217905550606082015181600301908051906020019061290d929190614dc5565b50608082015181600401908051906020019061292a929190614dc5565b5090505060076000868152602001908152602001600020600901600081548092919060010191905055506000600381111561296157fe5b6007600087815260200190815260200160002060040160009054906101000a900460ff16600381111561299057fe5b14156129cf5760016007600087815260200190815260200160002060040160006101000a81548160ff021916908360038111156129c957fe5b02179055505b7f81d5f9bced9b9d1723f40796f43346ab2f3d2147b09cc27e573f3eb3b5875864856040518082815260200191505060405180910390a15050505050565b6000612a23826004613e8e90919063ffffffff16565b9050919050565b612a333361433c565b565b612a3e336119f3565b612ab0576040517f08c379a00000000000000000000000000000000000000000000000000000000081526004018080602001828103825260138152602001807f4e6f742041204d616e756661637475726572210000000000000000000000000081525060200191505060405180910390fd5b612ab981614396565b50565b6000600560009054906101000a900460ff16905090565b6000612ae9336002613e8e90919063ffffffff16565b905090565b612af733611ddf565b612b69576040517f08c379a000000000000000000000000000000000000000000000000000000000815260040180806020018281038252600c8152602001807f4e6f74204120427579657221000000000000000000000000000000000000000081525060200191505060405180910390fd5b600560009054906101000a900460ff1615612bec576040517f08c379a00000000000000000000000000000000000000000000000000000000081526004018080602001828103825260108152602001807f5061757361626c653a207061757365640000000000000000000000000000000081525060200191505060405180910390fd5b6000600a6000600b6000858152602001908152602001600020600081548110612c1157fe5b9060005260206000200154815260200190815260200160002090506000816005015490506000600b600085815260200190815260200160002080549050905060008360060160008560070154815260200190815260200160002060010154905060008160646009860281612c8157fe5b0403905060008360646009870281612c9557fe5b0486010290506000848302905060008760030160019054906101000a900473ffffffffffffffffffffffffffffffffffffffff16905082341015612d41576040517f08c379a000000000000000000000000000000000000000000000000000000000815260040180806020018281038252600b8152602001807f4e6f7420456e6f7567682100000000000000000000000000000000000000000081525060200191505060405180910390fd5b6000833403905060008114612d98573373ffffffffffffffffffffffffffffffffffffffff166108fc829081150290604051600060405180830381858888f19350505050158015612d96573d6000803e3d6000fd5b505b612da18a6145a6565b612dab8a8661391d565b8173ffffffffffffffffffffffffffffffffffffffff166108fc8486039081150290604051600060405180830381858888f19350505050158015612df3573d6000803e3d6000fd5b50600c60009054906101000a900473ffffffffffffffffffffffffffffffffffffffff1673ffffffffffffffffffffffffffffffffffffffff166108fc849081150290604051600060405180830381858888f19350505050158015612e5c573d6000803e3d6000fd5b5050505050505050505050565b612e79612e74614334565b6146d3565b565b813373ffffffffffffffffffffffffffffffffffffffff166007600083815260200190815260200160002060010160009054906101000a900473ffffffffffffffffffffffffffffffffffffffff1673ffffffffffffffffffffffffffffffffffffffff1614612eea57600080fd5b8260026003811115612ef857fe5b6007600083815260200190815260200160002060040160009054906101000a900460ff166003811115612f2757fe5b14612f3157600080fd5b82600760008681526020019081526020016000206008018190555060036007600086815260200190815260200160002060040160006101000a81548160ff02191690836003811115612f7f57fe5b02179055507f9830dea00c267e7b6913a128e9a399b9272b3c2b650ac4c447ce2b876b100488846040518082815260200191505060405180910390a150505050565b60008060608060606000806000806006548a1115613047576040517f08c379a000000000000000000000000000000000000000000000000000000000815260040180806020018281038252601b8152602001807f476976656e2055445043204e6f7420437265617465642059657421000000000081525060200191505060405180910390fd5b600760008b815260200190815260200160002060010160009054906101000a900473ffffffffffffffffffffffffffffffffffffffff169850600760008b815260200190815260200160002060020160009054906101000a900473ffffffffffffffffffffffffffffffffffffffff169750600760008b81526020019081526020016000206003018054600181600116156101000203166002900480601f0160208091040260200160405190810160405280929190818152602001828054600181600116156101000203166002900480156131635780601f1061313857610100808354040283529160200191613163565b820191906000526020600020905b81548152906001019060200180831161314657829003601f168201915b50505050509650600760008b81526020019081526020016000206005016000018054600181600116156101000203166002900480601f0160208091040260200160405190810160405280929190818152602001828054600181600116156101000203166002900480156132175780601f106131ec57610100808354040283529160200191613217565b820191906000526020600020905b8154815290600101906020018083116131fa57829003601f168201915b505050505095506000600381111561322b57fe5b600760008c815260200190815260200160002060040160009054906101000a900460ff16600381111561325a57fe5b141561329d576040518060400160405280600781526020017f43726561746564000000000000000000000000000000000000000000000000008152509450613497565b600160038111156132aa57fe5b600760008c815260200190815260200160002060040160009054906101000a900460ff1660038111156132d957fe5b141561331c576040518060400160405280600681526020017f54657374656400000000000000000000000000000000000000000000000000008152509450613496565b6002600381111561332957fe5b600760008c815260200190815260200160002060040160009054906101000a900460ff16600381111561335857fe5b141561339b576040518060400160405280600881526020017f417070726f7665640000000000000000000000000000000000000000000000008152509450613495565b6003808111156133a757fe5b600760008c815260200190815260200160002060040160009054906101000a900460ff1660038111156133d657fe5b1415613419576040518060400160405280600781526020017f466f7253616c65000000000000000000000000000000000000000000000000008152509450613494565b60038081111561342557fe5b600760008c815260200190815260200160002060040160009054906101000a900460ff16600381111561345457fe5b1415613493576040518060400160405280600781526020017f466f7253616c650000000000000000000000000000000000000000000000000081525094505b5b5b5b5b6000600760008c81526020019081526020016000206008015414159350600760008b8152602001908152602001600020600801549250600760008b81526020019081526020016000206009015491509193959799909294969850565b600080606060008060008060006008548911158015613513575060008914155b613585576040517f08c379a000000000000000000000000000000000000000000000000000000000815260040180806020018281038252601a8152602001807f476976656e20504b55204e6f742043726561746564205965742100000000000081525060200191505060405180910390fd5b6000600a60008b815260200190815260200160002090508060000154985080600201549750600060028111156135b757fe5b8160030160009054906101000a900460ff1660028111156135d457fe5b1415613617576040518060400160405280600c81526020017f4d616e75666163747572656400000000000000000000000000000000000000008152509650613680565b60028081111561362357fe5b8160030160009054906101000a900460ff16600281111561364057fe5b141561367f576040518060400160405280600981526020017f507572636861736564000000000000000000000000000000000000000000000081525096505b5b8060030160019054906101000a900473ffffffffffffffffffffffffffffffffffffffff1695508060040160009054906101000a900473ffffffffffffffffffffffffffffffffffffffff169450806005015493508060070154915050919395975091939597565b6136f86136f3614334565b612a0d565b61374d576040517f08c379a0000000000000000000000000000000000000000000000000000000008152600401808060200182810382526030815260200180614fc16030913960400191505060405180910390fd5b6137568161472d565b50565b613769613764614334565b612a0d565b6137be576040517f08c379a0000000000000000000000000000000000000000000000000000000008152600401808060200182810382526030815260200180614fc16030913960400191505060405180910390fd5b600560009054906101000a900460ff1615613841576040517f08c379a00000000000000000000000000000000000000000000000000000000081526004018080602001828103825260108152602001807f5061757361626c653a207061757365640000000000000000000000000000000081525060200191505060405180910390fd5b6001600560006101000a81548160ff0219169083151502179055507f62e78cea01bee320cd4e420270b5ea74000d11b0c9f74754ebdbfc544b05a258613885614334565b604051808273ffffffffffffffffffffffffffffffffffffffff1673ffffffffffffffffffffffffffffffffffffffff16815260200191505060405180910390a1565b6138d133614787565b565b6138dc336147e1565b565b6138e73361483b565b6138f0336119f3565b6138fe576138fd3361433c565b5b565b6000613916826002613e8e90919063ffffffff16565b9050919050565b6000600b6000848152602001908152602001600020805490509050613940614e45565b60405180606001604052804281526020018481526020013373ffffffffffffffffffffffffffffffffffffffff16815250905060008090505b82811015613a7e576000600b600087815260200190815260200160002082815481106139a157fe5b9060005260206000200154905082600a60008381526020019081526020016000206006016000600a6000858152602001908152602001600020600701548152602001908152602001600020600082015181600001556020820151816001015560408201518160020160006101000a81548173ffffffffffffffffffffffffffffffffffffffff021916908373ffffffffffffffffffffffffffffffffffffffff160217905550905050600a600082815260200190815260200160002060070160008154809291906001019190505550508080600101915050613979565b507fe0abde12d5564a014f3a4a4468f87400e13c581a9847e1868181a29dcc31e222846040518082815260200191505060405180910390a150505050565b600080606060008060006009548711158015613ad9575060008714155b613b4b576040517f08c379a000000000000000000000000000000000000000000000000000000000815260040180806020018281038252601a8152602001807f476976656e20534c55204e6f742043726561746564205965742100000000000081525060200191505060405180910390fd5b6000600b60008981526020019081526020016000206001600b60008b8152602001908152602001600020805490500381548110613b8457fe5b90600052602060002001549050613b9a816134f3565b90919293949550905050809650819750829850839950849a505050505050600b60008981526020019081526020016000208054905096505091939550919395565b613be433614895565b565b6000613bfc336003613e8e90919063ffffffff16565b905090565b600c60009054906101000a900473ffffffffffffffffffffffffffffffffffffffff1681565b6000613c3d336000613e8e90919063ffffffff16565b905090565b6060600b6000838152602001908152602001600020805480602002602001604051908101604052809291908181526020018280548015613ca157602002820191906000526020600020905b815481526020019060010190808311613c8d575b50505050509050919050565b600080600080613cbb613c27565b9350613cc5613be6565b9250613ccf613ce1565b9150613cd9612ad3565b905090919293565b6000613cf7336001613e8e90919063ffffffff16565b905090565b613d0533613900565b613d77576040517f08c379a000000000000000000000000000000000000000000000000000000000815260040180806020018281038252600f8152602001807f4e6f7420412044657369676e657221000000000000000000000000000000000081525060200191505060405180910390fd5b600560009054906101000a900460ff1615613dfa576040517f08c379a00000000000000000000000000000000000000000000000000000000081526004018080602001828103825260108152602001807f5061757361626c653a207061757365640000000000000000000000000000000081525060200191505060405180910390fd5b613e06848484846148ef565b50505050565b613e1533614b8c565b565b6000613e2d826003613e8e90919063ffffffff16565b9050919050565b613e48816000614be690919063ffffffff16565b8073ffffffffffffffffffffffffffffffffffffffff167f83fd4cbc7bc934bdfbae994ac6e72fcc0e50abd6995c1949520e761ba650d58260405160405180910390a250565b60008073ffffffffffffffffffffffffffffffffffffffff168273ffffffffffffffffffffffffffffffffffffffff161415613f15576040517f08c379a00000000000000000000000000000000000000000000000000000000081526004018080602001828103825260228152602001806150126022913960400191505060405180910390fd5b8260000160008373ffffffffffffffffffffffffffffffffffffffff1673ffffffffffffffffffffffffffffffffffffffff16815260200190815260200160002060009054906101000a900460ff16905092915050565b60006009600081546001019190508190559050613f87614e7c565b8381600001818152505081816040018181525050600081606001906002811115613fad57fe5b90816002811115613fba57fe5b8152505033816080019073ffffffffffffffffffffffffffffffffffffffff16908173ffffffffffffffffffffffffffffffffffffffff1681525050338160a0019073ffffffffffffffffffffffffffffffffffffffff16908173ffffffffffffffffffffffffffffffffffffffff168152505060008160e001818152505060008090505b838110156141af57600060086000815460010191905081905590508083602001818152505082600a600083815260200190815260200160002060008201518160000155602082015181600101556040820151816002015560608201518160030160006101000a81548160ff021916908360028111156140ba57fe5b021790555060808201518160030160016101000a81548173ffffffffffffffffffffffffffffffffffffffff021916908373ffffffffffffffffffffffffffffffffffffffff16021790555060a08201518160040160006101000a81548173ffffffffffffffffffffffffffffffffffffffff021916908373ffffffffffffffffffffffffffffffffffffffff16021790555060c0820151816005015560e08201518160070155905050600b600085815260200190815260200160002081908060018154018082558091505090600182039060005260206000200160009091929091909150555050808060010191505061403f565b507fd29d8a68ca7c8c74be5579719d445aabfe230ed6e6a83aff475a663500eb7609826040518082815260200191505060405180910390a150505050565b614201816000614ca390919063ffffffff16565b8073ffffffffffffffffffffffffffffffffffffffff167f6599d9dd7f97ccdc3d99ab507544f9f6ebfca20c63a7e3c018da49eeaefb164a60405160405180910390a250565b806000600a600083815260200190815260200160002060070154141561426c57600080fd5b6002600a600084815260200190815260200160002060030160006101000a81548160ff0219169083600281111561429f57fe5b021790555033600a600084815260200190815260200160002060030160016101000a81548173ffffffffffffffffffffffffffffffffffffffff021916908373ffffffffffffffffffffffffffffffffffffffff1602179055507f653d56639fee6b566a5c804764e9689de38645f0b733df89a36a1b7b42173dd8826040518082815260200191505060405180910390a15050565b600033905090565b614350816001614ca390919063ffffffff16565b8073ffffffffffffffffffffffffffffffffffffffff167f561138658ca49a8540dc70dcfe64c9026c1c5b9344642242dd6562970f9c127860405160405180910390a250565b806003808111156143a357fe5b6007600083815260200190815260200160002060040160009054906101000a900460ff1660038111156143d257fe5b146143dc57600080fd5b816007600082815260200190815260200160002060080154341015614469576040517f08c379a000000000000000000000000000000000000000000000000000000000815260040180806020018281038252600b8152602001807f4e6f7420456e6f7567682100000000000000000000000000000000000000000081525060200191505060405180910390fd5b60026007600085815260200190815260200160002060040160006101000a81548160ff0219169083600381111561449c57fe5b0217905550336007600085815260200190815260200160002060010160006101000a81548173ffffffffffffffffffffffffffffffffffffffff021916908373ffffffffffffffffffffffffffffffffffffffff1602179055507f729b55dd54c77cd63e2c1075795bd042790838b8114ed30292106ffed1916b90836040518082815260200191505060405180910390a1600060076000838152602001908152602001600020600801549050600081340390506000811461459f573373ffffffffffffffffffffffffffffffffffffffff166108fc829081150290604051600060405180830381858888f1935050505015801561459d573d6000803e3d6000fd5b505b5050505050565b6000600b600083815260200190815260200160002080549050905060008090505b81811015614697576000600b600085815260200190815260200160002082815481106145ef57fe5b906000526020600020015490506001600a600083815260200190815260200160002060030160006101000a81548160ff0219169083600281111561462f57fe5b021790555033600a600083815260200190815260200160002060030160016101000a81548173ffffffffffffffffffffffffffffffffffffffff021916908373ffffffffffffffffffffffffffffffffffffffff1602179055505080806001019150506145c7565b507f92f64ca637d023f354075a4be751b169c1a8a9ccb6d33cdd0cb3520543995727826040518082815260200191505060405180910390a15050565b6146e7816004614be690919063ffffffff16565b8073ffffffffffffffffffffffffffffffffffffffff167fcd265ebaf09df2871cc7bd4133404a235ba12eff2041bb89d9c714a2621c7c7e60405160405180910390a250565b614741816004614ca390919063ffffffff16565b8073ffffffffffffffffffffffffffffffffffffffff167f6719d08c1888103bea251a4ed56406bd0c3e69723c8a1686e017e7bbe159b6f860405160405180910390a250565b61479b816003614be690919063ffffffff16565b8073ffffffffffffffffffffffffffffffffffffffff167fa6f3b3030df964d974376ba4db21cbe49207bd79998f0d619c1c3a422259707f60405160405180910390a250565b6147f5816001614be690919063ffffffff16565b8073ffffffffffffffffffffffffffffffffffffffff167f2fed5abf6a80d6dfe30b4895481b2fc5d7dce5f8f7b931832f4a2947d5040c7f60405160405180910390a250565b61484f816002614ca390919063ffffffff16565b8073ffffffffffffffffffffffffffffffffffffffff167f97069a05372df648feb174cc125711b2c72a81450a1ab2769c8faf49917d7fd260405160405180910390a250565b6148a9816003614ca390919063ffffffff16565b8073ffffffffffffffffffffffffffffffffffffffff167f3d78526f2568d430fd8e20719601f7bc3f979936f8880236cc284e8127251b4260405160405180910390a250565b600660008154809291906001019190505550614909614ef8565b60065481600001818152505033816020019073ffffffffffffffffffffffffffffffffffffffff16908173ffffffffffffffffffffffffffffffffffffffff168152505033816040019073ffffffffffffffffffffffffffffffffffffffff16908173ffffffffffffffffffffffffffffffffffffffff16815250508481606001819052506000816080019060038111156149a057fe5b908160038111156149ad57fe5b815250506040518060600160405280858152602001848152602001838152508160a0018190525060008160c0018181525050806007600060065481526020019081526020016000206000820151816000015560208201518160010160006101000a81548173ffffffffffffffffffffffffffffffffffffffff021916908373ffffffffffffffffffffffffffffffffffffffff16021790555060408201518160020160006101000a81548173ffffffffffffffffffffffffffffffffffffffff021916908373ffffffffffffffffffffffffffffffffffffffff1602179055506060820151816003019080519060200190614aa9929190614dc5565b5060808201518160040160006101000a81548160ff02191690836003811115614ace57fe5b021790555060a0820151816005016000820151816000019080519060200190614af8929190614dc5565b506020820151816001019080519060200190614b15929190614dc5565b506040820151816002019080519060200190614b32929190614dc5565b50505060c0820151816008015560e082015181600901559050507f4bea4fa538d41a7b7fb10bb3405cf3e168122aa3438625bbf0ac6dde64fbdb0c6006546040518082815260200191505060405180910390a15050505050565b614ba0816002614be690919063ffffffff16565b8073ffffffffffffffffffffffffffffffffffffffff167fe16181bbb8b138f88a23696ae25f2c63713913e3fc6922b234a08639bf53cbea60405160405180910390a250565b614bf08282613e8e565b614c45576040517f08c379a0000000000000000000000000000000000000000000000000000000008152600401808060200182810382526021815260200180614ff16021913960400191505060405180910390fd5b60008260000160008373ffffffffffffffffffffffffffffffffffffffff1673ffffffffffffffffffffffffffffffffffffffff16815260200190815260200160002060006101000a81548160ff0219169083151502179055505050565b614cad8282613e8e565b15614d20576040517f08c379a000000000000000000000000000000000000000000000000000000000815260040180806020018281038252601f8152602001807f526f6c65733a206163636f756e7420616c72656164792068617320726f6c650081525060200191505060405180910390fd5b60018260000160008373ffffffffffffffffffffffffffffffffffffffff1673ffffffffffffffffffffffffffffffffffffffff16815260200190815260200160002060006101000a81548160ff0219169083151502179055505050565b6040518060a00160405280600073ffffffffffffffffffffffffffffffffffffffff1681526020016000815260200160001515815260200160608152602001606081525090565b828054600181600116156101000203166002900490600052602060002090601f016020900481019282601f10614e0657805160ff1916838001178555614e34565b82800160010185558215614e34579182015b82811115614e33578251825591602001919060010190614e18565b5b509050614e419190614f7a565b5090565b60405180606001604052806000815260200160008152602001600073ffffffffffffffffffffffffffffffffffffffff1681525090565b60405180610100016040528060008152602001600081526020016000815260200160006002811115614eaa57fe5b8152602001600073ffffffffffffffffffffffffffffffffffffffff168152602001600073ffffffffffffffffffffffffffffffffffffffff16815260200160008152602001600081525090565b60405180610140016040528060008152602001600073ffffffffffffffffffffffffffffffffffffffff168152602001600073ffffffffffffffffffffffffffffffffffffffff1681526020016060815260200160006003811115614f5957fe5b8152602001614f66614f9f565b815260200160008152602001600081525090565b614f9c91905b80821115614f98576000816000905550600101614f80565b5090565b90565b6040518060600160405280606081526020016060815260200160608152509056fe506175736572526f6c653a2063616c6c657220646f6573206e6f742068617665207468652050617573657220726f6c65526f6c65733a206163636f756e7420646f6573206e6f74206861766520726f6c65526f6c65733a206163636f756e7420697320746865207a65726f2061646472657373a165627a7a72305820307bf430c22d502ade1f6458df77c107842a6123a22fb715a4662a918ddc36ea0029526f6c65733a206163636f756e7420697320746865207a65726f2061646472657373",
  "source": "pragma solidity ^0.5.0;\r\n\r\n/// Import main chains contracts\r\nimport \"./Product.sol\";\r\nimport \"./ProductDesign.sol\";\r\n\r\n/// Import Main Roles contract `Rolable.sol`\r\nimport \"./AccessControl/Rolable.sol\";\r\n\r\n/// Import Pausable contract from OpenZeppelin library\r\nimport \"./openzeppelin/contracts/lifecycle/Pausable.sol\";\r\n\r\n/// @title Supply Chain Contract\r\ncontract SupplyChain is Rolable, Pausable, ProductDesign, Product {\r\n    address payable public taxCollector  ;\r\n    constructor() public {\r\n\r\n    }\r\n\r\n    /// Function helps Designer to estaplish a new Product Design\r\n    function designProduct(\r\n        string memory _designerName,\r\n        string memory _ProductName,\r\n        string memory _description,\r\n        string memory _notes\r\n    )\r\n        public\r\n        onlyDesigner()\r\n        whenNotPaused()\r\n    {\r\n        super.designProduct(\r\n            _designerName,\r\n            _ProductName,\r\n            _description,\r\n            _notes\r\n        );\r\n    }\r\n\r\n\r\n    /// Function to purchase a Product design\r\n    function purchaseProductDesign(uint _udpc)\r\n        public\r\n        payable\r\n        onlyManufacturer()\r\n    {\r\n        super.purchaseProductDesign(_udpc);\r\n    }\r\n\r\n    /// Function helps manufacturer to manufactur a new Product Loud\r\n    function manufacturProductsLoud(uint _udpc, uint quantity)\r\n        public\r\n        onlyManufacturer()\r\n    {\r\n        super.manufacturProductsLoud(_udpc, quantity);\r\n    }\r\n\r\n\r\n\r\n    function buyProductsLoud(uint _slu)\r\n        public\r\n        payable\r\n        onlyBuyer() //  \r\n        whenNotPaused()\r\n    {\r\n        /// collect info about the whole proccess\r\n        ProductItem storage sampleUnit = pItems[stockLouds[_slu][0]];\r\n        //uint _udpc = sampleUnit.udpc;\r\n        uint price = sampleUnit.price;\r\n        uint quantity = stockLouds[_slu].length;\r\n       // uint totalPrice = price*quantity;\r\n        \r\n        uint lastTax = sampleUnit.taxHistory[sampleUnit.taxUpdateCounter].lastPaidTax ; \r\n        uint taxBounty = (price*9) /100 - lastTax ;\r\n\r\n        uint totalPrice = (price+ (price*9) /100 )*quantity;\r\n        uint totalTaxBounty = taxBounty * quantity;\r\n        ///colect shared worker addresses to payed them\r\n        address payable sallerId = address(sampleUnit.currentOwnerId);\r\n\r\n        require(msg.value >= totalPrice, \"Not Enough!\");\r\n        uint amountToReturn = msg.value - totalPrice;\r\n        if (amountToReturn != 0)\r\n            address(msg.sender).transfer(amountToReturn);\r\n\r\n        super.buyProductsLoud(_slu);\r\n        super.updateTaxHistory(_slu,taxBounty);\r\n        sallerId.transfer(totalPrice - totalTaxBounty);\r\n        taxCollector.transfer(totalTaxBounty);\r\n        \r\n    }\r\n\r\n    /// Function helps manufacturer to Pack a isManufactured Product Loud\r\n    function purchaseProduct (uint _pku)\r\n        public\r\n        payable\r\n        onlyBuyer()\r\n        whenNotPaused()\r\n    {\r\n        uint price = pItems[_pku].price;\r\n        address payable sellerId = pItems[_pku].currentOwnerId;\r\n\r\n        //address payable retailerId = address(uint160(pItems[_pku].sellerId));\r\n        //uint retialerBounty = (price*5) /100;\r\n        uint lastTax = pItems[_pku].taxHistory[pItems[_pku].taxUpdateCounter].lastPaidTax ; \r\n        uint taxBounty = (price*9) /100 - lastTax ; \r\n\r\n        require(msg.value >= price+(price*9) /100, \"Not Enough!\");\r\n        uint amountToReturn = msg.value - price;\r\n        if (amountToReturn != 0)\r\n            address(msg.sender).transfer(amountToReturn);\r\n\r\n        super.purchaseProduct(_pku);\r\n        //super.updateTaxHistory(_pku,taxBounty);\r\n        sellerId.transfer(price + lastTax);\r\n        taxCollector.transfer(taxBounty);\r\n    }\r\n\r\n}\r\n",
  "sourcePath": "E:\\document\\blockchain\\myprojects\\simplevat\\contracts\\SupplyChain.sol",
  "compiler": {
    "name": "solc",
    "version": "0.5.8+commit.23d335f2.Emscripten.clang"
  },
  "schemaVersion": "3.0.16",
  "updatedAt": "2019-09-24T08:10:19.095Z",
  "devdoc": {
    "methods": {
      "amIBuyer()": {
        "return": "boolean for caller address state in `_Buyers` Role"
      },
      "amIDesigner()": {
        "return": "boolean for caller address state in `_designers` Role"
      },
      "amIManufacturer()": {
        "return": "boolean for caller address state in `_manufacturers` Role"
      },
      "amISeller()": {
        "return": "boolean for caller address state in `_Sellers` Role"
      },
      "pause()": {
        "details": "Called by a pauser to pause, triggers stopped state."
      },
      "paused()": {
        "details": "Returns true if the contract is paused, and false otherwise."
      },
      "unpause()": {
        "details": "Called by a pauser to unpause, returns to normal state."
      },
      "whoAmI()": {
        "return": "array contining every role with its state as boolean"
      }
    },
    "title": "Supply Chain Contract"
  },
  "userdoc": {
    "methods": {
      "addTestCase(uint256,string,bool,string)": {
        "notice": "Add Test Case for Product Design by currentOwner"
      },
      "approveProduct(uint256)": {
        "notice": "Function to approve Product by a regulator only"
      },
      "assignMeAsBuyer()": {
        "notice": "Function to assign caller `msg.sender` to Buyer role"
      },
      "assignMeAsDesigner()": {
        "notice": "designer allways should be a menufacturer, after checking isManufacturer add it if not"
      },
      "assignMeAsManufacturer()": {
        "notice": "Function to assign caller `msg.sender` to manufacturer role"
      },
      "assignMeAsSeller()": {
        "notice": "Function to assign caller `msg.sender` to Seller role"
      },
      "designProduct(string,string,string,string)": {
        "notice": "Function helps Designer to estaplish a new Product Design"
      },
      "fetchProductLoaudData(uint256)": {
        "notice": "public data featching functions"
      },
      "isBuyer(address)": {
        "notice": "uses'Roles' library's internal function `has()` to check, refer to library for more detail"
      },
      "isDesigner(address)": {
        "notice": "uses'Roles' library's internal function `has()` to check, refer to library for more detail"
      },
      "isManufacturer(address)": {
        "notice": "uses'Roles' library's internal function `has()` to check, refer to library for more detail"
      },
      "isSeller(address)": {
        "notice": "uses'Roles' library's internal function `has()` to check, refer to library for more detail"
      },
      "manufacturProductsLoud(uint256,uint256)": {
        "notice": "Function helps manufacturer to manufactur a new Product Loud"
      },
      "purchaseProduct(uint256)": {
        "notice": "Function helps manufacturer to Pack a isManufactured Product Loud"
      },
      "purchaseProductDesign(uint256)": {
        "notice": "Function to purchase a Product design"
      },
      "renounceMeFromBuyer()": {
        "notice": "Function to renounce caller `msg.sender` from Buyer role"
      },
      "renounceMeFromDesigner()": {
        "notice": "Function to renounce caller `msg.sender` from designer role"
      },
      "renounceMeFromManufacturer()": {
        "notice": "Function to renounce caller `msg.sender` from manufacturer role"
      },
      "renounceMeFromSeller()": {
        "notice": "Function to renounce caller `msg.sender` from Seller role"
      },
      "upForSale(uint256,uint256)": {
        "notice": "Function to sale a Product design"
      }
    }
  }
}