{
  "contractName": "SupplyChain",
  "abi": [
    {
      "constant": false,
      "inputs": [],
      "name": "renounceMeFromBuyer",
      "outputs": [],
      "payable": false,
      "stateMutability": "nonpayable",
      "type": "function"
    },
    {
      "constant": true,
      "inputs": [
        {
          "name": "account",
          "type": "address"
        }
      ],
      "name": "isManufacturer",
      "outputs": [
        {
          "name": "",
          "type": "bool"
        }
      ],
      "payable": false,
      "stateMutability": "view",
      "type": "function"
    },
    {
      "constant": true,
      "inputs": [
        {
          "name": "account",
          "type": "address"
        }
      ],
      "name": "isBuyer",
      "outputs": [
        {
          "name": "",
          "type": "bool"
        }
      ],
      "payable": false,
      "stateMutability": "view",
      "type": "function"
    },
    {
      "constant": true,
      "inputs": [
        {
          "name": "_pID",
          "type": "uint256"
        }
      ],
      "name": "fetchtaxHistory",
      "outputs": [
        {
          "name": "numberOfupdate",
          "type": "uint256"
        },
        {
          "name": "timeStamps",
          "type": "uint256[]"
        },
        {
          "name": "lastPaidTax",
          "type": "uint256[]"
        },
        {
          "name": "totalTax",
          "type": "uint256[]"
        },
        {
          "name": "updaterAddresses",
          "type": "address[]"
        }
      ],
      "payable": false,
      "stateMutability": "view",
      "type": "function"
    },
    {
      "constant": false,
      "inputs": [],
      "name": "assignMeAsBuyer",
      "outputs": [],
      "payable": false,
      "stateMutability": "nonpayable",
      "type": "function"
    },
    {
      "constant": false,
      "inputs": [],
      "name": "unpause",
      "outputs": [],
      "payable": false,
      "stateMutability": "nonpayable",
      "type": "function"
    },
    {
      "constant": true,
      "inputs": [
        {
          "name": "account",
          "type": "address"
        }
      ],
      "name": "isPauser",
      "outputs": [
        {
          "name": "",
          "type": "bool"
        }
      ],
      "payable": false,
      "stateMutability": "view",
      "type": "function"
    },
    {
      "constant": false,
      "inputs": [],
      "name": "assignMeAsManufacturer",
      "outputs": [],
      "payable": false,
      "stateMutability": "nonpayable",
      "type": "function"
    },
    {
      "constant": true,
      "inputs": [],
      "name": "paused",
      "outputs": [
        {
          "name": "",
          "type": "bool"
        }
      ],
      "payable": false,
      "stateMutability": "view",
      "type": "function"
    },
    {
      "constant": false,
      "inputs": [],
      "name": "renouncePauser",
      "outputs": [],
      "payable": false,
      "stateMutability": "nonpayable",
      "type": "function"
    },
    {
      "constant": true,
      "inputs": [
        {
          "name": "_pID",
          "type": "uint256"
        }
      ],
      "name": "fetchProductItemData",
      "outputs": [
        {
          "name": "pID",
          "type": "uint256"
        },
        {
          "name": "name",
          "type": "string"
        },
        {
          "name": "currentOwner",
          "type": "address"
        },
        {
          "name": "manufacturerId",
          "type": "address"
        },
        {
          "name": "price",
          "type": "uint256"
        },
        {
          "name": "totalTax",
          "type": "uint256"
        },
        {
          "name": "lastPaidTax",
          "type": "uint256"
        },
        {
          "name": "numberOfTaxUpdate",
          "type": "uint256"
        }
      ],
      "payable": false,
      "stateMutability": "view",
      "type": "function"
    },
    {
      "constant": false,
      "inputs": [
        {
          "name": "account",
          "type": "address"
        }
      ],
      "name": "addPauser",
      "outputs": [],
      "payable": false,
      "stateMutability": "nonpayable",
      "type": "function"
    },
    {
      "constant": false,
      "inputs": [],
      "name": "pause",
      "outputs": [],
      "payable": false,
      "stateMutability": "nonpayable",
      "type": "function"
    },
    {
      "constant": false,
      "inputs": [],
      "name": "renounceMeFromManufacturer",
      "outputs": [],
      "payable": false,
      "stateMutability": "nonpayable",
      "type": "function"
    },
    {
      "constant": true,
      "inputs": [],
      "name": "taxCollector",
      "outputs": [
        {
          "name": "",
          "type": "address"
        }
      ],
      "payable": false,
      "stateMutability": "view",
      "type": "function"
    },
    {
      "constant": true,
      "inputs": [],
      "name": "amIBuyer",
      "outputs": [
        {
          "name": "",
          "type": "bool"
        }
      ],
      "payable": false,
      "stateMutability": "view",
      "type": "function"
    },
    {
      "constant": true,
      "inputs": [],
      "name": "whoAmI",
      "outputs": [
        {
          "name": "Buyer",
          "type": "bool"
        },
        {
          "name": "manufacturer",
          "type": "bool"
        }
      ],
      "payable": false,
      "stateMutability": "view",
      "type": "function"
    },
    {
      "constant": true,
      "inputs": [],
      "name": "amIManufacturer",
      "outputs": [
        {
          "name": "",
          "type": "bool"
        }
      ],
      "payable": false,
      "stateMutability": "view",
      "type": "function"
    },
    {
      "constant": false,
      "inputs": [
        {
          "name": "_pID",
          "type": "uint256"
        },
        {
          "name": "newPrice",
          "type": "uint256"
        }
      ],
      "name": "setNewPrice",
      "outputs": [],
      "payable": false,
      "stateMutability": "nonpayable",
      "type": "function"
    },
    {
      "inputs": [],
      "payable": false,
      "stateMutability": "nonpayable",
      "type": "constructor"
    },
    {
      "anonymous": false,
      "inputs": [
        {
          "indexed": false,
          "name": "pID",
          "type": "uint256"
        }
      ],
      "name": "Manufactured",
      "type": "event"
    },
    {
      "anonymous": false,
      "inputs": [
        {
          "indexed": false,
          "name": "pID",
          "type": "uint256"
        }
      ],
      "name": "taxUpdated",
      "type": "event"
    },
    {
      "anonymous": false,
      "inputs": [
        {
          "indexed": false,
          "name": "pID",
          "type": "uint256"
        }
      ],
      "name": "Purchased",
      "type": "event"
    },
    {
      "anonymous": false,
      "inputs": [
        {
          "indexed": false,
          "name": "account",
          "type": "address"
        }
      ],
      "name": "Paused",
      "type": "event"
    },
    {
      "anonymous": false,
      "inputs": [
        {
          "indexed": false,
          "name": "account",
          "type": "address"
        }
      ],
      "name": "Unpaused",
      "type": "event"
    },
    {
      "anonymous": false,
      "inputs": [
        {
          "indexed": true,
          "name": "account",
          "type": "address"
        }
      ],
      "name": "PauserAdded",
      "type": "event"
    },
    {
      "anonymous": false,
      "inputs": [
        {
          "indexed": true,
          "name": "account",
          "type": "address"
        }
      ],
      "name": "PauserRemoved",
      "type": "event"
    },
    {
      "anonymous": false,
      "inputs": [
        {
          "indexed": true,
          "name": "account",
          "type": "address"
        }
      ],
      "name": "ManufacturerAdded",
      "type": "event"
    },
    {
      "anonymous": false,
      "inputs": [
        {
          "indexed": true,
          "name": "account",
          "type": "address"
        }
      ],
      "name": "ManufacturerRemoved",
      "type": "event"
    },
    {
      "anonymous": false,
      "inputs": [
        {
          "indexed": true,
          "name": "account",
          "type": "address"
        }
      ],
      "name": "BuyerAdded",
      "type": "event"
    },
    {
      "anonymous": false,
      "inputs": [
        {
          "indexed": true,
          "name": "account",
          "type": "address"
        }
      ],
      "name": "BuyerRemoved",
      "type": "event"
    },
    {
      "constant": false,
      "inputs": [
        {
          "name": "_price",
          "type": "uint256"
        },
        {
          "name": "_tax",
          "type": "uint256"
        },
        {
          "name": "_name",
          "type": "string"
        }
      ],
      "name": "manufacturProductsLoud",
      "outputs": [],
      "payable": false,
      "stateMutability": "nonpayable",
      "type": "function"
    },
    {
      "constant": false,
      "inputs": [
        {
          "name": "_pID",
          "type": "uint256"
        },
        {
          "name": "_paidTax",
          "type": "uint256"
        }
      ],
      "name": "updateTaxHistory",
      "outputs": [],
      "payable": false,
      "stateMutability": "nonpayable",
      "type": "function"
    },
    {
      "constant": false,
      "inputs": [
        {
          "name": "_pID",
          "type": "uint256"
        }
      ],
      "name": "purchaseProduct",
      "outputs": [],
      "payable": true,
      "stateMutability": "payable",
      "type": "function"
    }
  ],
  "bytecode": "0x60806040527314c2f828c13781b60e35d8dc3990dceb3cfbb704600660006101000a81548173ffffffffffffffffffffffffffffffffffffffff021916908373ffffffffffffffffffffffffffffffffffffffff1602179055503480156200006657600080fd5b506200007833620000d260201b60201c565b62000089336200013360201b60201c565b620000a96200009d6200019460201b60201c565b6200019c60201b60201c565b6000600360006101000a81548160ff0219169083151502179055506000600481905550620003c1565b620000ed816000620001fd60201b62001e0a1790919060201c565b8073ffffffffffffffffffffffffffffffffffffffff167f6599d9dd7f97ccdc3d99ab507544f9f6ebfca20c63a7e3c018da49eeaefb164a60405160405180910390a250565b6200014e816001620001fd60201b62001e0a1790919060201c565b8073ffffffffffffffffffffffffffffffffffffffff167f561138658ca49a8540dc70dcfe64c9026c1c5b9344642242dd6562970f9c127860405160405180910390a250565b600033905090565b620001b7816002620001fd60201b62001e0a1790919060201c565b8073ffffffffffffffffffffffffffffffffffffffff167f6719d08c1888103bea251a4ed56406bd0c3e69723c8a1686e017e7bbe159b6f860405160405180910390a250565b6200020f8282620002e160201b60201c565b1562000283576040517f08c379a000000000000000000000000000000000000000000000000000000000815260040180806020018281038252601f8152602001807f526f6c65733a206163636f756e7420616c72656164792068617320726f6c650081525060200191505060405180910390fd5b60018260000160008373ffffffffffffffffffffffffffffffffffffffff1673ffffffffffffffffffffffffffffffffffffffff16815260200190815260200160002060006101000a81548160ff0219169083151502179055505050565b60008073ffffffffffffffffffffffffffffffffffffffff168273ffffffffffffffffffffffffffffffffffffffff1614156200036a576040517f08c379a0000000000000000000000000000000000000000000000000000000008152600401808060200182810382526022815260200180620024ac6022913960400191505060405180910390fd5b8260000160008373ffffffffffffffffffffffffffffffffffffffff1673ffffffffffffffffffffffffffffffffffffffff16815260200190815260200160002060009054906101000a900460ff16905092915050565b6120db80620003d16000396000f3fe6080604052600436106101355760003560e01c80637ace31ef116100ab578063bea1dcf81161006f578063bea1dcf8146106b5578063c40f1bdc1461070c578063d130cd641461073b578063da91254c14610817578063e1d6f86f14610851578063e23a60fe1461088057610135565b80637ace31ef146104b457806382dc1ec4146105f15780638456cb5914610642578063a40e210f14610659578063aa9903ee1461067057610135565b806338e76a03116100fd57806338e76a03146103a95780633f4ba83a146103d757806346fbf68e146103ee57806348c149bd146104575780635c975abb1461046e5780636ef8d66d1461049d57610135565b806307e3c3031461013a57806317d4a491146101515780632a55feec146101ba5780632c7cef2e1461022357806335db95e514610392575b600080fd5b34801561014657600080fd5b5061014f6108c5565b005b34801561015d57600080fd5b506101a06004803603602081101561017457600080fd5b81019080803573ffffffffffffffffffffffffffffffffffffffff1690602001909291905050506108d0565b604051808215151515815260200191505060405180910390f35b3480156101c657600080fd5b50610209600480360360208110156101dd57600080fd5b81019080803573ffffffffffffffffffffffffffffffffffffffff1690602001909291905050506108ed565b604051808215151515815260200191505060405180910390f35b34801561022f57600080fd5b5061025c6004803603602081101561024657600080fd5b810190808035906020019092919050505061090a565b6040518086815260200180602001806020018060200180602001858103855289818151815260200191508051906020019060200280838360005b838110156102b1578082015181840152602081019050610296565b50505050905001858103845288818151815260200191508051906020019060200280838360005b838110156102f35780820151818401526020810190506102d8565b50505050905001858103835287818151815260200191508051906020019060200280838360005b8381101561033557808201518184015260208101905061031a565b50505050905001858103825286818151815260200191508051906020019060200280838360005b8381101561037757808201518184015260208101905061035c565b50505050905001995050505050505050505060405180910390f35b34801561039e57600080fd5b506103a7610b44565b005b6103d5600480360360208110156103bf57600080fd5b8101908080359060200190929190505050610b4f565b005b3480156103e357600080fd5b506103ec610e31565b005b3480156103fa57600080fd5b5061043d6004803603602081101561041157600080fd5b81019080803573ffffffffffffffffffffffffffffffffffffffff169060200190929190505050610f9f565b604051808215151515815260200191505060405180910390f35b34801561046357600080fd5b5061046c610fbc565b005b34801561047a57600080fd5b50610483610fc7565b604051808215151515815260200191505060405180910390f35b3480156104a957600080fd5b506104b2610fde565b005b3480156104c057600080fd5b506104ed600480360360208110156104d757600080fd5b8101908080359060200190929190505050610ff0565b60405180898152602001806020018873ffffffffffffffffffffffffffffffffffffffff1673ffffffffffffffffffffffffffffffffffffffff1681526020018773ffffffffffffffffffffffffffffffffffffffff1673ffffffffffffffffffffffffffffffffffffffff168152602001868152602001858152602001848152602001838152602001828103825289818151815260200191508051906020019080838360005b838110156105af578082015181840152602081019050610594565b50505050905090810190601f1680156105dc5780820380516001836020036101000a031916815260200191505b50995050505050505050505060405180910390f35b3480156105fd57600080fd5b506106406004803603602081101561061457600080fd5b81019080803573ffffffffffffffffffffffffffffffffffffffff1690602001909291905050506111d1565b005b34801561064e57600080fd5b50610657611242565b005b34801561066557600080fd5b5061066e6113b1565b005b34801561067c57600080fd5b506106b36004803603604081101561069357600080fd5b8101908080359060200190929190803590602001909291905050506113bc565b005b3480156106c157600080fd5b506106ca6113ca565b604051808273ffffffffffffffffffffffffffffffffffffffff1673ffffffffffffffffffffffffffffffffffffffff16815260200191505060405180910390f35b34801561071857600080fd5b506107216113f0565b604051808215151515815260200191505060405180910390f35b34801561074757600080fd5b506108156004803603606081101561075e57600080fd5b8101908080359060200190929190803590602001909291908035906020019064010000000081111561078f57600080fd5b8201836020820111156107a157600080fd5b803590602001918460018302840111640100000000831117156107c357600080fd5b91908080601f016020809104026020016040519081016040528093929190818152602001838380828437600081840152601f19601f82011690508083019250505050505050919291929050505061140b565b005b34801561082357600080fd5b5061082c61141b565b6040518083151515158152602001821515151581526020019250505060405180910390f35b34801561085d57600080fd5b50610866611436565b604051808215151515815260200191505060405180910390f35b34801561088c57600080fd5b506108c3600480360360408110156108a357600080fd5b810190808035906020019092919080359060200190929190505050611451565b005b6108ce3361155d565b565b60006108e68260016115b790919063ffffffff16565b9050919050565b60006109038260006115b790919063ffffffff16565b9050919050565b60006060806060808560006005600083815260200190815260200160002060060154141561093757600080fd5b6000600560008981526020019081526020016000209050806006015496506060876040519080825280602002602001820160405280156109865781602001602082028038833980820191505090505b5090506060886040519080825280602002602001820160405280156109ba5781602001602082028038833980820191505090505b5090506060896040519080825280602002602001820160405280156109ee5781602001602082028038833980820191505090505b50905060608a604051908082528060200260200182016040528015610a225781602001602082028038833980820191505090505b50905060008090505b8560060154811015610b2057600086600501600083815260200190815260200160002090508060000154868381518110610a6157fe5b6020026020010181815250508060010154858381518110610a7e57fe5b6020026020010181815250508060020154848381518110610a9b57fe5b6020026020010181815250508060030160009054906101000a900473ffffffffffffffffffffffffffffffffffffffff16838381518110610ad857fe5b602002602001019073ffffffffffffffffffffffffffffffffffffffff16908173ffffffffffffffffffffffffffffffffffffffff1681525050508080600101915050610a2b565b5083838383809a50819b50829c50839d505050505050505050505091939590929450565b610b4d33611695565b565b600360009054906101000a900460ff1615610bd2576040517f08c379a00000000000000000000000000000000000000000000000000000000081526004018080602001828103825260108152602001807f5061757361626c653a207061757365640000000000000000000000000000000081525060200191505060405180910390fd5b60006005600083815260200190815260200160002060040154905060006005600084815260200190815260200160002060020160019054906101000a900473ffffffffffffffffffffffffffffffffffffffff16905060006005600085815260200190815260200160002060050160006001600560008881526020019081526020016000206006015403815260200190815260200160002060010154905060008160646009860281610c8057fe5b0403905060646009850281610c9157fe5b048401341015610d09576040517f08c379a000000000000000000000000000000000000000000000000000000000815260040180806020018281038252600b8152602001807f4e6f7420456e6f7567682100000000000000000000000000000000000000000081525060200191505060405180910390fd5b600081838601013403905060008114610d64573373ffffffffffffffffffffffffffffffffffffffff166108fc829081150290604051600060405180830381858888f19350505050158015610d62573d6000803e3d6000fd5b505b610d6d866116ef565b610d7786836113bc565b8373ffffffffffffffffffffffffffffffffffffffff166108fc8487019081150290604051600060405180830381858888f19350505050158015610dbf573d6000803e3d6000fd5b50600660009054906101000a900473ffffffffffffffffffffffffffffffffffffffff1673ffffffffffffffffffffffffffffffffffffffff166108fc839081150290604051600060405180830381858888f19350505050158015610e28573d6000803e3d6000fd5b50505050505050565b610e41610e3c6117dc565b610f9f565b610e96576040517f08c379a000000000000000000000000000000000000000000000000000000000815260040180806020018281038252603081526020018061203d6030913960400191505060405180910390fd5b600360009054906101000a900460ff16610f18576040517f08c379a00000000000000000000000000000000000000000000000000000000081526004018080602001828103825260148152602001807f5061757361626c653a206e6f742070617573656400000000000000000000000081525060200191505060405180910390fd5b6000600360006101000a81548160ff0219169083151502179055507f5db9ee0a495bf2e6ff9c91a7834c1ba4fdd244a5e8aa4e537bd38aeae4b073aa610f5c6117dc565b604051808273ffffffffffffffffffffffffffffffffffffffff1673ffffffffffffffffffffffffffffffffffffffff16815260200191505060405180910390a1565b6000610fb58260026115b790919063ffffffff16565b9050919050565b610fc5336117e4565b565b6000600360009054906101000a900460ff16905090565b610fee610fe96117dc565b61183e565b565b600060606000806000806000806000891415611074576040517f08c379a000000000000000000000000000000000000000000000000000000000815260040180806020018281038252601a8152602001807f476976656e20704944204e6f742043726561746564205965742100000000000081525060200191505060405180910390fd5b6000600560008b81526020019081526020016000209050899850806000018054600181600116156101000203166002900480601f0160208091040260200160405190810160405280929190818152602001828054600181600116156101000203166002900480156111265780601f106110fb57610100808354040283529160200191611126565b820191906000526020600020905b81548152906001019060200180831161110957829003601f168201915b505050505097508060020160019054906101000a900473ffffffffffffffffffffffffffffffffffffffff1696508060030160009054906101000a900473ffffffffffffffffffffffffffffffffffffffff169550806004015494508060060154915080600501600060018403815260200190815260200160002060020154935080600501600060018403815260200190815260200160002060010154925050919395975091939597565b6111e16111dc6117dc565b610f9f565b611236576040517f08c379a000000000000000000000000000000000000000000000000000000000815260040180806020018281038252603081526020018061203d6030913960400191505060405180910390fd5b61123f81611898565b50565b61125261124d6117dc565b610f9f565b6112a7576040517f08c379a000000000000000000000000000000000000000000000000000000000815260040180806020018281038252603081526020018061203d6030913960400191505060405180910390fd5b600360009054906101000a900460ff161561132a576040517f08c379a00000000000000000000000000000000000000000000000000000000081526004018080602001828103825260108152602001807f5061757361626c653a207061757365640000000000000000000000000000000081525060200191505060405180910390fd5b6001600360006101000a81548160ff0219169083151502179055507f62e78cea01bee320cd4e420270b5ea74000d11b0c9f74754ebdbfc544b05a25861136e6117dc565b604051808273ffffffffffffffffffffffffffffffffffffffff1673ffffffffffffffffffffffffffffffffffffffff16815260200191505060405180910390a1565b6113ba336118f2565b565b6113c6828261194c565b5050565b600660009054906101000a900473ffffffffffffffffffffffffffffffffffffffff1681565b60006114063360006115b790919063ffffffff16565b905090565b611416838383611b26565b505050565b6000806114266113f0565b9150611430611436565b90509091565b600061144c3360016115b790919063ffffffff16565b905090565b8160003373ffffffffffffffffffffffffffffffffffffffff166005600084815260200190815260200160002060020160019054906101000a900473ffffffffffffffffffffffffffffffffffffffff1673ffffffffffffffffffffffffffffffffffffffff16149050806114c557600080fd5b600084141561153c576040517f08c379a000000000000000000000000000000000000000000000000000000000815260040180806020018281038252601a8152602001807f476976656e20704944204e6f742043726561746564205965742100000000000081525060200191505060405180910390fd5b82600560008681526020019081526020016000206004018190555050505050565b611571816000611d4d90919063ffffffff16565b8073ffffffffffffffffffffffffffffffffffffffff167f83fd4cbc7bc934bdfbae994ac6e72fcc0e50abd6995c1949520e761ba650d58260405160405180910390a250565b60008073ffffffffffffffffffffffffffffffffffffffff168273ffffffffffffffffffffffffffffffffffffffff16141561163e576040517f08c379a000000000000000000000000000000000000000000000000000000000815260040180806020018281038252602281526020018061208e6022913960400191505060405180910390fd5b8260000160008373ffffffffffffffffffffffffffffffffffffffff1673ffffffffffffffffffffffffffffffffffffffff16815260200190815260200160002060009054906101000a900460ff16905092915050565b6116a9816000611e0a90919063ffffffff16565b8073ffffffffffffffffffffffffffffffffffffffff167f6599d9dd7f97ccdc3d99ab507544f9f6ebfca20c63a7e3c018da49eeaefb164a60405160405180910390a250565b8060006005600083815260200190815260200160002060060154141561171457600080fd5b60016005600084815260200190815260200160002060020160006101000a81548160ff0219169083600181111561174757fe5b0217905550336005600084815260200190815260200160002060020160016101000a81548173ffffffffffffffffffffffffffffffffffffffff021916908373ffffffffffffffffffffffffffffffffffffffff1602179055507f653d56639fee6b566a5c804764e9689de38645f0b733df89a36a1b7b42173dd8826040518082815260200191505060405180910390a15050565b600033905090565b6117f8816001611e0a90919063ffffffff16565b8073ffffffffffffffffffffffffffffffffffffffff167f561138658ca49a8540dc70dcfe64c9026c1c5b9344642242dd6562970f9c127860405160405180910390a250565b611852816002611d4d90919063ffffffff16565b8073ffffffffffffffffffffffffffffffffffffffff167fcd265ebaf09df2871cc7bd4133404a235ba12eff2041bb89d9c714a2621c7c7e60405160405180910390a250565b6118ac816002611e0a90919063ffffffff16565b8073ffffffffffffffffffffffffffffffffffffffff167f6719d08c1888103bea251a4ed56406bd0c3e69723c8a1686e017e7bbe159b6f860405160405180910390a250565b611906816001611d4d90919063ffffffff16565b8073ffffffffffffffffffffffffffffffffffffffff167f2fed5abf6a80d6dfe30b4895481b2fc5d7dce5f8f7b931832f4a2947d5040c7f60405160405180910390a250565b60008060056000858152602001908152602001600020600601541415611974578190506119dc565b60006005600085815260200190815260200160002060060154146119db578160056000858152602001908152602001600020600501600060016005600088815260200190815260200160002060060154038152602001908152602001600020600201540190505b5b6119e4611ee5565b60405180608001604052804281526020018481526020018381526020013373ffffffffffffffffffffffffffffffffffffffff168152509050806005600086815260200190815260200160002060050160006005600088815260200190815260200160002060060154815260200190815260200160002060008201518160000155602082015181600101556040820151816002015560608201518160030160006101000a81548173ffffffffffffffffffffffffffffffffffffffff021916908373ffffffffffffffffffffffffffffffffffffffff16021790555090505060056000858152602001908152602001600020600601600081548092919060010191905055507fe0abde12d5564a014f3a4a4468f87400e13c581a9847e1868181a29dcc31e222846040518082815260200191505060405180910390a150505050565b60006004600081546001019190508190559050611b41611f23565b81816020018181525050600081604001906001811115611b5d57fe5b90816001811115611b6a57fe5b8152505033816060019073ffffffffffffffffffffffffffffffffffffffff16908173ffffffffffffffffffffffffffffffffffffffff168152505033816080019073ffffffffffffffffffffffffffffffffffffffff16908173ffffffffffffffffffffffffffffffffffffffff168152505060008160c0018181525050848160a001818152505082816000018190525080600560008481526020019081526020016000206000820151816000019080519060200190611c2c929190611f97565b506020820151816001015560408201518160020160006101000a81548160ff02191690836001811115611c5b57fe5b021790555060608201518160020160016101000a81548173ffffffffffffffffffffffffffffffffffffffff021916908373ffffffffffffffffffffffffffffffffffffffff16021790555060808201518160030160006101000a81548173ffffffffffffffffffffffffffffffffffffffff021916908373ffffffffffffffffffffffffffffffffffffffff16021790555060a0820151816004015560c08201518160060155905050611d0f82856113bc565b7fd29d8a68ca7c8c74be5579719d445aabfe230ed6e6a83aff475a663500eb7609826040518082815260200191505060405180910390a15050505050565b611d5782826115b7565b611dac576040517f08c379a000000000000000000000000000000000000000000000000000000000815260040180806020018281038252602181526020018061206d6021913960400191505060405180910390fd5b60008260000160008373ffffffffffffffffffffffffffffffffffffffff1673ffffffffffffffffffffffffffffffffffffffff16815260200190815260200160002060006101000a81548160ff0219169083151502179055505050565b611e1482826115b7565b15611e87576040517f08c379a000000000000000000000000000000000000000000000000000000000815260040180806020018281038252601f8152602001807f526f6c65733a206163636f756e7420616c72656164792068617320726f6c650081525060200191505060405180910390fd5b60018260000160008373ffffffffffffffffffffffffffffffffffffffff1673ffffffffffffffffffffffffffffffffffffffff16815260200190815260200160002060006101000a81548160ff0219169083151502179055505050565b6040518060800160405280600081526020016000815260200160008152602001600073ffffffffffffffffffffffffffffffffffffffff1681525090565b6040518060e00160405280606081526020016000815260200160006001811115611f4957fe5b8152602001600073ffffffffffffffffffffffffffffffffffffffff168152602001600073ffffffffffffffffffffffffffffffffffffffff16815260200160008152602001600081525090565b828054600181600116156101000203166002900490600052602060002090601f016020900481019282601f10611fd857805160ff1916838001178555612006565b82800160010185558215612006579182015b82811115612005578251825591602001919060010190611fea565b5b5090506120139190612017565b5090565b61203991905b8082111561203557600081600090555060010161201d565b5090565b9056fe506175736572526f6c653a2063616c6c657220646f6573206e6f742068617665207468652050617573657220726f6c65526f6c65733a206163636f756e7420646f6573206e6f74206861766520726f6c65526f6c65733a206163636f756e7420697320746865207a65726f2061646472657373a165627a7a7230582085a780b97ea3bef2f24c7e51be8fbf09bc9d8b142c04e3a18b4f6365d65348ce0029526f6c65733a206163636f756e7420697320746865207a65726f2061646472657373",
  "source": "pragma solidity ^0.5.0;\r\n\r\n/// Import main chains contracts\r\nimport \"./Product.sol\";\r\n//import \"./ProductDesign.sol\";\r\n\r\n/// Import Main Roles contract `Rolable.sol`\r\nimport \"./AccessControl/Rolable.sol\";\r\n\r\n/// Import Pausable contract from OpenZeppelin library\r\nimport \"./openzeppelin/contracts/lifecycle/Pausable.sol\";\r\n\r\n/// @title Supply Chain Contract\r\ncontract SupplyChain is Rolable, Pausable, Product {\r\n    address payable public taxCollector = 0x14c2f828C13781b60e35d8Dc3990dcEb3cFbb704 ;//ACount3;\r\n    constructor() public {\r\n\r\n    }\r\n\r\n    function manufacturProductsLoud(uint _price, uint _tax, string memory _name)\r\n        public\r\n        //onlyManufacturer()\r\n    {\r\n        super.manufacturProductsLoud(_price, _tax, _name);\r\n    }\r\n    \r\n    function updateTaxHistory(uint _pID, uint _paidTax)\r\n        public\r\n        //onlyManufacturer()\r\n    {\r\n        super.updateTaxHistory( _pID, _paidTax);\r\n    }\r\n    \r\n\r\n    /// Function helps manufacturer to Pack a isManufactured Product Loud\r\n    function purchaseProduct (uint _pID)\r\n        public\r\n        payable\r\n        //onlyBuyer()\r\n        whenNotPaused()\r\n    {\r\n        uint price = pItems[_pID].price;\r\n        address payable sellerId = pItems[_pID].currentOwnerId;\r\n\r\n        //address payable retailerId = address(uint160(pItems[_pID].sellerId));\r\n        //uint retialerBounty = (price*5) /100;\r\n        uint lastTax = pItems[_pID].taxHistory[pItems[_pID].taxUpdateCounter-1].lastPaidTax ; \r\n        uint taxBounty = (price*9) /100 - lastTax ; \r\n\r\n        require(msg.value >= price+(price*9) /100, \"Not Enough!\");\r\n        uint amountToReturn = msg.value - (price + lastTax + taxBounty);\r\n        if (amountToReturn != 0)\r\n            address(msg.sender).transfer(amountToReturn);\r\n\r\n        super.purchaseProduct(_pID);\r\n        updateTaxHistory(_pID,taxBounty);\r\n        sellerId.transfer(price + lastTax);\r\n        taxCollector.transfer(taxBounty);\r\n    }\r\n\r\n}\r\n",
  "sourcePath": "E:\\document\\blockchain\\myprojects\\simplevat\\contracts\\SupplyChain.sol",
  "compiler": {
    "name": "solc",
    "version": "0.5.8+commit.23d335f2.Emscripten.clang"
  },
  "schemaVersion": "3.0.16",
  "updatedAt": "2019-09-28T09:14:28.785Z",
  "devdoc": {
    "methods": {
      "amIBuyer()": {
        "return": "boolean for caller address state in `_Buyers` Role"
      },
      "amIManufacturer()": {
        "return": "boolean for caller address state in `_manufacturers` Role"
      },
      "pause()": {
        "details": "Called by a pauser to pause, triggers stopped state."
      },
      "paused()": {
        "details": "Returns true if the contract is paused, and false otherwise."
      },
      "unpause()": {
        "details": "Called by a pauser to unpause, returns to normal state."
      },
      "whoAmI()": {
        "return": "array contining every role with its state as boolean"
      }
    },
    "title": "Supply Chain Contract"
  },
  "userdoc": {
    "methods": {
      "assignMeAsBuyer()": {
        "notice": "Function to assign caller `msg.sender` to Buyer role"
      },
      "assignMeAsManufacturer()": {
        "notice": "Function to assign caller `msg.sender` to manufacturer role"
      },
      "isBuyer(address)": {
        "notice": "uses'Roles' library's internal function `has()` to check, refer to library for more detail"
      },
      "isManufacturer(address)": {
        "notice": "uses'Roles' library's internal function `has()` to check, refer to library for more detail"
      },
      "purchaseProduct(uint256)": {
        "notice": "Function helps manufacturer to Pack a isManufactured Product Loud"
      },
      "renounceMeFromBuyer()": {
        "notice": "Function to renounce caller `msg.sender` from Buyer role"
      },
      "renounceMeFromManufacturer()": {
        "notice": "Function to renounce caller `msg.sender` from manufacturer role"
      }
    }
  }
}