{
  "contractName": "SupplyChain",
  "abi": [
    {
      "constant": false,
      "inputs": [],
      "name": "renounceMeFromBuyer",
      "outputs": [],
      "payable": false,
      "stateMutability": "nonpayable",
      "type": "function"
    },
    {
      "constant": true,
      "inputs": [
        {
          "name": "account",
          "type": "address"
        }
      ],
      "name": "isManufacturer",
      "outputs": [
        {
          "name": "",
          "type": "bool"
        }
      ],
      "payable": false,
      "stateMutability": "view",
      "type": "function"
    },
    {
      "constant": true,
      "inputs": [
        {
          "name": "account",
          "type": "address"
        }
      ],
      "name": "isBuyer",
      "outputs": [
        {
          "name": "",
          "type": "bool"
        }
      ],
      "payable": false,
      "stateMutability": "view",
      "type": "function"
    },
    {
      "constant": true,
      "inputs": [
        {
          "name": "_pID",
          "type": "uint256"
        }
      ],
      "name": "fetchtaxHistory",
      "outputs": [
        {
          "name": "numberOfupdate",
          "type": "uint256"
        },
        {
          "name": "timeStamps",
          "type": "uint256[]"
        },
        {
          "name": "lastPaidTax",
          "type": "uint256[]"
        },
        {
          "name": "totalTax",
          "type": "uint256[]"
        },
        {
          "name": "updaterAddresses",
          "type": "address[]"
        }
      ],
      "payable": false,
      "stateMutability": "view",
      "type": "function"
    },
    {
      "constant": false,
      "inputs": [],
      "name": "assignMeAsBuyer",
      "outputs": [],
      "payable": false,
      "stateMutability": "nonpayable",
      "type": "function"
    },
    {
      "constant": false,
      "inputs": [],
      "name": "unpause",
      "outputs": [],
      "payable": false,
      "stateMutability": "nonpayable",
      "type": "function"
    },
    {
      "constant": false,
      "inputs": [
        {
          "name": "_pID",
          "type": "uint256"
        }
      ],
      "name": "setCustomerRecieved",
      "outputs": [],
      "payable": false,
      "stateMutability": "nonpayable",
      "type": "function"
    },
    {
      "constant": true,
      "inputs": [
        {
          "name": "account",
          "type": "address"
        }
      ],
      "name": "isPauser",
      "outputs": [
        {
          "name": "",
          "type": "bool"
        }
      ],
      "payable": false,
      "stateMutability": "view",
      "type": "function"
    },
    {
      "constant": false,
      "inputs": [],
      "name": "assignMeAsManufacturer",
      "outputs": [],
      "payable": false,
      "stateMutability": "nonpayable",
      "type": "function"
    },
    {
      "constant": true,
      "inputs": [],
      "name": "paused",
      "outputs": [
        {
          "name": "",
          "type": "bool"
        }
      ],
      "payable": false,
      "stateMutability": "view",
      "type": "function"
    },
    {
      "constant": false,
      "inputs": [],
      "name": "renouncePauser",
      "outputs": [],
      "payable": false,
      "stateMutability": "nonpayable",
      "type": "function"
    },
    {
      "constant": true,
      "inputs": [
        {
          "name": "_pID",
          "type": "uint256"
        }
      ],
      "name": "fetchProductItemData",
      "outputs": [
        {
          "name": "pID",
          "type": "uint256"
        },
        {
          "name": "name",
          "type": "string"
        },
        {
          "name": "currentOwner",
          "type": "address"
        },
        {
          "name": "manufacturerId",
          "type": "address"
        },
        {
          "name": "price",
          "type": "uint256"
        },
        {
          "name": "totalTax",
          "type": "uint256"
        },
        {
          "name": "lastPaidTax",
          "type": "uint256"
        },
        {
          "name": "numberOfTaxUpdate",
          "type": "uint256"
        },
        {
          "name": "customerRecieved",
          "type": "bool"
        }
      ],
      "payable": false,
      "stateMutability": "view",
      "type": "function"
    },
    {
      "constant": false,
      "inputs": [
        {
          "name": "account",
          "type": "address"
        }
      ],
      "name": "addPauser",
      "outputs": [],
      "payable": false,
      "stateMutability": "nonpayable",
      "type": "function"
    },
    {
      "constant": false,
      "inputs": [],
      "name": "pause",
      "outputs": [],
      "payable": false,
      "stateMutability": "nonpayable",
      "type": "function"
    },
    {
      "constant": false,
      "inputs": [],
      "name": "renounceMeFromManufacturer",
      "outputs": [],
      "payable": false,
      "stateMutability": "nonpayable",
      "type": "function"
    },
    {
      "constant": true,
      "inputs": [],
      "name": "getLastPID",
      "outputs": [
        {
          "name": "",
          "type": "uint256"
        }
      ],
      "payable": false,
      "stateMutability": "view",
      "type": "function"
    },
    {
      "constant": true,
      "inputs": [
        {
          "name": "_pID",
          "type": "uint256"
        }
      ],
      "name": "getCustomerRecieved",
      "outputs": [
        {
          "name": "",
          "type": "bool"
        }
      ],
      "payable": false,
      "stateMutability": "view",
      "type": "function"
    },
    {
      "constant": true,
      "inputs": [],
      "name": "taxCollector",
      "outputs": [
        {
          "name": "",
          "type": "address"
        }
      ],
      "payable": false,
      "stateMutability": "view",
      "type": "function"
    },
    {
      "constant": true,
      "inputs": [],
      "name": "amIBuyer",
      "outputs": [
        {
          "name": "",
          "type": "bool"
        }
      ],
      "payable": false,
      "stateMutability": "view",
      "type": "function"
    },
    {
      "constant": true,
      "inputs": [],
      "name": "whoAmI",
      "outputs": [
        {
          "name": "Buyer",
          "type": "bool"
        },
        {
          "name": "manufacturer",
          "type": "bool"
        }
      ],
      "payable": false,
      "stateMutability": "view",
      "type": "function"
    },
    {
      "constant": true,
      "inputs": [],
      "name": "amIManufacturer",
      "outputs": [
        {
          "name": "",
          "type": "bool"
        }
      ],
      "payable": false,
      "stateMutability": "view",
      "type": "function"
    },
    {
      "constant": false,
      "inputs": [
        {
          "name": "_pID",
          "type": "uint256"
        },
        {
          "name": "newPrice",
          "type": "uint256"
        }
      ],
      "name": "setNewPrice",
      "outputs": [],
      "payable": false,
      "stateMutability": "nonpayable",
      "type": "function"
    },
    {
      "inputs": [],
      "payable": false,
      "stateMutability": "nonpayable",
      "type": "constructor"
    },
    {
      "anonymous": false,
      "inputs": [
        {
          "indexed": false,
          "name": "pID",
          "type": "uint256"
        }
      ],
      "name": "Manufactured",
      "type": "event"
    },
    {
      "anonymous": false,
      "inputs": [
        {
          "indexed": false,
          "name": "pID",
          "type": "uint256"
        }
      ],
      "name": "taxUpdated",
      "type": "event"
    },
    {
      "anonymous": false,
      "inputs": [
        {
          "indexed": false,
          "name": "pID",
          "type": "uint256"
        }
      ],
      "name": "Purchased",
      "type": "event"
    },
    {
      "anonymous": false,
      "inputs": [
        {
          "indexed": false,
          "name": "account",
          "type": "address"
        }
      ],
      "name": "Paused",
      "type": "event"
    },
    {
      "anonymous": false,
      "inputs": [
        {
          "indexed": false,
          "name": "account",
          "type": "address"
        }
      ],
      "name": "Unpaused",
      "type": "event"
    },
    {
      "anonymous": false,
      "inputs": [
        {
          "indexed": true,
          "name": "account",
          "type": "address"
        }
      ],
      "name": "PauserAdded",
      "type": "event"
    },
    {
      "anonymous": false,
      "inputs": [
        {
          "indexed": true,
          "name": "account",
          "type": "address"
        }
      ],
      "name": "PauserRemoved",
      "type": "event"
    },
    {
      "anonymous": false,
      "inputs": [
        {
          "indexed": true,
          "name": "account",
          "type": "address"
        }
      ],
      "name": "ManufacturerAdded",
      "type": "event"
    },
    {
      "anonymous": false,
      "inputs": [
        {
          "indexed": true,
          "name": "account",
          "type": "address"
        }
      ],
      "name": "ManufacturerRemoved",
      "type": "event"
    },
    {
      "anonymous": false,
      "inputs": [
        {
          "indexed": true,
          "name": "account",
          "type": "address"
        }
      ],
      "name": "BuyerAdded",
      "type": "event"
    },
    {
      "anonymous": false,
      "inputs": [
        {
          "indexed": true,
          "name": "account",
          "type": "address"
        }
      ],
      "name": "BuyerRemoved",
      "type": "event"
    },
    {
      "constant": false,
      "inputs": [
        {
          "name": "_price",
          "type": "uint256"
        },
        {
          "name": "_tax",
          "type": "uint256"
        },
        {
          "name": "_name",
          "type": "string"
        }
      ],
      "name": "manufacturProductsLoud",
      "outputs": [],
      "payable": false,
      "stateMutability": "nonpayable",
      "type": "function"
    },
    {
      "constant": false,
      "inputs": [
        {
          "name": "_pID",
          "type": "uint256"
        },
        {
          "name": "_paidTax",
          "type": "uint256"
        }
      ],
      "name": "updateTaxHistory",
      "outputs": [],
      "payable": false,
      "stateMutability": "nonpayable",
      "type": "function"
    },
    {
      "constant": false,
      "inputs": [
        {
          "name": "_pID",
          "type": "uint256"
        }
      ],
      "name": "purchaseProduct",
      "outputs": [],
      "payable": true,
      "stateMutability": "payable",
      "type": "function"
    }
  ],
  "bytecode": "0x6080604052600060055573ac9cef7d952a26b75777ab191213073cdb987adb600760006101000a81548173ffffffffffffffffffffffffffffffffffffffff021916908373ffffffffffffffffffffffffffffffffffffffff1602179055503480156200006b57600080fd5b506200007d33620000d760201b60201c565b6200008e336200013860201b60201c565b620000ae620000a26200019960201b60201c565b620001a160201b60201c565b6000600360006101000a81548160ff0219169083151502179055506000600481905550620003c6565b620000f28160006200020260201b6200215c1790919060201c565b8073ffffffffffffffffffffffffffffffffffffffff167f6599d9dd7f97ccdc3d99ab507544f9f6ebfca20c63a7e3c018da49eeaefb164a60405160405180910390a250565b620001538160016200020260201b6200215c1790919060201c565b8073ffffffffffffffffffffffffffffffffffffffff167f561138658ca49a8540dc70dcfe64c9026c1c5b9344642242dd6562970f9c127860405160405180910390a250565b600033905090565b620001bc8160026200020260201b6200215c1790919060201c565b8073ffffffffffffffffffffffffffffffffffffffff167f6719d08c1888103bea251a4ed56406bd0c3e69723c8a1686e017e7bbe159b6f860405160405180910390a250565b620002148282620002e660201b60201c565b1562000288576040517f08c379a000000000000000000000000000000000000000000000000000000000815260040180806020018281038252601f8152602001807f526f6c65733a206163636f756e7420616c72656164792068617320726f6c650081525060200191505060405180910390fd5b60018260000160008373ffffffffffffffffffffffffffffffffffffffff1673ffffffffffffffffffffffffffffffffffffffff16815260200190815260200160002060006101000a81548160ff0219169083151502179055505050565b60008073ffffffffffffffffffffffffffffffffffffffff168273ffffffffffffffffffffffffffffffffffffffff1614156200036f576040517f08c379a00000000000000000000000000000000000000000000000000000000081526004018080602001828103825260228152602001806200280d6022913960400191505060405180910390fd5b8260000160008373ffffffffffffffffffffffffffffffffffffffff1673ffffffffffffffffffffffffffffffffffffffff16815260200190815260200160002060009054906101000a900460ff16905092915050565b61243780620003d66000396000f3fe6080604052600436106101665760003560e01c80637ace31ef116100d1578063b3bf8d3e1161008a578063d130cd6411610064578063d130cd6414610830578063da91254c1461090c578063e1d6f86f14610946578063e23a60fe1461097557610166565b8063b3bf8d3e14610757578063bea1dcf8146107aa578063c40f1bdc1461080157610166565b80637ace31ef1461052057806382dc1ec4146106685780638456cb59146106b9578063a40e210f146106d0578063aa9903ee146106e7578063ac2f03e01461072c57610166565b80633f4ba83a116101235780633f4ba83a14610408578063449094f31461041f57806346fbf68e1461045a57806348c149bd146104c35780635c975abb146104da5780636ef8d66d1461050957610166565b806307e3c3031461016b57806317d4a491146101825780632a55feec146101eb5780632c7cef2e1461025457806335db95e5146103c357806338e76a03146103da575b600080fd5b34801561017757600080fd5b506101806109ba565b005b34801561018e57600080fd5b506101d1600480360360208110156101a557600080fd5b81019080803573ffffffffffffffffffffffffffffffffffffffff1690602001909291905050506109c5565b604051808215151515815260200191505060405180910390f35b3480156101f757600080fd5b5061023a6004803603602081101561020e57600080fd5b81019080803573ffffffffffffffffffffffffffffffffffffffff1690602001909291905050506109e2565b604051808215151515815260200191505060405180910390f35b34801561026057600080fd5b5061028d6004803603602081101561027757600080fd5b81019080803590602001909291905050506109ff565b6040518086815260200180602001806020018060200180602001858103855289818151815260200191508051906020019060200280838360005b838110156102e25780820151818401526020810190506102c7565b50505050905001858103845288818151815260200191508051906020019060200280838360005b83811015610324578082015181840152602081019050610309565b50505050905001858103835287818151815260200191508051906020019060200280838360005b8381101561036657808201518184015260208101905061034b565b50505050905001858103825286818151815260200191508051906020019060200280838360005b838110156103a857808201518184015260208101905061038d565b50505050905001995050505050505050505060405180910390f35b3480156103cf57600080fd5b506103d8610c39565b005b610406600480360360208110156103f057600080fd5b8101908080359060200190929190505050610c44565b005b34801561041457600080fd5b5061041d610f26565b005b34801561042b57600080fd5b506104586004803603602081101561044257600080fd5b8101908080359060200190929190505050611094565b005b34801561046657600080fd5b506104a96004803603602081101561047d57600080fd5b81019080803573ffffffffffffffffffffffffffffffffffffffff1690602001909291905050506111b3565b604051808215151515815260200191505060405180910390f35b3480156104cf57600080fd5b506104d86111d0565b005b3480156104e657600080fd5b506104ef6111db565b604051808215151515815260200191505060405180910390f35b34801561051557600080fd5b5061051e6111f2565b005b34801561052c57600080fd5b506105596004803603602081101561054357600080fd5b8101908080359060200190929190505050611204565b604051808a8152602001806020018973ffffffffffffffffffffffffffffffffffffffff1673ffffffffffffffffffffffffffffffffffffffff1681526020018873ffffffffffffffffffffffffffffffffffffffff1673ffffffffffffffffffffffffffffffffffffffff1681526020018781526020018681526020018581526020018481526020018315151515815260200182810382528a818151815260200191508051906020019080838360005b8381101561062557808201518184015260208101905061060a565b50505050905090810190601f1680156106525780820380516001836020036101000a031916815260200191505b509a505050505050505050505060405180910390f35b34801561067457600080fd5b506106b76004803603602081101561068b57600080fd5b81019080803573ffffffffffffffffffffffffffffffffffffffff1690602001909291905050506113fc565b005b3480156106c557600080fd5b506106ce61146d565b005b3480156106dc57600080fd5b506106e56115dc565b005b3480156106f357600080fd5b5061072a6004803603604081101561070a57600080fd5b8101908080359060200190929190803590602001909291905050506115e7565b005b34801561073857600080fd5b506107416115f5565b6040518082815260200191505060405180910390f35b34801561076357600080fd5b506107906004803603602081101561077a57600080fd5b81019080803590602001909291905050506115ff565b604051808215151515815260200191505060405180910390f35b3480156107b657600080fd5b506107bf6116a2565b604051808273ffffffffffffffffffffffffffffffffffffffff1673ffffffffffffffffffffffffffffffffffffffff16815260200191505060405180910390f35b34801561080d57600080fd5b506108166116c8565b604051808215151515815260200191505060405180910390f35b34801561083c57600080fd5b5061090a6004803603606081101561085357600080fd5b8101908080359060200190929190803590602001909291908035906020019064010000000081111561088457600080fd5b82018360208201111561089657600080fd5b803590602001918460018302840111640100000000831117156108b857600080fd5b91908080601f016020809104026020016040519081016040528093929190818152602001838380828437600081840152601f19601f8201169050808301925050505050505091929192905050506116e3565b005b34801561091857600080fd5b506109216116f3565b6040518083151515158152602001821515151581526020019250505060405180910390f35b34801561095257600080fd5b5061095b61170e565b604051808215151515815260200191505060405180910390f35b34801561098157600080fd5b506109b86004803603604081101561099857600080fd5b810190808035906020019092919080359060200190929190505050611729565b005b6109c333611835565b565b60006109db82600161188f90919063ffffffff16565b9050919050565b60006109f882600061188f90919063ffffffff16565b9050919050565b600060608060608085600060066000838152602001908152602001600020600601541415610a2c57600080fd5b600060066000898152602001908152602001600020905080600601549650606087604051908082528060200260200182016040528015610a7b5781602001602082028038833980820191505090505b509050606088604051908082528060200260200182016040528015610aaf5781602001602082028038833980820191505090505b509050606089604051908082528060200260200182016040528015610ae35781602001602082028038833980820191505090505b50905060608a604051908082528060200260200182016040528015610b175781602001602082028038833980820191505090505b50905060008090505b8560060154811015610c1557600086600501600083815260200190815260200160002090508060000154868381518110610b5657fe5b6020026020010181815250508060010154858381518110610b7357fe5b6020026020010181815250508060020154848381518110610b9057fe5b6020026020010181815250508060030160009054906101000a900473ffffffffffffffffffffffffffffffffffffffff16838381518110610bcd57fe5b602002602001019073ffffffffffffffffffffffffffffffffffffffff16908173ffffffffffffffffffffffffffffffffffffffff1681525050508080600101915050610b20565b5083838383809a50819b50829c50839d505050505050505050505091939590929450565b610c423361196d565b565b600360009054906101000a900460ff1615610cc7576040517f08c379a00000000000000000000000000000000000000000000000000000000081526004018080602001828103825260108152602001807f5061757361626c653a207061757365640000000000000000000000000000000081525060200191505060405180910390fd5b60006006600083815260200190815260200160002060040154905060006006600084815260200190815260200160002060020160019054906101000a900473ffffffffffffffffffffffffffffffffffffffff16905060006006600085815260200190815260200160002060050160006001600660008881526020019081526020016000206006015403815260200190815260200160002060010154905060008160646009860281610d7557fe5b0403905060646009850281610d8657fe5b048401341015610dfe576040517f08c379a000000000000000000000000000000000000000000000000000000000815260040180806020018281038252600b8152602001807f4e6f7420456e6f7567682100000000000000000000000000000000000000000081525060200191505060405180910390fd5b600081838601013403905060008114610e59573373ffffffffffffffffffffffffffffffffffffffff166108fc829081150290604051600060405180830381858888f19350505050158015610e57573d6000803e3d6000fd5b505b610e62866119c7565b610e6c86836115e7565b8373ffffffffffffffffffffffffffffffffffffffff166108fc8487019081150290604051600060405180830381858888f19350505050158015610eb4573d6000803e3d6000fd5b50600760009054906101000a900473ffffffffffffffffffffffffffffffffffffffff1673ffffffffffffffffffffffffffffffffffffffff166108fc839081150290604051600060405180830381858888f19350505050158015610f1d573d6000803e3d6000fd5b50505050505050565b610f36610f31611aeb565b6111b3565b610f8b576040517f08c379a00000000000000000000000000000000000000000000000000000000081526004018080602001828103825260308152602001806123996030913960400191505060405180910390fd5b600360009054906101000a900460ff1661100d576040517f08c379a00000000000000000000000000000000000000000000000000000000081526004018080602001828103825260148152602001807f5061757361626c653a206e6f742070617573656400000000000000000000000081525060200191505060405180910390fd5b6000600360006101000a81548160ff0219169083151502179055507f5db9ee0a495bf2e6ff9c91a7834c1ba4fdd244a5e8aa4e537bd38aeae4b073aa611051611aeb565b604051808273ffffffffffffffffffffffffffffffffffffffff1673ffffffffffffffffffffffffffffffffffffffff16815260200191505060405180910390a1565b8060003373ffffffffffffffffffffffffffffffffffffffff166006600084815260200190815260200160002060020160019054906101000a900473ffffffffffffffffffffffffffffffffffffffff1673ffffffffffffffffffffffffffffffffffffffff161490508061110857600080fd5b600083141561117f576040517f08c379a000000000000000000000000000000000000000000000000000000000815260040180806020018281038252601a8152602001807f476976656e20704944204e6f742043726561746564205965742100000000000081525060200191505060405180910390fd5b60016006600085815260200190815260200160002060070160006101000a81548160ff021916908315150217905550505050565b60006111c982600261188f90919063ffffffff16565b9050919050565b6111d933611af3565b565b6000600360009054906101000a900460ff16905090565b6112026111fd611aeb565b611b4d565b565b600060606000806000806000806000808a1415611289576040517f08c379a000000000000000000000000000000000000000000000000000000000815260040180806020018281038252601a8152602001807f476976656e20704944204e6f742043726561746564205965742100000000000081525060200191505060405180910390fd5b6000600660008c815260200190815260200160002090508a9950806000018054600181600116156101000203166002900480601f01602080910402602001604051908101604052809291908181526020018280546001816001161561010002031660029004801561133b5780601f106113105761010080835404028352916020019161133b565b820191906000526020600020905b81548152906001019060200180831161131e57829003601f168201915b505050505098508060020160019054906101000a900473ffffffffffffffffffffffffffffffffffffffff1697508060030160009054906101000a900473ffffffffffffffffffffffffffffffffffffffff16965080600401549550806006015492508060050160006001850381526020019081526020016000206002015494508060050160006001850381526020019081526020016000206001015493508060070160009054906101000a900460ff169150509193959799909294969850565b61140c611407611aeb565b6111b3565b611461576040517f08c379a00000000000000000000000000000000000000000000000000000000081526004018080602001828103825260308152602001806123996030913960400191505060405180910390fd5b61146a81611ba7565b50565b61147d611478611aeb565b6111b3565b6114d2576040517f08c379a00000000000000000000000000000000000000000000000000000000081526004018080602001828103825260308152602001806123996030913960400191505060405180910390fd5b600360009054906101000a900460ff1615611555576040517f08c379a00000000000000000000000000000000000000000000000000000000081526004018080602001828103825260108152602001807f5061757361626c653a207061757365640000000000000000000000000000000081525060200191505060405180910390fd5b6001600360006101000a81548160ff0219169083151502179055507f62e78cea01bee320cd4e420270b5ea74000d11b0c9f74754ebdbfc544b05a258611599611aeb565b604051808273ffffffffffffffffffffffffffffffffffffffff1673ffffffffffffffffffffffffffffffffffffffff16815260200191505060405180910390a1565b6115e533611c01565b565b6115f18282611c5b565b5050565b6000600554905090565b600080821415611677576040517f08c379a000000000000000000000000000000000000000000000000000000000815260040180806020018281038252601a8152602001807f476976656e20704944204e6f742043726561746564205965742100000000000081525060200191505060405180910390fd5b6006600083815260200190815260200160002060070160009054906101000a900460ff169050919050565b600760009054906101000a900473ffffffffffffffffffffffffffffffffffffffff1681565b60006116de33600061188f90919063ffffffff16565b905090565b6116ee838383611e35565b505050565b6000806116fe6116c8565b915061170861170e565b90509091565b600061172433600161188f90919063ffffffff16565b905090565b8160003373ffffffffffffffffffffffffffffffffffffffff166006600084815260200190815260200160002060020160019054906101000a900473ffffffffffffffffffffffffffffffffffffffff1673ffffffffffffffffffffffffffffffffffffffff161490508061179d57600080fd5b6000841415611814576040517f08c379a000000000000000000000000000000000000000000000000000000000815260040180806020018281038252601a8152602001807f476976656e20704944204e6f742043726561746564205965742100000000000081525060200191505060405180910390fd5b82600660008681526020019081526020016000206004018190555050505050565b61184981600061209f90919063ffffffff16565b8073ffffffffffffffffffffffffffffffffffffffff167f83fd4cbc7bc934bdfbae994ac6e72fcc0e50abd6995c1949520e761ba650d58260405160405180910390a250565b60008073ffffffffffffffffffffffffffffffffffffffff168273ffffffffffffffffffffffffffffffffffffffff161415611916576040517f08c379a00000000000000000000000000000000000000000000000000000000081526004018080602001828103825260228152602001806123ea6022913960400191505060405180910390fd5b8260000160008373ffffffffffffffffffffffffffffffffffffffff1673ffffffffffffffffffffffffffffffffffffffff16815260200190815260200160002060009054906101000a900460ff16905092915050565b61198181600061215c90919063ffffffff16565b8073ffffffffffffffffffffffffffffffffffffffff167f6599d9dd7f97ccdc3d99ab507544f9f6ebfca20c63a7e3c018da49eeaefb164a60405160405180910390a250565b806000600660008381526020019081526020016000206006015414156119ec57600080fd5b81600115156006600083815260200190815260200160002060070160009054906101000a900460ff1615151415611a2257600080fd5b60016006600085815260200190815260200160002060020160006101000a81548160ff02191690836001811115611a5557fe5b0217905550336006600085815260200190815260200160002060020160016101000a81548173ffffffffffffffffffffffffffffffffffffffff021916908373ffffffffffffffffffffffffffffffffffffffff1602179055507f653d56639fee6b566a5c804764e9689de38645f0b733df89a36a1b7b42173dd8836040518082815260200191505060405180910390a1505050565b600033905090565b611b0781600161215c90919063ffffffff16565b8073ffffffffffffffffffffffffffffffffffffffff167f561138658ca49a8540dc70dcfe64c9026c1c5b9344642242dd6562970f9c127860405160405180910390a250565b611b6181600261209f90919063ffffffff16565b8073ffffffffffffffffffffffffffffffffffffffff167fcd265ebaf09df2871cc7bd4133404a235ba12eff2041bb89d9c714a2621c7c7e60405160405180910390a250565b611bbb81600261215c90919063ffffffff16565b8073ffffffffffffffffffffffffffffffffffffffff167f6719d08c1888103bea251a4ed56406bd0c3e69723c8a1686e017e7bbe159b6f860405160405180910390a250565b611c1581600161209f90919063ffffffff16565b8073ffffffffffffffffffffffffffffffffffffffff167f2fed5abf6a80d6dfe30b4895481b2fc5d7dce5f8f7b931832f4a2947d5040c7f60405160405180910390a250565b60008060066000858152602001908152602001600020600601541415611c8357819050611ceb565b6000600660008581526020019081526020016000206006015414611cea578160066000858152602001908152602001600020600501600060016006600088815260200190815260200160002060060154038152602001908152602001600020600201540190505b5b611cf3612237565b60405180608001604052804281526020018481526020018381526020013373ffffffffffffffffffffffffffffffffffffffff168152509050806006600086815260200190815260200160002060050160006006600088815260200190815260200160002060060154815260200190815260200160002060008201518160000155602082015181600101556040820151816002015560608201518160030160006101000a81548173ffffffffffffffffffffffffffffffffffffffff021916908373ffffffffffffffffffffffffffffffffffffffff16021790555090505060066000858152602001908152602001600020600601600081548092919060010191905055507fe0abde12d5564a014f3a4a4468f87400e13c581a9847e1868181a29dcc31e222846040518082815260200191505060405180910390a150505050565b60006004600081546001019190508190559050611e50612275565b81816020018181525050600081604001906001811115611e6c57fe5b90816001811115611e7957fe5b8152505033816060019073ffffffffffffffffffffffffffffffffffffffff16908173ffffffffffffffffffffffffffffffffffffffff168152505033816080019073ffffffffffffffffffffffffffffffffffffffff16908173ffffffffffffffffffffffffffffffffffffffff168152505060008160c0018181525050848160a001818152505082816000018190525060008160e001901515908115158152505080600660008481526020019081526020016000206000820151816000019080519060200190611f4c9291906122f3565b506020820151816001015560408201518160020160006101000a81548160ff02191690836001811115611f7b57fe5b021790555060608201518160020160016101000a81548173ffffffffffffffffffffffffffffffffffffffff021916908373ffffffffffffffffffffffffffffffffffffffff16021790555060808201518160030160006101000a81548173ffffffffffffffffffffffffffffffffffffffff021916908373ffffffffffffffffffffffffffffffffffffffff16021790555060a0820151816004015560c0820151816006015560e08201518160070160006101000a81548160ff02191690831515021790555090505061204f82856115e7565b6005600081548092919060010191905055507fd29d8a68ca7c8c74be5579719d445aabfe230ed6e6a83aff475a663500eb7609826040518082815260200191505060405180910390a15050505050565b6120a9828261188f565b6120fe576040517f08c379a00000000000000000000000000000000000000000000000000000000081526004018080602001828103825260218152602001806123c96021913960400191505060405180910390fd5b60008260000160008373ffffffffffffffffffffffffffffffffffffffff1673ffffffffffffffffffffffffffffffffffffffff16815260200190815260200160002060006101000a81548160ff0219169083151502179055505050565b612166828261188f565b156121d9576040517f08c379a000000000000000000000000000000000000000000000000000000000815260040180806020018281038252601f8152602001807f526f6c65733a206163636f756e7420616c72656164792068617320726f6c650081525060200191505060405180910390fd5b60018260000160008373ffffffffffffffffffffffffffffffffffffffff1673ffffffffffffffffffffffffffffffffffffffff16815260200190815260200160002060006101000a81548160ff0219169083151502179055505050565b6040518060800160405280600081526020016000815260200160008152602001600073ffffffffffffffffffffffffffffffffffffffff1681525090565b60405180610100016040528060608152602001600081526020016000600181111561229c57fe5b8152602001600073ffffffffffffffffffffffffffffffffffffffff168152602001600073ffffffffffffffffffffffffffffffffffffffff16815260200160008152602001600081526020016000151581525090565b828054600181600116156101000203166002900490600052602060002090601f016020900481019282601f1061233457805160ff1916838001178555612362565b82800160010185558215612362579182015b82811115612361578251825591602001919060010190612346565b5b50905061236f9190612373565b5090565b61239591905b80821115612391576000816000905550600101612379565b5090565b9056fe506175736572526f6c653a2063616c6c657220646f6573206e6f742068617665207468652050617573657220726f6c65526f6c65733a206163636f756e7420646f6573206e6f74206861766520726f6c65526f6c65733a206163636f756e7420697320746865207a65726f2061646472657373a165627a7a723058206b35313e60147022cf4f6aaa90566a679aba17cad563df320ec30654e44c09030029526f6c65733a206163636f756e7420697320746865207a65726f2061646472657373",
  "source": "pragma solidity ^0.5.0;\r\n\r\n/// Import main chains contracts\r\nimport \"./Product.sol\";\r\n//import \"./ProductDesign.sol\";\r\n\r\n/// Import Main Roles contract `Rolable.sol`\r\nimport \"./AccessControl/Rolable.sol\";\r\n\r\n/// Import Pausable contract from OpenZeppelin library\r\nimport \"./openzeppelin/contracts/lifecycle/Pausable.sol\";\r\n\r\n/// @title Supply Chain Contract\r\ncontract SupplyChain is Rolable, Pausable, Product {\r\n    address payable public taxCollector = 0xaC9cEF7d952a26b75777aB191213073cdB987Adb;//ACount3;\r\n    constructor() public {\r\n\r\n    }\r\n\r\n    function manufacturProductsLoud(uint _price, uint _tax, string memory _name)\r\n        public\r\n        //onlyManufacturer()\r\n    {\r\n        super.manufacturProductsLoud(_price, _tax, _name);\r\n    }\r\n    \r\n    function updateTaxHistory(uint _pID, uint _paidTax)\r\n        public\r\n        //onlyManufacturer()\r\n    {\r\n        super.updateTaxHistory( _pID, _paidTax);\r\n    }\r\n    \r\n\r\n    /// Function helps manufacturer to Pack a isManufactured Product Loud\r\n    function purchaseProduct (uint _pID)\r\n        public\r\n        payable\r\n        //onlyBuyer()\r\n        whenNotPaused()\r\n    {\r\n        uint price = pItems[_pID].price;\r\n        address payable sellerId = pItems[_pID].currentOwnerId;\r\n\r\n        //address payable retailerId = address(uint160(pItems[_pID].sellerId));\r\n        //uint retialerBounty = (price*5) /100;\r\n        uint lastTax = pItems[_pID].taxHistory[pItems[_pID].taxUpdateCounter-1].lastPaidTax ; \r\n        uint taxBounty = (price*9) /100 - lastTax ; \r\n\r\n        require(msg.value >= price+(price*9) /100, \"Not Enough!\");\r\n        uint amountToReturn = msg.value - (price + lastTax + taxBounty);\r\n        if (amountToReturn != 0)\r\n            address(msg.sender).transfer(amountToReturn);\r\n\r\n        super.purchaseProduct(_pID);\r\n        updateTaxHistory(_pID,taxBounty);\r\n        sellerId.transfer(price + lastTax);\r\n        taxCollector.transfer(taxBounty);\r\n    }\r\n\r\n}\r\n",
  "sourcePath": "E:\\document\\blockchain\\myprojects\\simplevat\\contracts\\SupplyChain.sol",
  "compiler": {
    "name": "solc",
    "version": "0.5.8+commit.23d335f2.Emscripten.clang"
  },
  "schemaVersion": "3.0.16",
  "updatedAt": "2019-10-05T05:17:31.361Z",
  "devdoc": {
    "methods": {
      "amIBuyer()": {
        "return": "boolean for caller address state in `_Buyers` Role"
      },
      "amIManufacturer()": {
        "return": "boolean for caller address state in `_manufacturers` Role"
      },
      "pause()": {
        "details": "Called by a pauser to pause, triggers stopped state."
      },
      "paused()": {
        "details": "Returns true if the contract is paused, and false otherwise."
      },
      "unpause()": {
        "details": "Called by a pauser to unpause, returns to normal state."
      },
      "whoAmI()": {
        "return": "array contining every role with its state as boolean"
      }
    },
    "title": "Supply Chain Contract"
  },
  "userdoc": {
    "methods": {
      "assignMeAsBuyer()": {
        "notice": "Function to assign caller `msg.sender` to Buyer role"
      },
      "assignMeAsManufacturer()": {
        "notice": "Function to assign caller `msg.sender` to manufacturer role"
      },
      "isBuyer(address)": {
        "notice": "uses'Roles' library's internal function `has()` to check, refer to library for more detail"
      },
      "isManufacturer(address)": {
        "notice": "uses'Roles' library's internal function `has()` to check, refer to library for more detail"
      },
      "purchaseProduct(uint256)": {
        "notice": "Function helps manufacturer to Pack a isManufactured Product Loud"
      },
      "renounceMeFromBuyer()": {
        "notice": "Function to renounce caller `msg.sender` from Buyer role"
      },
      "renounceMeFromManufacturer()": {
        "notice": "Function to renounce caller `msg.sender` from manufacturer role"
      }
    }
  }
}